:100000000C943D000C9465000C9465000C94A401C4
:100010000C9465000C94FB010C9465000C94650035
:100020000C9465000C9465000C9465000C946700BA
:100030000C9402010C9465000C9465000C9465000E
:100040000C9422040C9465000C9413120C9465001B
:100050000C9426120C9465000C9465000C946500B9
:100060000C9465000C9465004613511363138B13B5
:10007000E513E513051476187A1811241FBECFEF87
:10008000D8E0DEBFCDBF12E0A0E0B1E0ECE9F5E3DF
:1000900002C005900D92AC30B107D9F715E0ACE085
:1000A000B2E001C01D92A43BB107E1F710E0C8E740
:1000B000D0E004C02297FE010E94A218C637D107E3
:1000C000C9F70E9451170C94C11A0C9400001F929A
:1000D0000F920FB60F9211242F933F938F939F93FC
:1000E0008091840490918504892B49F081E080936C
:1000F000A20481E090E090938B0080938A0080912D
:10010000840490918504469690937B0480937A04AE
:1001100080917A0490917B04209186043091870429
:10012000820F931F089690937D0480937C048091A6
:100130007C0490917D042091880430918904820F81
:10014000931F089690937F0480937E0480917E0491
:1001500090917F0420918A0430918B04820F931F29
:1001600008969093810480938004809180049091FC
:10017000810420918C0430918D04820F931F089686
:100180009093830480938204809179048F5F80939D
:10019000790480910C0290910D02029751F18091A7
:1001A000780491E0980F90937804843010F182E005
:1001B00090E090930D0280930C02109277041092BD
:1001C000760488EB9BE0909385048093840428EE6A
:1001D00033E03093870420938604909389048093BE
:1001E000880490938B0480938A0490938D04809369
:1001F0008C049F918F913F912F910F900FBE0F9084
:100200001F9018951F920F920FB60F9211242F93E3
:100210003F938F939F93EF93FF938091A2041816BF
:100220000CF087C08091A2048630BCF0E091A2045B
:100230002BB1FF27E7FDF095EC5FFE4F81E090E0EA
:10024000008002C0880F991F0A94E2F7809590956C
:1002500030E0822393238BB91AC08091A2048230AC
:10026000B4F0E091A20428B1FF27E7FDF095EC5F20
:10027000FE4F81E090E0008002C0880F991F0A9431
:10028000E2F78095909530E08223932388B980919E
:10029000A20486300CF043C0E091A204EE0FFF0BE5
:1002A000EE57FB4F80819181892B99F1E091A20457
:1002B000EE0FFF0BE858FB4F8081918190938B00EC
:1002C00080938A008091A204E091A20485308CF48E
:1002D00028B1FF27E7FDF095EB5FFE4F81E090E04E
:1002E000008002C0880F991F0A94E2F7822B88B918
:1002F00010C02BB1FF27E7FDF095EB5FFE4F81E0CB
:1003000090E0008002C0880F991F0A94E2F7822BC8
:100310008BB98091A2048F5F8093A2040AC0809160
:1003200084049091850490938B0080938A001092AE
:10033000A204FF91EF919F918F913F912F910F9088
:100340000FBE0F901F9018951F920F920FB60F922D
:1003500011242F933F934F935F936F937F938F93CA
:100360009F93AF93BF93EF93FF93189B09C086B5FC
:1003700090E09093750480937404109273042AC0E3
:1003800066B520917404309175048091730470E017
:10039000621B730B61507F4F90E001974FEF489FB6
:1003A0009001499F300D1124620F731F660F771F54
:1003B000660F771F80E090E00E94A81920E030E0EF
:1003C0004AE754E40E940F19AB01BC018EE092E0B1
:1003D0000E948810FF91EF91BF91AF919F918F91F3
:1003E0007F916F915F914F913F912F910F900FBE31
:1003F0000F901F9018951F920F920FB60F92112415
:100400002F933F934F935F936F937F938F939F931C
:10041000AF93BF93EF93FF9329B1809100012827F9
:1004200089B1809300011092780422FF5FC04A9B3B
:1004300009C0809184009091850090938F048093EF
:100440008E0454C04A9952C08091840090918500D6
:1004500040918E0450918F04E0918400F0918500CA
:1004600060918E0470918F04E617F70770F4609125
:10047000840070918500809188009091890040915E
:100480008E0450918F04860F971F841B950BA0E05C
:10049000B0E0AC01BD014150510961097109433916
:1004A00051416105710510F540910C0250910D020A
:1004B000452BE1F440918404509185044A325B401D
:1004C00008F47CC1409184045091850445385B4018
:1004D00008F074C1AC01BD014A525B406109710969
:1004E0004B3551056105710508F068C123FF53C004
:1004F0004B9B09C08091840090918500909391045A
:100500008093900448C04B9946C08091840090919C
:1005100085004091900450919104E0918400F09105
:1005200085006091900470919104E617F70770F4CC
:10053000609184007091850080918800909189007D
:100540004091900450919104860F971F841B950B46
:10055000A0E0B0E0AC01BD01415051096109710951
:100560004339514161057105B0F440910C0250913D
:100570000D02452B81F44091860450918704840F2D
:10058000951FA11DB11DB595A7959795879590933A
:1005900087048093860424FF59C04C9B09C0809136
:1005A00084009091850090939304809392044EC0B0
:1005B0004C994CC0809184009091850040919204A8
:1005C00050919304E0918400F09185006091920431
:1005D00070919304E617F70770F4609184007091AE
:1005E00085008091880090918900409192045091FB
:1005F0009304860F971F841B950BA0E0B0E0AC011D
:10060000BD014150510961097109433951416105E9
:100610007105E0F440918804509189044A325A40AF
:1006200008F4DDC040918804509189044F385A4045
:1006300008F0D5C0AC01BD014A525A4061097109A8
:10064000453651056105710508F0C9C025FF59C03F
:100650004D9B09C0809184009091850090939504F2
:10066000809394044EC04D994CC080918400909129
:1006700085004091940450919504E0918400F0919C
:1006800085006091940470919504E617F70770F463
:10069000609184007091850080918800909189001C
:1006A0004091940450919504860F971F841B950BDD
:1006B000A0E0B0E0AC01BD014150510961097109F0
:1006C0004339514161057105E0F440918A0450912C
:1006D0008B044C325B4008F493C040918A045091E3
:1006E0008B0441395B4008F08BC0AC01BD014C521A
:1006F0005B4061097109453651056105710508F0D6
:100700007FC026FF8EC04E9B09C0809184009091CF
:100710008500909397048093960483C04E9981C07E
:1007200080918400909185002091960430919704E7
:1007300060918400709185004091960450919704D7
:100740006417750770F44091840050918500809182
:100750008800909189002091960430919704840F2D
:10076000951F821B930BA0E0B0E0AC01BD0141508E
:10077000510961097109433951416105710508F059
:1007800050C020910C0230910D02232B91F4209146
:100790008C0430918D04AC01BD01420F531F611DCB
:1007A000711D759567955795479550938D044093A6
:1007B0008C04909377048093760433C04091840432
:1007C00050918504840F951FA11DB11DB595A79566
:1007D00097958795909385048093840487CE409164
:1007E000880450918904840F951FA11DB11DB595F2
:1007F000A79597958795909389048093880426CF31
:1008000040918A0450918B04840F951FA11DB11D46
:10081000B595A7959795879590938B0480938A04B7
:1008200070CFFF91EF91BF91AF919F918F917F9189
:100830006F915F914F913F912F910F900FBE0F904D
:100840001F9018951F920F920FB60F9211248F933D
:100850009F93809173048F5F8093730480916D04E4
:1008600090916E04019690936E0480936D04809134
:100870006B0490916C04019690936C0480936B04CC
:100880009F918F910F900FBE0F901F901895FC01B4
:1008900040E050EC69E774EC408F518F628F738FAA
:1008A000448F558F668F778F40A351A362A373A3A4
:1008B00044A355A366A377A30895FC0140E050EC40
:1008C00069E774EC408F518F628F738F448F558F1F
:1008D000668F778F40A351A362A373A344A355A34C
:1008E00066A377A344A755A766A777A717821682A2
:1008F0000895CF92DF92EF92FF920F931F93CF93C1
:10090000DF93EC0186B500916B0410916C0490E0CC
:1009100028813981821B930BBC0161507F4F80E09D
:1009200090E00E94A8192DEB37E346E856E30E94B9
:100930005E1A6B017C01B80180E090E00E94A8196A
:1009400025E831EB45E85AE30E945E1A9B01AC01B1
:10095000C701B6010E94A7186A837B838C839D839D
:10096000DF91CF911F910F91FF90EF90DF90CF908B
:1009700008952F923F924F925F926F927F928F9243
:100980009F92AF92BF92CF92DF92EF92FF920F931E
:100990001F93CF93DF93CDB7DEB728970FB6F894A8
:1009A000DEBF0FBECDBF1C014D835E836F83788792
:1009B000890120E030EC49E754ECDC0158966D9158
:1009C0007D918D919C915B970E940B19F801828C0F
:1009D000938CA48CB58C811107C0D10158968D924F
:1009E0009D92AD92BC925B9720E030EC49E754ECCD
:1009F000F10164A575A586A597A50E940B19811123
:100A000007C0D1019C961D921D921D921C929F972A
:100A10000091860410918704A50194016D817E8167
:100A20008F8198850E94A6186B017C01F101648B6F
:100A3000758B868B978B4280538064807580A30171
:100A4000920166E676E686E990E40E940F196983D2
:100A50007A838B839C83D1011C966D937D938D93B8
:100A60009C931F97F101408A518A628A738A208D74
:100A7000318D428D538DC501B4010E94A6184B01E2
:100A80005C01D10198966D937D938D939C939B9778
:100A9000A7019601C301B2010E945E1AF10124A5CB
:100AA00035A546A557A50E94A7182B013C012DECA2
:100AB0003CEC4CE45DEBC701B6010E945A1A1816D3
:100AC00094F42DEC3CEC4CE45DE3C701B6010E94CC
:100AD0000B1987FF08C0D1019C961D921D921D9293
:100AE0001C929F972AC020E030E040E85FE3C301FA
:100AF000B2010E945A1A18162CF480E090E0A0E887
:100B0000BFE316C020E030E040E85FEBC301B20174
:100B10000E940B1987FD08C0D1019C964D925D92F1
:100B20006D927C929F9709C080E090E0A0E8BFEBB7
:100B3000F10184A795A7A6A7B7A72CEB34E743E15B
:100B40005CE3C501B4010E940B1987FF11C02FE6B9
:100B500032E143E85BEBC501B4010E945A1A181652
:100B60003CF4D10198961D921D921D921C929B9768
:100B70002DEC3CEC4CE45DEBC701B6010E945A1A27
:100B8000181614F5F10180A491A4A2A4B3A420E046
:100B900030E0A901C501B4010E940B1987FF14C000
:100BA00020E030E040E450E4C501B4010E945E1A48
:100BB000D10198966D937D938D939C939B97F101B2
:100BC00014A615A616A617A6D10198968D909D90ED
:100BD000AD90BC909B9723E333E343E35FE3C7010E
:100BE000B6010E945E1A2B013C01A50194016981A6
:100BF0007A818B819C810E945E1A9B01AC01C301AA
:100C0000B2010E94A618F10124A535A546A557A555
:100C10000E94A7182B013C012DEC3CEC4CE45DE359
:100C2000C701B6010E940B1987FD08C0D1011896B3
:100C30004D925D926D927C921B9713C02DEC3CEC13
:100C40004CE45DE3C301B2010E945A1A181674F70E
:100C500080E090E0A0E8BFEBF10180879187A28758
:100C6000B387D10118964D905D906D907C901B9745
:100C700020E030E040E151E4C301B2010E945A1A81
:100C80001816C4F420E030E0A901C501B4010E94A7
:100C90000B1987FF0FC02FE832EC45EF5CEBC70163
:100CA000B6010E945A1A18162CF480E090E0A0E1D8
:100CB000B1E44FC020E030E040E450E4C301B201B1
:100CC0000E945A1A18162CF480E090E0A0E4B0E4D8
:100CD00040C02DEC3CEC4CEC5DE3C301B2010E9442
:100CE0005A1A18167CF420E030E040E85FE3C301B4
:100CF000B2010E940B1918162CF080E090E0A0E8D9
:100D0000BFE327C020E030E040E050ECC301B20177
:100D10000E940B1987FF05C080E090E0A0E0B0ECD6
:100D200018C02AE037ED43EA5CEBC301B2010E9430
:100D30000B1918169CF020E030E040E85FEBC3018F
:100D4000B2010E945A1A18164CF480E090E0A0E814
:100D5000BFEBF10180879187A287B387B80180E05C
:100D600090E00E94A819D10118962D913D914D91C6
:100D70005C911B970E94A7180E947C198B012DEC97
:100D80003CEC4CE45DEBC701B6010E945A1A181600
:100D90002CF40C3DBAE01B0708F461C020E030E001
:100DA000A901C701B6010E945A1A20E030E0A9014A
:100DB000181664F4C501B4010E940B1987FF0CC01A
:100DC0000633EBE01E0708F44DC00BC0C701B601A7
:100DD0000E945A1A18162CF40C32FBE01F0708F474
:100DE00044C02AE939E949E95EE36D817E818F815A
:100DF00098850E940B1987FF04C0003689E0180708
:100E000060F007329BE0190758F098010738ABE013
:100E10001A0740F026E83BE005C020E639E002C0B2
:100E200027E23BE0309387042093860428960FB690
:100E3000F894DEBF0FBECDBFDF91CF911F910F9110
:100E4000FF90EF90DF90CF90BF90AF909F908F90EA
:100E50007F906F905F904F903F902F9008950CED92
:100E60001AE0CFCF06E31BE0CCCF0CE21BE0C9CFEA
:100E70002F923F924F925F926F927F928F929F92AA
:100E8000AF92BF92CF92DF92EF92FF920F931F9398
:100E9000CF93DF9300D000D0CDB7DEB71C014A015D
:100EA0005B01890120E030EC49E754ECFC0160A1D2
:100EB00071A182A193A10E940B19F80142A053A035
:100EC00064A075A0811105C0F10140A251A262A2E7
:100ED00073A2F10122813381448155816AE077ED6B
:100EE00083E29CE30E940F196B017C01F10164878E
:100EF0007587868797870091880410918904A501DA
:100F00009401C301B2010E94A6184B015C01F101DA
:100F1000648B758B868B978B20A131A142A153A145
:100F2000C301B2010E94A6182B013C01F10160A788
:100F300071A782A793A7B80180E090E00E94A8194A
:100F400069837A838B839C8323E333E343E35FE307
:100F5000C501B4010E945E1A9B01AC0169817A81CE
:100F60008B819C810E94A7184B015C01A301920117
:100F7000C701B6010E945E1A9B01AC01C501B40114
:100F80000E94A6180E947C19643CF9E07F0738F0A3
:100F900065352BE0720728F064E57BE002C064EC65
:100FA00079E070938904609388040F900F900F90FC
:100FB0000F90DF91CF911F910F91FF90EF90DF90F5
:100FC000CF90BF90AF909F908F907F906F905F90E9
:100FD0004F903F902F9008952F923F924F925F92A3
:100FE0006F927F928F929F92AF92BF92CF92DF9239
:100FF000EF92FF920F931F93CF93DF9300D000D017
:10100000CDB7DEB71C014A015B01890120E030EC5D
:1010100049E754ECFC01648D758D868D978D0E9497
:101020000B19F801468C578C60A071A0811105C086
:10103000F101448E558E668E778EF10122813381C7
:10104000448155816AE077ED83E29CE30E940F19A9
:101050006B017C01F1016487758786879787009112
:101060008A0410918B04A5019401C301B2010E946E
:10107000A6184B015C01F101648B758B868B978BF5
:10108000248D358D468D578DC301B2010E94A6185F
:101090002B013C01F10160A771A782A793A7B801BA
:1010A00080E090E00E94A81969837A838B839C83F7
:1010B00023E333E343E35FE3C501B4010E945E1A17
:1010C0009B01AC0169817A818B819C810E94A71868
:1010D0004B015C01A3019201C701B6010E945E1A97
:1010E0009B01AC01C501B4010E94A6180E947C19A5
:1010F000623DFAE07F0738F063362CE0720728F093
:1011000062E67CE002C062ED7AE070938B0460934B
:101110008A040F900F900F900F90DF91CF911F9145
:101120000F91FF90EF90DF90CF90BF90AF909F9086
:101130008F907F906F905F904F903F902F90089589
:101140002F923F924F925F926F927F928F929F92D7
:10115000AF92BF92CF92DF92EF92FF920F931F93C5
:10116000CF93DF9300D000D0CDB7DEB71C016A016A
:101170007B01890120E030EC49E754ECFC0164A1DB
:1011800075A186A197A10E940B19F80146A057A04E
:1011900060A471A4811105C0F10144A255A266A208
:1011A00077A2F101228133814481558160E070E0B2
:1011B000CB010E940F194B015C01F1016487758717
:1011C000868797870091840410918504A701960172
:1011D000C301B2010E94A6186B017C01F101648B6E
:1011E000758B868B978B24A135A146A157A1C3018E
:1011F000B2010E94A6182B013C01F10160A771A762
:1012000082A793A72DEC3CEC4CE45DE3C701B6014B
:101210000E945E1A69837A838B839C83A301920167
:10122000C501B4010E945E1A9B01AC0169817A81FB
:101230008B819C810E94A6184B015C0120E030E06C
:1012400040E85FE30E945A1A18162CF480E090E000
:10125000A0E8BFE314C020E030E040E85FEBC50148
:10126000B4010E940B1987FD06C0F10180869186AA
:10127000A286B38609C080E090E0A0E8BFEBF10150
:1012800080879187A287B387B80180E090E00E94B1
:10129000A819F10120853185428553850E94A71840
:1012A0000E947C198B0120E030E040E251E4C7014C
:1012B000B6010E945A1A181654F420E030E040E2B9
:1012C00051ECC701B6010E940B1987FD05C004351A
:1012D000FBE01F0758F002C002E71BE0B801093B22
:1012E0008BE0180728F068EB7BE002C064E57BE048
:1012F00070938504609384040F900F900F900F906B
:10130000DF91CF911F910F91FF90EF90DF90CF90E1
:10131000BF90AF909F908F907F906F905F904F9015
:101320003F902F9008950895FC01DB015A964D914E
:101330005D916D917C915D97408F518F628F738F1E
:1013400092964D915D916D917C91959740A351A39B
:1013500062A373A35E964D915D916D917C9191977F
:10136000448F558F668F778F96964D915D916D91D5
:101370007C91999744A355A366A377A386B590E083
:101380009183808310926C0410926B0408951092E4
:10139000B90080E28093B80084E08093BC00089597
:1013A00084EA8093BC0080E08F5F893229F09091BD
:1013B000BC0097FFF9CF02C088EC08958832E0F7AF
:1013C0008091B900887F089584E98093BC00809162
:1013D000B900887F08958093BB0084E88093BC00A7
:1013E0008091BC0087FFFCCF8091B900887F089571
:1013F00084EC8093BC008091BC0087FFFCCF80917F
:10140000BB00089584E88093BC008091BC0087FFF6
:10141000FCCF8091BB000895CF93DF93EC018259FC
:101420009F4F0E944704CE0182569F4F0E94351263
:10143000CE018F509F4F0E94CA1085E08883198289
:101440001B821A821C821D821E821F8218861986A8
:101450001A861B861C861D861E861F86188A198A78
:101460001A8A1B8A81E090E09D8B8C8B40E050E0D3
:1014700060E07FE34E8B5F8B688F798F1A8E1B8EB7
:101480001C8E1D8E1E8E1F8E18A219A21AA21BA2C0
:101490001CA21DA2FE01E45AFF4F91838083FE012E
:1014A000E25AFF4F4083518362837383FE01EE59FA
:1014B000FF4F1082118212821382FE01EA59FF4F00
:1014C0001082118212821382FE01E659FF4F1082B0
:1014D00011821282138283E090E09FA38EA348A71B
:1014E00059A76AA77BA71CA61DA61EA61FA618AAF9
:1014F00019AA1AAA1BAA40E050E060EA71E44CABBA
:101500005DAB6EAB7FAB82E090E099AF88AF1AAE77
:101510001BAE1CAE1DAEFE01FE9610821182128221
:101520001382FE01EE5BFF4F108211821282138242
:10153000FE01EA5BFF4F1082118212821382FE01CC
:10154000E65BFF4F85E090E091838083FE01E45BE2
:10155000FF4F1082118212821382FE01E05BFF4F67
:101560001082118212821382FE01EC5AFF4F108208
:10157000118212821382FE01E85AFF4F10821182FB
:1015800012821382FE01EE50FF4F1082FE01ED50D9
:10159000FF4F1082FE01EB50FF4F1082FE01EA5018
:1015A000FF4F1082FE01E950FF4F1082FE01E05F05
:1015B000FE4F1082118212821382FE01EC5EFE4FFA
:1015C0001082118212821382FE01E85EFE4F1082A9
:1015D000118212821382FE01EC5FFE4F1082118293
:1015E00012821382FE01E85FFE4F10821182128286
:1015F0001382FE01E850FF4F1082FE01E750FF4FBB
:101600001082FE01E650FF4F11821082FE01E45F5E
:10161000FE4F1082118212821382FE01E450FF4FAE
:1016200011821082FE01E250FF4F11821082FE01F2
:10163000F39511821082CE5FDE4F19821882DF91FE
:10164000CF910895CF93DF93EC018F509F4F0E946D
:101650009711FE01E25CFD4F882319F081E0808341
:1016600001C01082CE0182599F4F0E945D04FE018D
:10167000E95BFD4F40E050EC69E774EC4083518337
:1016800062837383FE01E55BFD4F89E19CEF9183EB
:101690008083CF5ADD4F40E05CE36CE176EC488319
:1016A00059836A837B83DF91CF9108954F925F9234
:1016B0006F927F92AF92BF92CF92DF92EF92FF92A2
:1016C0000F931F93CF93DF93EC01FC01E25CFD4F7E
:1016D000808181114DC0CE018F509F4F0E94F1102B
:1016E0006B017C015E0124EFA21A2EEFB20AF50114
:1016F00040805180628073802DEC3CEC4CE850E4DB
:10170000C301B2010E945A1A181694F520E030EC79
:1017100049E754ECC701B6010E940B19882341F137
:101720008E010D5B1D4F20E030E0A901F8016081C2
:101730007181828193810E940B1981110BC0A301D9
:101740009201C701B6010E94A618F8016083718357
:1017500082839383F8012081318142815381C701C3
:10176000B6010E94A618F50160837183828393837A
:101770005E01F9EBAF1AFDEFBF0A20E030EC49E75C
:1017800054ECF50160817181828193810E940B1973
:10179000811115C0FE01E85EFE4FC080D180E2805D
:1017A000F38020E030E0A901C701B6010E940B19C7
:1017B000882329F0F501C082D182E282F3828E0172
:1017C00002591F4FC8010E94790480918A049091A8
:1017D0008B048C329B4040F080918A0490918B0462
:1017E00081399B4008F441C080918804909189041C
:1017F0008A329A4038F080918804909189048F3819
:101800009A40E8F1F501C080D180E280F38020E0C9
:1018100030EC49E754ECC701B6010E940B1988234C
:10182000C1F180918404909185048A329B4088F1B3
:10183000809184049091850485389B4050F59E01E9
:101840002E503F4FB701A601C801DF91CF911F91E4
:101850000F91FF90EF90DF90CF90BF90AF907F906F
:101860006F905F904F900C94A0089E012E503F4FB8
:1018700040E050E0BA01C8010E94EC07B5CF9E01DC
:101880002E503F4F40E050E0BA01C8010E94380797
:10189000B9CFDF91CF911F910F91FF90EF90DF9023
:1018A000CF90BF90AF907F906F905F904F900895D2
:1018B0008F929F92AF92BF92CF92DF92EF92FF9260
:1018C0000F931F93CF93DF93EC016A017B014801D3
:1018D00059012FE632E143E85AE3C501B4010E9401
:1018E0005A1A181674F02FE632E143E85AE3C5019C
:1018F000B4010E940B1987FD0DC0812C912C54015D
:1019000011C03DEC832E3CEC932E3CE4A32E3DE332
:10191000B32E08C02DEC822E2CEC922E2CE4A22E9D
:101920002DEBB22E2FE632E143E85AE3C701B601B0
:101930000E945A1A181674F02FE632E143E85AE36F
:10194000C701B6010E940B1987FD0DC0C12CD12C17
:10195000760111C09DECC92E9CECD92E9CE4E92E99
:101960009DE3F92E08C08DECC82E8CECD82E8CE4AB
:10197000E82E8DEBF82E8E010E501F4FC259DF4F0F
:101980009801B501A401CE010E94EC079801B701AE
:10199000A601CE01DF91CF911F910F91FF90EF90A3
:1019A000DF90CF90BF90AF909F908F900C943807AE
:1019B0002F923F924F925F926F927F928F929F925F
:1019C000AF92BF92CF92DF92EF92FF920F931F934D
:1019D000CF93DF93CDB7DEB72C970FB6F894DEBF69
:1019E0000FBECDBF1C019C01295B3D4F3C872B875F
:1019F00020E030EC49E754ECAB85BC856D917D91DE
:101A00008D919C910E940B1981110DC0F101E85E2E
:101A1000FE4F80819181A281B381EB85FC8580831B
:101A20009183A283B383F101E25CFD4F8081811138
:101A30004FC0C1018F509F4F0E94F1106B017C017C
:101A40005101F4EFAF1AFEEFBF0AD5014D905D9042
:101A50006D907C902DEC3CEC4CE850E4C301B2015D
:101A60000E945A1A1816A4F520E030EC49E754EC0D
:101A7000C701B6010E940B19882351F181010D5B4A
:101A80001D4F20E030E0A901F80160817181828161
:101A900093810E940B1981110CC0A3019201C7010F
:101AA000B6010E94A618D8016D937D938D939C93E7
:101AB0001397F8012081318142815381C701B6011A
:101AC0000E94A618D5016D937D938D939C931397D7
:101AD000F101E259FF4FFA83E983CF010E947904B3
:101AE000D1011196BC91BD839101E2E1BE9F200D11
:101AF000311D11242E5F3F4FD9011296CD90DD90FC
:101B0000ED90FC90159716968D919D910D90BC913E
:101B1000A02D8F839887A987BA87F90142845384BF
:101B20006484758486849784A088B188808191813B
:101B300091012E503F4F3C832B838230910509F455
:101B4000BCC12CF4009799F00197D9F0A6C284305B
:101B5000910509F4D3C00CF476C0059709F09DC235
:101B600080ED97E0909387048093860496C284E585
:101B70009BE090938704809386048D818F5FD101D1
:101B80005FC02B813C81B701A60189819A810E94A7
:101B9000B9042B813C8140E050E0BA0189819A81EF
:101BA0000E94EC072B813C8140E050E0BA01898122
:101BB0009A810E943807EB85FC8580809180A28005
:101BC000B38020E030EC49E754ECC501B4010E9439
:101BD0000B19882341F02B813C81B501A401898137
:101BE0009A810E94A008F101E45FFE4F80809180FD
:101BF000A280B38029E23CE54FE85DE3C701B6016E
:101C00000E94A6189B01AC01C501B4010E945A1A9A
:101C100018160CF042C229E23CE54FE85DE3C7012B
:101C2000B6010E94A7189B01AC01C501B4010E9436
:101C30000B1987FF32C2D10111968C9111978F5FDA
:101C400011968C932AC2F101E55BFD4FF887EF8373
:101C50008081918197FF08C086B590E09183808351
:101C600010926E0410926D0446B500916D041091AF
:101C70006E048FEF90E0AF81B8852D913C91821B6F
:101C8000930B840F911DBC0180E090E00E94A81985
:101C90002DEB37E346E856E30E945E1A2B013C0128
:101CA000B80180E090E00E94A81925E831EB45E8F2
:101CB0005AE30E945E1A9B01AC01C301B2010E946B
:101CC000A718F101E35BFD4F6083718382839383E7
:101CD000A50194010E945A1A87FDBEC189E19CEFBB
:101CE000EF81F8859183808310926E0410926D04C9
:101CF0008D818F5FD10111968C93AEC1F101E850B7
:101D0000FF4F8081853098F181010B5A1D4FF10101
:101D1000E85FFE4F20813181428153816F81788558
:101D200089859A850E94A618F80160837183828351
:101D300093838101075A1D4FF101EC5FFE4F208113
:101D4000318142815381C301B2010E94A618D8019A
:101D50006D937D938D939C931397930182014F8193
:101D6000588569857A85C1010E94580C12C02B8163
:101D70003C8140E050E0BA0189819A810E94EC07E1
:101D80002B813C8140E050E0BA0189819A810E9418
:101D900038072B813C81B701A60189819A810E9475
:101DA000B904F101E75AFD4FC080D180E280F38091
:101DB0002AE037ED43E25CE3C701B6010E940B194C
:101DC00087FF6BC12AE037ED43E25CEBC701B60148
:101DD0000E945A1A18160CF060C1F101EB5AFD4F1F
:101DE000C080D180E280F3802AE037ED43E25CE3FB
:101DF000C701B6010E940B1987FF4FC12AE037EDDA
:101E000043E25CEBC701B6010E945A1A18160CF0A7
:101E100044C13101B5EB6B1ABDEF7B0AF301808140
:101E2000918197FF08C086B590E0918380831092DE
:101E30006E0410926D0426B500916D0410916E042D
:101E40006FEF70E0D3018D919C91681B790B620F4D
:101E5000711D80E090E00E94A8192DEB37E346E861
:101E600056E30E945E1A6B017C01B80180E090E0AD
:101E70000E94A81925E831EB45E85AE30E945E1A52
:101E80009B01AC01C701B6010E94A718F101E35BF9
:101E9000FD4F6083718382839383A50194010E9427
:101EA0005A1A87FDFAC089E19CEFF3019183808380
:101EB00010926E0410926D04BECEF101EF5AFD4FE8
:101EC000F887EF8320E03CE34CE156EC60817181C0
:101ED000828193810E940B199101245F3E4F8111F1
:101EE0000BC0F90180819181A281B381EF81F885D6
:101EF00080839183A283B383D901CD90DD90ED904F
:101F0000FC90EF81F88580809180A280B380A5014C
:101F10009401C701B6010E94A6182B013C012DECCB
:101F20003CEC4CEC5DE30E940B1987FF86C02DEC66
:101F30003CEC4CEC5DEBC301B2010E945A1A18163E
:101F40000CF07BC08101055B1D4FD8018D919C91E8
:101F5000119797FF08C086B590E08D939C931092DF
:101F60006E0410926D0446B5E0916D04F0916E041C
:101F7000FE83ED838FEF90E0D8012D913C91821B81
:101F8000930B840F911DBC0180E090E00E94A81982
:101F90002DEB37E346E856E30E945E1A2B013C0125
:101FA000ED81FE81BF0180E090E00E94A81925E844
:101FB00031EB45E85AE30E945E1A9B01AC01C30174
:101FC000B2010E94A718F101E35BFD4F60837183AA
:101FD0008283938320E030E040E450E40E945A1A68
:101FE00087FD2BC089E19CEFD8018D939C931092C3
:101FF0006E0410926D0420E030E0A901C501B40127
:102000000E945A1A18167CF42DEC3CEC4CE45EE36A
:10201000C701B6010E94A618EF81F885608371831D
:10202000828393830AC080E09CE3ACE1B6ECEF814D
:10203000F88580839183A283B383AF81B885CD90E7
:10204000DD90ED90FC9020E030E0A901C701B601E1
:102050000E945A1A18164CF42B813C81B701A60134
:1020600089819A810E94B90406C082E999E090931F
:102070008704809386042B813C8140E050E0BA01C4
:1020800089819A810E94EC072B813C8140E050E0DD
:10209000BA0189819A810E943807B1016E507F4F41
:1020A00089819A810E94940980E02C960FB6F89459
:1020B000DEBF0FBECDBFDF91CF911F910F91FF907B
:1020C000EF90DF90CF90BF90AF909F908F907F90D8
:1020D0006F905F904F903F902F900895BC016E508D
:1020E0007F4F82569F4F0C942214FC01E250FF4F09
:1020F000208131812F30310548F0FC01E850FF4F3D
:1021000081E09081973018F080E0089581E0089593
:102110008F929F92AF92BF92CF92DF92EF92FF92F7
:10212000CF93DF936A017B01EC01C45FDE4F9A011C
:10213000AB01688179818A819B810E94A6184B013D
:102140005C012DEC3CEC4CE45FE30E940B1987FF33
:102150000EC02DEC3CEC4CE45FEBC501B4010E94D9
:102160005A1A181624F4C882D982EA82FB82DF91B7
:10217000CF91FF90EF90DF90CF90BF90AF909F9066
:102180008F9008958D5B9D4FFC0140835183628346
:1021900073830895089560E070E0CB0108951F9364
:1021A000CF93DF931F92CDB7DEB769830E94D0092A
:1021B00080EC0E94EB096981862F0E94EB090E9446
:1021C000E4090E94D00981EC0E94EB090E94020AF6
:1021D000182F0E94E409812F0F90DF91CF911F915A
:1021E0000895CF92DF92EF92FF92CF937C01C5E6E4
:1021F00060E0C7010E94CF1082FD07C0C150C1F747
:1022000060E070EC89E794EC34C00E94D00980EC67
:102210000E94EB0981E00E94EB090E94D00981EC49
:102220000E94EB090E94F809C82ED12CE12CF12C58
:10223000FE2CED2CDC2CCC240E94F809C82AFE2CA4
:10224000ED2CDC2CCC240E94020AC82A0E94E4094E
:10225000C701B60124E096958795779567952A95ED
:10226000D1F70E94A81920E030E040E85DE30E9429
:102270005E1ACF91FF90EF90DF90CF9008951F935B
:10228000CF93DF93EC0115E660E0CE010E94CF1002
:1022900082FD07C01150C1F760E070EC89E794EC53
:1022A00028C00E94D00980EC0E94EB0984E00E94C3
:1022B000EB090E94D00981EC0E94EB090E94F80909
:1022C000682F70E0D62FCC270E94020AC82B0E94EC
:1022D000E409BE0144E0769567954A95E1F780E010
:1022E00090E00E94A81920E030E040E85DE30E9401
:1022F0005E1ADF91CF911F910895CF93DF9300D0A5
:10230000CDB7DEB74A8369830E94D00980EC0E9472
:10231000EB096981862F0E94EB094A81842F0E9474
:10232000EB090F900F90DF91CF910C94E409CF93BC
:10233000DF93EC010E94C7090E94D009883C19F183
:102340000E94E4096CE0CE010E94CF10843CE9F4C5
:1023500040E066E2CE010E947D1148EB66E2CE01CC
:102360000E947D1147E063E1CE010E947D1140E0B3
:102370006DE2CE010E947D1149EB66E2CE010E9422
:102380007D1180E003C081E001C082E0DF91CF9148
:102390000895CF93DF93EC014BEB66E20E947D1131
:1023A00049EB66E2CE01DF91CF910C947D11CF9382
:1023B000C62F9C0140E050E084E0220F331F441FF1
:1023C000551F8A95D1F760E074E284EF90E00E9497
:1023D0007E18215031093093C5002093C4008091AC
:1023E000C2008E608093C2008091C100886180939A
:1023F000C100CC2331F08091C100806C8093C1007A
:102400007894CF9108959091C00095FFFCCF809370
:10241000C6001092A40408958091C00087FFFCCFED
:102420008091C60008951F920F920FB60F9211244B
:102430008F938091C6008093A60481E08093A504C9
:102440008F910F900FBE0F901F9018951F920F92B3
:102450000FB60F9211248F9381E08093A4048F9183
:102460000F900FBE0F901F901895FC0110821182E3
:1024700012821382148215821682178210861186A8
:102480001286138614861586168617860895089573
:1024900080E090E00895BF92CF92DF92EF92FF929A
:1024A0000F931F93CF93DF938B01FB0180810E94D9
:1024B0000312E801C75FDE4F1882F801F1808F2D0B
:1024C0000E940312EF2DFF27E7FDF0958881E82792
:1024D000E55FFE4F80818883F801F2808F2D0E9496
:1024E0000312EF2DFF27E7FDF0958881E827E55FD0
:1024F000FE4F80818883F801F3808F2D0E940312A4
:10250000EF2DFF27E7FDF0958881E827E55FFE4F77
:1025100080818883F801F4808F2D0E940312EF2DB3
:10252000FF27E7FDF0958881E827E55FFE4F808172
:102530008883F801C480D580E680F780CD2CDE2C1E
:10254000EF2CFF248C2D0E940312EC2DFF27E7FDBA
:10255000F0958881E827E55FFE4F80818883F80148
:10256000C480D580E680F7806701EE24FF248C2D9F
:102570000E940312EC2DFF27E7FDF0958881E827E4
:10258000E55FFE4F80818883F801C480D580E680B6
:10259000F780CF2CDD24EE24FF248C2D0E94031223
:1025A000EC2DFF27E7FDF0958881E827E55FFE4FDA
:1025B00080818883F80182819381099760F4888102
:1025C000DF91CF911F910F91FF90EF90DF90CF900F
:1025D000BF900C9403126801FAE0CF0ED11C760173
:1025E0002E2D2C1930E0F80182819381089728174D
:1025F000390728F7F701B1907F018B2D0E94031254
:10260000EB2DFF27E7FDF0958881E827E55FFE4F7A
:1026100080818883E5CFCF93DF93CDB7DEB7CA50F3
:10262000D1400FB6F894DEBF0FBECDBF2CE3298397
:102630004A8328E030E03C832B83FB0144815581B1
:10264000668177814D835E836F837887BE016F5F7C
:102650007F4F0E944B12C65FDE4F0FB6F894DEBF6D
:102660000FBECDBFDF91CF9108950F931F93CF93EE
:10267000DF93EA018091A90490E08730910508F08A
:10268000CBC08C5C9F4FFC010C94A0186C3309F0FC
:10269000C3C081E08093A904688384EB8093A8047D
:1026A000BBC0A091A804A627B0E0A55FBE4F8C9147
:1026B0008093A804862F887F803241F582E0809342
:1026C000A90469839FC0A091A804A627B0E0A55FD4
:1026D000BE4F8C918093A8048091A7048F5F809354
:1026E000A704062F10E0823018F41B830A8394C0DD
:1026F000102F00278A819B81080F191F1B830A83D3
:10270000085011090F3F110521F018F01092A9048B
:1027100083C083E075C0A091A804A627B0E0A55FA0
:10272000BE4F8C918093A8044091A7044F5F4093C3
:10273000A704423091F060F4413009F06DC0062FDB
:1027400010E020E030E00C831D832E833F8364C0C3
:10275000433061F04430F1F05FC0062F10E020E01C
:1027600030E0322F212F102F002707C0062F10E056
:1027700020E030E09801112700278C819D81AE81F7
:10278000BF81800F911FA21FB31F8C839D83AE83D7
:10279000BF8342C0062F10E020E030E0302F222718
:1027A000112700278C819D81AE81BF81800F911FF1
:1027B000A21FB31F8C839D83AE83BF838A819B81BD
:1027C0000897E9F04093A9041DC0A091A804A6278A
:1027D000B0E0A55FBE4F8C918093A8042091A70420
:1027E0002F5F2093A70430E0DA01A20FB31F1996E0
:1027F0006C938A819B8108972817390768F086E0D7
:102800008093A9041092A70407C0DA01A75FBE4F06
:102810006C9387E08093A9048091A904873011F01C
:1028200080E00BC01092A9049091A804DE01A75F7C
:10283000BE4F8C919813F4CF8A81DF91CF911F9175
:102840000F9108952F923F924F925F926F927F92D5
:102850008F929F92AF92BF92CF92DF92EF92FF92B0
:102860000F931F93CF93DF93CDB7DEB729970FB6A2
:10287000F894DEBF0FBECDBF1C014B0100ED17E089
:1028800080E09091A504911104C08F5F833371F0B3
:10289000F8CF823358F46091A6041092A5044AEA56
:1028A00054E0C1010E943513811108C00150110983
:1028B0000115110529F780E090E0DAC28091AE049D
:1028C0009091AF04A091B004B091B104823C2BEF81
:1028D00092072CEEA2072CE6B20709F428C108F0F3
:1028E0004CC08230E9E29E07EEE7AE07EFE2BE079A
:1028F00009F4B9C008F584302AE9920727EDA20748
:102900002EE0B20709F413C138F486319A4AA7437E
:10291000BB4009F40CC1A0C28E3CF8E49F07F7E568
:10292000AF07FAE1BF0709F40DC184379B4EAA47F0
:10293000BB4109F4FCC090C28E3438EC93073CEBE9
:10294000A30730E4B30709F4FDC038F4863E954D83
:10295000AA4DB34309F49FC07FC2823E25E592078A
:102960002CE9A20726E6B20709F46CC28A359B4B14
:10297000A743B74609F477C06FC28A3BE4E89E07D5
:10298000E5E2AE07EEEBBE0709F45CC208F04BC00F
:102990008E3722E192072AE6A2072BE9B20709F453
:1029A000C6C068F58A309148AD42BC4809F054C2AF
:1029B0008091B6049091B704A091B804B091B90485
:1029C000F40186AB97ABA0AFB1AF8091BA04909100
:1029D000BB04A091BC04B091BD0482AF93AFA4AF7F
:1029E000B5AFFE968091BE049091BF04A091C00443
:1029F000B091C10480839183A283B3832DC28630BA
:102A0000FEE09F07FCE3AF07FDEABF0709F469C0DA
:102A10008A38974FA74CB84B09F01EC28091CE045C
:102A2000F401808319C2863935E3930738E0A307A0
:102A300032EDB30709F4CEC138F484359D42AF4F6F
:102A4000B54C09F474C008C2843629ED920720EE13
:102A5000A20727EDB207F9F0863B9342A34AB24E94
:102A600009F470C0F9C1D1011F96EC911F97F0E0F5
:102A7000E655FB4F8285823031F0833041F0811181
:102A8000EBC181E005C083E0F1018087E5C1D101A0
:102A900018968C93E1C18091C6049091C704A091CF
:102AA000C804B091C904F401868F978FA0A3B1A385
:102AB0008091CA049091CB04A091CC04B091CD0434
:102AC00082A393A3A4A3B5A38091CE049091CF0435
:102AD000A091D004B091D10486A397A3A0A7B1A7D9
:102AE000BBC18091B6049091B704A091B804B09195
:102AF000B904F40182A793A7A4A7B5A78091BA044B
:102B00009091BB04A091BC04B091BD0486A797A787
:102B1000A0ABB1AB8091BE049091BF04A091C00462
:102B2000B091C10482AB93ABA4ABB5AB95C180911E
:102B3000B404D40114968C9314978091B50415961F
:102B40008C938AC16101FCE4CF0ED11CD601FC90AC
:102B50008101B4E0FB9E000D111D1124005F1F4F89
:102B60006091B6047091B7048091B8049091B90453
:102B70000E94AA1920E836E948E15BE40E940F1997
:102B8000F8016083718382839383F2E0EF2EEF0C70
:102B9000D601EC92F3948101B4E0FB9E000D111D6F
:102BA00011240C5D1F4F6091BA047091BB04809199
:102BB000BC049091BD040E94AA1920E836E948E1BE
:102BC0005BE40E940F19F801608371838283938311
:102BD000F4E0FE1510F4D6011C92F10125E030E07E
:102BE00080899189A289B38980AF91AFA2AFB3AF39
:102BF0002150310934962115310591F73D822C82FF
:102C000080E0F101E15BFF4FFB83EA8300E010E02D
:102C10008F5F89838981800F853090F5AC81BD817C
:102C2000D8964D905D906D907C90DB975101B4E00B
:102C30008B9FA00CB11C1124F501C0ACD1ACE2AC4F
:102C4000F3ACA7019601C301B2010E945A1A1816EB
:102C5000A4F4AA81BB81CD92DD92ED92FC921397F0
:102C6000F50140AE51AE62AE73AEAC81BD81D89677
:102C7000CD92DD92ED92FC92DB970F5F1F4FCACF92
:102C8000EC81FD813496FD83EC83F981F53011F000
:102C90008F2FBCCF9101225B3F4F3B832A83D90109
:102CA0008C93F101E05CFF4FFD83EC838081918187
:102CB000A281B381F401828B938BA48BB58BF1013C
:102CC00025E030E080899189A289B38980AF91AFF6
:102CD000A2AFB3AF2150310934962115310591F7D8
:102CE0008101B12C9101215B3F4F3F832E831986D7
:102CF0001886B394B9828885F9818F0F853098F54D
:102D0000D801D8964D905D906D907C90DB975101E5
:102D1000B4E08B9FA00CB11C1124F501C0ACD1AC68
:102D2000E2ACF3ACA7019601C301B2010E945A1AAA
:102D300018169CF4AE81BF81CD92DD92ED92FC928B
:102D40001397F50140AE51AE62AE73AED801D8967E
:102D5000CD92DD92ED92FC92DB97E885F985319674
:102D6000F987E887C8CF0C5F1F4FF53011F0BF2EF1
:102D7000BECFAA81BB818C93EC81FD818081918142
:102D8000A281B381F401868B978BA08FB18F809144
:102D9000D90486838091D80487836091C60470919A
:102DA000C7048091C8049091C9040E947719D40186
:102DB00019967C936E9318976091CA047091CB0416
:102DC0008091CC049091CD040E947C19F40173870A
:102DD000628742C020E030E04AE754E46091B604E4
:102DE0007091B7048091B8049091B9040E945E1A62
:102DF0000E947719D4011D967C936E931C9720E056
:102E000030E048EC52E46091BA047091BB048091C8
:102E1000BC049091BD040E945E1A0E947719F401CF
:102E2000778766876091CA047091CB048091CC0447
:102E30009091CD040E947719D40151967C936E93A2
:102E400050970AC080911705F4018083809118057E
:102E500081838091190582838091AB04823231F4A1
:102E600043E26AEA74E0C1010E940B1381E090E042
:102E700029960FB6F894DEBF0FBECDBFDF91CF917C
:102E80001F910F91FF90EF90DF90CF90BF90AF9088
:102E90009F908F907F906F905F904F903F902F907A
:102EA0000895A1E0B1E0E6E0F1E040E081E090E0EB
:102EB0005AB1ED019C010C9002C0220F331F0A94FD
:102EC000E2F7209525232AB9443059F057B19C01E7
:102ED000008002C0220F331F0A94E2F7522B57B929
:102EE0000AC05AB19C01008002C0220F331F0A940D
:102EF000E2F7522B5AB95BB111969C01088002C0CF
:102F0000220F331F0A94E2F7522B5BB94F5F3196C1
:102F1000453071F6259A809181008A608093810006
:102F200084E499E99093890080938800C0EDD7E00C
:102F3000D0938B00C0938A0080916F00866080934D
:102F40006F0085B5836085BD80916E008160809340
:102F50006E0080916B00816080936B0080916D00AA
:102F60008C6780936D008091680085608093680015
:102F700061E080E096E90E94D7118FEF8093A20470
:102F800086E89BE09093850480938404D093870423
:102F9000C09386048CE89AE0909389048093880417
:102FA00088EB9BE090938B0480938A0490938D042C
:102FB00080938C0480E090E020E030E0AC01440F8E
:102FC000551FFA01EC57FB4F60817181260F371FA7
:102FD000FA01E658FB4F3183208301968530910535
:102FE00069F78EE092E00E94220B7894C8EBDBE058
:102FF00088EEE82E83E0F82E01E010E092E0C92E82
:10300000D12C8EE092E00E946E1080910C02909183
:103010000D0281309105D1F08230910569F1892B43
:1030200009F05FC08091760490917704853E9C40C2
:1030300020F010930D0200930C02809179048823F4
:1030400001F38EE092E00E94560B13C0809176044B
:1030500090917704843C994020F410920D021092D4
:103060000C0280917904843060F28EE092E00E943C
:10307000D80C10927904C5CFD0938504C0938404F2
:10308000F0928704E0928604D0938904C093880468
:10309000D0938B04C0938A04D0938D04C0938C0486
:1030A0008091760490917704853E9C4028F010939F
:1030B0000D0200930C02A5CF8091760490917704C5
:1030C000843C994008F09DCF8091760490917704DC
:1030D000893E934008F495CF10920D0210920C0295
:1030E00090CFD0920D02C0920C028BCF8EE092E076
:1030F0000C940C0A8CEA92E00C944712A1E21A2E6E
:10310000AA1BBB1BFD010DC0AA1FBB1FEE1FFF1F8B
:10311000A217B307E407F50720F0A21BB30BE40BDB
:10312000F50B661F771F881F991F1A9469F7609522
:103130007095809590959B01AC01BD01CF010895DC
:10314000EE0FFF1F0590F491E02D09945058BB2716
:10315000AA270ED075C166D130F06BD120F031F4C2
:103160009F3F11F41EF45BC10EF4E095E7FB51C1E3
:10317000E92F77D180F3BA176207730784079507A1
:1031800018F071F49EF58FC10EF4E0950B2EBA2F56
:10319000A02D0B01B90190010C01CA01A00111245D
:1031A000FF27591B99F0593F50F4503E68F11A1609
:1031B000F040A22F232F342F4427585FF3CF46959A
:1031C00037952795A795F0405395C9F77EF41F16BC
:1031D000BA0B620B730B840BBAF09150A1F0FF0F86
:1031E000BB1F661F771F881FC2F70EC0BA0F621F72
:1031F000731F841F48F4879577956795B795F79562
:103200009E3F08F0B3CF9395880F08F09927EE0FF3
:10321000979587950895D9D008F481E008950CD04A
:103220000FC107D140F0FED030F021F45F3F19F01C
:10323000F0C0511139C1F3C014D198F39923C9F3E7
:103240005523B1F3951B550BBB27AA2762177307AC
:10325000840738F09F5F5F4F220F331F441FAA1F60
:10326000A9F333D00E2E3AF0E0E830D09150504020
:10327000E695001CCAF729D0FE2F27D0660F771FCE
:10328000881FBB1F261737074807AB07B0E809F0B0
:10329000BB0B802DBF01FF2793585F4F2AF09E3F45
:1032A000510568F0B6C000C15F3FECF3983EDCF317
:1032B000869577956795B795F7959F5FC9F7880FBE
:1032C000911D9695879597F90895E1E0660F771F10
:1032D000881FBB1F621773078407BA0720F0621BA1
:1032E000730B840BBA0BEE1F88F7E095089504D09A
:1032F0006894B111D9C00895BCD088F09F5790F060
:10330000B92F9927B751A0F0D1F0660F771F881F0A
:10331000991F1AF0BA95C9F712C0B13081F0C3D025
:10332000B1E00895C0C0672F782F8827B85F39F0C3
:10333000B93FCCF3869577956795B395D9F73EF469
:1033400090958095709561957F4F8F4F9F4F089511
:10335000E89409C097FB3EF490958095709561952F
:103360007F4F8F4F9F4F9923A9F0F92F96E9BB27E5
:103370009395F695879577956795B795F111F8CF61
:10338000FAF4BB0F11F460FF1BC06F5F7F4F8F4FCC
:103390009F4F16C0882311F096E911C0772321F0C2
:1033A0009EE8872F762F05C0662371F096E8862F5A
:1033B00070E060E02AF09A95660F771F881FDAF7B1
:1033C000880F9695879597F90895990F0008550FDE
:1033D000AA0BE0E8FEEF16161706E807F907C0F09B
:1033E00012161306E407F50798F0621B730B840BA3
:1033F000950B39F40A2661F0232B242B252B21F47D
:1034000008950A2609F4A140A6958FEF811D811D1C
:10341000089597F99F6780E870E060E008959FEF56
:1034200080EC089500240A9416161706180609065B
:10343000089500240A94121613061406050608952A
:10344000092E0394000C11F4882352F0BB0F40F4B2
:10345000BF2B11F460FF04C06F5F7F4F8F4F9F4FF2
:10346000089557FD9058440F551F59F05F3F71F074
:103470004795880F97FB991F61F09F3F79F08795DB
:103480000895121613061406551FF2CF4695F1DF64
:1034900008C0161617061806991FF1CF86957105F4
:1034A000610508940895E894BB2766277727CB0128
:1034B00097F908958ADF08F48FEF08950BD0C0CFF5
:1034C000B1DF28F0B6DF18F0952309F0A2CFA7CF1F
:1034D0001124EACFC6DFA0F3959FD1F3950F50E0FA
:1034E000551F629FF001729FBB27F00DB11D639FB6
:1034F000AA27F00DB11DAA1F649F6627B00DA11D5C
:10350000661F829F2227B00DA11D621F739FB00D01
:10351000A11D621F839FA00D611D221F749F332771
:10352000A00D611D231F849F600D211D822F762F0A
:103530006A2F11249F5750408AF0E1F088234AF007
:10354000EE0FFF1FBB1F661F771F881F9150504053
:10355000A9F79E3F510570F05CCFA6CF5F3FECF31B
:10356000983EDCF3869577956795B795F795E7953F
:103570009F5FC1F7FE2B880F911D9695879597F950
:10358000089510E0C8E7D0E004C0FE010E94A21830
:0C3590002296CA37D107C9F7F894FFCF84
:10359C00FF0203040506000102030700070E091CC5
:1035AC001B1215383F363124232A2D70777E796C07
:1035BC006B6265484F464154535A5DE0E7EEE9FCB7
:1035CC00FBF2F5D8DFD6D1C4C3CACD90979E998CA7
:1035DC008B8285A8AFA6A1B4B3BABDC7C0C9CEDBD8
:1035EC00DCD5D2FFF8F1F6E3E4EDEAB7B0B9BEAB47
:1035FC00ACA5A28F88818693949D9A2720292E3B77
:10360C003C35321F18111603040D0A5750595E4BE6
:10361C004C45426F68616673747D7A898E8780959C
:10362C00929B9CB1B6BFB8ADAAA3A4F9FEF7F0E586
:10363C00E2EBECC1C6CFC8DDDAD3D4696E67607536
:10364C00727B7C51565F584D4A4344191E17100526
:10365C00020B0C21262F283D3A33344E4940475259
:10366C00555C5B7671787F6A6D64633E39303722C6
:10367C00252C2B0601080F1A1D1413AEA9A0A7B2F6
:10368C00B5BCBB9691989F8A8D8483DED9D0D7C266
:0C369C00C5CCCBE6E1E8EFFAFDF4F3004A
:00000001FF
