:100000000C943B000C9458000C9458000C9458002D
:100010000C9458000C948F010C9458000C945800C8
:100020000C9458000C9458000C9458000C945A00EE
:100030000C94F9000C9458000C9458000C9458003F
:100040000C9458000C9458000C94E2060C94580040
:100050000C94F5060C9458000C9458000C9458001D
:100060000C9458000C9458001508200832085A08BF
:10007000B408B408D40811241FBECFEFD8E0DEBF07
:10008000CDBF12E0A0E0B1E0E6E4FBE102C00590E4
:100090000D92AC30B107D9F713E0ACE0B2E001C08B
:1000A0001D92AC34B107E1F70E94DC0A0C94A10D5B
:1000B0000C9400001F920F920FB60F9211242F93F1
:1000C0003F938F939F9381E080933A0280911C022B
:1000D00090911D02892B61F028B181E090E00090A1
:1000E000060102C0880F991F0A94E2F7282B28B94D
:1000F00080911C0290911D02909313028093120232
:10010000809112029091130220911E0230911F02E1
:10011000820F931F0C969093150280931402809186
:100120001402909115022091200230912102820F39
:10013000931F0C96909317028093160280911602DB
:10014000909117022091220230912302820F931F77
:100150000C96909319028093180280911802909146
:1001600019022091240230912502820F931F0C96D0
:1001700090931B0280931A02809111028F5F8093EB
:10018000110280910C0290910D02029749F1809129
:1001900010028F5F80931002863010F182E090E0B1
:1001A00090930D0280930C0210920F0210920E0297
:1001B00088EB9BE090931D0280931C0228EE33E0B5
:1001C00030931F0220931E029093210280932002FD
:1001D000909323028093220290932502809324021D
:1001E0009F918F913F912F910F900FBE0F901F9075
:1001F00018951F920F920FB60F9211242F933F93D1
:100200008F939F93EF93FF9380913A02882309F491
:100210007BC080913A02E0913A02853099F42BB18B
:10022000F0E0EB5FFE4F81E090E0008002C0880FBD
:10023000991F0A94E2F78095909530E082239323EA
:100240008BB912C028B1F0E0EB5FFE4F81E090E087
:10025000008002C0880F991F0A94E2F7809590955C
:1002600030E08223932388B980913A02853008F0E8
:1002700041C0E0913A02F0E0EE0FFF1FEE5EFD4F4D
:100280008081918190938B0080938A00E0913A0263
:10029000F0E0EE0FFF1FE45EFD4F80819181892B1E
:1002A00019F180913A02E0913A02843078F428B151
:1002B000F0E0EA5FFE4F81E090E0008002C0880F2E
:1002C000991F0A94E2F7822B88B90EC02BB1F0E097
:1002D000EA5FFE4F81E090E0008002C0880F991F26
:1002E0000A94E2F7822B8BB980913A028F5F809358
:1002F0003A020AC0809112029091130290938B00EF
:1003000080938A0010923A02FF91EF919F918F9112
:100310003F912F910F900FBE0F901F9018951F9235
:100320000F920FB60F9211242F933F934F935F9329
:100330006F937F938F939F93AF93BF93EF93FF93AD
:1003400029B180910001282789B180930001109282
:10035000100222FF53C04A9B09C0809184009091F3
:100360008500909327028093260248C04A9946C090
:10037000809184009091850040912602509127023F
:10038000E0918400F091850060912602709127022F
:10039000E617F70770F460918400709185008091F2
:1003A0008800909189004091260250912702860F83
:1003B000971F841B950BA0E0B0E0AC01BD0141503C
:1003C0005109610971094339514161057105B0F461
:1003D00040910C0250910D02452B81F440911C027A
:1003E00050911D02840F951FA11DB11DB595A795B4
:1003F0009795879590931D0280931C0223FF53C00D
:100400004B9B09C0809184009091850090932902B4
:100410008093280248C04B9946C0809184009091F7
:1004200085004091280250912902E0918400F091CA
:1004300085006091280270912902E617F70770F491
:10044000609184007091850080918800909189006E
:100450004091280250912902860F971F841B950B0B
:10046000A0E0B0E0AC01BD01415051096109710942
:100470004339514161057105B0F440910C0250912E
:100480000D02452B81F440911E0250911F02840FF2
:10049000951FA11DB11DB595A7959795879590932B
:1004A0001F0280931E0224FF53C04C9B09C0809101
:1004B00084009091850090932B0280932A0248C07B
:1004C0004C9946C0809184009091850040912A0209
:1004D00050912B02E0918400F091850060912A02F6
:1004E00070912B02E617F70770F460918400709109
:1004F0008500809188009091890040912A02509156
:100500002B02860F971F841B950BA0E0B0E0AC0177
:10051000BD014150510961097109433951416105DA
:100520007105B0F440910C0250910D02452B81F4FD
:100530004091200250912102840F951FA11DB11DF1
:10054000B595A79597958795909321028093200262
:1005500025FF53C04D9B09C0809184009091850078
:1005600090932D0280932C0248C04D9946C08091F3
:1005700084009091850040912C0250912D02E091D1
:100580008400F091850060912C0270912D02E61795
:10059000F70770F460918400709185008091880065
:1005A0009091890040912C0250912D02860F971F47
:1005B000841B950BA0E0B0E0AC01BD014150510996
:1005C000610971094339514161057105B0F44091E8
:1005D0000C0250910D02452B81F440912202509162
:1005E0002302840F951FA11DB11DB595A795979561
:1005F0008795909323028093220226FF59C04E9B39
:1006000009C0809184009091850090932F0280937F
:100610002E024EC04E994CC080918400909185006E
:1006200020912E0230912F026091840070918500FC
:1006300040912E0250912F026417750770F440917B
:1006400084005091850080918800909189002091CC
:100650002E0230912F02840F951F821B930BA0E076
:10066000B0E0AC01BD014150510961097109433944
:10067000514161057105E0F420910C0230910D02A9
:10068000232B91F42091240230912502AC01BD016D
:10069000420F531F611D711D7595679557954795BD
:1006A000509325024093240290930F0280930E02F0
:1006B000FF91EF91BF91AF919F918F917F916F913A
:1006C0005F914F913F912F910F900FBE0F901F9010
:1006D00018950895FC0140835183628373830895C4
:1006E0004F925F926F927F928F929F92AF92BF9242
:1006F000CF92DF92EF92FF920F931F93CF93DF93EE
:100700008C014A015B01E90160911E0270911F0298
:1007100080E090E00E948C0C6B017C01F80120814C
:100720003181428153816A8D7B8D8C8D9D8D0E949C
:10073000F20B2B013C01C501B4010E948E0C9B0100
:10074000AC01C301B2010E94F20B20E030E040E0B6
:100750005FE30E943E0D9B01AC01C701B6010E9400
:10076000F30B0E94600C6839F8E07F0738F06D3AAF
:100770002DE0720728F06CEA7DE002C068E978E0BD
:1007800070931F0260931E02DF91CF911F910F9112
:10079000FF90EF90DF90CF90BF90AF909F908F90A1
:1007A0007F906F905F904F9008958F929F92AF923D
:1007B000BF92CF92DF92EF92FF92CF93DF934A01E5
:1007C0005B01E901609120027091210280E090E0DC
:1007D0000E948C0C6B017C01A50194016AA17BA194
:1007E0008CA19DA10E94F20B20E030E040E05FE38D
:1007F0000E943E0D9B01AC01C701B6010E94F30BA4
:100800000E94600C643C29E0720738F06D3A8DE07C
:10081000780728F06CEA7DE002C064EC79E0709320
:10082000210260932002DF91CF91FF90EF90DF9043
:10083000CF90BF90AF909F908F9008958F929F928E
:10084000AF92BF92CF92DF92EF92FF92CF93DF935E
:100850004A015B01E901609122027091230280E06C
:1008600090E00E948C0C6B017C01A50194016E8DBF
:100870007F8D88A199A10E94F20B20E030E040E03A
:100880005FE30E943E0D9B01AC01C701B6010E94CF
:10089000F30B0E94600C643C29E0720738F06D3A5B
:1008A0008DE0780728F06CEA7DE002C064EC79E026
:1008B0007093230260932202DF91CF91FF90EF901B
:1008C000DF90CF90BF90AF909F908F900895089544
:1008D00008951092B90080E28093B80084E080937C
:1008E000BC00089584EA8093BC008091BC0087FF1F
:1008F000FCCF8091B900887F089584E98093BC0083
:100900008091B900887F08958093BB0084E880932C
:10091000BC008091BC0087FFFCCF8091B900887F2C
:10092000089584EC8093BC008091BC0087FFFCCFCD
:100930008091BB00089584E88093BC008091BC0046
:1009400087FFFCCF8091BB000895EF92FF920F9339
:100950001F93CF93DF93EC017C0182E0E80EF11C42
:10096000C7010E946903CE010A960E9404078E0106
:10097000065E1F4FC8010E94970583E08883198295
:100980001B821A8284E190E09D838C831F821E82E9
:100990001986188622E030E03B872A879D878C875E
:1009A0001F861E86198A188A81E090E09B8B8A8BAD
:1009B0001D8A1C8A1F8A1E8A198E188E1B8E1C8EF9
:1009C0001E8E1F8E18A219AE1AAE1BAE1CAEFE01F3
:1009D000FD961082118212821382FE01EF5BFF4F9F
:1009E00010821182128213821DA61EA61FA618AAAB
:1009F00019AA1AAA1BAA1CAA19A21AA21CA21BA2F3
:100A00001DAA1EAA1FAA18AE1EA21DA218A61FA2CA
:100A10001AA619A61CA61BA6C8010E941606C9592B
:100A2000DE4F811109C081E08883DF91CF911F9152
:100A30000F91FF90EF9008951882C8010E9456060A
:100A4000AB01BC01C701DF91CF911F910F91FF90C6
:100A5000EF900C946A03CF92DF92EF92FF920F9384
:100A60001F93CF93DF93EC01FC01E959FE4F808186
:100A7000811144C08E01055E1F4FB801CE010A9658
:100A80000E94F108F9ACEAACDBAC8CAD0E94D20656
:100A90008D2D0E94D2068E2D0E94D2068F2D0E948F
:100AA000D206CE014A960E9456066B017C0120E0D8
:100AB00030EC49E754EC0E94570C882321F0CDAA72
:100AC000DEAAEFAAF8AE8981FE0198E0899FE00DC9
:100AD000F11D112482819381892B91F42296980132
:100AE00040E050E0BA01CE010E941E04980140E0AF
:100AF00050E0BA01CE010E94D50302C082E001C0DD
:100B000080E0DF91CF911F910F91FF90EF90DF90E8
:100B1000CF900895FC0187A190A50F9730F081E058
:100B200091A1973018F080E0089581E0089508952C
:100B300060E070E0CB0108951F93CF93DF931F9285
:100B4000CDB7DEB769830E94720480EC0E948404F2
:100B50006981862F0E9484040E947D040E94720491
:100B600081EC0E9484040E949B04182F0E947D0443
:100B7000812F0F90DF91CF911F9108951F93CF93F5
:100B8000DF93EC0115E660E0CE010E949C0582FD3A
:100B900007C01150C1F760E070EC89E794EC28C001
:100BA0000E94720480EC0E94840484E00E94840409
:100BB0000E94720481EC0E9484040E949104682FB8
:100BC00070E0D62FCC270E949B04C82B0E947D0486
:100BD000BE0194E0769567959A95E1F780E090E004
:100BE0000E948C0C20E030E040E85DE30E943E0D66
:100BF000DF91CF911F910895CF93DF9300D0CDB7B0
:100C0000DEB74A8369830E94720480EC0E948404E8
:100C10006981862F0E9484044A81842F0E94840463
:100C20000F900F90DF91CF910C947D04CF93DF93C1
:100C3000EC010E9469040E947204883019F50E9438
:100C40007D046CE0CE010E949C05843CE9F440E008
:100C500066E2CE010E94FC0548EB66E2CE010E94EE
:100C6000FC0547E063E1CE010E94FC0547E66DE22A
:100C7000CE010E94FC0549EB66E2CE010E94FC0514
:100C800080E003C081E001C082E0DF91CF91089550
:100C9000CF93DF93EC014BEB66E20E94FC0549EB3E
:100CA00066E2CE01DF91CF910C94FC05CF92DF92EA
:100CB000EF92FF92CF937C010E944806C5E660E068
:100CC000C7010E949C0582FD07C0C150C1F760E0CA
:100CD00070EC89E794EC34C00E94720480EC0E94AE
:100CE000840481E00E9484040E94720481EC0E94CA
:100CF00084040E949104C82ED12CE12CF12CFE2CEE
:100D0000ED2CDC2CCC240E949104C82AFE2CED2C66
:100D1000DC2CCC240E949B04C82A0E947D04C701BD
:100D2000B60144E096958795779567954A95D1F7F2
:100D30000E948C0C20E030E040E85DE30E943E0D14
:100D4000CF91FF90EF90DF90CF900895CF93C62F73
:100D50009C0140E050E084E0220F331F441F551FE8
:100D60008A95D1F760E074E284EF90E00E94CA0BAC
:100D7000215031093093C5002093C4008091C200F6
:100D80008E608093C2008091C10088618093C10011
:100D9000CC2331F08091C100806C8093C1007894A5
:100DA000CF9108959091C00095FFFCCF8093C6002D
:100DB00010923C0208958091C00087FFFCCF809183
:100DC000C60008951F920F920FB60F9211248F93B1
:100DD0008091C60080933E0281E080933D028F9116
:100DE0000F900FBE0F901F9018951F920F920FB685
:100DF0000F9211248F9381E080933C028F910F908A
:100E00000FBE0F901F901895FC0110821182128264
:100E1000138214821582168217821086118612861A
:100E2000138614861586168617860895089580E021
:100E300090E00895BF92CF92DF92EF92FF920F93CE
:100E40001F93CF93DF938B01FB0180810E94D20619
:100E5000E801C75FDE4F1882F801F1808F2D0E94F4
:100E6000D206EF2DFF27E7FDF0958881E827E55FA3
:100E7000FE4F80818883F801F2808F2D0E94D20678
:100E8000EF2DFF27E7FDF0958881E827E55FFE4F0E
:100E900080818883F801F3808F2D0E94D206EF2D88
:100EA000FF27E7FDF0958881E827E55FFE4F808109
:100EB0008883F801F4808F2D0E94D206EF2DFF2742
:100EC000E7FDF0958881E827E55FFE4F8081888304
:100ED000F801C480D580E680F780CD2CDE2CEF2C85
:100EE000FF248C2D0E94D206EC2DFF27E7FDF09504
:100EF0008881E827E55FFE4F80818883F801C48000
:100F0000D580E680F7806701EE24FF248C2D0E94B7
:100F1000D206EC2DFF27E7FDF0958881E827E55FF5
:100F2000FE4F80818883F801C480D580E680F780F9
:100F3000CF2CDD24EE24FF248C2D0E94D206EC2D34
:100F4000FF27E7FDF0958881E827E55FFE4F808168
:100F50008883F80182819381099760F48881DF9109
:100F6000CF911F910F91FF90EF90DF90CF90BF90A6
:100F70000C94D2066801FAE0CF0ED11C76012E2D1A
:100F80002C1930E0F80182819381089728173907DE
:100F900028F7F701B1907F018B2D0E94D206EB2D2F
:100FA000FF27E7FDF0958881E827E55FFE4F808108
:100FB0008883E5CFCF93DF93CDB7DEB7CA50D1405A
:100FC0000FB6F894DEBF0FBECDBF2CE329834A8352
:100FD00028E030E03C832B83FB014481558166810E
:100FE00077814D835E836F837887BE016F5F7F4F0C
:100FF0000E941A07C65FDE4F0FB6F894DEBF0FBE21
:10100000CDBFDF91CF9108950F931F93CF93DF93BF
:10101000EA018091410290E08730910508F0CBC051
:101020008C5C9F4FFC010C94EC0B6C3309F0C3C03B
:1010300081E080934102688384EB80934002BBC0CF
:10104000A0914002A627B0E0A55FBE4F8C9180938F
:101050004002862F887F803241F582E080934102F2
:1010600069839FC0A0914002A627B0E0A55FBE4F54
:101070008C918093400280913F028F5F80933F026A
:10108000062F10E0823018F41B830A8394C0102FBF
:1010900000278A819B81080F191F1B830A83085030
:1010A00011090F3F110521F018F01092410283C081
:1010B00083E075C0A0914002A627B0E0A55FBE4FB7
:1010C0008C918093400240913F024F5F40933F02DA
:1010D000423091F060F4413009F06DC0062F10E00D
:1010E00020E030E00C831D832E833F8364C04330B7
:1010F00061F04430F1F05FC0062F10E020E030E0F6
:10110000322F212F102F002707C0062F10E020E0DC
:1011100030E09801112700278C819D81AE81BF812D
:10112000800F911FA21FB31F8C839D83AE83BF834B
:1011300042C0062F10E020E030E0302F2227112798
:1011400000278C819D81AE81BF81800F911FA21FDE
:10115000B31F8C839D83AE83BF838A819B81089755
:10116000E9F0409341021DC0A0914002A627B0E0E3
:10117000A55FBE4F8C918093400220913F022F5F6C
:1011800020933F0230E0DA01A20FB31F19966C934F
:101190008A819B8108972817390768F086E0809339
:1011A000410210923F0207C0DA01A75FBE4F6C9365
:1011B00087E08093410280914102873011F080E006
:1011C0000BC01092410290914002DE01A75FBE4F1A
:1011D0008C919813F4CF8A81DF91CF911F910F9159
:1011E0000895EF92FF920F931F93CF93DF938C019B
:1011F000EB01F0EDEF2EF7E0FF2E80E090913D0245
:10120000911104C08F5F833371F0F8CF823358F4AB
:1012100060913E0210923D0242E452E0C8010E94F9
:101220000408811109C0B1E0EB1AF108E114F104DE
:1012300021F780E090E0B9C1409146025091470209
:101240006091480270914902423C8BEF58078CEE46
:1012500068078CE6780709F424C108F04CC04230D6
:10126000B9E25B07BEE76B07BFE27B0709F4B7C0D3
:1012700008F54430FAE95F07F7ED6F07FEE07F07F6
:1012800009F40FC138F446315A4A67437B4009F4E8
:1012900008C17FC14E3CB8E45B07B7E56B07BAE114
:1012A0007B0709F405C144375B4E6A477B4109F46B
:1012B000F8C06FC14E34F8EC5F07FCEB6F07F0E449
:1012C0007F0709F4F5C038F4463E554D6A4D734327
:1012D00009F49DC05EC1423EB5E55B07BCE96B0702
:1012E000B6E67B0709F44CC14A355B4B674377464A
:1012F00009F475C04EC14A3BF4E85F07F5E26F0799
:10130000FEEB7F0709F43CC108F049C04E37A2E16B
:101310005A07AAE66A07ABE97A0709F4C2C060F582
:101320004A3051486D427C4809F033C180914E02E9
:1013300090914F02A0915002B09151028EAB9FABA1
:10134000A8AFB9AF8091520290915302A09154027C
:10135000B09155028AAF9BAFACAFBDAFEE96809116
:10136000560290915702A0915802B0915902888379
:101370009983AA83BB830DC14630FEE05F07FCE37F
:101380006F07FDEA7F0709F467C04A38574F674C7B
:10139000784B09F0FEC0809166028883FAC0463916
:1013A000A5E35A07A8E06A07A2ED7A0709F4B7C0D7
:1013B00038F444355D426F4F754C09F472C0E9C092
:1013C0004436F9ED5F07F0EE6F07F7ED7F07F9F0B0
:1013D000463B5342634A724E09F46AC0DAC0D801F0
:1013E0001F96EC911F97F0E0EE5BFD4F82858230F7
:1013F00031F0833041F08111CCC081E005C083E041
:10140000F8018087C6C0D80118968C93C2C080911D
:101410005E0290915F02A0916002B09161028E8F96
:101420009F8FA8A3B9A38091620290916302A091BB
:101430006402B09165028AA39BA3ACA3BDA3809173
:10144000660290916702A0916802B09169028EA332
:101450009FA3A8A7B9A79DC080914E0290914F026B
:10146000A0915002B09151028AA79BA7ACA7BDA73B
:101470008091520290915302A0915402B091550272
:101480008EA79FA7A8ABB9AB809156029091570247
:10149000A0915802B09159028AAB9BABACABBDABEB
:1014A00078C080914C028C8380914D028D8371C0F5
:1014B00080914E0290914F02A0915002B091510242
:1014C0008A8B9B8BAC8BBD8B809152029091530287
:1014D000A0915402B09155028E8B9F8BA88FB98F2B
:1014E000809171028E83809170028F8360915E0281
:1014F00070915F0280916002909161020E945B0C8A
:1015000079876887609162027091630280916402BA
:10151000909165020E94600C7B876A873AC020E048
:1015200030E04AE754E460914E0270914F0280919E
:101530005002909151020E943E0D0E945B0C7D87EB
:101540006C8720E030E048EC52E4609152027091E8
:10155000530280915402909155020E943E0D0E94C8
:101560005B0C7F876E87609162027091630280914D
:101570006402909165020E945B0C798B688B09C0B4
:101580008091AF0288838091B00289838091B102FB
:101590008A8380914302823231F443E262E472E052
:1015A000C8010E94DA0781E090E0DF91CF911F919E
:1015B0000F91FF90EF900895CF93DF93CDB7DEB7F3
:1015C000C856D1400FB6F894DEBF0FBECDBFA1E024
:1015D000B1E076E0E72E71E0F72E60E081E090E088
:1015E0007AB19D01AC010C9002C0440F551F0A94C2
:1015F000E2F7409547234AB9643061F077B1AC0116
:10160000F701008002C0440F551F0A94E2F7742BC3
:1016100077B90BC07AB1AC01F701008002C0440F6A
:10162000551F0A94E2F7742B7AB94BB111968C01CD
:10163000F901008002C0000F111F0A94E2F7402B4D
:101640004BB96F5F1FEFE11AF10A653049F6259A31
:10165000809181008A608093810084E499E990936D
:1016600089008093880000ED17E010938B000093B1
:101670008A0080916F00866080936F0080916D007A
:101680008C6780936D00809168008560809368000E
:1016900061E080E096E90E94A606CE0101960E94D4
:1016A000A50410931D0200931C0210931F020093C7
:1016B0001E02109321020093200210932302009334
:1016C0002202109325020093240280E090E020E0A3
:1016D00030E0AC01440F551FFA01E45EFD4F60811C
:1016E0007181260F371FFA01EE5EFD4F3183208393
:1016F00001968530910569F7789401E010E082E069
:10170000E82EF12C80910C0290910D028130910510
:1017100069F082309105D1F0892BB9F580910E02E4
:1017200090910F02853E9C4068F317C080910E0295
:1017300090910F02843C994020F410920D02109277
:101740000C02CE0101960E942B05DCCF80910E0287
:1017500090910F02853E9C4028F010930D0200935B
:101760000C02D0CF80910E0290910F02843C9940E0
:1017700048F680910E0290910F02893E934010F23C
:1017800010920D0210920C02BDCFF0920D02E09269
:101790000C02B8CFA1E21A2EAA1BBB1BFD010DC083
:1017A000AA1FBB1FEE1FFF1FA217B307E407F50711
:1017B00020F0A21BB30BE40BF50B661F771F881FED
:1017C000991F1A9469F760957095809590959B0183
:1017D000AC01BD01CF010895EE0FFF1F0590F491FC
:1017E000E02D09945058BB27AA270ED00DC1FED07A
:1017F00030F003D120F031F49F3F11F41EF4F3C018
:101800000EF4E095E7FBE9C0E92F0FD180F3BA179A
:10181000620773078407950718F071F49EF527C1D6
:101820000EF4E0950B2EBA2FA02D0B01B9019001FB
:101830000C01CA01A0011124FF27591B99F0593F3F
:1018400050F4503E68F11A16F040A22F232F342F87
:101850004427585FF3CF469537952795A795F040D5
:101860005395C9F77EF41F16BA0B620B730B840BEA
:10187000BAF09150A1F0FF0FBB1F661F771F881FA2
:10188000C2F70EC0BA0F621F731F841F48F48795FA
:1018900077956795B795F7959E3F08F0B3CF9395E9
:1018A000880F08F09927EE0F97958795089571D0C6
:1018B00008F481E0089504D06894B111D9C0089566
:1018C000BCD088F09F5790F0B92F9927B751A0F05E
:1018D000D1F0660F771F881F991F1AF0BA95C9F7C4
:1018E00012C0B13081F0C3D0B1E00895C0C0672FFD
:1018F000782F8827B85F39F0B93FCCF38695779574
:101900006795B395D9F73EF490958095709561955C
:101910007F4F8F4F9F4F0895E89409C097FB3EF487
:1019200090958095709561957F4F8F4F9F4F99232C
:10193000A9F0F92F96E9BB279395F69587957795AA
:101940006795B795F111F8CFFAF4BB0F11F460FF6A
:101950001BC06F5F7F4F8F4F9F4F16C0882311F0C2
:1019600096E911C0772321F09EE8872F762F05C0D6
:10197000662371F096E8862F70E060E02AF09A9571
:10198000660F771F881FDAF7880F9695879597F966
:101990000895990F0008550FAA0BE0E8FEEF161600
:1019A0001706E807F907C0F012161306E407F50753
:1019B00098F0621B730B840B950B39F40A2661F0C7
:1019C000232B242B252B21F408950A2609F4A1406A
:1019D000A6958FEF811D811D089597F99F6780E877
:1019E00070E060E008959FEF80EC089500240A9471
:1019F0001616170618060906089500240A941216EA
:101A00001306140605060895092E0394000C11F41C
:101A1000882352F0BB0F40F4BF2B11F460FF04C0C9
:101A20006F5F7F4F8F4F9F4F089557FD9058440F22
:101A3000551F59F05F3F71F04795880F97FB991F2D
:101A400061F09F3F79F087950895121613061406EA
:101A5000551FF2CF4695F1DF08C016161706180677
:101A6000991FF1CF86957105610508940895E89452
:101A7000BB2766277727CB0197F908950BD0C4CFF2
:101A8000B5DF28F0BADF18F0952309F0A6CFABCF69
:101A90001124EECFCADFA0F3959FD1F3950F50E04C
:101AA000551F629FF001729FBB27F00DB11D639F10
:101AB000AA27F00DB11DAA1F649F6627B00DA11DB6
:101AC000661F829F2227B00DA11D621F739FB00D5C
:101AD000A11D621F839FA00D611D221F749F3327CC
:101AE000A00D611D231F849F600D211D822F762F65
:101AF0006A2F11249F5750408AF0E1F088234AF062
:101B0000EE0FFF1FBB1F661F771F881F91505040AD
:101B1000A9F79E3F510570F060CFAACF5F3FECF36D
:101B2000983EDCF3869577956795B795F795E79599
:101B30009F5FC1F7FE2B880F911D9695879597F9AA
:061B40000895F894FFCFA8
:101B4600FF0203040506000102030700070E091C35
:101B56001B1215383F363124232A2D70777E796C77
:101B66006B6265484F464154535A5DE0E7EEE9FC27
:101B7600FBF2F5D8DFD6D1C4C3CACD90979E998C17
:101B86008B8285A8AFA6A1B4B3BABDC7C0C9CEDB48
:101B9600DCD5D2FFF8F1F6E3E4EDEAB7B0B9BEABB7
:101BA600ACA5A28F88818693949D9A2720292E3BE7
:101BB6003C35321F18111603040D0A5750595E4B57
:101BC6004C45426F68616673747D7A898E8780950D
:101BD600929B9CB1B6BFB8ADAAA3A4F9FEF7F0E5F7
:101BE600E2EBECC1C6CFC8DDDAD3D4696E676075A7
:101BF600727B7C51565F584D4A4344191E17100597
:101C0600020B0C21262F283D3A33344E49404752C9
:101C1600555C5B7671787F6A6D64633E3930372236
:101C2600252C2B0601080F1A1D1413AEA9A0A7B266
:101C3600B5BCBB9691989F8A8D8483DED9D0D7C2D6
:0C1C4600C5CCCBE6E1E8EFFAFDF4F300BA
:00000001FF
