:100000000C943B000C9458000C9458000C94EE0196
:100010000C9458000C9458000C9458000C94580000
:100020000C9458000C9458000C9458000C945A00EE
:100030000C942A010C9458000C9499010C945800CB
:100040000C9458000C9458000C946E040C945800B6
:100050000C9481040C9458000C9458000C94580093
:100060000C9458000C945800A105AC05BE05E6059B
:1000700040064006600611241FBECFEFD8E0DEBF69
:10008000CDBF12E0A0E0B1E0ECE8F5E102C00590E0
:100090000D92AC30B107D9F713E0ACE0B2E001C08B
:1000A0001D92A234B107E1F70E9455080C94C40ACE
:1000B0000C9400001F920F920FB60F9211242F93F1
:1000C0003F934F935F936F937F938F939F93EF93A0
:1000D000FF9381E08093300280911C0290911D0279
:1000E000892B61F028B181E090E00090060102C008
:1000F000880F991F0A94E2F7282B28B980E090E036
:1001000020E030E0AC01440F551FFA01E45EFD4FE2
:1001100060817181260F371FFA01EE5EFD4F31833A
:10012000208301968530910569F781E08093110263
:1001300080910C0290910D02029709F047C08091C6
:100140000E0290910F028D3A9D4028F181E090E0DF
:1001500090930D0280930C0280ED97E090931D0226
:1001600080931C0284EC99E090931F0280931E02FE
:1001700088EB9BE090932102809320028CEA9DE023
:10018000909323028093220280EA9FE090932502BD
:10019000809324020BC080910E0290910F028D3D3E
:1001A000954020F010920D0210920C0280911E02D8
:1001B00090911F028536910548F080911E02909122
:1001C0001F02019790931F0280931E0280910C02E0
:1001D00090910D02029779F1809110028F5F8093C8
:1001E0001002863040F182E090E090930D028093FF
:1001F0000C0288E69BE090931D0280931C0284E52C
:100200009BE090931F0280931E0286E89BE09093F0
:1002100021028093200284EA9BE090932302809342
:10022000220280ED97E090932502809324021092A1
:100230000F0210920E02FF91EF919F918F917F918B
:100240006F915F914F913F912F910F900FBE0F9043
:100250001F9018951F920F920FB60F9211242F9393
:100260003F934F935F938F939F93EF93FF9380916F
:100270003002882309F450C0E091300248B1F0E028
:10028000EB5FFE4F21E030E0C901008002C0880F23
:10029000991F0A94E2F78095909550E08423952366
:1002A00088B980913002853068F5E0913002F0E045
:1002B000EE0FFF1FEE5EFD4F8081918190938B00CA
:1002C00080938A00E0913002F0E0EE0FFF1FE45EC1
:1002D000FD4F80819181892B79F0E091300248B106
:1002E000F0E0EA5FFE4FC901008002C0880F991F4D
:1002F0000A94E2F7842B88B9809130028F5F809353
:1003000030020AC0809112029091130290938B00E8
:1003100080938A0010923002FF91EF919F918F910C
:100320005F914F913F912F910F900FBE0F901F90B3
:1003300018951F920F920FB60F9211248F939F93CF
:1003400080910C0290910D02892BA1F580913102D0
:1003500080FF09C080912602909127020196909318
:100360002702809326028091310281FF09C080918B
:1003700028029091290201969093290280932802E5
:100380008091310282FF09C080912A0290912B0254
:10039000019690932B0280932A028091310283FF71
:1003A00009C080912C0290912D02019690932D020C
:1003B00080932C028091310284FF09C080912E022B
:1003C00090912F02019690932F0280932E029F917D
:1003D0008F910F900FBE0F901F9018951F920F9244
:1003E0000FB60F9211240F931F932F933F934F93A8
:1003F0005F936F937F938F939F93AF93BF93CF93AD
:10040000DF93EF93FF9363B180910001682783B17D
:10041000809300011092100280910C0290910D02C5
:10042000892B11F4C0E001C0C4E070E041E050E06D
:10043000D4E18C2F90E09B010C2E02C035952795BE
:100440000A94E2F720FF72C023B130E00C2E02C004
:10045000359527950A94E2F720FF0DC020913102CF
:10046000FA010C2E02C0EE0FFF1F0A94E2F72E2BAA
:10047000209331025BC02091310230E00C2E02C08B
:10048000359527950A94E2F720FF50C023B130E05C
:100490000C2E02C0359527950A94E2F720FD46C040
:1004A000E09131029A010C2E01C0220F0A94EAF762
:1004B00020952E23209331029C01220F331FF90136
:1004C000EA5DFD4F808191810396918380838091C5
:1004D0000C0290910D02892BA9F4D901A45EBD4FA5
:1004E0000D911C9111970190F081E02DDE9FC001CC
:1004F000DF9F900D1124800F911F9695879511967F
:100500009C938E93C43069F4E0912E02F0912F02F7
:10051000DE9FC001DF9F900D112490930F02809306
:100520000E02F901EA5DFD4F11821082CF5FC530E6
:1005300009F07FCFFF91EF91DF91CF91BF91AF9104
:100540009F918F917F916F915F914F913F912F91EB
:100550001F910F910F900FBE0F901F901895089547
:1005600088EE93E090931D0280931C0208950895F5
:100570001092B90080E28093B80084E08093BC00C0
:10058000089584EA8093BC008091BC0087FFFCCF73
:100590008091B900887F089584E98093BC008091A0
:1005A000B900887F08958093BB0084E88093BC00E5
:1005B0008091BC0087FFFCCF8091B900887F0895AF
:1005C00084EC8093BC008091BC0087FFFCCF8091BD
:1005D000BB00089584E88093BC008091BC0087FF35
:1005E000FCCF8091BB000895CF93DF93EC0102967E
:1005F0000E949004CE0142960E94660383E08883A5
:1006000019821B821A8284E190E09D838C831F8271
:100610001E821986188622E030E03B872A879D8754
:100620008C871F861E86198A188A81E090E09B8B32
:100630008A8B1D8A1C8A1B8A1E8A1F8A188E19AAF9
:100640001AAA1BAA1CAA1DAA1EAA1FAA18AE19AE76
:100650001AAE1BAE1CAE1DA21EA21FA218A619A682
:100660001AA61BA61CA6198E1A8E1C8E1B8E1DA6E2
:100670001EA61FA618AA1E8E1D8E18A21F8E1AA2B5
:1006800019A21CA21BA2DF91CF910895FC01878DB6
:1006900090A10F9730F081E0918D973018F080E0B5
:1006A000089581E00895FC01218138E0239FE00D49
:1006B000F11D112422813381232B29F40E9446034A
:1006C00091E0811101C090E0892F0895089560E0C4
:1006D00070E0CB01089560E070E0CB0108951F93B6
:1006E000CF93DF931F92CDB7DEB769830E94C1021B
:1006F00080EC0E94D3026981862F0E94D3020E945F
:10070000CC0281EC0E94D3020E94EA02182F0E94C0
:10071000CC02812F0F90DF91CF911F910895CF933D
:10072000DF9300D0CDB7DEB74A8369830E94C10250
:1007300080EC0E94D3026981862F0E94D3024A81F5
:10074000842F0E94D3020F900F90DF91CF910C94D1
:10075000CC02CF93DF93EC010E94B8020E94C10249
:10076000883091F46CE0CE010E946F03803671F402
:1007700049EB66E2CE010E948F0347E063E1CE01C0
:100780000E948F0380E003C081E001C082E0DF911E
:10079000CF910895CF93DF93EC0166E20E946F033F
:1007A000482F4D7F66E2CE010E948F0366E2CE01A4
:1007B0000E946F03482F426066E2CE01DF91CF9125
:1007C0000C948F03CF92DF92EF92FF92CF937C0134
:1007D0000E94CA03C5E660E0C7010E946F0381FD65
:1007E00007C0C150C1F760E070EC89E794EC34C0F9
:1007F0000E94C10280EC0E94D30281E00E94D302D9
:100800000E94C10281EC0E94D3020E94E002C82E25
:10081000D12CE12CF12CFE2CED2CDC2CCC240E94D4
:10082000E002C82AFE2CED2CDC2CCC240E94EA022B
:10083000A7019601282BCA01B90124E09695879556
:10084000779567952A95D1F70E94D30920E030E08B
:1008500040E85DE30E94390ACF91FF90EF90DF906E
:10086000CF900895CF93C62F9C0140E050E084E0E4
:10087000220F331F441F551F8A95D1F760E074E2A1
:1008800084EF90E00E947A09215031093093C5002D
:100890002093C4008091C2008E608093C20080913A
:1008A000C10088618093C100CC2331F08091C100E8
:1008B000806C8093C1007894CF9108959091C0008E
:1008C00095FFFCCF8093C60010923202089580916C
:1008D000C00087FFFCCF8091C60008951F920F9241
:1008E0000FB60F9211248F938091C600809334022B
:1008F00081E0809333028F910F900FBE0F901F9075
:1009000018951F920F920FB60F9211248F9381E0CA
:10091000809332028F910F900FBE0F901F90189509
:10092000FC011082118212821382148215821682B7
:1009300017821086118612861386148615861686EF
:1009400017860895089580E090E00895BF92CF92B1
:10095000DF92EF92FF920F931F93CF93DF938B0160
:10096000FB0180810E945E04E801C75FDE4F1882B0
:10097000F801F1808F2D0E945E04EF2DFF27E7FD27
:10098000F0958881E827E55FFE4F80818883F80134
:10099000F2808F2D0E945E04EF2DFF27E7FDF0957A
:1009A0008881E827E55FFE4F80818883F801F38026
:1009B0008F2D0E945E04EF2DFF27E7FDF0958881C3
:1009C000E827E55FFE4F80818883F801F4808F2D52
:1009D0000E945E04EF2DFF27E7FDF0958881E82750
:1009E000E55FFE4F80818883F801C480D580E68072
:1009F000F780CD2CDE2CEF2CFF248C2D0E945E0482
:100A0000EC2DFF27E7FDF0958881E827E55FFE4F95
:100A100080818883F801C480D580E680F7806701F3
:100A2000EE24FF248C2D0E945E04EC2DFF27E7FDB1
:100A3000F0958881E827E55FFE4F80818883F80183
:100A4000C480D580E680F780CF2CDD24EE24FF24FF
:100A50008C2D0E945E04EC2DFF27E7FDF095888128
:100A6000E827E55FFE4F80818883F80182819381CA
:100A7000099760F48881DF91CF911F910F91FF90CA
:100A8000EF90DF90CF90BF900C945E046801FAE085
:100A9000CF0ED11C76012E2D2C1930E0F801828169
:100AA000938108972817390728F7F701B1907F013C
:100AB0008B2D0E945E04EB2DFF27E7FDF0958881CA
:100AC000E827E55FFE4F80818883E5CFCF93DF93F2
:100AD000CDB7DEB7CA50D1400FB6F894DEBF0FBE17
:100AE000CDBF2CE329834A8328E030E03C832B836D
:100AF000FB0144815581668177814D835E836F83DD
:100B00007887BE016F5F7F4F0E94A604C65FDE4FED
:100B10000FB6F894DEBF0FBECDBFDF91CF91089521
:100B20000F931F93CF93DF93EA018091370290E0F8
:100B30008730910508F0CBC08C5C9F4FFC010C9472
:100B40009C096C3309F0C3C081E08093370268834D
:100B500084EB80933602BBC0A0913602A627B0E09A
:100B6000A55FBE4F8C9180933602862F887F80329E
:100B700041F582E08093370269839FC0A0913602DD
:100B8000A627B0E0A55FBE4F8C918093360280917E
:100B900035028F5F80933502062F10E0823018F403
:100BA0001B830A8394C0102F00278A819B81080F22
:100BB000191F1B830A83085011090F3F110521F0EB
:100BC00018F01092370283C083E075C0A0913602FE
:100BD000A627B0E0A55FBE4F8C918093360240916E
:100BE00035024F5F40933502423091F060F441305E
:100BF00009F06DC0062F10E020E030E00C831D836B
:100C00002E833F8364C0433061F04430F1F05FC015
:100C1000062F10E020E030E0322F212F102F002788
:100C200007C0062F10E020E030E0980111270027D0
:100C30008C819D81AE81BF81800F911FA21FB31F48
:100C40008C839D83AE83BF8342C0062F10E020E0DB
:100C500030E0302F2227112700278C819D81AE8123
:100C6000BF81800F911FA21FB31F8C839D83AE8312
:100C7000BF838A819B810897E9F0409337021DC0AA
:100C8000A0913602A627B0E0A55FBE4F8C9180935D
:100C90003602209135022F5F2093350230E0DA01D1
:100CA000A20FB31F19966C938A819B81089728170E
:100CB000390768F086E0809337021092350207C04A
:100CC000DA01A75FBE4F6C9387E080933702809173
:100CD0003702873011F080E00BC0109237029091FC
:100CE0003602DE01A75FBE4F8C919813F4CF8A8144
:100CF000DF91CF911F910F9108950F931F93CF9381
:100D0000DF938C01EB01809133028823E1F3609142
:100D100034021092330248E352E0C8010E94900569
:100D2000882309F4B8C140913C0250913D02609182
:100D30003E0270913F02423C8BEF58078CEE6807F1
:100D40008CE6780709F424C108F04CC04230B9E2BF
:100D50005B07BEE76B07BFE27B0709F4B7C008F586
:100D60004430FAE95F07F7ED6F07FEE07F0709F40B
:100D70000FC138F446315A4A67437B4009F408C131
:100D80007FC14E3CB8E45B07B7E56B07BAE17B0770
:100D900009F405C144375B4E6A477B4109F4F8C04A
:100DA0006FC14E34F8EC5F07FCEB6F07F0E47F0790
:100DB00009F4F5C038F4463E554D6A4D734309F4C5
:100DC0009DC05EC1423EB5E55B07BCE96B07B6E678
:100DD0007B0709F44CC14A355B4B6743774609F4FE
:100DE00075C04EC14A3BF4E85F07F5E26F07FEEBC2
:100DF0007F0709F43CC108F049C04E37A2E15A0709
:100E0000AAE66A07ABE97A0709F4C2C060F54A307E
:100E100051486D427C4809F033C180914402909161
:100E20004502A0914602B09147028EAB9FABA8AF9E
:100E3000B9AF8091480290914902A0914A02B091C5
:100E40004B028AAF9BAFACAFBDAFEE9680914C0228
:100E500090914D02A0914E02B0914F0288839983E8
:100E6000AA83BB830DC14630FEE05F07FCE36F073A
:100E7000FDEA7F0709F467C04A38574F674C784B43
:100E800009F0FEC080915C028883FAC04639A5E370
:100E90005A07A8E06A07A2ED7A0709F4B7C038F448
:100EA00044355D426F4F754C09F472C0E9C0443659
:100EB000F9ED5F07F0EE6F07F7ED7F07F9F0463BBE
:100EC0005342634A724E09F46AC0DAC0D8011F96D1
:100ED000EC911F97F0E0E85CFD4F8285823031F0A5
:100EE000833041F08111CCC081E005C083E0F8017E
:100EF0008087C6C0D80118968C93C2C080915402D6
:100F000090915502A0915602B09157028E8F9F8FFB
:100F1000A8A3B9A38091580290915902A0915A02B6
:100F2000B0915B028AA39BA3ACA3BDA380915C029A
:100F300090915D02A0915E02B0915F028EA39FA38B
:100F4000A8A7B9A79DC08091440290914502A091A5
:100F50004602B09147028AA79BA7ACA7BDA7809184
:100F6000480290914902A0914A02B0914B028EA78B
:100F70009FA7A8ABB9AB80914C0290914D02A09174
:100F80004E02B0914F028AAB9BABACABBDAB78C00D
:100F9000809142028C83809143028D8371C0809145
:100FA000440290914502A0914602B09147028A8B7B
:100FB0009B8BAC8BBD8B8091480290914902A09194
:100FC0004A02B0914B028E8B9F8BA88FB98F809174
:100FD00067028E83809166028F83609154027091C4
:100FE000550280915602909157020E94A20979877A
:100FF0006887609158027091590280915A029091CD
:101000005B020E94A7097B876A873AC020E030E034
:101010004AE754E46091440270914502809146028F
:10102000909147020E94390A0E94A2097D876C872D
:1010300020E030E048EC52E46091480270914902AF
:1010400080914A0290914B020E94390A0E94A209A3
:101050007F876E87609158027091590280915A0281
:1010600090915B020E94A209798B688B09C08091E4
:10107000A50288838091A60289838091A7028A8332
:1010800080913902823251F443E268E372E0C80190
:101090000E94660503C080E090E002C081E090E01D
:1010A000DF91CF911F910F910895CF93DF93CDB72B
:1010B000DEB7C556D1090FB6F894DEBF0FBECDBF5F
:1010C00006E011E0A1E0B1E081E090E064B19D01B3
:1010D000AC010D9002C0440F551F0A94E2F74095F1
:1010E000462344B967B1F801AC01019002C0440F36
:1010F000551F0A94E2F78F01642B67B945B1BC0113
:10110000F901008002C0660F771F0A94E2F7462BB0
:1011100045B971E00B301707C9F6259A8091810017
:101120008A608093810080E49CE990938900809399
:10113000880080ED97E090938B0080938A008091E7
:101140006F00866080936F0084B5826084BD80EA02
:1011500087BD85B5816085BD82E080936E008091FA
:101160006B008F6180936B00809168008160809339
:101170006800789461E080E096E90E943204CE0134
:101180008A5A9F4F0E949004CE0101960E94F40259
:1011900080ED97E090931D0280931C0284EC99E00F
:1011A00090931F0280931E0288EB9BE09093210294
:1011B000809320028CEA9DE0909323028093220288
:1011C00080EA9FE0909325028093240280E090E0E3
:1011D00020E030E0AC01440F551FFA01E45EFD4F02
:1011E00060817181260F371FFA01EE5EFD4F31835A
:1011F000208301968530910569F788E6C82E8BE03B
:10120000D82E66E87BE0E4EAFBE0A1E0B0E088EB02
:101210009BE000ED17E020EA3FE0E0900C02F09048
:101220000D02EF2821F5E0900E02F0900F024DEA3A
:10123000E4164DE0F40608F448C02D9AB0930D0270
:10124000A0930C0290931D0280931C0210931F0226
:1012500000931E02309321022093200290932302D8
:101260008093220230932502209324022EC0E09026
:101270000C02F0900D02EA94EF2899F4E0900E022F
:10128000F0900F024DEDE41645E0F406F0F0E0902A
:101290000E02F0900F024AECE41648E0F40620F14A
:1012A00014C0E0900C02F0900D0242E0E416F1044C
:1012B00061F4D0921D02C0921C02709321026093CF
:1012C0002002F0932302E0932202E0901C02F090AF
:1012D0001D024EE2E41649E0F40608F09ECFE090CD
:1012E0002202F090230299CF2D9810920D021092B5
:1012F0000C02EBCFA1E21A2EAA1BBB1BFD010DC0F5
:10130000AA1FBB1FEE1FFF1FA217B307E407F507B5
:1013100020F0A21BB30BE40BF50B661F771F881F91
:10132000991F1A9469F760957095809590959B0127
:10133000AC01BD01CF010895EE0FFF1F0590F491A0
:10134000E02D099404D06894B1118DC0089570D037
:1013500088F09F5790F0B92F9927B751A0F0D1F09E
:10136000660F771F881F991F1AF0BA95C9F712C028
:10137000B13081F077D0B1E0089574C0672F782F35
:101380008827B85F39F0B93FCCF386957795679594
:10139000B395D9F73EF490958095709561957F4F00
:1013A0008F4F9F4F0895E89409C097FB3EF49095A6
:1013B0008095709561957F4F8F4F9F4F9923A9F02E
:1013C000F92F96E9BB279395F695879577956795BD
:1013D000B795F111F8CFFAF4BB0F11F460FF1BC001
:1013E0006F5F7F4F8F4F9F4F16C0882311F096E994
:1013F00011C0772321F09EE8872F762F05C0662342
:1014000071F096E8862F70E060E02AF09A95660FFA
:10141000771F881FDAF7880F9695879597F90895B3
:1014200057FD9058440F551F59F05F3F71F0479595
:10143000880F97FB991F61F09F3F79F0879508957A
:10144000121613061406551FF2CF4695F1DF08C099
:10145000161617061806991FF1CF869571056105B6
:1014600008940895E894BB2766277727CB0197F95E
:1014700008950BD078C069D028F06ED018F095236D
:1014800009F05AC05FC01124EECFCADFA0F3959FC8
:10149000D1F3950F50E0551F629FF001729FBB275B
:1014A000F00DB11D639FAA27F00DB11DAA1F649F07
:1014B0006627B00DA11D661F829F2227B00DA11DBA
:1014C000621F739FB00DA11D621F839FA00D611D40
:1014D000221F749F3327A00D611D231F849F600D61
:1014E000211D822F762F6A2F11249F5750408AF09A
:1014F000E1F088234AF0EE0FFF1FBB1F661F771F26
:10150000881F91505040A9F79E3F510570F014C0BC
:10151000AACF5F3FECF3983EDCF38695779567950D
:10152000B795F795E7959F5FC1F7FE2B880F911D43
:101530009695879597F9089597F99F6780E870E0E9
:1015400060E008959FEF80EC089500240A94161639
:10155000170618060906089500240A9412161306A1
:10156000140605060895092E0394000C11F488232F
:1015700052F0BB0F40F4BF2B11F460FF04C06F5F4B
:0C1580007F4F8F4F9F4F0895F894FFCFCE
:10158C00FF0001020304000102030400070E091C02
:10159C001B1215383F363124232A2D70777E796C37
:1015AC006B6265484F464154535A5DE0E7EEE9FCE7
:1015BC00FBF2F5D8DFD6D1C4C3CACD90979E998CD7
:1015CC008B8285A8AFA6A1B4B3BABDC7C0C9CEDB08
:1015DC00DCD5D2FFF8F1F6E3E4EDEAB7B0B9BEAB77
:1015EC00ACA5A28F88818693949D9A2720292E3BA7
:1015FC003C35321F18111603040D0A5750595E4B17
:10160C004C45426F68616673747D7A898E878095CC
:10161C00929B9CB1B6BFB8ADAAA3A4F9FEF7F0E5B6
:10162C00E2EBECC1C6CFC8DDDAD3D4696E67607566
:10163C00727B7C51565F584D4A4344191E17100556
:10164C00020B0C21262F283D3A33344E4940475289
:10165C00555C5B7671787F6A6D64633E39303722F6
:10166C00252C2B0601080F1A1D1413AEA9A0A7B226
:10167C00B5BCBB9691989F8A8D8483DED9D0D7C296
:0C168C00C5CCCBE6E1E8EFFAFDF4F3007A
:00000001FF
