:100000000C943B000C9458000C9458000C94EE0196
:100010000C9458000C9458000C9458000C94580000
:100020000C9458000C9458000C9458000C945A00EE
:100030000C942A010C9458000C9499010C945800CB
:100040000C9458000C9458000C9403030C94580022
:100050000C9416030C9458000C9458000C945800FF
:100060000C9458000C94580094049F04B104D904D3
:1000700033053305530511241FBECFEFD8E0DEBF93
:10008000CDBF12E0A0E0B1E0EAE5F3E102C00590E7
:100090000D92AC30B107D9F712E0ACE0B2E001C08C
:1000A0001D92A833B107E1F70E942A070C94AB090F
:1000B0000C9400001F920F920FB60F9211242F93F1
:1000C0003F934F935F936F937F938F939F93EF93A0
:1000D000FF9381E08093300280911C0290911D0279
:1000E000892B61F028B181E090E00090060102C008
:1000F000880F991F0A94E2F7282B28B980E090E036
:1001000020E030E0AC01440F551FFA01E45EFD4FE2
:1001100060817181260F371FFA01EE5EFD4F31833A
:10012000208301968530910569F781E08093110263
:1001300080910C0290910D02059709F047C08091C3
:100140000E0290910F028D3A9D4028F183E090E0DD
:1001500090930D0280930C0280ED97E090931D0226
:1001600080931C0284EC99E090931F0280931E02FE
:1001700088EB9BE090932102809320028CEA9DE023
:10018000909323028093220280EA9FE090932502BD
:10019000809324020BC080910E0290910F028D3D3E
:1001A000954020F010920D0210920C0280911E02D8
:1001B00090911F028536910548F080911E02909122
:1001C0001F02019790931F0280931E0280910C02E0
:1001D00090910D02059779F1809110028F5F8093C5
:1001E0001002863040F185E090E090930D028093FC
:1001F0000C0288E69BE090931D0280931C0284E52C
:100200009BE090931F0280931E0286E89BE09093F0
:1002100021028093200284EA9BE090932302809342
:10022000220280ED97E090932502809324021092A1
:100230000F0210920E02FF91EF919F918F917F918B
:100240006F915F914F913F912F910F900FBE0F9043
:100250001F9018951F920F920FB60F9211242F9393
:100260003F934F935F938F939F93EF93FF9380916F
:100270003002882309F450C0E091300248B1F0E028
:10028000EB5FFE4F21E030E0C901008002C0880F23
:10029000991F0A94E2F78095909550E08423952366
:1002A00088B980913002853068F5E0913002F0E045
:1002B000EE0FFF1FEE5EFD4F8081918190938B00CA
:1002C00080938A00E0913002F0E0EE0FFF1FE45EC1
:1002D000FD4F80819181892B79F0E091300248B106
:1002E000F0E0EA5FFE4FC901008002C0880F991F4D
:1002F0000A94E2F7842B88B9809130028F5F809353
:1003000030020AC0809112029091130290938B00E8
:1003100080938A0010923002FF91EF919F918F910C
:100320005F914F913F912F910F900FBE0F901F90B3
:1003300018951F920F920FB60F9211248F939F93CF
:1003400080910C0290910D02892BA1F580913102D0
:1003500080FF09C080912602909127020196909318
:100360002702809326028091310281FF09C080918B
:1003700028029091290201969093290280932802E5
:100380008091310282FF09C080912A0290912B0254
:10039000019690932B0280932A028091310283FF71
:1003A00009C080912C0290912D02019690932D020C
:1003B00080932C028091310284FF09C080912E022B
:1003C00090912F02019690932F0280932E029F917D
:1003D0008F910F900FBE0F901F9018951F920F9244
:1003E0000FB60F9211242F933F934F935F936F9308
:1003F0007F938F939F93AF93BF93EF93FF9363B1DB
:1004000080910001682783B180930001109210024F
:1004100080910C0290910D02892B11F4A0E001C093
:10042000A4E070E041E050E0B4E18A2F90E09B014D
:100430000A2E02C0359527950A94E2F720FF6AC07C
:1004400023B130E00A2E02C0359527950A94E2F7D1
:1004500020FF0DC020913102FA010A2E02C0EE0FDA
:10046000FF1F0A94E2F72E2B2093310253C02091F4
:10047000310230E00A2E02C0359527950A94E2F742
:1004800020FF48C023B130E00A2E02C035952795E1
:100490000A94E2F720FD3EC0E09131029A010A2E53
:1004A00001C0220F0A94EAF720952E2320933102EF
:1004B000880F991FFC01EA5DFD4F208131812D5F7E
:1004C0003F4F3183208320910C0230910D02232B6A
:1004D00069F40190F081E02DBE9F9001BF9F300D27
:1004E0001124FC01E45EFD4F31832083A43069F4C4
:1004F000E0912E02F0912F02BE9F9001BF9F300D20
:10050000112430930F0220930E02FC01EA5DFD4F8F
:1005100011821082AF5FA53009F087CFFF91EF9174
:10052000BF91AF919F918F917F916F915F914F910B
:100530003F912F910F900FBE0F901F901895CF9362
:10054000DF93EC0102960E94250383E088831982E1
:100550001B821A8282E090E09D838C8381E090E090
:100560009F838E83DF91CF91089502960E9470053C
:1005700080E00895FC0186AD97AD0F9730F081E0E3
:1005800094A9973018F080E0089581E00895CF9302
:10059000C62F9C0140E050E084E0220F331F441F2F
:1005A000551F8A95D1F760E074E284EF90E00E94D5
:1005B0005508215031093093C5002093C400809123
:1005C000C2008E608093C2008091C10088618093D8
:1005D000C100CC2331F08091C100806C8093C100B8
:1005E0007894CF9108959091C00095FFFCCF8093AF
:1005F000C6001092320208958091C00087FFFCCFA0
:100600008091C60008951F920F920FB60F92112489
:100610008F938091C6008093340281E080933302EF
:100620008F910F900FBE0F901F9018951F920F92F1
:100630000FB60F9211248F9381E0809332028F9135
:100640000F900FBE0F901F901895FC01DC01AE5B60
:10065000BF4F1D921D921D921C921397DC01AA5B45
:10066000BF4F1D921D921D921C921397DC01A65B39
:10067000BF4F1C92DC01A55BBF4F1D921D921D92C6
:100680001C921397DC01A15BBF4F1C92DC01A05BA5
:10069000BF4F1C92DC01AF5ABF4F1C9210821182D7
:1006A0001382148215821682178210861186128692
:1006B00013861486158616861786108A118A12A646
:1006C00013A614A615A616A617A610AA11AA12AA52
:1006D00013AA15AA14AA16AA17AA10AE11AE13AE21
:1006E00012AE15AE14AE17AE16AEE05CFF4F11821F
:1006F00010820895089580E090E00895640F751FBA
:10070000FB0182850895640F751FFB018485958523
:100710000895640F751FFB0164857585868597852F
:100720000895640F751FFB0164857585868597851F
:100730000895BF92CF92DF92EF92FF920F931F9393
:10074000CF93DF938B01FB0180810E94F302E801CC
:10075000C75FDE4F1882F801F1808F2D0E94F302EF
:10076000EF2DFF27E7FDF0958881E827E55FFE4F35
:1007700080818883F801F2808F2D0E94F302EF2D93
:10078000FF27E7FDF0958881E827E55FFE4F808130
:100790008883F801F3808F2D0E94F302EF2DFF274D
:1007A000E7FDF0958881E827E55FFE4F808188832B
:1007B000F801F4808F2D0E94F302EF2DFF27E7FD53
:1007C000F0958881E827E55FFE4F80818883F801F6
:1007D000C480D580E680F780CD2CDE2CEF2CFF2462
:1007E0008C2D0E94F302EC2DFF27E7FDF095888108
:1007F000E827E55FFE4F80818883F801C480D580BB
:10080000E680F7806701EE24FF248C2D0E94F3021E
:10081000EC2DFF27E7FDF0958881E827E55FFE4F87
:1008200080818883F801C480D580E680F780CF2C52
:10083000DD24EE24FF248C2D0E94F302EC2DFF27F3
:10084000E7FDF0958881E827E55FFE4F808188838A
:10085000F80182819381099760F48881DF91CF91BB
:100860001F910F91FF90EF90DF90CF90BF900C946D
:10087000F3026801FAE0CF0ED11C76012E2D2C195F
:1008800030E0F8018281938108972817390728F70B
:10089000F701B1907F018B2D0E94F302EB2DFF2712
:1008A000E7FDF0958881E827E55FFE4F808188832A
:1008B000E5CFCF93DF93CDB7DEB7CA50D1400FB6A7
:1008C000F894DEBF0FBECDBF2CE329834A8328E016
:1008D00030E03C832B83FB01448155816681778125
:1008E0004D835E836F837887BE016F5F7F4F0E9469
:1008F0009903C65FDE4F0FB6F894DEBF0FBECDBFC3
:10090000DF91CF9108950F931F93CF93DF93EA0167
:100910008091370290E08730910508F0CBC08C5C65
:100920009F4FFC010C9477086C3309F0C3C081E041
:1009300080933702688384EB80933602BBC0A0911A
:100940003602A627B0E0A55FBE4F8C918093360299
:10095000862F887F803241F582E080933702698359
:100960009FC0A0913602A627B0E0A55FBE4F8C9134
:1009700080933602809135028F5F80933502062F77
:1009800010E0823018F41B830A8394C0102F0027D4
:100990008A819B81080F191F1B830A830850110944
:1009A0000F3F110521F018F01092370283C083E049
:1009B00075C0A0913602A627B0E0A55FBE4F8C910E
:1009C00080933602409135024F5F409335024230AA
:1009D00091F060F4413009F06DC0062F10E020E086
:1009E00030E00C831D832E833F8364C0433061F06D
:1009F0004430F1F05FC0062F10E020E030E0322FED
:100A0000212F102F002707C0062F10E020E030E034
:100A10009801112700278C819D81AE81BF81800FB5
:100A2000911FA21FB31F8C839D83AE83BF8342C0DF
:100A3000062F10E020E030E0302F2227112700277A
:100A40008C819D81AE81BF81800F911FA21FB31F3A
:100A50008C839D83AE83BF838A819B810897E9F055
:100A6000409337021DC0A0913602A627B0E0A55FD3
:100A7000BE4F8C9180933602209135022F5F2093D8
:100A8000350230E0DA01A20FB31F19966C938A8108
:100A90009B8108972817390768F086E08093370212
:100AA0001092350207C0DA01A75FBE4F6C9387E052
:100AB0008093370280913702873011F080E00BC0BD
:100AC0001092370290913602DE01A75FBE4F8C91E3
:100AD0009813F4CF8A81DF91CF911F910F910895E0
:100AE0000F931F93CF93DF93CDB7DEB7CA50D1409A
:100AF0000FB6F894DEBF0FBECDBF8C0180913302DC
:100B00008823E1F36091340210923302AE014F5F0B
:100B10005F4FC8010E948304882381F34D815E8169
:100B20006F817885423C8BEF58078CEE68078CE626
:100B3000780709F4FDC008F04CC04230F9E25F07C5
:100B4000FEE76F07FFE27F0709F4A9C008F544300C
:100B5000EAE95E07E7ED6E07EEE07E0709F4E8C01C
:100B600038F446315A4A67437B4009F4E1C05AC120
:100B70004E3CE8E45E07E7E56E07EAE17E0709F42C
:100B8000DFC044375B4E6A477B4109F4D1C04AC19C
:100B90004E3488EC58078CEB680780E4780709F43A
:100BA000CFC038F4463E554D6A4D734309F48CC0AE
:100BB00039C1423E85E558078CE9680786E6780723
:100BC00009F423C14A355B4B6743774609F467C094
:100BD00029C14A3BF4E85F07F5E26F07FEEB7F07A8
:100BE00009F413C1E0F54E37E2E15E07EAE66E076D
:100BF000EBE97E0709F49CC000F54A3051486D428C
:100C00007C4809F00FC18D859E85AF85B889F801B4
:100C1000868F978FA0A3B1A389899A89AB89BC8954
:100C200082A393A3A4A3B5A38D899E89AF89B88D10
:100C300086A397A3A0A7B1A7F5C04630EEE05E0754
:100C4000ECE36E07EDEA7E0709F458C04A38574FC7
:100C5000674C784B09F0E6C08DA1F8016FC04639AA
:100C600085E3580788E0680782ED780709F4A3C098
:100C700038F444355D426F4F754C09F459C0D2C009
:100C8000443689ED580780EE680787ED7807E1F074
:100C9000463B5342634A724E09F452C0C3C0F80146
:100CA000EF5AFF4F8081FE01E80FF11D83858230EE
:100CB00031F0833029F08111B5C081E001C083E0BB
:100CC000F801E65BFF4F3AC08D8D9E8DAF8DB8A1C8
:100CD000F80186839783A087B18789A19AA1ABA1E8
:100CE000BCA182879387A487B5878DA19EA1AFA160
:100CF000B8A586879787A08BB18B94C08D859E857C
:100D0000AF85B889F801828B938BA48BB58B8989C9
:100D10009A89AB89BC89868B978BA08FB18F8D897F
:100D20009E89AF89B88D828F938FA48FB58F7AC03B
:100D30008B85F80184838C85858374C0808372C021
:100D40008D859E85AF85B889F80182A793A7A4A752
:100D5000B5A789899A89AB89BC8986A797A7A0ABD3
:100D6000B1AB88A982AB8FA583AB6D8D7E8D8F8D46
:100D700098A10E947D08F80175AB64AB20E030E0DB
:100D800048EC52E46D897E898F89988D0E94D7083E
:100D90000E943A090E947D08F80166AB77AB80AFEC
:100DA00091AF69A17AA18BA19CA10E948208F80150
:100DB00073AF62AF37C020E030E04AE754E46D859E
:100DC0007E858F8598890E94D7080E947D08F8014A
:100DD00075AF64AF20E030E048EC52E469897A896D
:100DE0008B899C890E94D7080E947D08F80177AF03
:100DF00066AF69A17AA18BA19CA10E947D08F80130
:100E0000E05CFF4F718360830DC0AF968FADAF97ED
:100E1000F8018083E0968FADE0978183E1968FADF6
:100E2000E19782838A81823239F443E2BE016F5FA7
:100E30007F4FC8010E94590481E090E0C65FDE4FF9
:100E40000FB6F894DEBF0FBECDBFDF91CF911F91DB
:100E50000F910895CF93DF93CDB7DEB7C455D10975
:100E60000FB6F894DEBF0FBECDBF06E011E0A1E0E3
:100E7000B1E081E090E064B19D01AC010D9002C051
:100E8000440F551F0A94E2F74095462344B967B1D1
:100E9000F801AC01019002C0440F551F0A94E2F71B
:100EA0008F01642B67B945B1BC01F901008002C014
:100EB000660F771F0A94E2F7462B45B971E00B30B5
:100EC0001707C9F68EEF8AB9259A809181008A604A
:100ED0008093810080E49CE990938900809388004E
:100EE00080ED97E090938B0080938A0080916F0053
:100EF000866080936F0084B5826084BD80EA87BD80
:100F000085B5816085BD82E080936E0080916B0025
:100F10008F6180936B00809168008160809368008E
:100F2000789461E080E096E90E94C702CE010196C4
:100F30000E949F0280ED97E090931D0280931C0217
:100F400084EC99E090931F0280931E0288EB9BE053
:100F500090932102809320028CEA9DE090932302DB
:100F60008093220280EA9FE09093250280932402DE
:100F700080E090E020E030E0AC01440F551FFA0122
:100F8000E45EFD4F60817181260F371FFA01EE5E2E
:100F9000FD4F3183208301968530910569F788E6FE
:100FA000A82E8BE0B82E96E8892E9BE0992E24EA95
:100FB0003BE043E050E060ED77E0E4ECF9E0A8EBE3
:100FC000BBE00CEA1DE080EAE82E8FE0F82EC0902E
:100FD0000C02D0900D02CD2821F5C0900E02D090C9
:100FE0000F028DEAC8168DE0D80608F449C02D9A84
:100FF00050930D0240930C0270931D0260931C02EB
:10100000F0931F02E0931E02B0932102A0932002EE
:101010001093230200932202F0922502E092240210
:101020002FC0C0900C02D0900D0283E0C816D104EE
:1010300099F4C0900E02D0900F028DEDC81685E095
:10104000D806F0F0C0900E02D0900F028AECC816BD
:1010500088E0D80620F114C0C0900C02D0900D0298
:1010600085E0C816D10461F4B0921D02A0921C0262
:101070009092210280922002309323022093220238
:10108000C0901C02D0901D028EE2C81689E0D806DE
:1010900008F09DCFC0902202D090230298CF2D98C7
:1010A00010920D0210920C02EBCFA1E21A2EAA1B95
:1010B000BB1BFD010DC0AA1FBB1FEE1FFF1FA21708
:1010C000B307E407F50720F0A21BB30BE40BF50B05
:1010D000661F771F881F991F1A9469F7609570958E
:1010E000809590959B01AC01BD01CF010895EE0F55
:1010F000FF1F0590F491E02D099404D06894B1117C
:1011000050C0089533D088F09F5790F0B92F992799
:10111000B751A0F0D1F0660F771F881F991F1AF002
:10112000BA95C9F712C0B13081F03AD0B1E0089554
:1011300037C0672F782F8827B85F39F0B93FCCF3D5
:10114000869577956795B395D9F73EF490958095F8
:10115000709561957F4F8F4F9F4F089557FD905821
:10116000440F551F59F05F3F71F04795880F97FB6B
:10117000991F61F09F3F79F0879508951216130625
:101180001406551FF2CF4695F1DF08C01616170654
:101190001806991FF1CF8695710561050894089589
:1011A000E894BB2766277727CB0197F908950BD0E2
:1011B000C1C0B2D028F0B7D018F0952309F07AC09A
:1011C000A8C01124EECFCADFA0F3959FD1F3950FED
:1011D00050E0551F629FF001729FBB27F00DB11DBB
:1011E000639FAA27F00DB11DAA1F649F6627B00D4B
:1011F000A11D661F829F2227B00DA11D621F739F34
:10120000B00DA11D621F839FA00D611D221F749F41
:101210003327A00D611D231F849F600D211D822F88
:10122000762F6A2F11249F5750408AF0E1F08823CF
:101230004AF0EE0FFF1FBB1F661F771F881F9150DC
:101240005040A9F79E3F510570F034C0AACF5F3FD0
:10125000ECF3983EDCF3869577956795B795F7950F
:10126000E7959F5FC1F7FE2B880F911D9695879597
:1012700097F908957BDFE0F09E37D8F09639B8F4FF
:101280009E3848F4672F782F8827985FF9CF869586
:101290007795679593959539D0F3B62FB1706B0F0D
:1012A000711D811D20F4879577956795939508C0EA
:1012B00022C077CF97F99F6780E870E060E00895DB
:1012C000882371F4772321F09850872B762F07C05D
:1012D000662311F499270DC09051862B70E060E0D1
:1012E0002AF09A95660F771F881FDAF7880F969570
:1012F000879597F908959F3F31F0915020F4879595
:1013000077956795B795880F911D9695879597F96D
:1013100008959FEF80EC089500240A94161617068E
:1013200018060906089500240A94121613061406D6
:1013300005060895092E0394000C11F4882352F039
:10134000BB0F40F4BF2B11F460FF04C06F5F7F4FF1
:0A1350008F4F9F4F0895F894FFCFD0
:10135A00FF0001020304000102030400070E091C36
:10136A001B1215383F363124232A2D70777E796C6B
:10137A006B6265484F464154535A5DE0E7EEE9FC1B
:10138A00FBF2F5D8DFD6D1C4C3CACD90979E998C0B
:10139A008B8285A8AFA6A1B4B3BABDC7C0C9CEDB3C
:1013AA00DCD5D2FFF8F1F6E3E4EDEAB7B0B9BEABAB
:1013BA00ACA5A28F88818693949D9A2720292E3BDB
:1013CA003C35321F18111603040D0A5750595E4B4B
:1013DA004C45426F68616673747D7A898E87809501
:1013EA00929B9CB1B6BFB8ADAAA3A4F9FEF7F0E5EB
:1013FA00E2EBECC1C6CFC8DDDAD3D4696E6760759B
:10140A00727B7C51565F584D4A4344191E1710058A
:10141A00020B0C21262F283D3A33344E49404752BD
:10142A00555C5B7671787F6A6D64633E393037222A
:10143A00252C2B0601080F1A1D1413AEA9A0A7B25A
:10144A00B5BCBB9691989F8A8D8483DED9D0D7C2CA
:0C145A00C5CCCBE6E1E8EFFAFDF4F300AE
:00000001FF
