:100000000C943B000C9458000C9458000C9458002D
:100010000C9458000C9485010C9458000C945800D2
:100020000C9458000C9458000C9458000C945A00EE
:100030000C94EF000C9458000C9458000C94580049
:100040000C9458000C9458000C9446050C945800DD
:100050000C9459050C9458000C9458000C945800BA
:100060000C9458000C945800790684069606BE0637
:1000700018071807380711241FBECFEFD8E0DEBFDE
:10008000CDBF12E0A0E0B1E0EAE4F7E102C00590E4
:100090000D92AC30B107D9F713E0ACE0B2E001C08B
:1000A0001D92AC34B107E1F70E943C090C94A30BFC
:1000B0000C9400001F920F920FB60F9211242F93F1
:1000C0003F938F939F9381E080933A0280911C022B
:1000D00090911D02892B61F028B181E090E00090A1
:1000E000060102C0880F991F0A94E2F7282B28B94D
:1000F00080911C0290911D02909313028093120232
:10010000209112023091130280911E0290911F02E1
:10011000820F931F90931502809314022091140272
:10012000309115028091200290912102820F931F3D
:1001300090931702809316022091160230911702B5
:100140008091220290912302820F931F90931902B3
:100150008093180220911802309119028091240294
:1001600090912502820F931F90931B0280931A0295
:10017000809111028F5F8093110280910C02909107
:100180000D02029719F1809110028F5F8093100287
:100190008630E0F082E090E090930D0280930C02B4
:1001A00088EB9BE090931D0280931C0290931F02AA
:1001B00080931E0290932102809320029093230249
:1001C0008093220290932502809324029F918F9125
:1001D0003F912F910F900FBE0F901F9018951F9277
:1001E0000F920FB60F9211242F933F938F939F93EB
:1001F000EF93FF9380913A02882309F47BC08091AA
:100200003A02E0913A02853099F42BB1F0E0EB5FCD
:10021000FE4F81E090E0008002C0880F991F0A9491
:10022000E2F78095909530E0822393238BB912C03A
:1002300028B1F0E0EB5FFE4F81E090E0008002C06B
:10024000880F991F0A94E2F78095909530E08223F9
:10025000932388B980913A02853008F041C0E0913B
:100260003A02F0E0EE0FFF1FEE5EFD4F80819181BC
:1002700090938B0080938A00E0913A02F0E0EE0FB9
:10028000FF1FE45EFD4F80819181892B19F18091E0
:100290003A02E0913A02843078F428B1F0E0EA5F63
:1002A000FE4F81E090E0008002C0880F991F0A9401
:1002B000E2F7822B88B90EC02BB1F0E0EA5FFE4F67
:1002C00081E090E0008002C0880F991F0A94E2F755
:1002D000822B8BB980913A028F5F80933A020AC0D9
:1002E000809112029091130290938B0080938A0068
:1002F00010923A02FF91EF919F918F913F912F9130
:100300000F900FBE0F901F9018951F920F920FB66F
:100310000F9211242F933F934F935F936F937F938B
:100320008F939F93AF93BF93EF93FF9329B18091E6
:100330000001282789B1809300011092100222FF4A
:1003400041C04A9B09C080918400909185009093A0
:1003500027028093260236C04A9934C080918400D7
:10036000909185004091260250912702E0918400EF
:10037000F09185006091260270912702E617F70739
:1003800070F4609184007091850080918800909154
:1003900089004091260250912702860F971F841BE7
:1003A000950BA0E0B0E0AC01BD01415051096109DD
:1003B0007109433951416105710520F490931D0283
:1003C00080931C0223FF41C04B9B09C08091840095
:1003D00090918500909329028093280236C04B9912
:1003E00034C0809184009091850040912802509102
:1003F0002902E0918400F0918500609128027091BB
:100400002902E617F70770F4609184007091850067
:100410008091880090918900409128025091290292
:10042000860F971F841B950BA0E0B0E0AC01BD01C7
:100430004150510961097109433951416105710503
:1004400020F490931F0280931E0224FF41C04C9B16
:1004500009C0809184009091850090932B02809335
:100460002A0236C04C9934C0809184009091850056
:1004700040912A0250912B02E0918400F091850076
:1004800060912A0270912B02E617F70770F46091D1
:10049000840070918500809188009091890040913E
:1004A0002A0250912B02860F971F841B950BA0E008
:1004B000B0E0AC01BD0141505109610971094339F6
:1004C00051416105710520F490932102809320022F
:1004D00025FF41C04D9B09C080918400909185000B
:1004E00090932D0280932C0236C04D9934C0809198
:1004F00084009091850040912C0250912D02E09152
:100500008400F091850060912C0270912D02E61715
:10051000F70770F4609184007091850080918800E5
:100520009091890040912C0250912D02860F971FC7
:10053000841B950BA0E0B0E0AC01BD014150510916
:1005400061097109433951416105710520F49093A6
:1005500023028093220226FF45C04E9B09C0809152
:1005600084009091850090932F0280932E023AC0D0
:100570004E9938C0809184009091850020912E0280
:1005800030912F02609184007091850040912E027D
:1005900050912F026417750770F4409184005091B8
:1005A0008500809188009091890020912E023091E1
:1005B0002F02840F951F821B930BA0E0B0E0AC01CB
:1005C000BD0141505109610971094339514161052A
:1005D000710540F4909325028093240290930F02BA
:1005E00080930E02FF91EF91BF91AF919F918F91F8
:1005F0007F916F915F914F913F912F910F900FBE1F
:100600000F901F9018950895089508958F929F92C6
:10061000AF92BF92CF92DF92EF92FF920F931F9310
:10062000CF93DF934A015B018901C2E2D2E0688186
:10063000798180E090E00E94B20A6B017C01A50103
:100640009401F801668D778D80A191A10E941C0A0A
:100650009B01AC01C701B6010E941D0A0E94860AD7
:1006600079836883DF91CF911F910F91FF90EF9075
:10067000DF90CF90BF90AF909F908F900895089596
:1006800008951092B90080E28093B80084E08093CE
:10069000BC00089584EA8093BC008091BC0087FF71
:1006A000FCCF8091B900887F089584E98093BC00D5
:1006B0008091B900887F08958093BB0084E880937F
:1006C000BC008091BC0087FFFCCF8091B900887F7F
:1006D000089584EC8093BC008091BC0087FFFCCF20
:1006E0008091BB00089584E88093BC008091BC0099
:1006F00087FFFCCF8091BB0008950F931F93CF938A
:10070000DF93EC0102960E940303CE0103960E9440
:1007100068058E010D5E1F4FC8010E94FB0383E038
:10072000888319821B821A8284E190E09D838C83E6
:100730001F821E821986188622E030E03B872A87B6
:100740009D878C871F861E86198A188A81E090E013
:100750009B8B8A8B1F8A1E8A1C8A1D8A188E198E73
:100760001AAA1BAA1CAA1DAA1EAA1FAA18AE19AE55
:100770001AAE1BAE1CAE1DAE1EA21FA218A619A655
:100780001AA61BA61CA61DA61A8E1B8E1D8E1C8EBD
:100790001EA61FA618AA19AA1F8E1E8E19A218A27D
:1007A0001BA21AA21DA21CA2C801DF91CF911F910A
:1007B0000F910C947A04FC0180A191A10F9730F065
:1007C00081E0928D973018F080E0089581E00895DF
:1007D000FC01218138E0239FE00DF11D11242281CD
:1007E0003381232B29F40E94DB0391E0811101C0A6
:1007F00090E0892F0895089560E070E0CB0108959E
:100800001F93CF93DF931F92CDB7DEB769830E940A
:100810004A0380EC0E945C036981862F0E945C037E
:100820000E9455030E944A0381EC0E945C030E94CF
:100830007303182F0E945503812F0F90DF91CF91E2
:100840001F9108951F93CF93DF93EC0115E660E0AD
:10085000CE010E94000482FD07C01150C1F760E084
:1008600070EC89E794EC28C00E944A0380EC0E9457
:100870005C0384E00E945C030E944A0381EC0E94B6
:100880005C030E946903682F70E0D62FCC270E947A
:100890007303C82B0E945503BE0194E076956795BB
:1008A0009A95E1F780E090E00E94B20A20E030E003
:1008B00040E85DE30E94400BDF91CF911F910895C6
:1008C000CF93DF9300D0CDB7DEB74A8369830E9410
:1008D0004A0380EC0E945C036981862F0E945C03BE
:1008E0004A81842F0E945C030F900F90DF91CF917B
:1008F0000C945503CF93DF93EC010E9441030E94B7
:100900004A03883019F50E9455036CE0CE010E941D
:100910000004843CE9F440E066E2CE010E946004F9
:1009200048EB66E2CE010E94600447E063E1CE013D
:100930000E94600447E66DE2CE010E94600449EB2C
:1009400066E2CE010E94600480E003C081E001C045
:1009500082E0DF91CF910895CF93DF93EC014BEBD1
:1009600066E20E94600449EB66E2CE01DF91CF911E
:100970000C946004CF92DF92EF92FF92CF937C01B0
:100980000E94AC04C5E660E0C7010E94000482FD3D
:1009900007C0C150C1F760E070EC89E794EC34C047
:1009A0000E944A0380EC0E945C0381E00E945C0389
:1009B0000E944A0381EC0E945C030E946903C82ED6
:1009C000D12CE12CF12CFE2CED2CDC2CCC240E9423
:1009D0006903C82AFE2CED2CDC2CCC240E94730366
:1009E000C82A0E945503C701B60144E09695879531
:1009F000779567954A95D1F70E94B20A20E030E0DA
:100A000040E85DE30E94400BCF91FF90EF90DF90B4
:100A1000CF900895CF93C62F9C0140E050E084E032
:100A2000220F331F441F551F8A95D1F760E074E2EF
:100A300084EF90E00E94F409215031093093C50001
:100A40002093C4008091C2008E608093C200809188
:100A5000C10088618093C100CC2331F08091C10036
:100A6000806C8093C1007894CF9108959091C000DC
:100A700095FFFCCF8093C60010923C0208958091B0
:100A8000C00087FFFCCF8091C60008951F920F928F
:100A90000FB60F9211248F938091C60080933E026F
:100AA00081E080933D028F910F900FBE0F901F90B9
:100AB00018951F920F920FB60F9211248F9381E019
:100AC00080933C028F910F900FBE0F901F9018954E
:100AD000FC01108211821282138214821582168206
:100AE000178210861186128613861486158616863E
:100AF00017860895089580E090E00895BF92CF9200
:100B0000DF92EF92FF920F931F93CF93DF938B01AE
:100B1000FB0180810E943605E801C75FDE4F188225
:100B2000F801F1808F2D0E943605EF2DFF27E7FD9C
:100B3000F0958881E827E55FFE4F80818883F80182
:100B4000F2808F2D0E943605EF2DFF27E7FDF095EF
:100B50008881E827E55FFE4F80818883F801F38074
:100B60008F2D0E943605EF2DFF27E7FDF095888138
:100B7000E827E55FFE4F80818883F801F4808F2DA0
:100B80000E943605EF2DFF27E7FDF0958881E827C5
:100B9000E55FFE4F80818883F801C480D580E680C0
:100BA000F780CD2CDE2CEF2CFF248C2D0E943605F7
:100BB000EC2DFF27E7FDF0958881E827E55FFE4FE4
:100BC00080818883F801C480D580E680F780670142
:100BD000EE24FF248C2D0E943605EC2DFF27E7FD27
:100BE000F0958881E827E55FFE4F80818883F801D2
:100BF000C480D580E680F780CF2CDD24EE24FF244E
:100C00008C2D0E943605EC2DFF27E7FDF09588819D
:100C1000E827E55FFE4F80818883F8018281938118
:100C2000099760F48881DF91CF911F910F91FF9018
:100C3000EF90DF90CF90BF900C9436056801FAE0FA
:100C4000CF0ED11C76012E2D2C1930E0F8018281B7
:100C5000938108972817390728F7F701B1907F018A
:100C60008B2D0E943605EB2DFF27E7FDF09588813F
:100C7000E827E55FFE4F80818883E5CFCF93DF9340
:100C8000CDB7DEB7CA50D1400FB6F894DEBF0FBE65
:100C9000CDBF2CE329834A8328E030E03C832B83BB
:100CA000FB0144815581668177814D835E836F832B
:100CB0007887BE016F5F7F4F0E947E05C65FDE4F63
:100CC0000FB6F894DEBF0FBECDBFDF91CF91089570
:100CD0000F931F93CF93DF93EA018091410290E03D
:100CE0008730910508F0CBC08C5C9F4FFC010C94C1
:100CF000160A6C3309F0C3C081E080934102688317
:100D000084EB80934002BBC0A0914002A627B0E0D4
:100D1000A55FBE4F8C9180934002862F887F8032E2
:100D200041F582E08093410269839FC0A091400217
:100D3000A627B0E0A55FBE4F8C91809340028091C2
:100D40003F028F5F80933F02062F10E0823018F43D
:100D50001B830A8394C0102F00278A819B81080F70
:100D6000191F1B830A83085011090F3F110521F039
:100D700018F01092410283C083E075C0A091400238
:100D8000A627B0E0A55FBE4F8C91809340024091B2
:100D90003F024F5F40933F02423091F060F4413098
:100DA00009F06DC0062F10E020E030E00C831D83B9
:100DB0002E833F8364C0433061F04430F1F05FC064
:100DC000062F10E020E030E0322F212F102F0027D7
:100DD00007C0062F10E020E030E09801112700271F
:100DE0008C819D81AE81BF81800F911FA21FB31F97
:100DF0008C839D83AE83BF8342C0062F10E020E02A
:100E000030E0302F2227112700278C819D81AE8171
:100E1000BF81800F911FA21FB31F8C839D83AE8360
:100E2000BF838A819B810897E9F0409341021DC0EE
:100E3000A0914002A627B0E0A55FBE4F8C918093A1
:100E4000400220913F022F5F20933F0230E0DA0101
:100E5000A20FB31F19966C938A819B81089728175C
:100E6000390768F086E08093410210923F0207C084
:100E7000DA01A75FBE4F6C9387E0809341028091B7
:100E80004102873011F080E00BC010924102909136
:100E90004002DE01A75FBE4F8C919813F4CF8A8188
:100EA000DF91CF911F910F910895EF92FF920F93D1
:100EB0001F93CF93DF938C01EB01F8EEEF2EF3E05D
:100EC000FF2E80913D028823E1F360913E02109253
:100ED0003D0242E452E0C8010E946806882309F4FA
:100EE000B8C140914602509147026091480270910A
:100EF0004902423C8BEF58078CEE68078CE6780776
:100F000009F424C108F04CC04230B9E25B07BEE7E7
:100F10006B07BFE27B0709F4B7C008F54430FAE974
:100F20005F07F7ED6F07FEE07F0709F40FC138F4A4
:100F300046315A4A67437B4009F408C17FC14E3CA1
:100F4000B8E45B07B7E56B07BAE17B0709F405C1B5
:100F500044375B4E6A477B4109F4F8C06FC14E3499
:100F6000F8EC5F07FCEB6F07F0E47F0709F4F5C0CE
:100F700038F4463E554D6A4D734309F49DC05EC139
:100F8000423EB5E55B07BCE96B07B6E67B0709F4B3
:100F90004CC14A355B4B6743774609F475C04EC177
:100FA0004A3BF4E85F07F5E26F07FEEB7F0709F4C1
:100FB0003CC108F049C04E37A2E15A07AAE66A07C9
:100FC000ABE97A0709F4C2C060F54A3051486D4276
:100FD0007C4809F033C180914E0290914F02A0915C
:100FE0005002B09151028EAB9FABA8AFB9AF8091C8
:100FF000520290915302A0915402B09155028AAFCF
:101000009BAFACAFBDAFEE96809156029091570268
:10101000A0915802B091590288839983AA83BB8317
:101020000DC14630FEE05F07FCE36F07FDEA7F0776
:1010300009F467C04A38574F674C784B09F0FEC037
:10104000809166028883FAC04639A5E35A07A8E072
:101050006A07A2ED7A0709F4B7C038F444355D4257
:101060006F4F754C09F472C0E9C04436F9ED5F0763
:10107000F0EE6F07F7ED7F07F9F0463B5342634A06
:10108000724E09F46AC0DAC0D8011F96EC911F971E
:10109000F0E0EE5BFD4F8285823031F0833041F02D
:1010A0008111CCC081E005C083E0F8018087C6C013
:1010B000D80118968C93C2C080915E0290915F0215
:1010C000A0916002B09161028E8F9F8FA8A3B9A3F7
:1010D0008091620290916302A0916402B0916502D6
:1010E0008AA39BA3ACA3BDA38091660290916702E3
:1010F000A0916802B09169028EA39FA3A8A7B9A787
:101100009DC080914E0290914F02A0915002B091EB
:1011100051028AA79BA7ACA7BDA7809152029091CC
:101120005302A0915402B09155028EA79FA7A8AB7D
:10113000B9AB8091560290915702A0915802B0919C
:1011400059028AAB9BABACABBDAB78C080914C0273
:101150008C8380914D028D8371C080914E0290915D
:101160004F02A0915002B09151028A8B9B8BAC8BA5
:10117000BD8B8091520290915302A0915402B09184
:1011800055028E8B9F8BA88FB98F809171028E83B1
:10119000809170028F8360915E0270915F028091F6
:1011A0006002909161020E94810A7987688760914C
:1011B00062027091630280916402909165020E94C4
:1011C000860A7B876A873AC020E030E04AE754E429
:1011D00060914E0270914F028091500290915102A5
:1011E0000E94400B0E94810A7D876C8720E030E0DE
:1011F00048EC52E460915202709153028091540283
:10120000909155020E94400B0E94810A7F876E8751
:101210006091620270916302809164029091650214
:101220000E94810A798B688B09C08091AF02888304
:101230008091B00289838091B1028A8380914302B8
:10124000823289F443E262E472E0C8010E943E0601
:101250000AC0B1E0EB1AF108E114F10409F031CE53
:1012600080E090E002C081E090E0DF91CF911F919B
:101270000F91FF90EF900895A1E0B1E0E6E0F1E07A
:1012800040E081E090E05AB1ED019C010C9002C079
:10129000220F331F0A94E2F7209525232AB9443000
:1012A00059F057B19C01008002C0220F331F0A94ED
:1012B000E2F7522B57B90AC05AB19C01008002C014
:1012C000220F331F0A94E2F7522B5AB95BB11196E1
:1012D0009C01088002C0220F331F0A94E2F7522BB0
:1012E0005BB94F5F3196453071F6259A8091810048
:1012F0008A608093810084E499E9909389008093C7
:101300008800C0EDD7E0D0938B00C0938A00809115
:101310006F00866080936F0080916D008C67809372
:101320006D008091680085608093680061E080E0D6
:1013300096E90E940A05D0931D02C0931C02D09327
:101340001F02C0931E02D0932102C0932002D093AB
:101350002302C0932202D0932502C093240280E08E
:1013600090E020E030E0AC01440F551FFA01E45E4C
:10137000FD4F60817181260F371FFA01EE5EFD4F30
:101380003183208301968530910569F7789422E0B6
:1013900030E041E050E080910C0290910D028130EC
:1013A000910589F082309105B1F3892BC1F48091C8
:1013B0000E0290910F02853E9C4068F350930D02FF
:1013C00040930C02E8CF80910E0290910F02843C72
:1013D000994008F710920D0210920C02DCCF309366
:1013E0000D0220930C02D7CFA1E21A2EAA1BBB1B21
:1013F000FD010DC0AA1FBB1FEE1FFF1FA217B307E1
:10140000E407F50720F0A21BB30BE40BF50B661FF6
:10141000771F881F991F1A9469F7609570958095BA
:1014200090959B01AC01BD01CF010895EE0FFF1F08
:101430000590F491E02D09945058BB27AA270ED0AF
:10144000E5C0D6D030F0DBD020F031F49F3F11F46E
:101450001EF4CBC00EF4E095E7FBC1C0E92FE7D046
:1014600080F3BA17620773078407950718F071F4C1
:101470009EF5FFC00EF4E0950B2EBA2FA02D0B01A8
:10148000B90190010C01CA01A0011124FF27591BC9
:1014900099F0593F50F4503E68F11A16F040A22FCF
:1014A000232F342F4427585FF3CF46953795279540
:1014B000A795F0405395C9F77EF41F16BA0B620B3F
:1014C000730B840BBAF09150A1F0FF0FBB1F661F86
:1014D000771F881FC2F70EC0BA0F621F731F841FC9
:1014E00048F4879577956795B795F7959E3F08F0EF
:1014F000B3CF9395880F08F09927EE0F97958795AE
:10150000089504D06894B111B5C0089598D088F0BA
:101510009F5790F0B92F9927B751A0F0D1F0660FDF
:10152000771F881F991F1AF0BA95C9F712C0B130FA
:1015300081F09FD0B1E008959CC0672F782F882755
:10154000B85F39F0B93FCCF3869577956795B39539
:10155000D9F73EF490958095709561957F4F8F4FA8
:101560009F4F0895E89409C097FB3EF490958095AD
:10157000709561957F4F8F4F9F4F9923A9F0F92F59
:1015800096E9BB279395F695879577956795B795D7
:10159000F111F8CFFAF4BB0F11F460FF1BC06F5FBD
:1015A0007F4F8F4F9F4F16C0882311F096E911C0CF
:1015B000772321F09EE8872F762F05C0662371F0F0
:1015C00096E8862F70E060E02AF09A95660F771F04
:1015D000881FDAF7880F9695879597F9089597F9F8
:1015E0009F6780E870E060E008959FEF80EC0895C9
:1015F00000240A94161617061806090608950024F2
:101600000A9412161306140605060895092E03946B
:10161000000C11F4882352F0BB0F40F4BF2B11F4DF
:1016200060FF04C06F5F7F4F8F4F9F4F089557FD3E
:101630009058440F551F59F05F3F71F04795880F40
:1016400097FB991F61F09F3F79F0879508951216D7
:1016500013061406551FF2CF4695F1DF08C0161683
:1016600017061806991FF1CF869571056105089434
:101670000895E894BB2766277727CB0197F908954B
:101680000BD0C4CFB5DF28F0BADF18F0952309F0EE
:10169000A6CFABCF1124EECFCADFA0F3959FD1F335
:1016A000950F50E0551F629FF001729FBB27F00D10
:1016B000B11D639FAA27F00DB11DAA1F649F662765
:1016C000B00DA11D661F829F2227B00DA11D621FB4
:1016D000739FB00DA11D621F839FA00D611D221F6E
:1016E000749F3327A00D611D231F849F600D211D52
:1016F000822F762F6A2F11249F5750408AF0E1F0F5
:1017000088234AF0EE0FFF1FBB1F661F771F881F3D
:1017100091505040A9F79E3F510570F060CFAACF7D
:101720005F3FECF3983EDCF3869577956795B79528
:10173000F795E7959F5FC1F7FE2B880F911D969552
:0A174000879597F90895F894FFCFFC
:10174A00FF0203040506000102030700070E091C35
:10175A001B1215383F363124232A2D70777E796C77
:10176A006B6265484F464154535A5DE0E7EEE9FC27
:10177A00FBF2F5D8DFD6D1C4C3CACD90979E998C17
:10178A008B8285A8AFA6A1B4B3BABDC7C0C9CEDB48
:10179A00DCD5D2FFF8F1F6E3E4EDEAB7B0B9BEABB7
:1017AA00ACA5A28F88818693949D9A2720292E3BE7
:1017BA003C35321F18111603040D0A5750595E4B57
:1017CA004C45426F68616673747D7A898E8780950D
:1017DA00929B9CB1B6BFB8ADAAA3A4F9FEF7F0E5F7
:1017EA00E2EBECC1C6CFC8DDDAD3D4696E676075A7
:1017FA00727B7C51565F584D4A4344191E17100597
:10180A00020B0C21262F283D3A33344E49404752C9
:10181A00555C5B7671787F6A6D64633E3930372236
:10182A00252C2B0601080F1A1D1413AEA9A0A7B266
:10183A00B5BCBB9691989F8A8D8483DED9D0D7C2D6
:0C184A00C5CCCBE6E1E8EFFAFDF4F300BA
:00000001FF
