:100000000C943D000C9465000C9465000C94A301C5
:100010000C9465000C94FA010C9465000C94650036
:100020000C9465000C9465000C9465000C946700BA
:100030000C9401010C9465000C9465000C9465000F
:100040000C942D040C9465000C940C0C0C9465001D
:100050000C941F0C0C9465000C9465000C946500C6
:100060000C9465000C9465003F0D4A0D5C0D840DE9
:10007000DE0DDE0DFE0D27112B1111241FBECFEF5B
:10008000D8E0DEBFCDBF12E0A0E0B1E0EEEFF6E2D7
:1000900002C005900D92AC30B107D9F715E0ACE085
:1000A000B2E001C01D92AB31B107E1F710E0C8E743
:1000B000D0E004C02297FE010E945311C637D10739
:1000C000C9F70E9406100C9472130C9400001F9242
:1000D0000F920FB60F9211242F933F938F939F93FC
:1000E0008091EB039091EC03892B49F081E08093A0
:1000F000090481E090E090938B0080938A008091C6
:10010000EB039091EC039093E2038093E1038091E1
:10011000E1039091E2032091ED033091EE03820F11
:10012000931F08969093E4038093E3038091E30385
:100130009091E4032091EF033091F003820F931F1D
:1001400008969093E6038093E5038091E5039091F0
:10015000E6032091F1033091F203820F931F08967A
:100160009093E8038093E7038091E7039091E8037D
:100170002091F3033091F403820F931F089690931C
:10018000EA038093E9038091E0038F5F8093E003AB
:1001900080910C0290910D02029751F18091DF0342
:1001A00091E0980F9093DF03843010F182E090E0AB
:1001B00090930D0280930C021092DE031092DD03E7
:1001C00088EB9BE09093EC038093EB0328EE33E005
:1001D0003093EE032093ED039093F0038093EF03AD
:1001E0009093F2038093F1039093F4038093F303CD
:1001F0009F918F913F912F910F900FBE0F901F9065
:1002000018951F920F920FB60F9211242F933F93C0
:100210008F939F93EF93FF938091090418160CF02E
:1002200087C0809109048630BCF0E09109042BB1AD
:10023000FF27E7FDF095EC5FFE4F81E090E0008046
:1002400002C0880F991F0A94E2F78095909530E0DC
:10025000822393238BB91AC0809109048230B4F0B1
:10026000E091090428B1FF27E7FDF095EC5FFE4F10
:1002700081E090E0008002C0880F991F0A94E2F7A5
:100280008095909530E08223932388B9809109046A
:1002900086300CF043C0E0910904EE0FFF0BE751EC
:1002A000FC4F80819181892B99F1E0910904EE0F37
:1002B000FF0BE152FC4F8081918190938B008093E2
:1002C0008A0080910904E091090485308CF428B1FA
:1002D000FF27E7FDF095EB5FFE4F81E090E00080A7
:1002E00002C0880F991F0A94E2F7822B88B910C0C8
:1002F0002BB1FF27E7FDF095EB5FFE4F81E090E02B
:10030000008002C0880F991F0A94E2F7822B8BB9F4
:10031000809109048F5F809309040AC08091EB03E8
:100320009091EC0390938B0080938A0010920904C3
:10033000FF91EF919F918F913F912F910F900FBE61
:100340000F901F9018951F920F920FB60F921124C5
:100350002F933F934F935F936F937F938F939F93CD
:10036000AF93BF93EF93FF93189B09C086B590E0BE
:100370009093DC038093DB031092DA032AC066B506
:100380002091DB033091DC038091DA0370E0621B83
:10039000730B61507F4F90E001974FEF489F9001A2
:1003A000499F300D1124620F731F660F771F660F70
:1003B000771F80E090E00E94591220E030E04AE789
:1003C00054E40E94C011AB01BC018EE092E00E9497
:1003D000B30AFF91EF91BF91AF919F918F917F9160
:1003E0006F915F914F913F912F910F900FBE0F90A2
:1003F0001F9018951F920F920FB60F9211242F93F2
:100400003F934F935F936F937F938F939F93AF939C
:10041000BF93EF93FF9329B180910001282789B101
:10042000809300011092DF0322FF5FC04A9B09C046
:1004300080918400909185009093F6038093F5035A
:1004400054C04A9952C08091840090918500409197
:10045000F5035091F603E0918400F09185006091DE
:10046000F5037091F603E617F70770F460918400C6
:100470007091850080918800909189004091F503EA
:100480005091F603860F971F841B950BA0E0B0E0F8
:10049000AC01BD0141505109610971094339514114
:1004A0006105710510F540910C0250910D02452B2C
:1004B000E1F44091EB035091EC0344355B4008F4C8
:1004C00088C14091EB035091EC03493B5B4008F03D
:1004D00080C1AC01BD0144555B40610971094536DD
:1004E00051056105710508F074C123FF53C04B9B92
:1004F00009C080918400909185009093F8038093C7
:10050000F70348C04B9946C08091840090918500C4
:100510004091F7035091F803E0918400F091850039
:100520006091F7037091F803E617F70770F4609194
:10053000840070918500809188009091890040919D
:10054000F7035091F803860F971F841B950BA0E0CB
:10055000B0E0AC01BD014150510961097109433955
:10056000514161057105B0F440910C0250910D02AA
:10057000452B81F44091ED035091EE03840F951FBC
:10058000A11DB11DB595A795979587959093EE03FD
:100590008093ED0324FF5FC04C9B09C080918400D1
:1005A000909185009093FA038093F90354C04C997D
:1005B00052C080918400909185004091F903509140
:1005C000FA03E0918400F09185006091F903709145
:1005D000FA03E617F70770F46091840070918500C4
:1005E00080918800909189004091F9035091FA031D
:1005F000860F971F841B950BA0E0B0E0AC01BD01F6
:100600004150510961097109433951416105710531
:1006100010F540910C0250910D02452BE1F44091F0
:10062000EF035091F0034A355A4008F4E3C040917B
:10063000EF035091F0034F3B5A4008F0DBC0AC0190
:10064000BD014A555A406109710945365105610598
:10065000710508F0CFC025FF5FC04D9B09C0809198
:100660008400909185009093FC038093FB0354C019
:100670004D9952C080918400909185004091FB0378
:100680005091FC03E0918400F09185006091FB03A0
:100690007091FC03E617F70770F460918400709185
:1006A000850080918800909189004091FB035091D2
:1006B000FC03860F971F841B950BA0E0B0E0AC01F4
:1006C000BD01415051096109710943395141610529
:1006D000710510F540910C0250910D02452BE1F48B
:1006E0004091F1035091F20348365B4008F493C007
:1006F0004091F1035091F2034D3C5B4008F08BC0F8
:10070000AC01BD0148565B40610971094536510590
:100710006105710508F07FC026FF8EC04E9B09C0A1
:1007200080918400909185009093FE038093FD0357
:1007300083C04E9981C08091840090918500209162
:10074000FD033091FE03609184007091850040911B
:10075000FD035091FE036417750770F44091840007
:100760005091850080918800909189002091FD032F
:100770003091FE03840F951F821B930BA0E0B0E025
:10078000AC01BD0141505109610971094339514121
:100790006105710508F050C020910C0230910D02E6
:1007A000232B91F42091F3033091F403AC01BD01AC
:1007B000420F531F611D711D75956795579547959C
:1007C0005093F4034093F3039093DE038093DD038F
:1007D00033C04091EB035091EC03840F951FA11D92
:1007E000B11DB595A795979587959093EC03809348
:1007F000EB037BCE4091EF035091F003840F951FE4
:10080000A11DB11DB595A795979587959093F00378
:100810008093EF0320CF4091F1035091F203840FB6
:10082000951FA11DB11DB595A79597958795909397
:10083000F2038093F10370CFFF91EF91BF91AF91DD
:100840009F918F917F916F915F914F913F912F91E8
:100850000F900FBE0F901F9018951F920F920FB61A
:100860000F9211248F939F938091DA038F5F80936F
:10087000DA038091D4039091D50301969093D50328
:100880008093D4038091D2039091D30301969093E7
:10089000D3038093D2039F918F910F900FBE0F903F
:1008A0001F90189540E050EC69E774ECFC0142831E
:1008B000538364837583089508952F923F924F92D6
:1008C0005F926F927F928F929F92AF92BF92CF92E0
:1008D000DF92EF92FF920F931F93CF93DF93EC0180
:1008E0004A015B01890120E030EC49E754EC6A8160
:1008F0007B818C819D810E94BC11F801C28CD38CBC
:10090000E48CF58C811104C0CA82DB82EC82FD820A
:1009100056B46090D2037090D3032090ED033090D2
:10092000EE03A7019601C501B4010E9457114B01C6
:100930005C012FEF269DC001279D900D1124850D90
:10094000911DBC0161507F4F88819981681B790B93
:1009500080E090E00E9459122DEB37E346E856E321
:100960000E940F139B01AC0160E070E080E89FE300
:100970000E94C0112B013C012A813B814C815D8189
:10098000C701B6010E9457119B01AC01C301B2011E
:100990000E940F139B01AC01C501B4010E945711C5
:1009A0006B017C012DEC3CEC4CEC5DE30E940B13E5
:1009B000181654F420E030E040E050E4C701B601DE
:1009C0000E94BC1187FD29C02DEC3CEC4CEC5EEB89
:1009D000C701B6010E94BC1187FF0AC020E030E0C9
:1009E00040E85FEBC701B6010E940B13181614F123
:1009F00020E030E040EA50E4C701B6010E940B134A
:100A000018168CF020E030E040E85FEBC701B6013B
:100A10000E94BC1187FF14C00DC0C12CD12CE12C49
:100A200050E4F52E0DC0C12CD12C40EAE42E40E458
:100A3000F42E06C0C12CD12C30E8E32E3FEBF32E70
:100A40002DEC3CEC4CE45EEBC501B4010E94BC1102
:100A500087FD19C0B10180E090E00E945912A70102
:100A600096010E9458110E942D126633FBE07F0709
:100A700078F07B01653A2BE0720770F024EAE22EF1
:100A80002BE0F22E09C092E7E92E9BE0F92E04C07C
:100A900086E3E82E8BE0F82E80E00E94FC0B80E0DD
:100AA0000E94FC0B8BE00E94FC0B8E2D0E94FC0B25
:100AB000F092EE03E092ED03F801828D938DA48D08
:100AC000B58D8A839B83AC83BD8386B590E0998383
:100AD00088831092D3031092D203DF91CF911F919C
:100AE0000F91FF90EF90DF90CF90BF90AF909F90CD
:100AF0008F907F906F905F904F903F902F900895D0
:100B00008F929F92AF92BF92CF92DF92EF92FF921D
:100B1000CF93DF934A015B01E9016091EF0370918C
:100B2000F00380E090E00E9459126B017C01A50166
:100B300094016AA17BA18CA19DA10E94571123E37E
:100B400033E343E35FE30E940F139B01AC01C70152
:100B5000B6010E9458110E942D12643C29E07207D0
:100B600038F065358BE0780728F064E57BE002C05B
:100B700064EC79E07093F0036093EF03DF91CF9121
:100B8000FF90EF90DF90CF90BF90AF909F908F90AD
:100B900008958F929F92AF92BF92CF92DF92EF9281
:100BA000FF92CF93DF934A015B01E9016091F1036A
:100BB0007091F20380E090E00E9459126B017C0179
:100BC000A50194016E8D7F8D88A199A10E94571176
:100BD00023E333E343E35FE30E940F139B01AC0184
:100BE000C701B6010E9458110E942D12623D2AE0F1
:100BF000720738F063368CE0780728F062E67CE014
:100C000002C062ED7AE07093F2036093F103DF912A
:100C1000CF91FF90EF90DF90CF90BF90AF909F90DB
:100C20008F9008958F929F92AF92BF92CF92DF9252
:100C3000EF92FF92CF93DF934A015B01E90160914C
:100C4000EB037091EC0380E090E00E9459126B017D
:100C50007C01A50194016EA17FA188A599A50E94A0
:100C600057112DEC3CEC4CE45DE30E940F139B010B
:100C7000AC01C701B6010E9458110E942D12603FBD
:100C80002AE0720738F0693B8BE0780728F068EBC0
:100C90007BE002C060EF7AE07093EC036093EB03BB
:100CA000DF91CF91FF90EF90DF90CF90BF90AF900A
:100CB0009F908F90089508951092B90080E28093DC
:100CC000B80084E08093BC00089584EA8093BC005F
:100CD00080E08F5F893229F09091BC0097FFF9CFB7
:100CE00002C088EC08958832E0F78091B900887FCF
:100CF000089584E98093BC008091B900887F0895AD
:100D00008093BB0084E88093BC008091BC0087FF87
:100D1000FCCF8091B900887F089584EC8093BC005B
:100D20008091BC0087FFFCCF8091BB00089584E8D0
:100D30008093BC008091BC0087FFFCCF8091BB00FA
:100D40000895CF93DF93EC01865B9F4F0E9452047E
:100D5000CE01805B9F4F0E942E0CCE01805A9F4F88
:100D60000E94C30A84E0888319821B821A821D8232
:100D70001C821F821E821986188681E090E09F8760
:100D80008E87998B888B1B8A1A8A1D8A1C8A9FAF33
:100D90008EAFFE01E05CFF4F91838083FE01EE5B2E
:100DA000FF4F11821082FE01EC5BFF4F1182108217
:100DB00083E090E09B8F8A8F82E090E09D8F8C8F04
:100DC0001F8E1E8E19A218A29FA38EA319A618A665
:100DD0001BA61AA61DA61CA6FE01EF59FF4F1082E6
:100DE000FE01EE59FF4F1082FE01EC59FF4F1082B9
:100DF000FE01EB59FF4F1082FE01EA59FF4F1082AE
:100E0000FE01E158FF4F1082118212821382FE010F
:100E1000ED57FF4F1082118212821382FE01E957B3
:100E2000FF4F1082118212821382FE01ED58FF4F94
:100E30001082118212821382FE01E958FF4F108244
:100E4000118212821382FE01E959FF4F1082FE01C6
:100E5000E859FF4F1082FE01E759FF4F11821082BF
:100E6000FE01E558FF4F1082118212821382FE01AB
:100E7000E559FF4F11821082FE01E359FF4F1182A5
:100E80001082FE01E159FF4F11821082FE01EF58DE
:100E9000FF4F11821082FE01EA54FE4F40E050ECF9
:100EA00069E774EC4083518362837383FE01E654E7
:100EB000FE4F89E19CEF91838083C054DE4F40E078
:100EC0005CE36CE176EC488359836A837B83DF9132
:100ED000CF910895CF93DF93EC01805A9F4F0E94EA
:100EE000900BC355DE4F882319F081E0888301C041
:100EF0001882DF91CF9108954F925F926F927F9207
:100F00008F929F92AF92BF92CF92DF92EF92FF9219
:100F10000F931F93CF93DF93EC018C010F591F4F59
:100F2000B801805B9F4F0E941B0EFE01E355FE4FF0
:100F3000808181114EC0CE01805A9F4F0E94EA0AE3
:100F40006B017C014E012BE7820E911CF401408065
:100F50005180628073802DEC3CEC4CE850E4C3017E
:100F6000B2010E940B131816A4F520E030EC49E7FB
:100F700054ECC701B6010E94BC11882351F15E01F7
:100F8000FEE4AF1AFEEFBF0A20E030E0A901F50150
:100F900060817181828193810E94BC1181110BC09B
:100FA000A3019201C701B6010E945711F5016083A8
:100FB000718382839383F501208131814281538142
:100FC000C701B6010E945711F401608371838283C7
:100FD00093835E01FAE4AF1AFEEFBF0A20E030EC23
:100FE00049E754ECF50160817181828193810E940F
:100FF000BC11811115C0FE01E957FF4FC080D1809F
:10100000E280F38020E030E0A901C701B6010E9430
:10101000BC11882329F0F501C082D182E282F382DB
:101020008091F1039091F20388369B4040F08091CB
:10103000F1039091F2038D3C9B4008F444C08091F1
:10104000EF039091F0038A359A4040F08091EF03CE
:101050009091F0038F3B9A4008F43FC0F501C080A7
:10106000D180E280F38020E030EC49E754ECC70106
:10107000B6010E94BC118823D1F18091EB039091BD
:10108000EC0384359B4098F18091EB039091EC0345
:10109000893B9B4060F59801B701A601CE01865BB4
:1010A0009F4FDF91CF911F910F91FF90EF90DF90B5
:1010B000CF90BF90AF909F908F907F906F905F90F8
:1010C0004F900C941206980140E050E0BA01CE0116
:1010D000865B9F4F0E94C905B2CF980140E050E067
:1010E000BA01CE01865B9F4F0E948005B7CFDF918A
:1010F000CF911F910F91FF90EF90DF90CF90BF9015
:10110000AF909F908F907F906F905F904F900895D9
:101110002F923F924F925F926F927F928F929F9207
:10112000AF92BF92CF92DF92EF92FF920F931F93F5
:10113000CF93DF93EC018C010F591F4FB801805BF7
:101140009F4F0E941B0E5E018AE4A81A8EEFB80A18
:1011500020E030EC49E754ECF50160817181828137
:1011600093810E94BC1181110CC0FE01E957FF4F11
:1011700080819181A281B381F50180839183A283D3
:10118000B383FE01E355FE4F808181114EC0CE0135
:10119000805A9F4F0E94EA0A6B017C011E01FBE707
:1011A0002F0E311CF10140805180628073802DEC44
:1011B0003CEC4CE850E4C301B2010E940B1318163A
:1011C000A4F520E030EC49E754ECC701B6010E94D9
:1011D000BC11882351F14E01FEE48F1AFEEF9F0AE5
:1011E00020E030E0A901F401608171818281938166
:1011F0000E94BC1181110BC0A3019201C701B6016D
:101200000E945711F4016083718382839383F401F8
:101210002081318142815381C701B6010E9457115B
:10122000F1016083718382839383D980FE018CE016
:10123000D89EE00DF11D11248281938181309105AA
:1012400069F11CF4892B49F067C18230910509F4DA
:10125000A2C0039709F451C05FC18AE49BE0909358
:10126000EE038093ED03F501C080D180E280F3802E
:1012700020E030EC49E754ECC701B6010E94BC11F4
:10128000882341F09801B701A601CE01865B9F4FEC
:101290000E94120689818F5F89833EC1C65BDF4F42
:1012A00098014DEC5CEC6CEC7EE3CE010E945D0499
:1012B000980140E050E0BA01CE010E94C9059801B2
:1012C00040E050E0BA01CE010E948005F501C080E7
:1012D000D180E280F38020E030EC49E754ECC70194
:1012E000B6010E94BC11882309F416C19801B70108
:1012F000A601CE010E9412060FC17E01F6E4EF1A8C
:10130000FEEFFF0AF7018081918197FF04C086B547
:1013100090E09183808346B58091D4039091D5036A
:101320002FEF289FB001299F700D11246F5F710965
:101330008FEF90E0F70120813181821B930B840FA6
:10134000911D680F791F80E090E00E9459122FE6EE
:1013500032E143E85BE30E940F13FE01E454FE4FC9
:10136000608371838283938320E030E040EA50E41D
:101370000E940B1387FD07C089E19CEFF701918361
:101380008083D394D982C65BDF4F980140E050E060
:1013900060E07FE3B0C01E01F0E42F1AFEEF3F0AC9
:1013A00020E03CE34CE156ECF101608171818281E7
:1013B00093810E94BC119E0125583F4F81110AC0A4
:1013C000F90180819181A281B381F10180839183B0
:1013D000A283B383F901C080D180E280F380F10160
:1013E00080809180A280B380A5019401C701B601DD
:1013F0000E9457112B013C012DEC3CEC4CEC5DE3C1
:101400000E94BC1187FF6FC02DEC3CEC4CEC5DEBF7
:10141000C301B2010E940B1318160CF064C03E0108
:10142000F6E46F1AFEEF7F0AF3018081918197FF46
:1014300004C086B590E09183808366B54091D40363
:101440005091D5038FEF90E0F30120813181821B11
:10145000930B860F911D6FEF649F9001659F300D78
:101460001124820F931FBC0180E090E00E9459126A
:101470002FE632E143E85BE30E940F13FE01E454E0
:10148000FE4F608371838283938320E030E040EAE3
:1014900050E40E940B1387FD26C089E19CEFF30105
:1014A000918380832AE939E949E95EE3C501B40102
:1014B0000E940B13181674F42AE939E949E95EE32E
:1014C000C701B6010E945711F101608371838283C5
:1014D000938309C080E09CE3ACE1B6ECF10180832A
:1014E0009183A283B383C65BDF4FF10140815181B9
:1014F000628173819801CE010E945D04980140E0F1
:1015000050E0BA01CE010E94C905980140E050E0C8
:10151000BA01CE010E94800580E0DF91CF911F913A
:101520000F91FF90EF90DF90CF90BF90AF909F9082
:101530008F907F906F905F904F903F902F90089585
:10154000FC01E359FF4F208131812F30310548F0F4
:10155000FC01E959FF4F81E09081973018F080E05D
:10156000089581E0089585589F4FFC014083518381
:101570006283738308958E549E4FFC014083518390
:10158000628373830895089560E070E0CB0108954D
:101590001F93CF93DF931F92CDB7DEB769830E946D
:1015A000650680EC0E9480066981862F0E94800675
:1015B0000E9479060E94650681EC0E9480060E94C6
:1015C0009706182F0E947906812F0F90DF91CF91F7
:1015D0001F910895CF92DF92EF92FF92CF937C01FB
:1015E000C5E660E0C7010E94C80A82FD07C0C1507D
:1015F000C1F760E070EC89E794EC34C00E946506A6
:1016000080EC0E94800681E00E9480060E946506B0
:1016100081EC0E9480060E948D06C82ED12CE12C00
:10162000F12CFE2CED2CDC2CCC240E948D06C82A3B
:10163000FE2CED2CDC2CCC240E949706C82A0E949C
:101640007906C701B60124E0969587957795679549
:101650002A95D1F70E94591220E030E040E85DE37E
:101660000E940F13CF91FF90EF90DF90CF900895DD
:101670001F93CF93DF93EC0115E660E0CE010E944B
:10168000C80A82FD07C01150C1F760E070EC89E71D
:1016900094EC28C00E94650680EC0E94800684E0DD
:1016A0000E9480060E94650681EC0E9480060E94CE
:1016B0008D06682F70E0D62FCC270E949706C82B86
:1016C0000E947906BE0144E0769567954A95E1F758
:1016D00080E090E00E94591220E030E040E85DE3B5
:1016E0000E940F13DF91CF911F910895CF93DF9345
:1016F00000D0CDB7DEB74A8369830E94650680ECCF
:101700000E9480066981862F0E9480064A81842F6C
:101710000E9480060F900F90DF91CF910C94790674
:10172000CF93DF93EC010E945C060E946506883C23
:1017300019F10E9479066CE0CE010E94C80A843C2F
:10174000E9F440E066E2CE010E94760B48EB66E2E7
:10175000CE010E94760B47E063E1CE010E94760B3A
:1017600040E06DE2CE010E94760B49EB66E2CE01CD
:101770000E94760B80E003C081E001C082E0DF912F
:10178000CF910895CF93DF93EC014BEB66E20E947B
:10179000760B49EB66E2CE01DF91CF910C94760B8C
:1017A000CF93C62F9C0140E050E084E0220F331F0E
:1017B000441F551F8A95D1F760E074E284EF90E0F2
:1017C0000E942F11215031093093C5002093C4008D
:1017D0008091C2008E608093C2008091C1008861B8
:1017E0008093C100CC2331F08091C100806C809344
:1017F000C1007894CF9108959091C00095FFFCCFDF
:101800008093C60010920B0408958091C00087FF5A
:10181000FCCF8091C60008951F920F920FB60F92D1
:1018200011248F938091C60080930D0481E08093F2
:101830000C048F910F900FBE0F901F9018951F9260
:101840000F920FB60F9211248F9381E080930B04B7
:101850008F910F900FBE0F901F901895FC01108272
:1018600011821282138214821582168217821086C8
:101870001186128613861486158616861786089595
:10188000089580E090E00895BF92CF92DF92EF92AA
:10189000FF920F931F93CF93DF938B01FB01808106
:1018A0000E94FC0BE801C75FDE4F1882F801F1804F
:1018B0008F2D0E94FC0BEF2DFF27E7FDF09588810F
:1018C000E827E55FFE4F80818883F801F2808F2D45
:1018D0000E94FC0BEF2DFF27E7FDF0958881E8279C
:1018E000E55FFE4F80818883F801F3808F2D0E9491
:1018F000FC0BEF2DFF27E7FDF0958881E827E55FDA
:10190000FE4F80818883F801F4808F2D0E94FC0BAC
:10191000EF2DFF27E7FDF0958881E827E55FFE4F73
:1019200080818883F801C480D580E680F780CD2C43
:10193000DE2CEF2CFF248C2D0E94FC0BEC2DFF27BE
:10194000E7FDF0958881E827E55FFE4F8081888379
:10195000F801C480D580E680F7806701EE24FF247B
:101960008C2D0E94FC0BEC2DFF27E7FDF095888164
:10197000E827E55FFE4F80818883F801C480D58029
:10198000E680F780CF2CDD24EE24FF248C2D0E94EE
:10199000FC0BEC2DFF27E7FDF0958881E827E55F3C
:1019A000FE4F80818883F80182819381099760F4DA
:1019B0008881DF91CF911F910F91FF90EF90DF9081
:1019C000CF90BF900C94FC0B6801FAE0CF0ED11CB5
:1019D00076012E2D2C1930E0F80182819381089731
:1019E0002817390728F7F701B1907F018B2D0E9446
:1019F000FC0BEB2DFF27E7FDF0958881E827E55FDD
:101A0000FE4F80818883E5CFCF93DF93CDB7DEB7DC
:101A1000CA50D1400FB6F894DEBF0FBECDBF2CE345
:101A200029834A8328E030E03C832B83FB014481F7
:101A30005581668177814D835E836F837887BE0190
:101A40006F5F7F4F0E94440CC65FDE4F0FB6F89465
:101A5000DEBF0FBECDBFDF91CF9108950F931F93CF
:101A6000CF93DF93EA018091100490E087309105D5
:101A700008F0CBC08C5C9F4FFC010C9451116C336F
:101A800009F0C3C081E080931004688384EB8093E5
:101A90000F04BBC0A0910F04A627B0E0A55FBE4F06
:101AA0008C9180930F04862F887F803241F582E0ED
:101AB0008093100469839FC0A0910F04A627B0E013
:101AC000A55FBE4F8C9180930F0480910E048F5FB1
:101AD00080930E04062F10E0823018F41B830A83D3
:101AE00094C0102F00278A819B81080F191F1B8328
:101AF0000A83085011090F3F110521F018F01092C8
:101B0000100483C083E075C0A0910F04A627B0E045
:101B1000A55FBE4F8C9180930F0440910E044F5FE0
:101B200040930E04423091F060F4413009F06DC0F2
:101B3000062F10E020E030E00C831D832E833F83CE
:101B400064C0433061F04430F1F05FC0062F10E014
:101B500020E030E0322F212F102F002707C0062F62
:101B600010E020E030E09801112700278C819D8152
:101B7000AE81BF81800F911FA21FB31F8C839D83F5
:101B8000AE83BF8342C0062F10E020E030E0302F4C
:101B90002227112700278C819D81AE81BF81800F74
:101BA000911FA21FB31F8C839D83AE83BF838A8145
:101BB0009B810897E9F0409310041DC0A0910F0489
:101BC000A627B0E0A55FBE4F8C9180930F042091B3
:101BD0000E042F5F20930E0430E0DA01A20FB31F32
:101BE00019966C938A819B8108972817390768F0AA
:101BF00086E08093100410920E0407C0DA01A75FFC
:101C0000BE4F6C9387E0809310048091100487305E
:101C100011F080E00BC01092100490910F04DE01CF
:101C2000A75FBE4F8C919813F4CF8A81DF91CF913B
:101C30001F910F910895EF92FF920F931F93CF93EF
:101C4000DF938C01EB01F0EDEF2EF7E0FF2E80E04B
:101C500090910C04911104C08F5F8F3171F0F8CF17
:101C60008E3158F460910D0410920C0441E154E05F
:101C7000C8010E942E0D811109C0B1E0EB1AF108D4
:101C8000E114F10421F780E090E0B9C1409115041E
:101C9000509116046091170470911804423C8BEF28
:101CA00058078CEE68078CE6780709F424C108F021
:101CB0004CC04230B9E25B07BEE76B07BFE27B076F
:101CC00009F4B7C008F54430FAE95F07F7ED6F078C
:101CD000FEE07F0709F40FC138F446315A4A6743E2
:101CE0007B4009F408C17FC14E3CB8E45B07B7E50F
:101CF0006B07BAE17B0709F405C144375B4E6A47BD
:101D00007B4109F4F8C06FC14E34F8EC5F07FCEB7F
:101D10006F07F0E47F0709F4F5C038F4463E554DEF
:101D20006A4D734309F49DC05EC1423EB5E55B0751
:101D3000BCE96B07B6E67B0709F44CC14A355B4B3F
:101D40006743774609F475C04EC14A3BF4E85F0724
:101D5000F5E26F07FEEB7F0709F43CC108F049C0CC
:101D60004E37A2E15A07AAE66A07ABE97A0709F4F7
:101D7000C2C060F54A3051486D427C4809F033C119
:101D800080911D0490911E04A0911F04B091200425
:101D90008EAB9FABA8AFB9AF809121049091220484
:101DA000A0912304B09124048AAF9BAFACAFBDAF28
:101DB000EE968091250490912604A0912704B0917D
:101DC000280488839983AA83BB830DC14630FEE033
:101DD0005F07FCE36F07FDEA7F0709F467C04A3835
:101DE000574F674C784B09F0FEC0809135048883CB
:101DF000FAC04639A5E35A07A8E06A07A2ED7A07B8
:101E000009F4B7C038F444355D426F4F754C09F49E
:101E100072C0E9C04436F9ED5F07F0EE6F07F7EDE9
:101E20007F07F9F0463B5342634A724E09F46AC099
:101E3000DAC0D8011F96EC911F97F0E0EF5EFB4FE0
:101E40008285823031F0833041F08111CCC081E055
:101E500005C083E0F8018087C6C0D80118968C932E
:101E6000C2C080912D0490912E04A0912F04B091B6
:101E700030048E8F9F8FA8A3B9A3809131049091D5
:101E80003204A0913304B09134048AA39BA3ACA381
:101E9000BDA38091350490913604A0913704B09190
:101EA00038048EA39FA3A8A7B9A79DC080911D0445
:101EB00090911E04A0911F04B09120048AA79BA7B3
:101EC000ACA7BDA78091210490912204A091230486
:101ED000B09124048EA79FA7A8ABB9AB809125042D
:101EE00090912604A0912704B09128048AAB9BAB63
:101EF000ACABBDAB78C080911B048C8380911C047B
:101F00008D8371C080911D0490911E04A0911F04C7
:101F1000B09120048A8B9B8BAC8BBD8B809121046C
:101F200090912204A0912304B09124048E8B9F8B66
:101F3000A88FB98F809140048E8380913F048F8356
:101F400060912D0470912E0480912F0490913004A3
:101F50000E94281279876887609131047091320459
:101F600080913304909134040E942D127B876A87FC
:101F70003AC020E030E04AE754E460911D047091DB
:101F80001E0480911F04909120040E940F130E9450
:101F900028127D876C8720E030E048EC52E46091A5
:101FA00021047091220480912304909124040E94C2
:101FB0000F130E9428127F876E8760913104709101
:101FC000320480913304909134040E942812798B5A
:101FD000688B09C080917E04888380917F04898307
:101FE000809180048A8380911204823231F443E22A
:101FF00061E174E0C8010E94040D81E090E0DF918E
:10200000CF911F910F91FF90EF900895A1E0B1E063
:10201000E6E0F1E040E081E090E05AB1ED019C01A2
:102020000C9002C0220F331F0A94E2F7209525235B
:102030002AB9443059F057B19C01008002C0220FE8
:10204000331F0A94E2F7522B57B90AC05AB19C01C8
:10205000008002C0220F331F0A94E2F7522B5AB9B4
:102060005BB111969C01088002C0220F331F0A94B5
:10207000E2F7522B5BB94F5F3196453071F6259AE6
:10208000809181008A608093810084E499E9909333
:10209000890080938800C0EDD7E0D0938B00C09377
:1020A0008A0080916F00866080936F0085B58360A1
:1020B00085BD80916E00816080936E0080916B0081
:1020C000816080936B0080916D008C6780936D00C0
:1020D0008091680085608093680061E080E096E907
:1020E0000E94D00B8FEF8093090486E89BE09093C9
:1020F000EC038093EB03D093EE03C093ED038CE8E5
:102100009AE09093F0038093EF0388EB9BE0909329
:10211000F2038093F1039093F4038093F30380E040
:1021200090E020E030E0AC01440F551FFA01E5518A
:10213000FC4F60817181260F371FFA01EF51FC4F70
:102140003183208301968530910569F78EE092E016
:102150000E946A077894C8EBDBE088EEE82E83E003
:10216000F82E01E010E092E0C92ED12C80910C02F3
:1021700090910D0281309105D1F08230910569F185
:10218000892B09F05FC08091DD039091DE03853ECD
:102190009C4020F010930D0200930C028091E0030C
:1021A000882321F38EE092E00E947C0713C0809187
:1021B000DD039091DE03843C994020F410920D02DF
:1021C00010920C028091E003882381F28EE092E06D
:1021D0000E9488081092E003C9CFD093EC03C0930B
:1021E000EB03F092EE03E092ED03D093F003C09383
:1021F000EF03D093F203C093F103D093F403C093A1
:10220000F3038091DD039091DE03853E9C4028F02E
:1022100010930D0200930C02A9CF8091DD039091E1
:10222000DE03843C994008F0A1CF8091DD039091BA
:10223000DE03893E934008F499CF10920D0210926C
:102240000C0294CFD0920D02C0920C028FCF8EE080
:1022500092E00C94A1068EE592E00C94400CA1E271
:102260001A2EAA1BBB1BFD010DC0AA1FBB1FEE1F10
:10227000FF1FA217B307E407F50720F0A21BB30B5B
:10228000E40BF50B661F771F881F991F1A9469F7D7
:1022900060957095809590959B01AC01BD01CF0133
:1022A0000895EE0FFF1F0590F491E02D099450580A
:1022B000BB27AA270ED075C166D130F06BD120F0B4
:1022C00031F49F3F11F41EF45BC10EF4E095E7FB7F
:1022D00051C1E92F77D180F3BA17620773078407DA
:1022E000950718F071F49EF58FC10EF4E0950B2E52
:1022F000BA2FA02D0B01B90190010C01CA01A00158
:102300001124FF27591B99F0593F50F4503E68F1B2
:102310001A16F040A22F232F342F4427585FF3CFF3
:10232000469537952795A795F0405395C9F77EF4C4
:102330001F16BA0B620B730B840BBAF09150A1F00D
:10234000FF0FBB1F661F771F881FC2F70EC0BA0F93
:10235000621F731F841F48F4879577956795B7951B
:10236000F7959E3F08F0B3CF9395880F08F0992713
:10237000EE0F979587950895D9D008F481E00895D8
:102380000CD00FC107D140F0FED030F021F45F3FF8
:1023900019F0F0C0511139C1F3C014D198F3992349
:1023A000C9F35523B1F3951B550BBB27AA27621719
:1023B0007307840738F09F5F5F4F220F331F441F5E
:1023C000AA1FA9F333D00E2E3AF0E0E830D0915096
:1023D0005040E695001CCAF729D0FE2F27D0660F83
:1023E000771F881FBB1F261737074807AB07B0E8C2
:1023F00009F0BB0B802DBF01FF2793585F4F2AF0D8
:102400009E3F510568F0B6C000C15F3FECF3983EB7
:10241000DCF3869577956795B795F7959F5FC9F734
:10242000880F911D9695879597F90895E1E0660FBD
:10243000771F881FBB1F621773078407BA0720F036
:10244000621B730B840BBA0BEE1F88F7E09508959F
:1024500004D06894B111D9C00895BCD088F09F57BA
:1024600090F0B92F9927B751A0F0D1F0660F771FE0
:10247000881F991F1AF0BA95C9F712C0B13081F0C0
:10248000C3D0B1E00895C0C0672F782F8827B85F08
:1024900039F0B93FCCF3869577956795B395D9F721
:1024A0003EF490958095709561957F4F8F4F9F4F2B
:1024B0000895E89409C097FB3EF490958095709537
:1024C00061957F4F8F4F9F4F9923A9F0F92F96E980
:1024D000BB279395F695879577956795B795F111F5
:1024E000F8CFFAF4BB0F11F460FF1BC06F5F7F4F92
:1024F0008F4F9F4F16C0882311F096E911C07723A4
:1025000021F09EE8872F762F05C0662371F096E8AC
:10251000862F70E060E02AF09A95660F771F881F7B
:10252000DAF7880F9695879597F90895990F00081F
:10253000550FAA0BE0E8FEEF16161706E807F90795
:10254000C0F012161306E407F50798F0621B730B30
:10255000840B950B39F40A2661F0232B242B252BB1
:1025600021F408950A2609F4A140A6958FEF811D54
:10257000811D089597F99F6780E870E060E00895F5
:102580009FEF80EC089500240A941616170618068B
:102590000906089500240A94121613061406050667
:1025A0000895092E0394000C11F4882352F0BB0FF8
:1025B00040F4BF2B11F460FF04C06F5F7F4F8F4F5B
:1025C0009F4F089557FD9058440F551F59F05F3F96
:1025D00071F04795880F97FB991F61F09F3F79F045
:1025E00087950895121613061406551FF2CF4695C7
:1025F000F1DF08C0161617061806991FF1CF869549
:102600007105610508940895E894BB27662777272C
:10261000CB0197F908958ADF08F48FEF08950BD066
:10262000C0CFB1DF28F0B6DF18F0952309F0A2CFB4
:10263000A7CF1124EACFC6DFA0F3959FD1F3950F62
:1026400050E0551F629FF001729FBB27F00DB11D36
:10265000639FAA27F00DB11DAA1F649F6627B00DC6
:10266000A11D661F829F2227B00DA11D621F739FAF
:10267000B00DA11D621F839FA00D611D221F749FBD
:102680003327A00D611D231F849F600D211D822F04
:10269000762F6A2F11249F5750408AF0E1F088234B
:1026A0004AF0EE0FFF1FBB1F661F771F881F915058
:1026B0005040A9F79E3F510570F05CCFA6CF5F3F19
:1026C000ECF3983EDCF3869577956795B795F7958B
:1026D000E7959F5FC1F7FE2B880F911D9695879513
:1026E00097F9089510E0C8E7D0E004C0FE010E9409
:0E26F00053112296CA37D107C9F7F894FFCFCD
:1026FE00FF0203040506000102030700070E091C72
:10270E001B1215383F363124232A2D70777E796CB3
:10271E006B6265484F464154535A5DE0E7EEE9FC63
:10272E00FBF2F5D8DFD6D1C4C3CACD90979E998C53
:10273E008B8285A8AFA6A1B4B3BABDC7C0C9CEDB84
:10274E00DCD5D2FFF8F1F6E3E4EDEAB7B0B9BEABF3
:10275E00ACA5A28F88818693949D9A2720292E3B23
:10276E003C35321F18111603040D0A5750595E4B93
:10277E004C45426F68616673747D7A898E87809549
:10278E00929B9CB1B6BFB8ADAAA3A4F9FEF7F0E533
:10279E00E2EBECC1C6CFC8DDDAD3D4696E676075E3
:1027AE00727B7C51565F584D4A4344191E171005D3
:1027BE00020B0C21262F283D3A33344E4940475206
:1027CE00555C5B7671787F6A6D64633E3930372273
:1027DE00252C2B0601080F1A1D1413AEA9A0A7B2A3
:1027EE00B5BCBB9691989F8A8D8483DED9D0D7C213
:0C27FE00C5CCCBE6E1E8EFFAFDF4F300F7
:00000001FF
