:100000000C943D000C9465000C9465000C94A401C4
:100010000C9465000C94FB010C9465000C94650035
:100020000C9465000C9465000C9465000C946700BA
:100030000C9402010C9465000C9465000C9465000E
:100040000C942E040C9465000C9419120C94650009
:100050000C942C120C9465000C9465000C946500B3
:100060000C9465000C9465004C135713691391139D
:10007000EB13EB130B147218761811241FBECFEF7D
:10008000D8E0DEBFCDBF12E0A0E0B1E0E4E9F5E3E7
:1000900002C005900D92AC30B107D9F715E0ACE085
:1000A000B2E001C01D92A43BB107E1F710E0C8E740
:1000B000D0E004C02297FE010E949E18C637D107E7
:1000C000C9F70E9449170C94BD1A0C9400001F92A6
:1000D0000F920FB60F9211242F933F938F939F93FC
:1000E0008091840490918504892B49F081E080936C
:1000F000A20481E090E090938B0080938A0080912D
:10010000840490918504469690937B0480937A04AE
:1001100080917A0490917B04209186043091870429
:10012000820F931F089690937D0480937C048091A6
:100130007C0490917D042091880430918904820F81
:10014000931F089690937F0480937E0480917E0491
:1001500090917F0420918A0430918B04820F931F29
:1001600008969093810480938004809180049091FC
:10017000810420918C0430918D04820F931F089686
:100180009093830480938204809179048F5F80939D
:10019000790480910C0290910D02029751F18091A7
:1001A000780491E0980F90937804843010F182E005
:1001B00090E090930D0280930C02109277041092BD
:1001C000760488EB9BE0909385048093840428EE6A
:1001D00033E03093870420938604909389048093BE
:1001E000880490938B0480938A0490938D04809369
:1001F0008C049F918F913F912F910F900FBE0F9084
:100200001F9018951F920F920FB60F9211242F93E3
:100210003F938F939F93EF93FF938091A2041816BF
:100220000CF087C08091A2048630BCF0E091A2045B
:100230002BB1FF27E7FDF095EC5FFE4F81E090E0EA
:10024000008002C0880F991F0A94E2F7809590956C
:1002500030E0822393238BB91AC08091A2048230AC
:10026000B4F0E091A20428B1FF27E7FDF095EC5F20
:10027000FE4F81E090E0008002C0880F991F0A9431
:10028000E2F78095909530E08223932388B980919E
:10029000A20486300CF043C0E091A204EE0FFF0BE5
:1002A000EE57FB4F80819181892B99F1E091A20457
:1002B000EE0FFF0BE858FB4F8081918190938B00EC
:1002C00080938A008091A204E091A20485308CF48E
:1002D00028B1FF27E7FDF095EB5FFE4F81E090E04E
:1002E000008002C0880F991F0A94E2F7822B88B918
:1002F00010C02BB1FF27E7FDF095EB5FFE4F81E0CB
:1003000090E0008002C0880F991F0A94E2F7822BC8
:100310008BB98091A2048F5F8093A2040AC0809160
:1003200084049091850490938B0080938A001092AE
:10033000A204FF91EF919F918F913F912F910F9088
:100340000FBE0F901F9018951F920F920FB60F922D
:1003500011242F933F934F935F936F937F938F93CA
:100360009F93AF93BF93EF93FF93189B09C086B5FC
:1003700090E09093750480937404109273042AC0E3
:1003800066B520917404309175048091730470E017
:10039000621B730B61507F4F90E001974FEF489FB6
:1003A0009001499F300D1124620F731F660F771F54
:1003B000660F771F80E090E00E94A41920E030E0F3
:1003C0004AE754E40E940B19AB01BC018EE092E0B5
:1003D0000E945110FF91EF91BF91AF919F918F912A
:1003E0007F916F915F914F913F912F910F900FBE31
:1003F0000F901F9018951F920F920FB60F92112415
:100400002F933F934F935F936F937F938F939F931C
:10041000AF93BF93EF93FF9329B1809100012827F9
:1004200089B1809300011092780422FF5FC04A9B3B
:1004300009C0809184009091850090938F048093EF
:100440008E0454C04A9952C08091840090918500D6
:1004500040918E0450918F04E0918400F0918500CA
:1004600060918E0470918F04E617F70770F4609125
:10047000840070918500809188009091890040915E
:100480008E0450918F04860F971F841B950BA0E05C
:10049000B0E0AC01BD014150510961097109433916
:1004A00051416105710510F540910C0250910D020A
:1004B000452BE1F440918404509185044A345B401B
:1004C00008F488C1409184045091850443375B400F
:1004D00008F080C1AC01BD014A545B40610971095B
:1004E000493251056105710508F074C123FF53C0FD
:1004F0004B9B09C08091840090918500909391045A
:100500008093900448C04B9946C08091840090919C
:1005100085004091900450919104E0918400F09105
:1005200085006091900470919104E617F70770F4CC
:10053000609184007091850080918800909189007D
:100540004091900450919104860F971F841B950B46
:10055000A0E0B0E0AC01BD01415051096109710951
:100560004339514161057105B0F440910C0250913D
:100570000D02452B81F44091860450918704840F2D
:10058000951FA11DB11DB595A7959795879590933A
:1005900087048093860424FF5FC04C9B09C0809130
:1005A000840090918500909393048093920454C0AA
:1005B0004C9952C0809184009091850040919204A2
:1005C00050919304E0918400F09185006091920431
:1005D00070919304E617F70770F4609184007091AE
:1005E00085008091880090918900409192045091FB
:1005F0009304860F971F841B950BA0E0B0E0AC011D
:10060000BD014150510961097109433951416105E9
:10061000710510F540910C0250910D02452BE1F44B
:10062000409188045091890448325A4008F4E3C04C
:1006300040918804509189044D385A4008F0DBC03D
:10064000AC01BD0148525A40610971094536510556
:100650006105710508F0CFC025FF5FC04D9B09C043
:1006600080918400909185009093950480939404E8
:1006700054C04D9952C08091840090918500409162
:10068000940450919504E0918400F091850060916C
:10069000940470919504E617F70770F46091840054
:1006A0007091850080918800909189004091940418
:1006B00050919504860F971F841B950BA0E0B0E026
:1006C000AC01BD01415051096109710943395141E2
:1006D0006105710510F540910C0250910D02452BFA
:1006E000E1F440918A0450918B044C325B4008F451
:1006F00093C040918A0450918B0441395B4008F0CB
:100700008BC0AC01BD014C525B406109710945369B
:1007100051056105710508F07FC026FF8EC04E9B14
:1007200009C08091840090918500909397048093F4
:10073000960483C04E9981C0809184009091850079
:100740002091960430919704609184007091850007
:1007500040919604509197046417750770F4409186
:1007600084005091850080918800909189002091AB
:10077000960430919704840F951F821B930BA0E081
:10078000B0E0AC01BD014150510961097109433923
:1007900051416105710508F050C020910C02309163
:1007A0000D02232B91F420918C0430918D04AC0127
:1007B000BD01420F531F611D711D759567955795BA
:1007C000479550938D0440938C04909377048093C5
:1007D000760433C04091840450918504840F951FA2
:1007E000A11DB11DB595A795979587959093850403
:1007F000809384047BCE4091880450918904840FB7
:10080000951FA11DB11DB595A795979587959093B7
:1008100089048093880420CF40918A0450918B04EE
:10082000840F951FA11DB11DB595A7959795879527
:1008300090938B0480938A0470CFFF91EF91BF91C6
:10084000AF919F918F917F916F915F914F913F9168
:100850002F910F900FBE0F901F9018951F920F921F
:100860000FB60F9211248F939F93809173048F5F23
:100870008093730480916D0490916E04019690931F
:100880006E0480936D0480916B0490916C040196CA
:1008900090936C0480936B049F918F910F900FBE87
:1008A0000F901F901895FC0140E050EC69E774EC44
:1008B000408F518F628F738F448F558F668F778FE4
:1008C00040A351A362A373A344A355A366A377A334
:1008D0000895FC0140E050EC69E774EC408F518FC3
:1008E000628F738F448F558F668F778F40A351A38C
:1008F00062A373A344A355A366A377A344A755A7F4
:1009000066A777A7178216820895CF92DF92EF929B
:10091000FF920F931F93CF93DF93EC0186B5009165
:100920006B0410916C0490E028813981821B930B39
:10093000BC0161507F4F80E090E00E94A4192DEB34
:1009400037E346E856E30E945A1A6B017C01B8016E
:1009500080E090E00E94A41925E831EB45E85AE3D5
:100960000E945A1A9B01AC01C701B6010E94A3184C
:100970006A837B838C839D83DF91CF911F910F913D
:10098000FF90EF90DF90CF9008952F923F924F927B
:100990005F926F927F928F929F92AF92BF92CF920F
:1009A000DF92EF92FF920F931F93CF93DF9300D0CC
:1009B00000D0CDB7DEB71C016A017B01890120E0C0
:1009C00030EC49E754ECDC0158966D917D918D91A6
:1009D0009C915B970E940719F801868C978CA0A0C8
:1009E000B1A0811107C0D10158968D929D92AD9210
:1009F000BC925B9720E030EC49E754ECF10164A530
:100A000075A586A597A50E940719811107C0D10178
:100A10009C961D921D921D921C929F970091860498
:100A200010918704A5019401C701B6010E94A21884
:100A30006B017C01F101648B758B868B978B4280F7
:100A4000538064807580A30192016AE979E989E89D
:100A500090E40E940B1969837A838B839C83D10174
:100A60001C966D937D938D939C931F97F101408A03
:100A7000518A628A738A208D318D428D538DC501D2
:100A8000B4010E94A2184B015C01D10198966D93AC
:100A90007D938D939C939B97A7019601C301B2010F
:100AA0000E945A1AF10124A535A546A557A50E9412
:100AB000A3182B013C012DEC3CEC4CE45DEBC70191
:100AC000B6010E94561A181694F42DEC3CEC4CE436
:100AD0005DE3C701B6010E94071987FF08C0D10175
:100AE0009C961D921D921D921C929F972AC020E0F9
:100AF00030E040E050E4C301B2010E94561A1816DB
:100B00002CF480E090E0A0E0B0E416C020E030E0FB
:100B100040E85FEBC301B2010E94071987FD08C0DE
:100B2000D1019C964D925D926D927C929F9709C0E7
:100B300080E090E0A0E8BFEBF10184A795A7A6A70D
:100B4000B7A7D10116968D919C911797892BB9F46F
:100B50002DEC3CEC4CE45DE3C701B6010E940719A3
:100B600087FF0DC02DEC3CEC4CE45DEBC701B601FA
:100B70000E94561A18161CF4F101178306832CEBF9
:100B800034E743E15CE3C501B4010E94071987FF24
:100B900011C02FE632E143E05BEBC501B4010E94D6
:100BA000561A18163CF4D10198961D921D921D926A
:100BB0001C929B972DEC3CEC4CE45DE3C701B60125
:100BC0000E94071987FF25C02DEC3CEC4CE45DEB3F
:100BD000C701B6010E94561A1816DCF4C8018D58D8
:100BE0009A4083369105A8F4F10186819781892B7B
:100BF00081F420E030E0A90160A571A582A593A54C
:100C00000E940719811105C0D10117961C930E93FC
:100C10001697F101A680B780FDEDAF16FAE0BF068A
:100C200090F02DEC3CEC4CEC5DEBC701B6010E9462
:100C3000071987FF08C081E0A81AB108D1011796EB
:100C4000BC92AE9216972DEC3CEC4CEC5CEBC701E1
:100C5000B6010E94561A181614F5F10180A491A449
:100C6000A2A4B3A420E030E0A901C501B4010E9410
:100C7000071987FF14C02AE939E949E850E4C5019A
:100C8000B4010E945A1AD10198966D937D938D9369
:100C90009C939B97F10114A615A616A617A6D10141
:100CA00098964D905D906D907C909B972AE939E9DC
:100CB00049E95FE3C701B6010E945A1A4B015C0182
:100CC000A301920169817A818B819C810E945A1AC9
:100CD0009B01AC01C501B4010E94A218F10124A539
:100CE00035A546A557A50E94A3184B015C01D1016B
:100CF00018966D937D938D939C931B972DEC3CECF4
:100D00004CE45DE3C701B6010E94071987FF05C0E7
:100D100080E090E0A0E8BFEB18C02DEC3CEC4CE488
:100D20005EE3C701B6010E94561A1816A4F42DEC12
:100D30003CEC4CEC5DE3C501B4010E94561A181658
:100D400054F480E090E0A0E0B0E4F1018087918766
:100D5000A287B3876CC020E030E040E251E4C501D7
:100D6000B4010E94561A1816DCF420E030E0A90104
:100D7000C301B2010E94071987FF12C020E030E0D2
:100D8000A901C701B6010E94561A18164CF4003F7B
:100D9000FAE01F0770F480E090E0A0E2B1E4D5CF64
:100DA00020E030E0A901C701B6010E94561A1816CA
:100DB0007CF420E030E040E450E4C501B4010E943E
:100DC000561A18162CF480E090E0A0E4B0E4BDCFF1
:100DD0002DEC3CEC4CEC5DE3C501B4010E94561ACD
:100DE00018167CF420E030E040E85FE3C501B40170
:100DF0000E94071918162CF080E090E0A0E8BFE3ED
:100E0000A4CF20E030E040E85FEBC501B4010E94D0
:100E1000071987FF05C0013AFAE01F0708F078CFED
:100E2000D10118961D921D921D921C921B97B8011C
:100E300080E090E00E94A419F1012085318542856F
:100E400053850E94A3180E9478198B016735F8E03A
:100E50007F0708F45FC020E030E0A901C701B601B8
:100E60000E94561A18162CF4083C8AE0180708F459
:100E700054C02DEC3CEC4CE45DE3C701B6010E948C
:100E8000071987FF14C020E030E040E251ECC701B1
:100E9000B6010E94561A181654F4D10116968D9177
:100EA0009C911797009719F08017910788F02DEC07
:100EB0003CEC4CEC5DE3C701B6010E94071987FFCB
:100EC00008C00D32BBE01B0750F00CE21BE007C06E
:100ED0008C010535EBE01E0710F004E51BE01093D4
:100EE0008704009386040F900F900F900F90DF916E
:100EF000CF911F910F91FF90EF90DF90CF90BF9017
:100F0000AF909F908F907F906F905F904F903F90A9
:100F10002F90089507E518E0E2CF08EC1AE0DFCF44
:100F20002F923F924F925F926F927F928F929F92F9
:100F3000AF92BF92CF92DF92EF92FF920F931F93E7
:100F4000CF93DF9300D000D0CDB7DEB71C014A01AC
:100F50005B01890120E030EC49E754ECFC0160A121
:100F600071A182A193A10E940719F80146A057A080
:100F700060A471A4811105C0F10140A251A262A236
:100F800073A2F10122813381448155816AE077EDBA
:100F900083E29CE30E940B196B017C01F1016487E1
:100FA0007587868797870091880410918904A50129
:100FB0009401C301B2010E94A2184B015C01F1012E
:100FC000648B758B868B978B20A131A142A153A195
:100FD000C301B2010E94A2182B013C01F10160A7DC
:100FE00071A782A793A7B80180E090E00E94A4199E
:100FF00069837A838B839C832AE939E949ED5FE32E
:10100000C501B4010E945A1A9B01AC0169817A8121
:101010008B819C810E94A3184B015C01A30192016A
:10102000C701B6010E945A1A9B01AC01C501B40167
:101030000E94A2180E9478196832FAE07F0738F0FF
:101040006D382AE0720728F06CE87AE002C068E2A6
:101050007AE070938904609388040F900F900F904A
:101060000F90DF91CF911F910F91FF90EF90DF9044
:10107000CF90BF90AF909F908F907F906F905F9038
:101080004F903F902F9008952F923F924F925F92F2
:101090006F927F928F929F92AF92BF92CF92DF9288
:1010A000EF92FF920F931F93CF93DF9300D000D066
:1010B000CDB7DEB71C014A015B01890120E030ECAD
:1010C00049E754ECFC01648D758D868D978D0E94E7
:1010D0000719F80142A053A064A075A0811105C0B2
:1010E000F101448E558E668E778EF1012281338117
:1010F000448155816AE077ED83E29CE30E940B19FD
:101100006B017C01F1016487758786879787009161
:101110008A0410918B04A5019401C301B2010E94BD
:10112000A2184B015C01F101648B758B868B978B48
:10113000248D358D468D578DC301B2010E94A218B2
:101140002B013C01F10160A771A782A793A7B80109
:1011500080E090E00E94A41969837A838B839C834A
:101160002AE939E949ED5FE3C501B4010E945A1A41
:101170009B01AC0169817A818B819C810E94A318BB
:101180004B015C01A3019201C701B6010E945A1AEA
:101190009B01AC01C501B4010E94A2180E947819FC
:1011A0006A34FBE07F0738F063372BE0720728F0E2
:1011B00062E77BE002C06AE47BE070938B0460939B
:1011C0008A040F900F900F900F90DF91CF911F9195
:1011D0000F91FF90EF90DF90CF90BF90AF909F90D6
:1011E0008F907F906F905F904F903F902F900895D9
:1011F0002F923F924F925F926F927F928F929F9227
:10120000AF92BF92CF92DF92EF92FF920F931F9314
:10121000CF93DF9300D000D0CDB7DEB71C016A01B9
:101220007B01890120E030EC49E754ECFC0164A12A
:1012300075A186A197A10E940719F80142A453A4A1
:1012400064A475A4811105C0F10144A255A266A24F
:1012500077A2F101228133814481558160E070E001
:10126000CB010E940B194B015C01F101648775876A
:10127000868797870091840410918504A7019601C1
:10128000C301B2010E94A2186B017C01F101648BC1
:10129000758B868B978B24A135A146A157A1C301DD
:1012A000B2010E94A2182B013C01F10160A771A7B5
:1012B00082A793A72DEC3CEC4CE45DE3C701B6019B
:1012C0000E945A1A69837A838B839C83A3019201BB
:1012D000C501B4010E945A1A9B01AC0169817A814F
:1012E0008B819C810E94A2184B015C0120E030E0C0
:1012F00040E85FE30E94561A18162CF480E090E054
:10130000A0E8BFE314C020E030E040E85FEBC50197
:10131000B4010E94071987FD06C0F10180869186FD
:10132000A286B38609C080E090E0A0E8BFEBF1019F
:1013300080879187A287B387B80180E090E00E9400
:10134000A419F10120853185428553850E94A31897
:101350000E9478198B0120E030E040E251E4C7019F
:10136000B6010E94561A181654F420E030E040E20C
:1013700051ECC701B6010E94071987FD05C004356D
:10138000FBE01F0758F002C002E71BE0B801093B71
:101390008BE0180728F068EB7BE002C064E57BE097
:1013A00070938504609384040F900F900F900F90BA
:1013B000DF91CF911F910F91FF90EF90DF90CF9031
:1013C000BF90AF909F908F907F906F905F904F9065
:1013D0003F902F9008950895FC01DB015E964D919A
:1013E0005D916D917C919197408F518F628F738F3A
:1013F00096964D915D916D917C91999740A351A3E3
:1014000062A373A392964D915D916D917C91959796
:10141000448F558F668F778F9A964D915D916D9120
:101420007C919D9744A355A366A377A386B590E0CE
:101430009183808310926C0410926B040895109233
:10144000B90080E28093B80084E08093BC000895E6
:1014500084EA8093BC0080E08F5F893229F090910C
:10146000BC0097FFF9CF02C088EC08958832E0F7FE
:101470008091B900887F089584E98093BC008091B1
:10148000B900887F08958093BB0084E88093BC00F6
:101490008091BC0087FFFCCF8091B900887F0895C0
:1014A00084EC8093BC008091BC0087FFFCCF8091CE
:1014B000BB00089584E88093BC008091BC0087FF46
:1014C000FCCF8091BB000895CF93DF93EC0182594C
:1014D0009F4F0E945304CE0182569F4F0E943B12A1
:1014E000CE018F509F4F0E94D01085E088831982D3
:1014F0001B821A821C821D821E821F8218861986F8
:101500001A861B861C861D861E861F86188A198AC7
:101510001A8A1B8A40E050E060E07FE34E8B5F8BCD
:10152000688F798FFE01E45AFF4F81E090E091834C
:101530008083FE01E25AFF4F4083518362837383AD
:10154000FE01EE59FF4F1082118212821382FE01BA
:10155000EA59FF4F1082118212821382FE01E6596E
:10156000FF4F108211821282138248A759A76AA7DF
:101570007BA724E030E03D8B2C8B80E793E7A7EA44
:10158000B2EC8A8F9B8FAC8FBD8F8DE79DE2A9E275
:10159000B2E48E8F9F8FA8A3B9A340E050E060E42F
:1015A00070E44AA35BA36CA37DA33FA32EA38CE8A6
:1015B00093E7A7EAB2EC8CA79DA7AEA7BFA78AEDD9
:1015C0009DE2A9E2B2E488AB99ABAAABBBAB4CAB52
:1015D0005DAB6EAB7FAB82E090E099AF88AF1AAEA7
:1015E0001BAE1CAE1DAEFE01FE9610821182128251
:1015F0001382FE01EE5BFF4F108211821282138272
:10160000FE01EA5BFF4F1082118212821382FE01FB
:10161000E65BFF4F85E090E091838083FE01E45B11
:10162000FF4F1082118212821382FE01E05BFF4F96
:101630001082118212821382FE01EC5AFF4F108237
:10164000118212821382FE01E85AFF4F108211822A
:1016500012821382FE01EE50FF4F1082FE01ED5008
:10166000FF4F1082FE01EB50FF4F1082FE01EA5047
:10167000FF4F1082FE01E950FF4F1082FE01EC5E29
:10168000FE4F1082118212821382FE01E85EFE4F2D
:101690001082118212821382FE01E45EFE4F1082DC
:1016A000118212821382FE01E85FFE4F10821182C6
:1016B00012821382FE01E45FFE4F108211821282B9
:1016C0001382FE01E850FF4F1082FE01E750FF4FEA
:1016D0001082FE01E650FF4F1082118212821382A7
:1016E000FE01E05FFE4F1082118212821382FE0122
:1016F000E250FF4F1082118212821382FE01EE5FD0
:10170000FE4F11821082FE01EC5FFE4F11821082AB
:10171000CA5FDE4F19821882DF91CF910895CF936F
:10172000DF93EC018F509F4F0E949D11FE01EE5BF5
:10173000FD4F882319F081E0808301C01082CE0123
:1017400082599F4F0E946904FE01E55BFD4F40E016
:1017500050EC69E774EC4083518362837383FE012C
:10176000E15BFD4F89E19CEF91838083CB5ADD4F94
:1017700040E05CE36CE176EC488359836A837B83C9
:10178000DF91CF9108954F925F926F927F92AF92C7
:10179000BF92CF92DF92EF92FF920F931F93CF935E
:1017A000DF93EC01FC01EE5BFD4F808181114DC0A8
:1017B000CE018F509F4F0E94F7106B017C015E019C
:1017C00020EFA21A2EEFB20AF5014080518062800C
:1017D00073802DEC3CEC4CE850E4C301B2010E9454
:1017E000561A181694F520E030EC49E754ECC7017E
:1017F000B6010E940719882341F18E01095B1D4F34
:1018000020E030E0A901F80160817181828193813B
:101810000E94071981110BC0A3019201C701B601F3
:101820000E94A218F8016083718382839383F80178
:101830002081318142815381C701B6010E94A218E3
:10184000F50160837183828393835E01F5EBAF1AA8
:10185000FDEFBF0A20E030EC49E754ECF501608170
:101860007181828193810E940719811115C0FE0147
:10187000E45EFE4FC080D180E280F38020E030E063
:10188000A901C701B6010E940719882329F0F501B3
:10189000C082D182E282F3828E0102591F4FC801B9
:1018A0000E94850480918A0490918B048A349B4025
:1018B00040F080918A0490918B0483379B4008F418
:1018C00041C0809188049091890488329A4038F010
:1018D00080918804909189048D389A40E8F1F5014F
:1018E000C080D180E280F38020E030EC49E754EC06
:1018F000C701B6010E9407198823C1F180918404B1
:10190000909185048A329B4088F180918404909163
:10191000850485389B4050F59E012E503F4FB701FE
:10192000A601C801DF91CF911F910F91FF90EF9019
:10193000DF90CF90BF90AF907F906F905F904F906F
:101940000C94F8089E012E503F4F40E050E0BA0141
:10195000C8010E944408B5CF9E012E503F4F40E081
:1019600050E0BA01C8010E949007B9CFDF91CF9132
:101970001F910F91FF90EF90DF90CF90BF90AF90AD
:101980007F906F905F904F9008952F923F924F926B
:101990005F926F927F928F929F92AF92BF92CF92FF
:1019A000DF92EF92FF920F931F93CF93DF93CDB708
:1019B000DEB728970FB6F894DEBF0FBECDBFDB01B0
:1019C0001696CD90DD90ED90FC901997FC01E45FA8
:1019D000FE4F208131814281538129833A834B8399
:1019E0005C831A962D913D914D915C911D972D83AD
:1019F0003E834F835887FC01E85FFE4F4080518053
:101A0000628073808C01075A1D4FF801808091809D
:101A1000A280B380C501B40120EB36E340E050E082
:101A20000E947A18672B682B692B09F453C029810F
:101A30003A814B815C81C701B6010E94A2186B01FB
:101A40007C0122E838EA4BEF57E30E94561A181639
:101A50007CF022E838EA4BEF57EBC701B6010E9451
:101A6000071987FD0AC027E7222E2BE0322E09C076
:101A700098E6292E9BE0392E04C086E8282E8BE0BC
:101A8000382EA30192016D817E818F8198850E94FD
:101A9000A2186B017C0122E838EA4BEF57E30E9461
:101AA000561A18166CF022E838EA4BEF57EBC701CC
:101AB000B6010E94071987FD06C084E69AE005C0BA
:101AC00088E79AE002C080E59AE030928B04209289
:101AD0008A0408C087E79BE090938B0480938A0474
:101AE00084E69AE09093890480938804D501C40128
:101AF0000196A11DB11DF80180839183A283B38358
:101B000028960FB6F894DEBF0FBECDBFDF91CF9100
:101B10001F910F91FF90EF90DF90CF90BF90AF900B
:101B20009F908F907F906F905F904F903F902F90FD
:101B300008952F923F924F925F926F927F928F9271
:101B40009F92AF92BF92CF92DF92EF92FF920F934C
:101B50001F93CF93DF93CDB7DEB766970FB6F89498
:101B6000DEBF0FBECDBF8C017C0125EBE21A2DEF4D
:101B7000F20A20E030EC49E754ECF7016081718112
:101B8000828193810E94071981110CC0F801E45EE3
:101B9000FE4F80819181A281B381F701808391837F
:101BA000A283B383F801EE5BFD4F808181114FC0AA
:101BB000C8018F509F4F0E94F7104B015C01180124
:101BC000F0EF2F1AFEEF3F0AF10140805180628052
:101BD00073802DEC3CEC4CE850E4C301B2010E9450
:101BE000561A1816A4F520E030EC49E754ECC5016C
:101BF000B4010E940719882351F16801F9EBCF1A4B
:101C0000FDEFDF0A20E030E0A901F601608171817B
:101C1000828193810E94071981110BC0A301920157
:101C2000C501B4010E94A218F6016083718382830A
:101C30009383F6012081318142815381C501B40132
:101C40000E94A218F10160837183828393835801FB
:101C5000FEE6AF0EB11CC5010E948504F801D180DB
:101C600082E18D9DE00DF11D11243296DE01119669
:101C700001900D928A95E1F789819A8198012E5001
:101C80003F4F49018230910509F40AC12CF40097B5
:101C900099F00197D9F0D7C18430910509F4CBC0F0
:101CA0000CF46BC0059709F0CEC184E398E09093E3
:101CB000870480938604C7C188E29AE090938704E2
:101CC00080938604D394F801D182BDC14B815C819D
:101CD0006D817E81C5010E94C504940140E050E001
:101CE000BA01C5010E944408940140E050E0BA01E5
:101CF000C5010E949007F701C080D180E280F38087
:101D000020E030EC49E754ECC701B6010E94071906
:101D1000882331F09401B701A601C5010E94F8089B
:101D2000F801E05FFE4FC080D180E280F3804B80FD
:101D30005C806D807E8020E030E040E85EE3C3019F
:101D4000B2010E94A2189B01AC01C701B6010E941A
:101D5000561A18160CF077C120E030E040E85EE338
:101D6000C301B2010E94A3189B01AC01C701B601D7
:101D70000E94071987FF67C18EC07801F1EBEF1A47
:101D8000FDEFFF0AF7018081918197FF08C086B5BA
:101D900090E09183808310926E0410926D0426B5BA
:101DA00060906D0470906E046FEF70E0F7018081B9
:101DB0009181681B790B620F711D80E090E00E9499
:101DC000A4192DEB37E346E856E30E945A1A1B018B
:101DD0002C01B30180E090E00E94A41925E831EBCA
:101DE00045E85AE30E945A1A9B01AC01C201B101B5
:101DF0000E94A318F801EF5AFD4F6083718382831C
:101E000093832F85388949895A890E94561A87FDFC
:101E10000CC089E19CEFF7019183808310926E04DE
:101E200010926D04D394F801D1824B815C816D8155
:101E30007E819401F7C0BE016F5F7F4FC8010E9491
:101E4000C50C4B815C816D817E819401C5010E942E
:101E5000C504F801E85FFE4F208131814281538142
:101E60006B857C858D859E850E94A2186B017C0107
:101E700022E63EEB4CEB58E30E94071987FFE3C0D4
:101E800022E63EEB4CEB58EBC701B6010E94561A16
:101E900018160CF0D8C0F80181818F5F8183D3C000
:101EA0001801FBEA2F1AFDEF3F0A20E03CE34CE16A
:101EB00056ECF10160817181828193810E94071942
:101EC000B801605F7E4F81110AC0FB018081918162
:101ED000A281B381F10180839183A283B383F10155
:101EE000C080D180E280F380A7019601FB01608170
:101EF0007181828193810E94A2182B013C0120E014
:101F000030E040E85EE30E9407199801215B3D4FF5
:101F10003C8B2B8B87FF18C020E030E040E85EEB65
:101F2000C301B2010E94561A181674F4EB89FC8999
:101F30008081918197FF08C086B590E0918380836E
:101F400010926E0410926D0426B580916D049091EC
:101F50006E049E8B8D8B6FEF70E0EB89FC89808126
:101F60009181681B790B620F711D80E090E00E94E7
:101F7000A4192DEB37E346E856E30E945A1A2B01C9
:101F80003C012D893E89B90180E090E00E94A419AE
:101F900025E831EB45E85AE30E945A1A9B01AC014F
:101FA000C301B2010E94A318F801EF5AFD4F6083EC
:101FB00071838283938320E030E040E050E40E940C
:101FC000561A87FD2AC089E19CEFEB89FC89918331
:101FD000808310926E0410926D0420E030E0A9011D
:101FE000C701B6010E94561A181674F42DEC3CEC89
:101FF0004CEC5DE3C701B6010E94A218F1016083B9
:1020000071838283938309C080E09CE9ACE0B6ECE5
:10201000F10180839183A283B383940140E050E077
:1020200068EC72ECC5010E94C504940140E050E0E8
:10203000BA01C5010E944408940140E050E0BA0191
:10204000C5010E949007B401C5010E94EC0980E01F
:1020500066960FB6F894DEBF0FBECDBFDF91CF916D
:102060001F910F91FF90EF90DF90CF90BF90AF90B6
:102070009F908F907F906F905F904F903F902F90A8
:102080000895BC016E507F4F82569F4F0C942814C8
:10209000FC01E850FF4F81E09081973008F080E02C
:1020A00008958F929F92AF92BF92CF92DF92EF925C
:1020B000FF92CF93DF936A017B01EC01C05FDE4F9B
:1020C0009A01AB01688179818A819B810E94A21863
:1020D0004B015C0120E030E040E050E40E94071931
:1020E00087FF0EC020E030E040E050ECC501B401B5
:1020F0000E94561A181624F4C882D982EA82FB82FA
:10210000DF91CF91FF90EF90DF90CF90BF90AF9095
:102110009F908F900895895B9D4FFC014083518370
:102120006283738308950895CF92DF92EF92FF92B6
:10213000845F9E4FFC012081318142815381FB01EC
:1021400066817781808591850E94A2186B017C0150
:1021500020E030E0A9010E94561A18166CF020E029
:1021600030E0A901C701B6010E94071987FD09C027
:1021700060E070E0CB0109C060E070E282E395E4CA
:1021800004C060E070E688E395E40E9478197093DB
:102190008B0460938A04FF90EF90DF90CF900895B6
:1021A000089560E070E0CB0108951F93CF93DF9313
:1021B0001F92CDB7DEB769830E94280A80EC0E9487
:1021C000430A6981862F0E94430A0E943C0A0E94AA
:1021D000280A81EC0E94430A0E945A0A182F0E9482
:1021E0003C0A812F0F90DF91CF911F910895CF92DC
:1021F000DF92EF92FF92CF937C01C5E660E0C701CA
:102200000E94D51082FD07C0C150C1F760E070EC9C
:1022100089E794EC34C00E94280A80EC0E94430AAB
:1022200081E00E94430A0E94280A81EC0E94430A2E
:102230000E94500AC82ED12CE12CF12CFE2CED2C42
:10224000DC2CCC240E94500AC82AFE2CED2CDC2C5D
:10225000CC240E945A0AC82A0E943C0AC701B6012F
:1022600024E096958795779567952A95D1F70E94F2
:10227000A41920E030E040E85DE30E945A1ACF91B3
:10228000FF90EF90DF90CF9008951F93CF93DF934F
:10229000EC0115E660E0CE010E94D51082FD07C07A
:1022A0001150C1F760E070EC89E794EC28C00E94FF
:1022B000280A80EC0E94430A84E00E94430A0E949C
:1022C000280A81EC0E94430A0E94500A682F70E09D
:1022D000D62FCC270E945A0AC82B0E943C0ABE0166
:1022E00044E0769567954A95E1F780E090E00E949A
:1022F000A41920E030E040E85DE30E945A1ADF9123
:10230000CF911F910895CF93DF9300D0CDB7DEB763
:102310004A8369830E94280A80EC0E94430A6981EB
:10232000862F0E94430A4A81842F0E94430A0F90FD
:102330000F90DF91CF910C943C0ACF93DF93EC0187
:102340000E941F0A0E94280A883C19F10E943C0A38
:102350006CE0CE010E94D510843CE9F440E066E2D6
:10236000CE010E94831148EB66E2CE010E948311E8
:1023700047E063E1CE010E94831140E06DE2CE01AF
:102380000E94831149EB66E2CE010E94831180E036
:1023900003C081E001C082E0DF91CF910895CF9327
:1023A000DF93EC014BEB66E20E94831149EB66E29E
:1023B000CE01DF91CF910C948311CF93C62F9C0156
:1023C00040E050E084E0220F331F441F551F8A95E0
:1023D000D1F760E074E284EF90E00E947A18215017
:1023E00031093093C5002093C4008091C2008E60F3
:1023F0008093C2008091C10088618093C100CC238A
:1024000031F08091C100806C8093C1007894CF91AD
:1024100008959091C00095FFFCCF8093C600109264
:10242000A40408958091C00087FFFCCF8091C6006E
:1024300008951F920F920FB60F9211248F938091DF
:10244000C6008093A60481E08093A5048F910F902D
:102450000FBE0F901F9018951F920F920FB60F92FC
:1024600011248F9381E08093A4048F910F900FBE6D
:102470000F901F901895FC01108211821282138216
:102480001482158216821782108611861286138690
:1024900014861586168617860895089580E090E0C4
:1024A0000895BF92CF92DF92EF92FF920F931F9306
:1024B000CF93DF938B01FB0180810E940912E80119
:1024C000C75FDE4F1882F801F1808F2D0E9409123C
:1024D000EF2DFF27E7FDF0958881E827E55FFE4FA8
:1024E00080818883F801F2808F2D0E940912EF2DE0
:1024F000FF27E7FDF0958881E827E55FFE4F8081A3
:102500008883F801F3808F2D0E940912EF2DFF2799
:10251000E7FDF0958881E827E55FFE4F808188839D
:10252000F801F4808F2D0E940912EF2DFF27E7FD9F
:10253000F0958881E827E55FFE4F80818883F80168
:10254000C480D580E680F780CD2CDE2CEF2CFF24D4
:102550008C2D0E940912EC2DFF27E7FDF095888154
:10256000E827E55FFE4F80818883F801C480D5802D
:10257000E680F7806701EE24FF248C2D0E9409126B
:10258000EC2DFF27E7FDF0958881E827E55FFE4FFA
:1025900080818883F801C480D580E680F780CF2CC5
:1025A000DD24EE24FF248C2D0E940912EC2DFF2740
:1025B000E7FDF0958881E827E55FFE4F80818883FD
:1025C000F80182819381099760F48881DF91CF912E
:1025D0001F910F91FF90EF90DF90CF90BF900C94E0
:1025E00009126801FAE0CF0ED11C76012E2D2C19AC
:1025F00030E0F8018281938108972817390728F77E
:10260000F701B1907F018B2D0E940912EB2DFF275E
:10261000E7FDF0958881E827E55FFE4F808188839C
:10262000E5CFCF93DF93CDB7DEB7CA50D1400FB619
:10263000F894DEBF0FBECDBF2CE329834A8328E088
:1026400030E03C832B83FB01448155816681778197
:102650004D835E836F837887BE016F5F7F4F0E94DB
:102660005112C65FDE4F0FB6F894DEBF0FBECDBF6E
:10267000DF91CF9108950F931F93CF93DF93EA01DA
:102680008091A90490E08730910508F0CBC08C5C64
:102690009F4FFC010C949C186C3309F0C3C081E07F
:1026A0008093A904688384EB8093A804BBC0A091A5
:1026B000A804A627B0E0A55FBE4F8C918093A80424
:1026C000862F887F803241F582E08093A904698358
:1026D0009FC0A091A804A627B0E0A55FBE4F8C9133
:1026E0008093A8048091A7048F5F8093A704062F8E
:1026F00010E0823018F41B830A8394C0102F002747
:102700008A819B81080F191F1B830A8308501109B6
:102710000F3F110521F018F01092A90483C083E047
:1027200075C0A091A804A627B0E0A55FBE4F8C910C
:102730008093A8044091A7044F5F4093A7044230C0
:1027400091F060F4413009F06DC0062F10E020E0F8
:1027500030E00C831D832E833F8364C0433061F0DF
:102760004430F1F05FC0062F10E020E030E0322F5F
:10277000212F102F002707C0062F10E020E030E0A7
:102780009801112700278C819D81AE81BF81800F28
:10279000911FA21FB31F8C839D83AE83BF8342C052
:1027A000062F10E020E030E0302F222711270027ED
:1027B0008C819D81AE81BF81800F911FA21FB31FAD
:1027C0008C839D83AE83BF838A819B810897E9F0C8
:1027D0004093A9041DC0A091A804A627B0E0A55F5E
:1027E000BE4F8C918093A8042091A7042F5F209363
:1027F000A70430E0DA01A20FB31F19966C938A8107
:102800009B8108972817390768F086E08093A90410
:102810001092A70407C0DA01A75FBE4F6C9387E050
:102820008093A9048091A904873011F080E00BC047
:102830001092A9049091A804DE01A75FBE4F8C916D
:102840009813F4CF8A81DF91CF911F910F91089552
:102850002F923F924F925F926F927F928F929F92B0
:10286000AF92BF92CF92DF92EF92FF920F931F939E
:10287000CF93DF93CDB7DEB729970FB6F894DEBFBD
:102880000FBECDBF1C014B0100ED17E080E0909121
:10289000A504911104C08F5F833371F0F8CF8233A8
:1028A00058F46091A6041092A5044AEA54E0C101CC
:1028B0000E943B13811108C0015011090115110537
:1028C00029F780E090E0CCC28091AE049091AF04F3
:1028D000A091B004B091B104823C2BEF92072CEE92
:1028E000A2072CE6B20709F42BC108F04CC08230D5
:1028F000E9E29E07EEE7AE07EFE2BE0709F4BCC0CF
:1029000008F584302AE9920727EDA2072EE0B207E6
:1029100009F416C138F486319A4AA743BB4009F43A
:102920000FC192C28E3CF8E49F07F7E5AF07FAE1CA
:10293000BF0709F410C184379B4EAA47BB4109F475
:10294000FFC082C28E3438EC93073CEBA30730E41F
:10295000B30709F400C138F4863E954DAA4DB34340
:1029600009F4A2C071C2823E25E592072CE9A207B4
:1029700026E6B20709F45EC28A359B4BA743B746E9
:1029800009F47AC061C28A3BE4E89E07E5E2AE073B
:10299000EEEBBE0709F44EC208F04EC08E3722E1BE
:1029A00092072AE6A2072BE9B20709F4C9C080F50D
:1029B0008A309148AD42BC4809F046C28091B604C5
:1029C0009091B704A091B804B091B904F40182AF1A
:1029D00093AFA4AFB5AFFE968091BA049091BB04BB
:1029E000A091BC04B091BD0480839183A283B38382
:1029F000F401EE5BFF4F8091BE049091BF04A09163
:102A0000C004B091C10480839183A283B3831CC2AC
:102A10008630FEE09F07FCE3AF07FDEABF0709F43D
:102A200069C08A38974FA74CB84B09F00DC2809106
:102A3000CE04F401808308C2863935E3930738E079
:102A4000A30732EDB30709F4BDC138F484359D42C4
:102A5000AF4FB54C09F474C0F7C1843629ED920725
:102A600020EEA20727EDB207F9F0863B9342A34A76
:102A7000B24E09F470C0E8C1D1011F96EC911F97C6
:102A8000F0E0E655FB4F8285823031F0833041F033
:102A90008111DAC181E005C083E0F1018087D4C1F2
:102AA000D10118968C93D0C18091C6049091C7042F
:102AB000A091C804B091C904F40182A393A3A4A374
:102AC000B5A38091CA049091CB04A091CC04B0919D
:102AD000CD0486A397A3A0A7B1A78091CE0490911F
:102AE000CF04A091D004B091D10482A793A7A4A74A
:102AF000B5A7AAC18091B6049091B704A091B8047B
:102B0000B091B904F40186A797A7A0ABB1AB8091AF
:102B1000BA049091BB04A091BC04B091BD0482ABF7
:102B200093ABA4ABB5AB8091BE049091BF04A091D0
:102B3000C004B091C10486AB97ABA0AFB1AF84C164
:102B40008091B604D40114968C9314978091B704A5
:102B500015968C9379C16101FCE4CF0ED11CD6018E
:102B6000FC908101B4E0FB9E000D111D11246091C9
:102B7000B6047091B7048091B8049091B9040E9492
:102B8000A61920E836E948E15BE40E940B19F80138
:102B9000608B718B828B938BF394D601FC92609146
:102BA000BA047091BB048091BC049091BD040E9452
:102BB000A61920E836E948E15BE40E940B19F80108
:102BC00064A375A386A397A3F4E0FF1510F4D601C0
:102BD0001C92F10125E030E080899189A289B389B6
:102BE00080AF91AFA2AFB3AF215031093496211518
:102BF000310591F73D822C8280E0F101E15BFF4FCE
:102C0000FB83EA8300E010E08F5F89838981800F76
:102C1000853090F5AC81BD81D8964D905D906D90DA
:102C20007C90DB975101B4E08B9FA00CB11C112468
:102C3000F501C0ACD1ACE2ACF3ACA7019601C30185
:102C4000B2010E94561A1816A4F4AA81BB81CD9233
:102C5000DD92ED92FC921397F50140AE51AE62AE5B
:102C600073AEAC81BD81D896CD92DD92ED92FC928F
:102C7000DB970F5F1F4FCACFEC81FD813496FD8338
:102C8000EC83F981F53011F08F2FBCCF9101225BDD
:102C90003F4F3B832A83D9018C93F101E05CFF4FC6
:102CA000FD83EC8380819181A281B381F401868BC5
:102CB000978BA08FB18FF10125E030E084A195A121
:102CC000A6A1B7A180AF91AFA2AFB3AF2150310998
:102CD00034962115310591F78101B12C9101215BC9
:102CE0003F4F3F832E8319861886B394B982888517
:102CF000F9818F0F853098F5D801D8964D905D9069
:102D00006D907C90DB975101B4E08B9FA00CB11CBF
:102D10001124F501C0ACD1ACE2ACF3ACA701960133
:102D2000C301B2010E94561A18169CF4AE81BF81ED
:102D3000CD92DD92ED92FC921397F50140AE51AE2B
:102D400062AE73AED801D896CD92DD92ED92FC9230
:102D5000DB97E885F9853196F987E887C8CF0C5F5E
:102D60001F4FF53011F0BF2EBECFAA81BB818C93CF
:102D7000EC81FD8180819181A281B381F401828FF8
:102D8000938FA48FB58F8091DB0486838091DA04C2
:102D900087838091C6049091C704A091C804B09124
:102DA000C90480879187A287B3878091CA049091D4
:102DB000CB04A091CC04B091CD0484879587A687DD
:102DC000B78742C020E030E04AE754E46091B6049F
:102DD0007091B7048091B8049091B9040E945A1A76
:102DE0000E947319D40151967C936E93509720E002
:102DF00030E048EC52E46091BA047091BB048091D9
:102E0000BC049091BD040E945A1A0E947319F401E7
:102E1000738B628B6091CA047091CB048091CC0457
:102E20009091CD040E947319D40155967C936E93B2
:102E300054970AC080911905F401808380911A0586
:102E4000818380911B0582838091AB04823231F4AF
:102E500043E26AEA74E0C1010E94111381E090E04C
:102E600029960FB6F894DEBF0FBECDBFDF91CF918C
:102E70001F910F91FF90EF90DF90CF90BF90AF9098
:102E80009F908F907F906F905F904F903F902F908A
:102E90000895A1E0B1E0E6E0F1E040E081E090E0FB
:102EA0005AB1ED019C010C9002C0220F331F0A940D
:102EB000E2F7209525232AB9443059F057B19C01F7
:102EC000008002C0220F331F0A94E2F7522B57B939
:102ED0000AC05AB19C01008002C0220F331F0A941D
:102EE000E2F7522B5AB95BB111969C01088002C0DF
:102EF000220F331F0A94E2F7522B5BB94F5F3196D2
:102F0000453071F6259A809181008A608093810016
:102F100084E499E99093890080938800C0EDD7E01C
:102F2000D0938B00C0938A0080916F00866080935D
:102F30006F0085B5836085BD80916E008160809350
:102F40006E0080916B00816080936B0080916D00BA
:102F50008C6780936D008091680085608093680025
:102F600061E080E096E90E94DD118FEF8093A2047A
:102F700086E89BE09093850480938404D093870433
:102F8000C09386048CE89AE0909389048093880427
:102F900088EB9BE090938B0480938A0490938D043C
:102FA00080938C0480E090E020E030E0AC01440F9E
:102FB000551FFA01EC57FB4F60817181260F371FB7
:102FC000FA01E658FB4F3183208301968530910545
:102FD00069F78EE092E00E948F0B7894C8EBDBE0FB
:102FE00088EEE82E83E0F82E01E010E092E0C92E92
:102FF000D12C8EE092E00E94411080910C029091C1
:103000000D0281309105E9F08230910589F1892B1B
:1030100009F063C08091760490917704853E9C40CE
:1030200020F010930D0200930C0280917904882304
:1030300031F08EE092E00E94C30B109279042D9A39
:10304000D8CF8091760490917704843C994020F405
:1030500010920D0210920C0280917904833030F0AE
:103060008EE092E00E94990D109279042D98C1CFC4
:10307000D0938504C0938404F0928704E092860480
:10308000D0938904C0938804D0938B04C0938A049E
:10309000D0938D04C0938C04809176049091770432
:1030A000853E9C4028F010930D0200930C02A1CFA6
:1030B0008091760490917704843C994008F099CFF0
:1030C0008091760490917704893E934008F491CFE3
:1030D00010920D0210920C028CCFD0920D02C09271
:1030E0000C0287CF8EE092E00C94640A8CEA92E0A6
:1030F0000C944D12A1E21A2EAA1BBB1BFD010DC0A0
:10310000AA1FBB1FEE1FFF1FA217B307E407F50797
:1031100020F0A21BB30BE40BF50B661F771F881F73
:10312000991F1A9469F760957095809590959B0109
:10313000AC01BD01CF010895EE0FFF1F0590F49182
:10314000E02D09945058BB27AA270ED075C166D12F
:1031500030F06BD120F031F49F3F11F41EF45BC1CD
:103160000EF4E095E7FB51C1E92F77D180F3BA1750
:10317000620773078407950718F071F49EF58FC1F5
:103180000EF4E0950B2EBA2FA02D0B01B901900182
:103190000C01CA01A0011124FF27591B99F0593FC6
:1031A00050F4503E68F11A16F040A22F232F342F0E
:1031B0004427585FF3CF469537952795A795F0405C
:1031C0005395C9F77EF41F16BA0B620B730B840B71
:1031D000BAF09150A1F0FF0FBB1F661F771F881F29
:1031E000C2F70EC0BA0F621F731F841F48F4879581
:1031F00077956795B795F7959E3F08F0B3CF939570
:10320000880F08F09927EE0F979587950895D9D0E4
:1032100008F481E008950CD00FC107D140F0FED032
:1032200030F021F45F3F19F0F0C0511139C1F3C003
:1032300014D198F39923C9F35523B1F3951B550B7A
:10324000BB27AA2762177307840738F09F5F5F4F79
:10325000220F331F441FAA1FA9F333D00E2E3AF0BA
:10326000E0E830D091505040E695001CCAF729D0D4
:10327000FE2F27D0660F771F881FBB1F2617370723
:103280004807AB07B0E809F0BB0B802DBF01FF2753
:1032900093585F4F2AF09E3F510568F0B6C000C1B9
:1032A0005F3FECF3983EDCF3869577956795B7958D
:1032B000F7959F5FC9F7880F911D9695879597F9A8
:1032C0000895E1E0660F771F881FBB1F6217730721
:1032D0008407BA0720F0621B730B840BBA0BEE1F36
:1032E00088F7E095089504D06894B111D9C0089585
:1032F000BCD088F09F5790F0B92F9927B751A0F014
:10330000D1F0660F771F881F991F1AF0BA95C9F779
:1033100012C0B13081F0C3D0B1E00895C0C0672FB2
:10332000782F8827B85F39F0B93FCCF38695779529
:103330006795B395D9F73EF4909580957095619512
:103340007F4F8F4F9F4F0895E89409C097FB3EF43D
:1033500090958095709561957F4F8F4F9F4F9923E2
:10336000A9F0F92F96E9BB279395F6958795779560
:103370006795B795F111F8CFFAF4BB0F11F460FF20
:103380001BC06F5F7F4F8F4F9F4F16C0882311F078
:1033900096E911C0772321F09EE8872F762F05C08C
:1033A000662371F096E8862F70E060E02AF09A9527
:1033B000660F771F881FDAF7880F9695879597F91C
:1033C0000895990F0008550FAA0BE0E8FEEF1616B6
:1033D0001706E807F907C0F012161306E407F50709
:1033E00098F0621B730B840B950B39F40A2661F07D
:1033F000232B242B252B21F408950A2609F4A14020
:10340000A6958FEF811D811D089597F99F6780E82C
:1034100070E060E008959FEF80EC089500240A9426
:103420001616170618060906089500240A9412169F
:103430001306140605060895092E0394000C11F4D2
:10344000882352F0BB0F40F4BF2B11F460FF04C07F
:103450006F5F7F4F8F4F9F4F089557FD9058440FD8
:10346000551F59F05F3F71F04795880F97FB991FE3
:1034700061F09F3F79F087950895121613061406A0
:10348000551FF2CF4695F1DF08C01616170618062D
:10349000991FF1CF86957105610508940895E89408
:1034A000BB2766277727CB0197F908958ADF08F4B1
:1034B0008FEF08950BD0C0CFB1DF28F0B6DF18F042
:1034C000952309F0A2CFA7CF1124EACFC6DFA0F33E
:1034D000959FD1F3950F50E0551F629FF001729FA9
:1034E000BB27F00DB11D639FAA27F00DB11DAA1FC8
:1034F000649F6627B00DA11D661F829F2227B00D15
:10350000A11D621F739FB00DA11D621F839FA00D9F
:10351000611D221F749F3327A00D611D231F849FEF
:10352000600D211D822F762F6A2F11249F57504046
:103530008AF0E1F088234AF0EE0FFF1FBB1F661FE1
:10354000771F881F91505040A9F79E3F510570F09A
:103550005CCFA6CF5F3FECF3983EDCF38695779582
:103560006795B795F795E7959F5FC1F7FE2B880F95
:10357000911D9695879597F9089510E0C8E7D0E0DA
:1035800004C0FE010E949E182296CA37D107C9F7CF
:04359000F894FFCFDD
:10359400FF0203040506000102030700070E091CCD
:1035A4001B1215383F363124232A2D70777E796C0F
:1035B4006B6265484F464154535A5DE0E7EEE9FCBF
:1035C400FBF2F5D8DFD6D1C4C3CACD90979E998CAF
:1035D4008B8285A8AFA6A1B4B3BABDC7C0C9CEDBE0
:1035E400DCD5D2FFF8F1F6E3E4EDEAB7B0B9BEAB4F
:1035F400ACA5A28F88818693949D9A2720292E3B7F
:103604003C35321F18111603040D0A5750595E4BEE
:103614004C45426F68616673747D7A898E878095A4
:10362400929B9CB1B6BFB8ADAAA3A4F9FEF7F0E58E
:10363400E2EBECC1C6CFC8DDDAD3D4696E6760753E
:10364400727B7C51565F584D4A4344191E1710052E
:10365400020B0C21262F283D3A33344E4940475261
:10366400555C5B7671787F6A6D64633E39303722CE
:10367400252C2B0601080F1A1D1413AEA9A0A7B2FE
:10368400B5BCBB9691989F8A8D8483DED9D0D7C26E
:0C369400C5CCCBE6E1E8EFFAFDF4F30052
:00000001FF
