:100000000C943D000C9465000C9465000C94A301C5
:100010000C9465000C94FA010C9465000C94650036
:100020000C9465000C9465000C9465000C946700BA
:100030000C9401010C9465000C9465000C9465000F
:100040000C9421040C9465000C94F90E0C9465003A
:100050000C940C0F0C9465000C9465000C946500D6
:100060000C9465000C9465002C1037104910711029
:10007000CB10CB10EB101414181411241FBECFEFAB
:10008000D8E0DEBFCDBF12E0A0E0B1E0E8EDFCE2D9
:1000900002C005900D92AC30B107D9F715E0ACE085
:1000A000B2E001C01D92A734B107E1F710E0C8E744
:1000B000D0E004C02297FE010E944014C637D10749
:1000C000C9F70E94F3120C945F160C9400001F9263
:1000D0000F920FB60F9211242F933F938F939F93FC
:1000E0008091170490911804892B49F081E0809346
:1000F000350481E090E090938B0080938A0080919A
:1001000017049091180490930E0480930D0480912D
:100110000D0490910E042091190430911A04820F5D
:10012000931F08969093100480930F0480910F04FE
:100130009091100420911B0430911C04820F931F96
:100140000896909312048093110480911104909169
:10015000120420911D0430911E04820F931F0896F3
:1001600090931404809313048091130490911404C9
:1001700020911F0430912004820F931F08969093C2
:1001800016048093150480910C048F5F80930C04F7
:1001900080910C0290910D02029751F180910B0415
:1001A00091E0980F90930B04843010F182E090E07E
:1001B00090930D0280930C0210920A04109209048D
:1001C00088EB9BE0909318048093170428EE33E0AB
:1001D00030931A042093190490931C0480931B04F9
:1001E00090931E0480931D049093200480931F0419
:1001F0009F918F913F912F910F900FBE0F901F9065
:1002000018951F920F920FB60F9211242F933F93C0
:100210008F939F93EF93FF938091350418160CF002
:1002200087C0809135048630BCF0E09135042BB155
:10023000FF27E7FDF095EC5FFE4F81E090E0008046
:1002400002C0880F991F0A94E2F78095909530E0DC
:10025000822393238BB91AC0809135048230B4F085
:10026000E091350428B1FF27E7FDF095EC5FFE4FE4
:1002700081E090E0008002C0880F991F0A94E2F7A5
:100280008095909530E08223932388B9809135043E
:1002900086300CF043C0E0913504EE0FFF0BEB5EAF
:1002A000FB4F80819181892B99F1E0913504EE0F0C
:1002B000FF0BE55FFB4F8081918190938B008093D2
:1002C0008A0080913504E091350485308CF428B1A2
:1002D000FF27E7FDF095EB5FFE4F81E090E00080A7
:1002E00002C0880F991F0A94E2F7822B88B910C0C8
:1002F0002BB1FF27E7FDF095EB5FFE4F81E090E02B
:10030000008002C0880F991F0A94E2F7822B8BB9F4
:10031000809135048F5F809335040AC08091170463
:100320009091180490938B0080938A00109235046A
:10033000FF91EF919F918F913F912F910F900FBE61
:100340000F901F9018951F920F920FB60F921124C5
:100350002F933F934F935F936F937F938F939F93CD
:10036000AF93BF93EF93FF93189B09C086B590E0BE
:100370009093080480930704109206042AC066B57F
:1003800020910704309108048091060470E0621BFC
:10039000730B61507F4F90E001974FEF489F9001A2
:1003A000499F300D1124620F731F660F771F660F70
:1003B000771F80E090E00E94461520E030E04AE799
:1003C00054E40E94AD14AB01BC018EE092E00E94A7
:1003D000A00DFF91EF91BF91AF919F918F917F9170
:1003E0006F915F914F913F912F910F900FBE0F90A2
:1003F0001F9018951F920F920FB60F9211242F93F2
:100400003F934F935F936F937F938F939F93AF939C
:10041000BF93EF93FF9329B180910001282789B101
:100420008093000110920B0422FF5FC04A9B09C019
:100430008091840090918500909322048093210400
:1004400054C04A9952C08091840090918500409197
:10045000210450912204E0918400F0918500609184
:10046000210470912204E617F70770F4609184006C
:1004700070918500809188009091890040912104BD
:1004800050912204860F971F841B950BA0E0B0E0CB
:10049000AC01BD0141505109610971094339514114
:1004A0006105710510F540910C0250910D02452B2C
:1004B000E1F4409117045091180444355B4008F46E
:1004C0007CC14091170450911804493B5B4008F0EF
:1004D00074C1AC01BD0144555B40610971094536E9
:1004E00051056105710508F068C123FF53C04B9B9E
:1004F00009C080918400909185009093240480939A
:10050000230448C04B9946C0809184009091850097
:100510004091230450912404E0918400F0918500DF
:100520006091230470912404E617F70770F460913A
:10053000840070918500809188009091890040919D
:10054000230450912404860F971F841B950BA0E071
:10055000B0E0AC01BD014150510961097109433955
:10056000514161057105B0F440910C0250910D02AA
:10057000452B81F44091190450911A04840F951F62
:10058000A11DB11DB595A7959795879590931A04D0
:100590008093190424FF59C04C9B09C080918400AA
:1005A0009091850090932604809325044EC04C9929
:1005B0004CC0809184009091850040912504509119
:1005C0002604E0918400F0918500609125047091EB
:1005D0002604E617F70770F4609184007091850097
:1005E00080918800909189004091250450912604C3
:1005F000860F971F841B950BA0E0B0E0AC01BD01F6
:100600004150510961097109433951416105710531
:10061000E0F440911B0450911C044A355A4008F400
:10062000DDC040911B0450911C04413F5A4008F02A
:10063000D5C0AC01BD014A555A406109710947391D
:1006400051056105710508F0C9C025FF59C04D9BD2
:1006500009C0809184009091850090932804809334
:1006600027044EC04D994CC0809184009091850024
:100670004091270450912804E0918400F091850076
:100680006091270470912804E617F70770F46091D1
:10069000840070918500809188009091890040913C
:1006A000270450912804860F971F841B950BA0E008
:1006B000B0E0AC01BD0141505109610971094339F4
:1006C000514161057105E0F440911D0450911E04F3
:1006D00048365B4008F493C040911D0450911E04BD
:1006E0004D3C5B4008F08BC0AC01BD0148565B40FF
:1006F00061097109453651056105710508F07FC032
:1007000026FF8EC04E9B09C0809184009091850089
:1007100090932A048093290483C04E9981C08091CC
:100720008400909185002091290430912A046091E1
:100730008400709185004091290450912A04641727
:10074000750770F440918400509185008091880075
:10075000909189002091290430912A04840F951FDB
:10076000821B930BA0E0B0E0AC01BD0141505109E8
:1007700061097109433951416105710508F050C0A3
:1007800020910C0230910D02232B91F420911F0433
:1007900030912004AC01BD01420F531F611D711D3A
:1007A00075956795579547955093200440931F047E
:1007B00090930A048093090433C040911704509128
:1007C0001804840F951FA11DB11DB595A795979588
:1007D0008795909318048093170487CE40911B044B
:1007E00050911C04840F951FA11DB11DB595A795AF
:1007F0009795879590931C0480931B0426CF409176
:100800001D0450911E04840F951FA11DB11DB595A7
:10081000A7959795879590931E0480931D0470CF9C
:10082000FF91EF91BF91AF919F918F917F916F91C8
:100830005F914F913F912F910F900FBE0F901F909E
:1008400018951F920F920FB60F9211248F939F93BA
:10085000809106048F5F809306048091000490913C
:100860000104019690930104809300048091FE039B
:100870009091FF0301969093FF038093FE03809174
:10088000FC039091FD0301969093FD038093FC037C
:100890008091FA039091FB0301969093FB03809360
:1008A000FA039F918F910F900FBE0F901F90189594
:1008B000FC0140E050EC69E774EC468B578B608F8D
:1008C000718F428F538F648F758F468F578F60A3C0
:1008D00071A342A353A364A375A30895FC0140E050
:1008E00050EC69E774EC468B578B608F718F428FA9
:1008F000538F648F758F468F578F60A371A342A368
:1009000053A364A375A342A753A764A775A708952B
:10091000CF93DF93EC0126B58091FA039091FB030E
:100920003FEF389FB001399F700D1124620F711D88
:1009300061507F4F88819981681B790B80E090E03E
:100940000E9446152DEB37E346E856E30E94FC155E
:100950006A837B838C839D83DF91CF9108952F924F
:100960003F924F925F926F927F928F929F92AF923F
:10097000BF92CF92DF92EF92FF920F931F93CF938C
:10098000DF93CDB7DEB72A970FB6F894DEBF0FBE60
:10099000CDBF1C0149835A836B837C83890120E08E
:1009A00030EC49E754ECDC0156966D917D918D91C8
:1009B0009C9159970E94A914F801828C938CA48C65
:1009C000B58C811107C0D10156968D929D92AD9242
:1009D000BC92599720E030EC49E754ECF10162A554
:1009E00073A584A595A50E94A914811107C0D10102
:1009F0009A961D921D921D921C929D97F101C280A4
:100A0000D380E480F580A701960160E070E080E08B
:100A100090E40E94AD146D837E838F839887D1010B
:100A20001A966D937D938D939C931D9720E030E0F3
:100A3000A901C701B6010E94FC152B013C01F1017F
:100A400066877787808B918B0091190410911A0427
:100A5000A501940169817A818B819C810E94441453
:100A60006B017C01D10152966D937D938D939C9384
:100A7000559756962D913D914D915C915997C50191
:100A8000B4010E9444144B015C01F10166A377A3F9
:100A900080A791A7A7019601C301B2010E94FC158E
:100AA000D1019A962D913D914D915C919D970E9417
:100AB00045142B013C0120E030E040EA50E40E9464
:100AC000F81518162CF480E090E0A0EAB0E416C007
:100AD00020E030E040E050ECC301B2010E94A914D4
:100AE00087FD08C0D1019A964D925D926D927C92DD
:100AF0009D9709C080E090E0A0E0B0ECF10182A7F2
:100B000093A7A4A7B5A726E636E646E65FE3C701A6
:100B1000B6010E94FC152B013C01A50194016D81D9
:100B20007E818F8198850E94FC159B01AC01C301D9
:100B3000B2010E944414D1019A962D913D914D919C
:100B40005C919D970E9445144B015C012DEC3CEC9F
:100B50004CEC5DE30E94F81518167CF420E030E0C0
:100B600040E050E4C501B4010E94A91487FF05C00C
:100B700080E090E0A0E8BFE341C02DEC3CEC4CE409
:100B80005EEBC501B4010E94A91487FF12C020E0EA
:100B900030E040E85FEBC501B4010E94F81518167B
:100BA00044F4D10116961D921D921D921C92199724
:100BB0002AC020E030E040E450E4C501B4010E94C6
:100BC000F81518162CF480E090E0A0E4B0E416C00C
:100BD00020E030E040E85FEBC501B4010E94A914B9
:100BE00087FD08C0D10116968D929D92AD92BC9260
:100BF000199709C080E090E0A0E8BFEBF10186837F
:100C00009783A087B187B80180E090E00E944615E5
:100C1000D10116962D913D914D915C9119970E94AD
:100C200045140E941A154B015C018B012DEC3CEC24
:100C30004CEC5DEBC701B6010E94A91487FF07C009
:100C4000B4E78B16BBE09B0610F0015011092DECA8
:100C50003CEC4CEC5DE3C701B6010E94A91487FF90
:100C600010C02DEC3CEC4CEC5DEBC701B6010E94D2
:100C7000F815181634F40236EBE01E0708F446C0E7
:100C800004C0003AFAE01F0750F078010F3A8BE0F9
:100C9000180748F09EEAE92E9BE0F92E04C080EA8E
:100CA000E82E8AE0F82EB70180E090E00E94461519
:100CB000182F892F6A8779870E94E90E812F0E9459
:100CC000E90E7985872F0E94E90E6A85862F0E949A
:100CD000E90EF0921A04E09219042A960FB6F894DD
:100CE000DEBF0FBECDBFDF91CF911F910F91FF905F
:100CF000EF90DF90CF90BF90AF909F908F907F90BC
:100D00006F905F904F903F902F90089502E61BE008
:100D1000BCCF2F923F924F925F926F927F928F92B1
:100D20009F92AF92BF92CF92DF92EF92FF920F937A
:100D30001F93CF93DF9300D000D0CDB7DEB71C0157
:100D40004A015B01890120E030EC49E754ECFC01E9
:100D5000668D778D80A191A10E94A914F80142A00F
:100D600053A064A075A0811105C0F101468E578E75
:100D700060A271A2F10122813381448155816AE030
:100D800077ED83E29CE30E94AD146B017C01F101DD
:100D9000628773878487958700911B0410911C04D8
:100DA000A5019401C301B2010E9444144B015C01EE
:100DB000F101628B738B848B958B268D378D40A1CF
:100DC00051A1C301B2010E9444142B013C01F10165
:100DD00066A377A380A791A7B80180E090E00E9466
:100DE000461569837A838B839C8323E333E343E350
:100DF0005FE3C501B4010E94FC159B01AC01698150
:100E00007A818B819C810E9445144B015C01A30176
:100E10009201C701B6010E94FC159B01AC01C501FE
:100E2000B4010E9444140E941A15643CF9E07F0743
:100E300038F065352BE0720728F064E57BE002C0EE
:100E400064EC79E070931C0460931B040F900F9086
:100E50000F900F90DF91CF911F910F91FF90EF9026
:100E6000DF90CF90BF90AF909F908F907F906F90CA
:100E70005F904F903F902F9008952F923F924F9206
:100E80005F926F927F928F929F92AF92BF92CF921A
:100E9000DF92EF92FF920F931F93CF93DF9300D0D7
:100EA00000D0CDB7DEB71C014A015B01890120E00B
:100EB00030EC49E754ECFC01628D738D848D958D87
:100EC0000E94A914F801468C578C60A071A0811172
:100ED00005C0F101428E538E648E758EF101228120
:100EE0003381448155816AE077ED83E29CE30E947F
:100EF000AD146B017C01F10162877387848795874C
:100F000000911D0410911E04A5019401C301B201BA
:100F10000E9444144B015C01F101628B738B848B42
:100F2000958B228D338D448D558DC301B2010E9466
:100F300044142B013C01F10166A377A380A791A77C
:100F4000B80180E090E00E94461569837A838B8324
:100F50009C8323E333E343E35FE3C501B4010E94D1
:100F6000FC159B01AC0169817A818B819C810E9477
:100F700045144B015C01A3019201C701B6010E9417
:100F8000FC159B01AC01C501B4010E9444140E94F0
:100F90001A15623DFAE07F0738F063362CE07207DD
:100FA00028F062E67CE002C062ED7AE070931E04F5
:100FB00060931D040F900F900F900F90DF91CF91D1
:100FC0001F910F91FF90EF90DF90CF90BF90AF9067
:100FD0009F908F907F906F905F904F903F902F9059
:100FE00008952F923F924F925F926F927F928F92CD
:100FF0009F92AF92BF92CF92DF92EF92FF920F93A8
:101000001F93CF93DF9300D000D0CDB7DEB71C0184
:101010006A017B01890120E030EC49E754ECFC01D6
:1010200062A173A184A195A10E94A914F80146A010
:1010300057A060A471A4811105C0F10142A253A27E
:1010400064A275A2F101228133814481558160E05F
:1010500070E0CB010E94AD144B015C01F10162878D
:101060007387848795870091170410911804A7014E
:101070009601C301B2010E9444146B017C01F1018D
:10108000628B738B848B958B22A133A144A155A1D4
:10109000C301B2010E9444142B013C01F10166A37B
:1010A00077A380A791A72DEC3CEC4CE45DE3C7014E
:1010B000B6010E94FC1569837A838B839C83A3010C
:1010C0009201C501B4010E94FC159B01AC0169812C
:1010D0007A818B819C810E9444144B015C0120E049
:1010E00030E040E85FE30E94F81518162CF480E029
:1010F00090E0A0E8BFE314C020E030E040E85FEB00
:10110000C501B4010E94A91487FD06C0F1018682C1
:101110009782A086B18609C080E090E0A0E8BFEB8E
:10112000F10186839783A087B187B80180E090E0C2
:101130000E944615F10126813781408551850E9424
:1011400045140E941A158B0120E030E040E251E482
:10115000C701B6010E94F815181654F420E030E0DB
:1011600040E251ECC701B6010E94A91487FD05C0F9
:101170000435FBE01F0758F002C002E71BE0B8018E
:10118000093B8BE0180728F068EB7BE002C064E5C0
:101190007BE070931804609317040F900F900F90EA
:1011A0000F90DF91CF911F910F91FF90EF90DF9003
:1011B000CF90BF90AF909F908F907F906F905F90F7
:1011C0004F903F902F9008950895FC01DB015A96AF
:1011D0004D915D916D917C915D97468B578B608FA2
:1011E000718F92964D915D916D917C919597468FFF
:1011F000578F60A371A35E964D915D916D917C9127
:101200009197428F538F648F758F96964D915D9114
:101210006D917C91999742A353A364A375A386B55E
:1012200090E0918380831092FB031092FA0308955B
:101230001092B90080E28093B80084E08093BC00F3
:10124000089584EA8093BC0080E08F5F893229F0A2
:101250009091BC0097FFF9CF02C088EC08958832C6
:10126000E0F78091B900887F089584E98093BC00FD
:101270008091B900887F08958093BB0084E88093B3
:10128000BC008091BC0087FFFCCF8091B900887FB3
:10129000089584EC8093BC008091BC0087FFFCCF54
:1012A0008091BB00089584E88093BC008091BC00CD
:1012B00087FFFCCF8091BB000895CF93DF93EC01B3
:1012C000865B9F4F0E945804CE0188589F4F0E9412
:1012D0001B0FCE0188579F4F0E94B00D84E088837A
:1012E00019821B821A821D821C821F821E8219860D
:1012F000188681E090E09F878E87998B888B1B8A68
:101300001A8A1D8A1C8A9FAF8EAFFE01E05CFF4FD8
:1013100091838083FE01EE5BFF4F11821082FE01FC
:10132000EC5BFF4F1182108283E090E09B8F8A8FED
:1013300082E090E09D8F8C8F1F8E1E8E19A218A2C6
:101340009FA38EA319A618A61BA61AA61DA61CA6A7
:10135000FE01E757FF4F1082FE01E657FF4F108254
:10136000FE01E457FF4F1082FE01E357FF4F10824A
:10137000FE01E257FF4F1082FE01E955FF4F108238
:10138000118212821382FE01E555FF4F10821182F5
:1013900012821382FE01E155FF4F108211821282E8
:1013A0001382FE01E556FF4F1082118212821382D2
:1013B000FE01E156FF4F1082118212821382FE015C
:1013C000E157FF4F1082FE01E057FF4F1082FE01F0
:1013D000EF56FF4F11821082FE01ED55FF4F108234
:1013E000118212821382FE01ED56FF4F118210828C
:1013F000FE01EB56FF4F11821082FE01E956FF4FAE
:1014000011821082C756DF4F19821882DF91CF9167
:101410000895CF93DF93EC0188579F4F0E947D0E74
:10142000FE01EB52FE4F882319F081E0808301C05A
:101430001082CE01865B9F4F0E946E04FE01E25235
:10144000FE4F40E050EC69E774EC408351836283C7
:101450007383FE01EE51FE4F89E19CEF91838083FF
:10146000C851DE4F40E05CE36CE176EC4883598381
:101470006A837B83DF91CF9108954F925F926F9241
:101480007F928F929F92AF92BF92CF92DF92EF9214
:10149000FF920F931F93CF93DF93EC018C010757BB
:1014A0001F4FB80188589F4F0E940811FE01EB5250
:1014B000FE4F808181114EC0CE0188579F4F0E9400
:1014C000D70D6B017C014E0123EA820E911CF401C1
:1014D00040805180628073802DEC3CEC4CE850E4FD
:1014E000C301B2010E94F8151816A4F520E030ECF3
:1014F00049E754ECC701B6010E94A914882351F1B1
:101500005E01F6E2AF1AFEEFBF0A20E030E0A9016B
:10151000F50160817181828193810E94A9148111FA
:101520000BC0A3019201C701B6010E944414F5014A
:101530006083718382839383F501208131814281AD
:101540005381C701B6010E944414F4016083718382
:10155000828393835E01F2E2AF1AFEEFBF0A20E0BE
:1015600030EC49E754ECF50160817181828193810F
:101570000E94A914811115C0FE01E155FF4FC080E2
:10158000D180E280F38020E030E0A901C701B601FC
:101590000E94A914882329F0F501C082D182E28239
:1015A000F382C65BDF4FCE010E94880480911D0448
:1015B00090911E0488369B4040F080911D049091CC
:1015C0001E048D3C9B4008F441C080911B04909107
:1015D0001C048A359A4038F080911B0490911C04B9
:1015E000813F9A40D8F1F501C080D180E280F3803C
:1015F00020E030EC49E754ECC701B6010E94A91481
:101600008823A1F1809117049091180484359B40A0
:1016100068F18091170490911804893B9B4030F544
:101620009801B701A601CE01DF91CF911F910F91D3
:10163000FF90EF90DF90CF90BF90AF909F908F90F2
:101640007F906F905F904F900C94F107980140E06D
:1016500050E0BA01CE010E943D07B7CF980140E0AB
:1016600050E0BA01CE010E948906BDCFDF91CF9133
:101670001F910F91FF90EF90DF90CF90BF90AF90B0
:101680009F908F907F906F905F904F9008952F92D2
:101690003F924F925F926F927F928F929F92AF9202
:1016A000BF92CF92DF92EF92FF920F931F93CF934F
:1016B000DF9300D000D0CDB7DEB79C838B831C01B5
:1016C00089E8280E311CB1018B819C8188589F4F7D
:1016D0000E9408116B807C8092E2691A9EEF790A61
:1016E00020E030EC49E754ECF301608171818281A4
:1016F00093810E94A91481110DC0EB81FC81E155F9
:10170000FF4F80819181A281B381F3018083918316
:10171000A283B383EB81FC81EB52FE4F8081811168
:101720004FC08B819C8188579F4F0E94D70D6B01C2
:101730007C014B805C80F3EA4F0E511CF2018080EB
:101740009180A280B3802DEC3CEC4CE850E4C501C4
:10175000B4010E94F81518169CF520E030EC49E71A
:1017600054ECC701B6010E94A914882349F10B81EA
:101770001C8106521E4F20E030E0A901F801608173
:101780007181828193810E94A91481110BC0A501EE
:101790009401C701B6010E944414F801608371836B
:1017A00082839383F8012081318142815381C70173
:1017B000B6010E944414F201608371838283938393
:1017C0000B811C81065B1F4FC8010E948804EB81BE
:1017D000FC81D1808CE0D89EE00DF11D1124828126
:1017E000938181309105B9F074F4892B09F079C1A6
:1017F00084E59BE090931A0480931904D394EB81C1
:10180000FC81D1826EC18230910509F4A2C0039798
:1018100009F44FC066C191014DEC5CEC6CE47FE3D0
:10182000C8010E94AF04910140E050E0BA01C80134
:101830000E943D07910140E050E0BA01C8010E94BA
:101840008906F301C080D180E280F38020E030EC93
:1018500049E754ECC701B6010E94A914882331F06E
:101860009101B701A601C8010E94F107EB81FC813B
:10187000ED55FF4FC080D180E280F38023E333E356
:1018800043E35FE3C701B6010E94F81518160CF098
:1018900028C126E636E646E65FE3C701B6010E94A8
:1018A000A91487FF1EC1EB81FC8181818F5F818339
:1018B00018C1EB80FC80FEE1EF1AFEEFFF0AF70192
:1018C0008081918197FF04C086B590E091838083E9
:1018D00046B580910004909101042FEF289FB0013C
:1018E000299F700D11246F5F71098FEF90E0F70150
:1018F00020813181821B930B840F911D680F791F0A
:1019000080E090E00E9446152FE632E143E85BE379
:101910000E94FC15EB81FC81EC51FE4F60837183CA
:101920008283938320E030E040EA50E40E94F8157F
:1019300087FD09C089E19CEFF70191838083D394EF
:10194000EB81FC81D18291014DEC5CEC6CE47FE396
:10195000B7C08B819C8188519E4F9A83898320E0F8
:101960003CE34CE156ECFC01608171818281938102
:101970000E94A9142B813C812D553F4F81110BC032
:10198000F90180819181A281B381E981FA8180830B
:101990009183A283B383F901C080D180E280F38078
:1019A000E981FA8180809180A280B380A5019401B1
:1019B000C701B6010E9444142B013C012DEC3CEC04
:1019C0004CEC5DE30E94A91487FF73C02DEC3CEC46
:1019D0004CEC5DEBC301B2010E94F81518160CF037
:1019E00068C06B807C80FEE16F1AFEEF7F0AF30116
:1019F0008081918197FF04C086B590E091838083B8
:101A000066B540910004509101048FEF90E0F3011E
:101A100020813181821B930B860F911D6FEF649F94
:101A20009001659F300D1124820F931FBC0180E04F
:101A300090E00E9446152FE632E143E85BE30E9406
:101A4000FC15EB81FC81EC51FE4F60837183828336
:101A5000938320E030E040E050E40E94F81587FDD9
:101A600028C089E19CEFF301918380832DEC3CEC4D
:101A70004CEC5DE3C501B4010E94F81518167CF426
:101A80002AE939E949E95EE3C701B6010E94441435
:101A9000E981FA8160837183828393830AC080E045
:101AA0009CE3ACE1B6ECE981FA8180839183A28367
:101AB000B383E981FA81408151816281738191010F
:101AC000C8010E94AF04910140E050E0BA01C80192
:101AD0000E943D07910140E050E0BA01C8010E9418
:101AE0008906B101C8010E94E50880E00F900F90BF
:101AF0000F900F90DF91CF911F910F91FF90EF907A
:101B0000DF90CF90BF90AF909F908F907F906F901D
:101B10005F904F903F902F900895FC01EB56FF4F40
:101B2000208131812F30310548F0FC01E157FF4F12
:101B300081E09081973018F080E0089581E0089569
:101B40008D559F4FFC0140835183628373830895B9
:101B500086529E4FFC0140835183628373830895B4
:101B6000089560E070E0CB0108951F93CF93DF9359
:101B70001F92CDB7DEB769830E94210980EC0E94D5
:101B80003C096981862F0E943C090E9435090E9408
:101B9000210981EC0E943C090E945309182F0E94E0
:101BA0003509812F0F90DF91CF911F910895CF922A
:101BB000DF92EF92FF92CF937C01C5E660E0C70110
:101BC0000E94B50D82FD07C0C150C1F760E070EC06
:101BD00089E794EC34C00E94210980EC0E943C0902
:101BE00081E00E943C090E94210981EC0E943C098D
:101BF0000E944909C82ED12CE12CF12CFE2CED2C91
:101C0000DC2CCC240E944909C82AFE2CED2CDC2CAB
:101C1000CC240E945309C82A0E943509C701B60185
:101C200024E096958795779567952A95D1F70E9438
:101C3000461520E030E040E85DE30E94FC15CF91BE
:101C4000FF90EF90DF90CF9008951F93CF93DF9395
:101C5000EC0115E660E0CE010E94B50D82FD07C0E3
:101C60001150C1F760E070EC89E794EC28C00E9445
:101C7000210980EC0E943C0984E00E943C090E94FA
:101C8000210981EC0E943C090E944909682F70E0FB
:101C9000D62FCC270E945309C82B0E943509BE01BC
:101CA00044E0769567954A95E1F780E090E00E94E0
:101CB000461520E030E040E85DE30E94FC15DF912E
:101CC000CF911F910895CF93DF9300D0CDB7DEB7AA
:101CD0004A8369830E94210980EC0E943C09698142
:101CE000862F0E943C094A81842F0E943C090F9054
:101CF0000F90DF91CF910C943509CF93DF93EC01D6
:101D00000E9418090E942109883C19F10E94350996
:101D10006CE0CE010E94B50D843CE9F440E066E23F
:101D2000CE010E94630E48EB66E2CE010E94630E74
:101D300047E063E1CE010E94630E40E06DE2CE0118
:101D40000E94630E49EB66E2CE010E94630E80E0C2
:101D500003C081E001C082E0DF91CF910895CF936D
:101D6000DF93EC014BEB66E20E94630E49EB66E207
:101D7000CE01DF91CF910C94630ECF93C62F9C01BF
:101D800040E050E084E0220F331F441F551F8A9526
:101D9000D1F760E074E284EF90E00E941C142150BF
:101DA00031093093C5002093C4008091C2008E6039
:101DB0008093C2008091C10088618093C100CC23D0
:101DC00031F08091C100806C8093C1007894CF91F4
:101DD00008959091C00095FFFCCF8093C6001092AB
:101DE000370408958091C00087FFFCCF8091C60022
:101DF00008951F920F920FB60F9211248F93809126
:101E0000C6008093390481E0809338048F910F904D
:101E10000FBE0F901F9018951F920F920FB60F9242
:101E200011248F9381E0809337048F910F900FBE20
:101E30000F901F901895FC0110821182128213825C
:101E400014821582168217821086118612861386D6
:101E500014861586168617860895089580E090E00A
:101E60000895BF92CF92DF92EF92FF920F931F934C
:101E7000CF93DF938B01FB0180810E94E90EE80183
:101E8000C75FDE4F1882F801F1808F2D0E94E90EA6
:101E9000EF2DFF27E7FDF0958881E827E55FFE4FEE
:101EA00080818883F801F2808F2D0E94E90EEF2D4A
:101EB000FF27E7FDF0958881E827E55FFE4F8081E9
:101EC0008883F801F3808F2D0E94E90EEF2DFF2704
:101ED000E7FDF0958881E827E55FFE4F80818883E4
:101EE000F801F4808F2D0E94E90EEF2DFF27E7FD0A
:101EF000F0958881E827E55FFE4F80818883F801AF
:101F0000C480D580E680F780CD2CDE2CEF2CFF241A
:101F10008C2D0E94E90EEC2DFF27E7FDF0958881BE
:101F2000E827E55FFE4F80818883F801C480D58073
:101F3000E680F7806701EE24FF248C2D0E94E90ED5
:101F4000EC2DFF27E7FDF0958881E827E55FFE4F40
:101F500080818883F801C480D580E680F780CF2C0B
:101F6000DD24EE24FF248C2D0E94E90EEC2DFF27AA
:101F7000E7FDF0958881E827E55FFE4F8081888343
:101F8000F80182819381099760F48881DF91CF9174
:101F90001F910F91FF90EF90DF90CF90BF900C9426
:101FA000E90E6801FAE0CF0ED11C76012E2D2C1916
:101FB00030E0F8018281938108972817390728F7C4
:101FC000F701B1907F018B2D0E94E90EEB2DFF27C9
:101FD000E7FDF0958881E827E55FFE4F80818883E3
:101FE000E5CFCF93DF93CDB7DEB7CA50D1400FB660
:101FF000F894DEBF0FBECDBF2CE329834A8328E0CF
:1020000030E03C832B83FB014481558166817781DD
:102010004D835E836F837887BE016F5F7F4F0E9421
:10202000310FC65FDE4F0FB6F894DEBF0FBECDBFD7
:10203000DF91CF9108950F931F93CF93DF93EA0120
:1020400080913C0490E08730910508F0CBC08C5C17
:102050009F4FFC010C943E146C3309F0C3C081E027
:1020600080933C04688384EB80933B04BBC0A091C5
:102070003B04A627B0E0A55FBE4F8C9180933B0444
:10208000862F887F803241F582E080933C0469830B
:102090009FC0A0913B04A627B0E0A55FBE4F8C91E6
:1020A00080933B0480913A048F5F80933A04062F1B
:1020B00010E0823018F41B830A8394C0102F00278D
:1020C0008A819B81080F191F1B830A8308501109FD
:1020D0000F3F110521F018F010923C0483C083E0FB
:1020E00075C0A0913B04A627B0E0A55FBE4F8C91C0
:1020F00080933B0440913A044F5F40933A0442304E
:1021000091F060F4413009F06DC0062F10E020E03E
:1021100030E00C831D832E833F8364C0433061F025
:102120004430F1F05FC0062F10E020E030E0322FA5
:10213000212F102F002707C0062F10E020E030E0ED
:102140009801112700278C819D81AE81BF81800F6E
:10215000911FA21FB31F8C839D83AE83BF8342C098
:10216000062F10E020E030E0302F22271127002733
:102170008C819D81AE81BF81800F911FA21FB31FF3
:102180008C839D83AE83BF838A819B810897E9F00E
:1021900040933C041DC0A0913B04A627B0E0A55F7E
:1021A000BE4F8C9180933B0420913A042F5F209383
:1021B0003A0430E0DA01A20FB31F19966C938A81BA
:1021C0009B8108972817390768F086E080933C04C4
:1021D00010923A0407C0DA01A75FBE4F6C9387E004
:1021E00080933C0480913C04873011F080E00BC068
:1021F00010923C0490913B04DE01A75FBE4F8C918E
:102200009813F4CF8A81DF91CF911F910F91089598
:10221000EF92FF920F931F93CF93DF938C01EB010B
:10222000F4ECEF2EF9E0FF2E80E09091380491114C
:1022300004C08F5F853671F0F8CF843658F4609112
:102240003904109238044DE354E0C8010E941B1079
:10225000811109C0B1E0EB1AF108E114F10421F792
:1022600080E090E0B9C140914104509142046091F6
:10227000430470914404423C8BEF58078CEE68078E
:102280008CE6780709F424C108F04CC04230B9E26A
:102290005B07BEE76B07BFE27B0709F4B7C008F531
:1022A0004430FAE95F07F7ED6F07FEE07F0709F4B6
:1022B0000FC138F446315A4A67437B4009F408C1DC
:1022C0007FC14E3CB8E45B07B7E56B07BAE17B071B
:1022D00009F405C144375B4E6A477B4109F4F8C0F5
:1022E0006FC14E34F8EC5F07FCEB6F07F0E47F073B
:1022F00009F4F5C038F4463E554D6A4D734309F470
:102300009DC05EC1423EB5E55B07BCE96B07B6E622
:102310007B0709F44CC14A355B4B6743774609F4A8
:1023200075C04EC14A3BF4E85F07F5E26F07FEEB6C
:102330007F0709F43CC108F049C04E37A2E15A07B3
:10234000AAE66A07ABE97A0709F4C2C060F54A3029
:1023500051486D427C4809F033C180914904909105
:102360004A04A0914B04B0914C048EAB9FABA8AF34
:10237000B9AF80914D0490914E04A0914F04B0915B
:1023800050048AAF9BAFACAFBDAFEE9680915104C5
:1023900090915204A0915304B0915404888399837E
:1023A000AA83BB830DC14630FEE05F07FCE36F07E5
:1023B000FDEA7F0709F467C04A38574F674C784BEE
:1023C00009F0FEC0809161048883FAC04639A5E314
:1023D0005A07A8E06A07A2ED7A0709F4B7C038F4F3
:1023E00044355D426F4F754C09F472C0E9C0443604
:1023F000F9ED5F07F0EE6F07F7ED7F07F9F0463B69
:102400005342634A724E09F46AC0DAC0D8011F967B
:10241000EC911F97F0E0E35CFB4F8285823031F056
:10242000833041F08111CCC081E005C083E0F80128
:102430008087C6C0D80118968C93C2C08091590479
:1024400090915A04A0915B04B0915C048E8F9F8F91
:10245000A8A3B9A380915D0490915E04A0915F044C
:10246000B09160048AA39BA3ACA3BDA38091610437
:1024700090916204A0916304B09164048EA39FA321
:10248000A8A7B9A79DC08091490490914A04A09142
:102490004B04B0914C048AA79BA7ACA7BDA7809121
:1024A0004D0490914E04A0914F04B09150048EA71A
:1024B0009FA7A8ABB9AB8091510490915204A09111
:1024C0005304B09154048AAB9BABACABBDAB78C0AA
:1024D000809147048C83809148048D8371C08091E2
:1024E000490490914A04A0914B04B0914C048A8B0A
:1024F0009B8BAC8BBD8B80914D0490914E04A09131
:102500004F04B09150048E8B9F8BA88FB98F809110
:102510006C048E8380916B048F8360915904709159
:102520005A0480915B0490915C040E941515798790
:10253000688760915D0470915E0480915F04909162
:1025400060040E941A157B876A873AC020E030E059
:102550004AE754E46091490470914A0480914B0425
:1025600090914C040E94FC150E9415157D876C8784
:1025700020E030E048EC52E460914D0470914E044C
:1025800080914F04909150040E94FC150E941515F3
:102590007F876E8760915D0470915E0480915F0417
:1025A000909160040E941515798B688B09C0809109
:1025B000AA0488838091AB0489838091AC048A83C8
:1025C00080913E04823231F443E26DE374E0C8014D
:1025D0000E94F10F81E090E0DF91CF911F910F9168
:1025E000FF90EF900895A1E0B1E0E6E0F1E040E077
:1025F00081E090E05AB1ED019C010C9002C0220FE5
:10260000331F0A94E2F7209525232AB9443059F064
:1026100057B19C01008002C0220F331F0A94E2F7D9
:10262000522B57B90AC05AB19C01008002C0220F38
:10263000331F0A94E2F7522B5AB95BB111969C01F1
:10264000088002C0220F331F0A94E2F7522B5BB9B5
:102650004F5F3196453071F6259A809181008A60EE
:102660008093810084E499E99093890080938800A5
:10267000C0EDD7E0D0938B00C0938A0080916F00AB
:10268000866080936F0085B5836085BD80916E0004
:10269000816080936E0080916B00816080936B00FD
:1026A00080916D008C6780936D00809168008560DB
:1026B0008093680061E080E096E90E94BD0E8FEF94
:1026C0008093350486E89BE0909318048093170468
:1026D000D0931A04C09319048CE89AE090931C04D8
:1026E00080931B0488EB9BE090931E0480931D0451
:1026F0009093200480931F0480E090E020E030E07D
:10270000AC01440F551FFA01E95EFB4F60817181F6
:10271000260F371FFA01E35FFB4F318320830196B9
:102720008530910569F78EE092E00E94090A78945D
:10273000C8EBDBE088EEE82E83E0F82E01E010E045
:1027400092E0C92ED12C80910C0290910D02813023
:102750009105D1F08230910569F1892B09F05FC0B4
:102760008091090490910A04853E9C4020F01093CA
:102770000D0200930C0280910C04882321F38EE05B
:1027800092E00E943D0A13C08091090490910A04CE
:10279000843C994020F410920D0210920C0280911A
:1027A0000C04882381F28EE092E00E94470B109285
:1027B0000C04C9CFD0931804C0931704F0921A04E4
:1027C000E0921904D0931C04C0931B04D0931E0400
:1027D000C0931D04D0932004C0931F04809109046A
:1027E00090910A04853E9C4028F010930D020093BE
:1027F0000C02A9CF8091090490910A04843C99406D
:1028000008F0A1CF8091090490910A04893E934079
:1028100008F499CF10920D0210920C0294CFD0922E
:102820000D02C0920C028FCF8EE092E00C945D09F5
:1028300086E892E00C942D0FA1E21A2EAA1BBB1B76
:10284000FD010DC0AA1FBB1FEE1FFF1FA217B3077C
:10285000E407F50720F0A21BB30BE40BF50B661F92
:10286000771F881F991F1A9469F760957095809556
:1028700090959B01AC01BD01CF010895EE0FFF1FA4
:102880000590F491E02D09945058BB27AA270ED04B
:1028900075C166D130F06BD120F031F49F3F11F457
:1028A0001EF45BC10EF4E095E7FB51C1E92F77D12F
:1028B00080F3BA17620773078407950718F071F45D
:1028C0009EF58FC10EF4E0950B2EBA2FA02D0B01B3
:1028D000B90190010C01CA01A0011124FF27591B65
:1028E00099F0593F50F4503E68F11A16F040A22F6B
:1028F000232F342F4427585FF3CF469537952795DC
:10290000A795F0405395C9F77EF41F16BA0B620BDA
:10291000730B840BBAF09150A1F0FF0FBB1F661F21
:10292000771F881FC2F70EC0BA0F621F731F841F64
:1029300048F4879577956795B795F7959E3F08F08A
:10294000B3CF9395880F08F09927EE0F9795879549
:102950000895D9D008F481E008950CD00FC107D1B3
:1029600040F0FED030F021F45F3F19F0F0C051117B
:1029700039C1F3C014D198F39923C9F35523B1F3A6
:10298000951B550BBB27AA2762177307840738F0DE
:102990009F5F5F4F220F331F441FAA1FA9F333D03D
:1029A0000E2E3AF0E0E830D091505040E695001CF1
:1029B000CAF729D0FE2F27D0660F771F881FBB1FAD
:1029C000261737074807AB07B0E809F0BB0B802D87
:1029D000BF01FF2793585F4F2AF09E3F510568F0D3
:1029E000B6C000C15F3FECF3983EDCF38695779567
:1029F0006795B795F7959F5FC9F7880F911D9695D5
:102A0000879597F90895E1E0660F771F881FBB1F30
:102A1000621773078407BA0720F0621B730B840BDD
:102A2000BA0BEE1F88F7E095089504D06894B111B1
:102A3000D9C00895BCD088F09F5790F0B92F99273E
:102A4000B751A0F0D1F0660F771F881F991F1AF0B9
:102A5000BA95C9F712C0B13081F0C3D0B1E0089582
:102A6000C0C0672F782F8827B85F39F0B93FCCF303
:102A7000869577956795B395D9F73EF490958095AF
:102A8000709561957F4F8F4F9F4F0895E89409C0CF
:102A900097FB3EF490958095709561957F4F8F4F91
:102AA0009F4F9923A9F0F92F96E9BB279395F695A7
:102AB000879577956795B795F111F8CFFAF4BB0F25
:102AC00011F460FF1BC06F5F7F4F8F4F9F4F16C089
:102AD000882311F096E911C0772321F09EE8872F13
:102AE000762F05C0662371F096E8862F70E060E0CF
:102AF0002AF09A95660F771F881FDAF7880F969548
:102B0000879597F90895990F0008550FAA0BE0E8EB
:102B1000FEEF16161706E807F907C0F0121613069F
:102B2000E407F50798F0621B730B840B950B39F4DF
:102B30000A2661F0232B242B252B21F408950A2645
:102B400009F4A140A6958FEF811D811D089597F985
:102B50009F6780E870E060E008959FEF80EC089543
:102B600000240A941616170618060906089500246C
:102B70000A9412161306140605060895092E0394E6
:102B8000000C11F4882352F0BB0F40F4BF2B11F45A
:102B900060FF04C06F5F7F4F8F4F9F4F089557FDB9
:102BA0009058440F551F59F05F3F71F04795880FBB
:102BB00097FB991F61F09F3F79F087950895121652
:102BC00013061406551FF2CF4695F1DF08C01616FE
:102BD00017061806991FF1CF8695710561050894AF
:102BE0000895E894BB2766277727CB0197F90895C6
:102BF0008ADF08F48FEF08950BD0C0CFB1DF28F043
:102C0000B6DF18F0952309F0A2CFA7CF1124EACFA1
:102C1000C6DFA0F3959FD1F3950F50E0551F629F3B
:102C2000F001729FBB27F00DB11D639FAA27F00D25
:102C3000B11DAA1F649F6627B00DA11D661F829F4C
:102C40002227B00DA11D621F739FB00DA11D621F31
:102C5000839FA00D611D221F749F3327A00D611D4E
:102C6000231F849F600D211D822F762F6A2F112430
:102C70009F5750408AF0E1F088234AF0EE0FFF1F83
:102C8000BB1F661F771F881F91505040A9F79E3FBA
:102C9000510570F05CCFA6CF5F3FECF3983EDCF3BC
:102CA000869577956795B795F795E7959F5FC1F7F7
:102CB000FE2B880F911D9695879597F9089510E042
:102CC000C8E7D0E004C0FE010E9440142296CA3733
:082CD000D107C9F7F894FFCF0A
:102CD800FF0203040506000102030700070E091C92
:102CE8001B1215383F363124232A2D70777E796CD4
:102CF8006B6265484F464154535A5DE0E7EEE9FC84
:102D0800FBF2F5D8DFD6D1C4C3CACD90979E998C73
:102D18008B8285A8AFA6A1B4B3BABDC7C0C9CEDBA4
:102D2800DCD5D2FFF8F1F6E3E4EDEAB7B0B9BEAB13
:102D3800ACA5A28F88818693949D9A2720292E3B43
:102D48003C35321F18111603040D0A5750595E4BB3
:102D58004C45426F68616673747D7A898E87809569
:102D6800929B9CB1B6BFB8ADAAA3A4F9FEF7F0E553
:102D7800E2EBECC1C6CFC8DDDAD3D4696E67607503
:102D8800727B7C51565F584D4A4344191E171005F3
:102D9800020B0C21262F283D3A33344E4940475226
:102DA800555C5B7671787F6A6D64633E3930372293
:102DB800252C2B0601080F1A1D1413AEA9A0A7B2C3
:102DC800B5BCBB9691989F8A8D8483DED9D0D7C233
:0C2DD800C5CCCBE6E1E8EFFAFDF4F30017
:00000001FF
