:100000000C943D000C9465000C9465000C94A301C5
:100010000C9465000C94FA010C9465000C94650036
:100020000C9465000C9465000C9465000C946700BA
:100030000C9401010C9465000C9465000C9465000F
:100040000C942D040C9465000C94AB0A0C94650080
:100050000C94BE0A0C9465000C9465000C94650029
:100060000C9465000C946500DE0BE90BFB0B230C74
:100070007D0C7D0C9D0CC20FC60F11241FBECFEF4F
:10008000D8E0DEBFCDBF12E0A0E0B1E0E4E3F4E2EF
:1000900002C005900D92AC30B107D9F715E0ACE085
:1000A000B2E001C01D92A331B107E1F710E0C8E74B
:1000B000D0E004C02297FE010E94EE0FC637D107A0
:1000C000C9F70E94A50E0C940D120C9400001F920B
:1000D0000F920FB60F9211242F933F938F939F93FC
:1000E0008091E3039091E403892B49F081E08093B0
:1000F000010481E090E090938B0080938A008091CE
:10010000E3039091E4039093DA038093D903809101
:10011000D9039091DA032091E5033091E603820F31
:10012000931F08969093DC038093DB038091DB039D
:100130009091DC032091E7033091E803820F931F35
:1001400008969093DE038093DD038091DD03909108
:10015000DE032091E9033091EA03820F931F089692
:100160009093E0038093DF038091DF039091E0039D
:100170002091EB033091EC03820F931F089690932C
:10018000E2038093E1038091D8038F5F8093D803CB
:1001900080910C0290910D02029751F18091D7034A
:1001A00091E0980F9093D703843010F182E090E0B3
:1001B00090930D0280930C021092D6031092D503F7
:1001C00088EB9BE09093E4038093E30328EE33E015
:1001D0003093E6032093E5039093E8038093E703CD
:1001E0009093EA038093E9039093EC038093EB03ED
:1001F0009F918F913F912F910F900FBE0F901F9065
:1002000018951F920F920FB60F9211242F933F93C0
:100210008F939F93EF93FF938091010418160CF036
:1002200087C0809101048630BCF0E09101042BB1BD
:10023000FF27E7FDF095EC5FFE4F81E090E0008046
:1002400002C0880F991F0A94E2F78095909530E0DC
:10025000822393238BB91AC0809101048230B4F0B9
:10026000E091010428B1FF27E7FDF095EC5FFE4F18
:1002700081E090E0008002C0880F991F0A94E2F7A5
:100280008095909530E08223932388B98091010472
:1002900086300CF043C0E0910104EE0FFF0BEF51EC
:1002A000FC4F80819181892B99F1E0910104EE0F3F
:1002B000FF0BE952FC4F8081918190938B008093DA
:1002C0008A0080910104E091010485308CF428B10A
:1002D000FF27E7FDF095EB5FFE4F81E090E00080A7
:1002E00002C0880F991F0A94E2F7822B88B910C0C8
:1002F0002BB1FF27E7FDF095EB5FFE4F81E090E02B
:10030000008002C0880F991F0A94E2F7822B8BB9F4
:10031000809101048F5F809301040AC08091E30300
:100320009091E40390938B0080938A0010920104D3
:10033000FF91EF919F918F913F912F910F900FBE61
:100340000F901F9018951F920F920FB60F921124C5
:100350002F933F934F935F936F937F938F939F93CD
:10036000AF93BF93EF93FF93189B09C086B590E0BE
:100370009093D4038093D3031092D2032AC066B51E
:100380002091D3033091D4038091D20370E0621B9B
:10039000730B61507F4F90E001974FEF489F9001A2
:1003A000499F300D1124620F731F660F771F660F70
:1003B000771F80E090E00E94F41020E030E04AE7F0
:1003C00054E40E945B10AB01BC018EE092E00E94FD
:1003D0005209FF91EF91BF91AF919F918F917F91C2
:1003E0006F915F914F913F912F910F900FBE0F90A2
:1003F0001F9018951F920F920FB60F9211242F93F2
:100400003F934F935F936F937F938F939F93AF939C
:10041000BF93EF93FF9329B180910001282789B101
:10042000809300011092D70322FF5FC04A9B09C04E
:1004300080918400909185009093EE038093ED036A
:1004400054C04A9952C08091840090918500409197
:10045000ED035091EE03E0918400F09185006091EE
:10046000ED037091EE03E617F70770F460918400D6
:100470007091850080918800909189004091ED03F2
:100480005091EE03860F971F841B950BA0E0B0E000
:10049000AC01BD0141505109610971094339514114
:1004A0006105710510F540910C0250910D02452B2C
:1004B000E1F44091E3035091E40344355B4008F4D8
:1004C00088C14091E3035091E403493B5B4008F04D
:1004D00080C1AC01BD0144555B40610971094536DD
:1004E00051056105710508F074C123FF53C04B9B92
:1004F00009C080918400909185009093F0038093CF
:10050000EF0348C04B9946C08091840090918500CC
:100510004091EF035091F003E0918400F091850049
:100520006091EF037091F003E617F70770F46091A4
:10053000840070918500809188009091890040919D
:10054000EF035091F003860F971F841B950BA0E0DB
:10055000B0E0AC01BD014150510961097109433955
:10056000514161057105B0F440910C0250910D02AA
:10057000452B81F44091E5035091E603840F951FCC
:10058000A11DB11DB595A795979587959093E60305
:100590008093E50324FF5FC04C9B09C080918400D9
:1005A000909185009093F2038093F10354C04C998D
:1005B00052C080918400909185004091F103509148
:1005C000F203E0918400F09185006091F103709155
:1005D000F203E617F70770F46091840070918500CC
:1005E00080918800909189004091F1035091F2032D
:1005F000860F971F841B950BA0E0B0E0AC01BD01F6
:100600004150510961097109433951416105710531
:1006100010F540910C0250910D02452BE1F44091F0
:10062000E7035091E8034A355A4008F4E3C040918B
:10063000E7035091E8034F3B5A4008F0DBC0AC01A0
:10064000BD014A555A406109710945365105610598
:10065000710508F0CFC025FF5FC04D9B09C0809198
:100660008400909185009093F4038093F30354C029
:100670004D9952C080918400909185004091F30380
:100680005091F403E0918400F09185006091F303B0
:100690007091F403E617F70770F46091840070918D
:1006A000850080918800909189004091F3035091DA
:1006B000F403860F971F841B950BA0E0B0E0AC01FC
:1006C000BD01415051096109710943395141610529
:1006D000710510F540910C0250910D02452BE1F48B
:1006E0004091E9035091EA0348365B4008F493C017
:1006F0004091E9035091EA034D3C5B4008F08BC008
:10070000AC01BD0148565B40610971094536510590
:100710006105710508F07FC026FF8EC04E9B09C0A1
:1007200080918400909185009093F6038093F50367
:1007300083C04E9981C08091840090918500209162
:10074000F5033091F603609184007091850040912B
:10075000F5035091F6036417750770F44091840017
:100760005091850080918800909189002091F50337
:100770003091F603840F951F821B930BA0E0B0E02D
:10078000AC01BD0141505109610971094339514121
:100790006105710508F050C020910C0230910D02E6
:1007A000232B91F42091EB033091EC03AC01BD01BC
:1007B000420F531F611D711D75956795579547959C
:1007C0005093EC034093EB039093D6038093D503AF
:1007D00033C04091E3035091E403840F951FA11DA2
:1007E000B11DB595A795979587959093E403809350
:1007F000E3037BCE4091E7035091E803840F951FFC
:10080000A11DB11DB595A795979587959093E80380
:100810008093E70320CF4091E9035091EA03840FCE
:10082000951FA11DB11DB595A79597958795909397
:10083000EA038093E90370CFFF91EF91BF91AF91ED
:100840009F918F917F916F915F914F913F912F91E8
:100850000F900FBE0F901F9018951F920F920FB61A
:100860000F9211248F939F938091D2038F5F809377
:10087000D2038091CC039091CD0301969093CD0348
:100880008093CC039F918F910F900FBE0F901F907C
:10089000189508950895CF92DF92EF92FF92CF932B
:1008A000DF93CB01BA01C091E503D091E603F901D2
:1008B000228D338D448D558D0E94F20F20E030E063
:1008C00040E250E40E94AA116B017C0120E030E07C
:1008D000A9010E94A611181654F420E030E040E06F
:1008E00050E4C701B6010E94571087FD2EC020E0DA
:1008F00030E0A901C701B6010E94571087FF0AC066
:1009000020E030E040E85FEBC701B6010E94A6118D
:1009100018160CF120E030E040EA50E4C701B601BF
:100920000E94A6111816F4F020E030E040EA50ECE6
:10093000C701B6010E94571087FF1AC0C12CD12CE5
:1009400080EAE82E80ECF82E13C0C12CD12CE12CCB
:1009500030E4F32E0DC0C12CD12C20E8E22E2FEB79
:10096000F22E06C0C12CD12C90EAE92E90E4F92E8B
:10097000BE0180E090E00E94F410A70196010E9461
:10098000F30F0E94C8106832FAE07F0738F06B3E20
:100990002BE0720728F06AEE7BE002C068E27AE0A2
:1009A0007093E6036093E503DF91CF91FF90EF90A2
:1009B000DF90CF9008958F929F92AF92BF92CF9287
:1009C000DF92EF92FF92CF93DF934A015B01E9013F
:1009D0006091E7037091E80380E090E00E94F410DA
:1009E0006B017C01A50194016AA17BA18CA19DA151
:1009F0000E94F20F9B01AC01C701B6010E94F30FE8
:100A00000E94C810643C29E0720738F065358BE01D
:100A1000780728F064E57BE002C064EC79E070932D
:100A2000E8036093E703DF91CF91FF90EF90DF90B1
:100A3000CF90BF90AF909F908F9008958F929F928C
:100A4000AF92BF92CF92DF92EF92FF92CF93DF935C
:100A50004A015B01E9016091E9037091EA0380E0DA
:100A600090E00E94F4106B017C01A50194016E8D51
:100A70007F8D88A199A10E94F20F9B01AC01C70153
:100A8000B6010E94F30F0E94C810623D2AE072076F
:100A900038F063368CE0780728F062E67CE002C02C
:100AA00062ED7AE07093EA036093E903DF91CF91FE
:100AB000FF90EF90DF90CF90BF90AF909F908F907E
:100AC00008958F929F92AF92BF92CF92DF92EF9252
:100AD000FF92CF93DF934A015B01E9016091E30349
:100AE0007091E40380E090E00E94F4106B017C01BF
:100AF000A50194016EA17FA188A599A50E94F20F7E
:100B00002DEC3CEC4CE45DE30E94AA119B01AC018E
:100B1000C701B6010E94F30F0E94C810603F2AE08F
:100B2000720738F06D318CE0780728F06CE17CE0DA
:100B300002C060EF7AE07093E4036093E303DF9117
:100B4000CF91FF90EF90DF90CF90BF90AF909F90AC
:100B50008F90089508951092B90080E28093B800B4
:100B600084E08093BC00089584EA8093BC0080E018
:100B70008F5F893229F09091BC0097FFF9CF02C0B6
:100B800088EC08958832E0F78091B900887F089555
:100B900084E98093BC008091B900887F0895809398
:100BA000BB0084E88093BC008091BC0087FFFCCF31
:100BB0008091B900887F089584EC8093BC00809177
:100BC000BC0087FFFCCF8091BB00089584E8809330
:100BD000BC008091BC0087FFFCCF8091BB000895D2
:100BE000CF93DF93EC01865B9F4F0E944904CE01B7
:100BF000825B9F4F0E94CD0ACE01825A9F4F0E9476
:100C0000620984E0888319821B821A821D821C82F9
:100C10001F821E821986188681E090E09F878E874A
:100C2000998B888B1B8A1A8A1D8A1C8A9FAF8EAF6C
:100C3000FE01E05CFF4F91838083FE01EE5BFF4F7E
:100C400011821082FE01EC5BFF4F1182108283E063
:100C500090E09B8F8A8F82E090E09D8F8C8F1F8E1B
:100C60001E8E19A218A29FA38EA319A618A61BA6B2
:100C70001AA61DA61CA6FE01E15AFF4F1082FE0116
:100C8000E05AFF4F1082FE01EE59FF4F1082FE0125
:100C9000ED59FF4F1082FE01EC59FF4F1082FE010B
:100CA000E358FF4F1082118212821382FE01EF5728
:100CB000FF4F1082118212821382FE01EB57FF4F09
:100CC0001082118212821382FE01EF58FF4F1082B0
:100CD000118212821382FE01EB58FF4F10821182A3
:100CE00012821382FE01EB59FF4F1082FE01EA5976
:100CF000FF4F1082FE01E959FF4F11821082FE0161
:100D0000E758FF4F1082118212821382FE01E759C9
:100D1000FF4F11821082FE01E559FF4F11821082B0
:100D2000FE01E359FF4F11821082FE01E159FF4F8E
:100D300011821082FE01EC54FE4F40E050EC69E756
:100D400074EC4083518362837383C854DE4F89E11E
:100D50009CEF99838883DF91CF910895CF93DF93A0
:100D6000EC01825A9F4F0E942F0AC555DE4F8823FF
:100D700019F081E0888301C01882DF91CF91089536
:100D80004F925F926F927F928F929F92AF92BF929B
:100D9000CF92DF92EF92FF920F931F93CF93DF9347
:100DA000EC018C01015A1F4FB801825B9F4F0E94DA
:100DB000BA0CFE01E555FE4F808181114EC0CE0177
:100DC000825A9F4F0E9489096B017C014E0129E7DD
:100DD000820E911CF40140805180628073802DEC62
:100DE0003CEC4CE850E4C301B2010E94A611181675
:100DF000A4F520E030EC49E754ECC701B6010E94AD
:100E00005710882351F15E01F0E5AF1AFEEFBF0ADB
:100E100020E030E0A901F501608171818281938138
:100E20000E94571081110BC0A3019201C701B601A6
:100E30000E94F20FF5016083718382839383F50131
:100E40002081318142815381C701B6010E94F20F96
:100E5000F40160837183828393835E01FCE4AF1AA3
:100E6000FEEFBF0A20E030EC49E754ECF501608169
:100E70007181828193810E945710811115C0FE01FA
:100E8000EB57FF4FC080D180E280F38020E030E05C
:100E9000A901C701B6010E945710882329F0F50166
:100EA000C082D182E282F382E090E503F090E60313
:100EB00080E00E949B0A80E00E949B0AA701852F88
:100EC0000E949B0A8E2D0E949B0A8091E9039091BB
:100ED000EA0388369B4040F08091E9039091EA0351
:100EE0008D3C9B4008F444C08091E7039091E80357
:100EF0008A359A4040F08091E7039091E8038F3B58
:100F00009A4008F43FC0F501C080D180E280F380B0
:100F100020E030EC49E754ECC701B6010E945710BD
:100F20008823D1F18091E3039091E40384359B40C1
:100F300098F18091E3039091E403893B9B4060F535
:100F40009801B701A601CE01865B9F4FDF91CF913B
:100F50001F910F91FF90EF90DF90CF90BF90AF90D7
:100F60009F908F907F906F905F904F900C94610551
:100F7000980140E050E0BA01CE01865B9F4F0E948D
:100F80001E05B2CF980140E050E0BA01CE01865B69
:100F90009F4F0E94DB04B7CFDF91CF911F910F913C
:100FA000FF90EF90DF90CF90BF90AF909F908F9089
:100FB0007F906F905F904F9008952F923F924F9245
:100FC0005F926F927F928F929F92AF92BF92CF92D9
:100FD000DF92EF92FF920F931F93CF93DF93EC0179
:100FE0008C01015A1F4FB801825B9F4F0E94BA0CBF
:100FF0005E018CE4A81A8EEFB80A20E030EC49E7D5
:1010000054ECF50160817181828193810E945710B7
:1010100081110CC0FE01EB57FF4F80819181A281AD
:10102000B381F50180839183A283B383FE01E555EB
:10103000FE4F808181114EC0CE01825A9F4F0E9487
:1010400089096B017C011E01F9E72F0E311CF101AA
:1010500040805180628073802DEC3CEC4CE850E481
:10106000C301B2010E94A6111816A4F520E030ECCD
:1010700049E754ECC701B6010E945710882351F18B
:101080004E01F0E58F1AFEEF9F0A20E030E0A90143
:10109000F40160817181828193810E9457108111D6
:1010A0000BC0A3019201C701B6010E94F20FF40127
:1010B0006083718382839383F40120813181428133
:1010C0005381C701B6010E94F20FF1016083718361
:1010D00082839383D980FE018CE0D89EE00DF11DC0
:1010E0001124828193818130910541F183309105F2
:1010F00009F453C0892B09F0AEC088EB9BE09093B4
:10110000E6038093E503F501C080D180E280F3809F
:1011100020E030EC49E754ECC701B6010E945710BB
:10112000882341F09801B701A601CE01865B9F4F4D
:101130000E94610589818F5F89838DC0C65BDF4F07
:10114000980140E050E060E07FE3CE010E944B0454
:10115000980140E050E0BA01CE010E941E059801BE
:1011600040E050E0BA01CE010E94DB04F501C080EE
:10117000D180E280F38020E030EC49E754ECC701F5
:10118000B6010E945710882309F465C09801B70181
:10119000A601CE010E9461055EC07E01F8E4EF1A4F
:1011A000FEEFFF0AF7018081918197FF04C086B5A9
:1011B00090E09183808346B58091CC039091CD03DC
:1011C0002FEF289FB001299F700D11246F5F7109C7
:1011D0008FEF90E0F70120813181821B930B840F08
:1011E000911D680F791F80E090E00E94F4102FE6B7
:1011F00032E143E85BE30E94AA11FE01E654FE4F90
:10120000608371838283938320E030E040EA50E47E
:101210000E94A61187FD07C089E19CEFF701918329
:101220008083D394D982C65BDF4F980140E050E0C1
:1012300060E07FE3CE010E944B04980140E050E063
:10124000BA01CE010E941E05980140E050E0BA01AB
:10125000CE010E94DB0480E0DF91CF911F910F91BE
:10126000FF90EF90DF90CF90BF90AF909F908F90C6
:101270007F906F905F904F903F902F900895FC016A
:10128000E559FF4F208131812F30310548F0FC01B5
:10129000EB59FF4F81E09081973018F080E008957E
:1012A00081E0089587589F4FFC01408351836283FA
:1012B0007383089580559E4FFC0140835183628360
:1012C00073830895089560E070E0CB0108951F9343
:1012D000CF93DF931F92CDB7DEB769830E94B40529
:1012E00080EC0E94CF056981862F0E94CF050E9465
:1012F000C8050E94B40581EC0E94CF050E94E60556
:10130000182F0E94C805812F0F90DF91CF911F9158
:101310000895CF92DF92EF92FF92CF937C01C5E6C2
:1013200060E0C7010E94670982FD07C0C150C1F794
:1013300060E070EC89E794EC34C00E94B40580EC66
:101340000E94CF0581E00E94CF050E94B40581EC88
:101350000E94CF050E94DC05C82ED12CE12CF12C77
:10136000FE2CED2CDC2CCC240E94DC05C82AFE2CA3
:10137000ED2CDC2CCC240E94E605C82A0E94C8056E
:10138000C701B60124E096958795779567952A95CC
:10139000D1F70E94F41020E030E040E85DE30E94C5
:1013A000AA11CF91FF90EF90DF90CF9008951F93F7
:1013B000CF93DF93EC0115E660E0CE010E94670950
:1013C00082FD07C01150C1F760E070EC89E794EC32
:1013D00028C00E94B40580EC0E94CF0584E00E94E2
:1013E000CF050E94B40581EC0E94CF050E94DC0568
:1013F000682F70E0D62FCC270E94E605C82B0E94EC
:10140000C805BE0144E0769567954A95E1F780E00E
:1014100090E00E94F41020E030E040E85DE30E949C
:10142000AA11DF91CF911F910895CF93DF9300D040
:10143000CDB7DEB74A8369830E94B40580EC0E9471
:10144000CF056981862F0E94CF054A81842F0E9493
:10145000CF050F900F90DF91CF910C94C805CF93DB
:10146000DF93EC010E94AB050E94B405883C19F1A2
:101470000E94C8056CE0CE010E946709843CE9F433
:1014800040E066E2CE010E94150A48EB66E2CE011A
:101490000E94150A47E063E1CE010E94150A40E070
:1014A0006DE2CE010E94150A49EB66E2CE010E9470
:1014B000150A80E003C081E001C082E0DF91CF9196
:1014C0000895CF93DF93EC014BEB66E20E94150A7F
:1014D00049EB66E2CE01DF91CF910C94150ACF93D0
:1014E000C62F9C0140E050E084E0220F331F441FD0
:1014F000551F8A95D1F760E074E284EF90E00E9476
:10150000CA0F215031093093C5002093C400809147
:10151000C2008E608093C2008091C1008861809378
:10152000C100CC2331F08091C100806C8093C10058
:101530007894CF9108959091C00095FFFCCF80934F
:10154000C6001092030408958091C00087FFFCCF6D
:101550008091C60008951F920F920FB60F9211242A
:101560008F938091C6008093050481E080930404EA
:101570008F910F900FBE0F901F9018951F920F9292
:101580000FB60F9211248F9381E0809303048F9103
:101590000F900FBE0F901F901895FC0110821182C2
:1015A0001282138214821582168217821086118687
:1015B0001286138614861586168617860895089552
:1015C00080E090E00895BF92CF92DF92EF92FF9279
:1015D0000F931F93CF93DF938B01FB0180810E94B8
:1015E0009B0AE801C75FDE4F1882F801F1808F2D5A
:1015F0000E949B0AEF2DFF27E7FDF0958881E827E1
:10160000E55FFE4F80818883F801F2808F2D0E9474
:101610009B0AEF2DFF27E7FDF0958881E827E55F1E
:10162000FE4F80818883F801F3808F2D0E949B0AF2
:10163000EF2DFF27E7FDF0958881E827E55FFE4F56
:1016400080818883F801F4808F2D0E949B0AEF2D02
:10165000FF27E7FDF0958881E827E55FFE4F808151
:101660008883F801C480D580E680F780CD2CDE2CFD
:10167000EF2CFF248C2D0E949B0AEC2DFF27E7FD09
:10168000F0958881E827E55FFE4F80818883F80127
:10169000C480D580E680F7806701EE24FF248C2D7E
:1016A0000E949B0AEC2DFF27E7FDF0958881E82733
:1016B000E55FFE4F80818883F801C480D580E68095
:1016C000F780CF2CDD24EE24FF248C2D0E949B0A72
:1016D000EC2DFF27E7FDF0958881E827E55FFE4FB9
:1016E00080818883F80182819381099760F48881E1
:1016F000DF91CF911F910F91FF90EF90DF90CF90EE
:10170000BF900C949B0A6801FAE0CF0ED11C7601C1
:101710002E2D2C1930E0F80182819381089728172B
:10172000390728F7F701B1907F018B2D0E949B0AA2
:10173000EB2DFF27E7FDF0958881E827E55FFE4F59
:1017400080818883E5CFCF93DF93CDB7DEB7CA50D2
:10175000D1400FB6F894DEBF0FBECDBF2CE3298376
:101760004A8328E030E03C832B83FB014481558190
:10177000668177814D835E836F837887BE016F5F5B
:101780007F4F0E94E30AC65FDE4F0FB6F894DEBFBC
:101790000FBECDBFDF91CF9108950F931F93CF93CD
:1017A000DF93EA018091080490E08730910508F00A
:1017B000CBC08C5C9F4FFC010C94EC0F6C3309F098
:1017C000C3C081E080930804688384EB809307049E
:1017D000BBC0A0910704A627B0E0A55FBE4F8C91C7
:1017E00080930704862F887F803241F582E08093C2
:1017F000080469839FC0A0910704A627B0E0A55FF5
:10180000BE4F8C9180930704809106048F5F809374
:101810000604062F10E0823018F41B830A8394C05C
:10182000102F00278A819B81080F191F1B830A83B1
:10183000085011090F3F110521F018F0109208040B
:1018400083C083E075C0A0910704A627B0E0A55F20
:10185000BE4F8C9180930704409106044F5F4093E4
:101860000604423091F060F4413009F06DC0062F5B
:1018700010E020E030E00C831D832E833F8364C0A2
:10188000433061F04430F1F05FC0062F10E020E0FB
:1018900030E0322F212F102F002707C0062F10E035
:1018A00020E030E09801112700278C819D81AE81D6
:1018B000BF81800F911FA21FB31F8C839D83AE83B6
:1018C000BF8342C0062F10E020E030E0302F2227F7
:1018D000112700278C819D81AE81BF81800F911FD0
:1018E000A21FB31F8C839D83AE83BF838A819B819C
:1018F0000897E9F0409308041DC0A0910704A627AB
:10190000B0E0A55FBE4F8C91809307042091060440
:101910002F5F2093060430E0DA01A20FB31F19965F
:101920006C938A819B8108972817390768F086E0B5
:10193000809308041092060407C0DA01A75FBE4F27
:101940006C9387E08093080480910804873011F03D
:1019500080E00BC01092080490910704DE01A75F9D
:10196000BE4F8C919813F4CF8A81DF91CF911F9154
:101970000F910895EF92FF920F931F93CF93DF93F0
:101980008C01EB01F0EDEF2EF7E0FF2E80E090915F
:101990000404911104C08F5F8F3171F0F8CF8E3144
:1019A00058F4609105041092040449E054E0C80121
:1019B0000E94CD0B811109C0B1E0EB1AF108E114CE
:1019C000F10421F780E090E0B9C140910D045091FD
:1019D0000E0460910F0470911004423C8BEF580785
:1019E0008CEE68078CE6780709F424C108F04CC037
:1019F0004230B9E25B07BEE76B07BFE27B0709F441
:101A0000B7C008F54430FAE95F07F7ED6F07FEE06D
:101A10007F0709F40FC138F446315A4A67437B40C7
:101A200009F408C17FC14E3CB8E45B07B7E56B071A
:101A3000BAE17B0709F405C144375B4E6A477B4135
:101A400009F4F8C06FC14E34F8EC5F07FCEB6F0788
:101A5000F0E47F0709F4F5C038F4463E554D6A4D71
:101A6000734309F49DC05EC1423EB5E55B07BCE926
:101A70006B07B6E67B0709F44CC14A355B4B6743FD
:101A8000774609F475C04EC14A3BF4E85F07F5E2BA
:101A90006F07FEEB7F0709F43CC108F049C04E37E1
:101AA000A2E15A07AAE66A07ABE97A0709F4C2C0BD
:101AB00060F54A3051486D427C4809F033C180914D
:101AC000150490911604A0911704B09118048EABE0
:101AD0009FABA8AFB9AF8091190490911A04A0915F
:101AE0001B04B0911C048AAF9BAFACAFBDAFEE96A8
:101AF00080911D0490911E04A0911F04B0912004B8
:101B000088839983AA83BB830DC14630FEE05F07BB
:101B1000FCE36F07FDEA7F0709F467C04A38574FB7
:101B2000674C784B09F0FEC080912D048883FAC081
:101B30004639A5E35A07A8E06A07A2ED7A0709F437
:101B4000B7C038F444355D426F4F754C09F472C02C
:101B5000E9C04436F9ED5F07F0EE6F07F7ED7F0758
:101B6000F9F0463B5342634A724E09F46AC0DAC048
:101B7000D8011F96EC911F97F0E0E75FFB4F82853D
:101B8000823031F0833041F08111CCC081E005C05A
:101B900083E0F8018087C6C0D80118968C93C2C034
:101BA0008091250490912604A0912704B0912804E7
:101BB0008E8F9F8FA8A3B9A38091290490912A04A6
:101BC000A0912B04B0912C048AA39BA3ACA3BDA32A
:101BD00080912D0490912E04A0912F04B091300497
:101BE0008EA39FA3A8A7B9A79DC08091150490912B
:101BF0001604A0911704B09118048AA79BA7ACA75C
:101C0000BDA78091190490911A04A0911B04B09172
:101C10001C048EA79FA7A8ABB9AB80911D0490911F
:101C20001E04A0911F04B09120048AAB9BABACAB07
:101C3000BDAB78C0809113048C83809114048D8394
:101C400071C08091150490911604A0911704B09171
:101C500018048A8B9B8BAC8BBD8B8091190490915F
:101C60001A04A0911B04B0911C048E8B9F8BA88F2B
:101C7000B98F809138048E83809137048F8360916F
:101C800025047091260480912704909128040E94D5
:101C9000C310798768876091290470912A04809124
:101CA0002B0490912C040E94C8107B876A873AC04D
:101CB00020E030E04AE754E4609115047091160486
:101CC00080911704909118040E94AA110E94C310D9
:101CD0007D876C8720E030E048EC52E46091190485
:101CE00070911A0480911B0490911C040E94AA1107
:101CF0000E94C3107F876E876091290470912A0427
:101D000080912B0490912C040E94C310798B688BD6
:101D100009C08091760488838091770489838091BB
:101D200078048A8380910A04823231F443E269E0C4
:101D300074E0C8010E94A30B81E090E0DF91CF9195
:101D40001F910F91FF90EF900895A1E0B1E0E6E0C0
:101D5000F1E040E081E090E05AB1ED019C010C908F
:101D600002C0220F331F0A94E2F7209525232AB9D7
:101D7000443059F057B19C01008002C0220F331F3C
:101D80000A94E2F7522B57B90AC05AB19C0100805D
:101D900002C0220F331F0A94E2F7522B5AB95BB1EB
:101DA00011969C01088002C0220F331F0A94E2F7AB
:101DB000522B5BB94F5F3196453071F6259A809171
:101DC00081008A608093810084E499E9909389007E
:101DD00080938800C0EDD7E0D0938B00C0938A0039
:101DE00080916F00866080936F0085B5836085BDAC
:101DF00080916E00816080936E0080916B008160A5
:101E000080936B0080916D008C6780936D00809152
:101E1000680085608093680061E080E096E90E9438
:101E20006F0A8FEF8093010486E89BE09093E403B0
:101E30008093E303D093E603C093E5038CE89AE034
:101E40009093E8038093E70388EB9BE09093EA0389
:101E50008093E9039093EC038093EB0380E090E0A0
:101E600020E030E0AC01440F551FFA01ED51FC4F6A
:101E700060817181260F371FFA01E752FC4F3183D1
:101E8000208301968530910569F78EE092E00E94EB
:101E9000AE067894C8EBDBE088EEE82E83E0F82EFF
:101EA00001E010E092E0C92ED12C80910C029091BB
:101EB0000D0281309105E1F08230910549F1892BC5
:101EC00009F05BC08091D5039091D603853E9C407C
:101ED00020F010930D0200930C028091D803882308
:101EE00021F38EE092E00E94C0061092D803DDCF6D
:101EF0008091D5039091D603843C994020F41092B0
:101F00000D0210920C028EE092E00E94DD07CDCF10
:101F1000D093E403C093E303F092E603E092E50379
:101F2000D093E803C093E703D093EA03C093E90397
:101F3000D093EC03C093EB038091D5039091D6032B
:101F4000853E9C4028F010930D0200930C02ADCF0B
:101F50008091D5039091D603843C994008F0A5CF99
:101F60008091D5039091D603893E934008F49DCF8C
:101F700010920D0210920C0298CFD0920D02C092D6
:101F80000C0293CF8EE092E00C94F0058CE592E089
:101F90000C94DF0AA1E21A2EAA1BBB1BFD010DC087
:101FA000AA1FBB1FEE1FFF1FA217B307E407F50709
:101FB00020F0A21BB30BE40BF50B661F771F881FE5
:101FC000991F1A9469F760957095809590959B017B
:101FD000AC01BD01CF010895EE0FFF1F0590F491F4
:101FE000E02D09945058BB27AA270ED075C166D1A1
:101FF00030F06BD120F031F49F3F11F41EF45BC13F
:102000000EF4E095E7FB51C1E92F77D180F3BA17C1
:10201000620773078407950718F071F49EF58FC166
:102020000EF4E0950B2EBA2FA02D0B01B9019001F3
:102030000C01CA01A0011124FF27591B99F0593F37
:1020400050F4503E68F11A16F040A22F232F342F7F
:102050004427585FF3CF469537952795A795F040CD
:102060005395C9F77EF41F16BA0B620B730B840BE2
:10207000BAF09150A1F0FF0FBB1F661F771F881F9A
:10208000C2F70EC0BA0F621F731F841F48F48795F2
:1020900077956795B795F7959E3F08F0B3CF9395E1
:1020A000880F08F09927EE0F979587950895D9D056
:1020B00008F481E008950CD00FC107D140F0FED0A4
:1020C00030F021F45F3F19F0F0C0511139C1F3C075
:1020D00014D198F39923C9F35523B1F3951B550BEC
:1020E000BB27AA2762177307840738F09F5F5F4FEB
:1020F000220F331F441FAA1FA9F333D00E2E3AF02C
:10210000E0E830D091505040E695001CCAF729D045
:10211000FE2F27D0660F771F881FBB1F2617370794
:102120004807AB07B0E809F0BB0B802DBF01FF27C4
:1021300093585F4F2AF09E3F510568F0B6C000C12A
:102140005F3FECF3983EDCF3869577956795B795FE
:10215000F7959F5FC9F7880F911D9695879597F919
:102160000895E1E0660F771F881FBB1F6217730792
:102170008407BA0720F0621B730B840BBA0BEE1FA7
:1021800088F7E095089504D06894B111D9C00895F6
:10219000BCD088F09F5790F0B92F9927B751A0F085
:1021A000D1F0660F771F881F991F1AF0BA95C9F7EB
:1021B00012C0B13081F0C3D0B1E00895C0C0672F24
:1021C000782F8827B85F39F0B93FCCF3869577959B
:1021D0006795B395D9F73EF4909580957095619584
:1021E0007F4F8F4F9F4F0895E89409C097FB3EF4AF
:1021F00090958095709561957F4F8F4F9F4F992354
:10220000A9F0F92F96E9BB279395F69587957795D1
:102210006795B795F111F8CFFAF4BB0F11F460FF91
:102220001BC06F5F7F4F8F4F9F4F16C0882311F0E9
:1022300096E911C0772321F09EE8872F762F05C0FD
:10224000662371F096E8862F70E060E02AF09A9598
:10225000660F771F881FDAF7880F9695879597F98D
:102260000895990F0008550FAA0BE0E8FEEF161627
:102270001706E807F907C0F012161306E407F5077A
:1022800098F0621B730B840B950B39F40A2661F0EE
:10229000232B242B252B21F408950A2609F4A14091
:1022A000A6958FEF811D811D089597F99F6780E89E
:1022B00070E060E008959FEF80EC089500240A9498
:1022C0001616170618060906089500240A94121611
:1022D0001306140605060895092E0394000C11F444
:1022E000882352F0BB0F40F4BF2B11F460FF04C0F1
:1022F0006F5F7F4F8F4F9F4F089557FD9058440F4A
:10230000551F59F05F3F71F04795880F97FB991F54
:1023100061F09F3F79F08795089512161306140611
:10232000551FF2CF4695F1DF08C01616170618069E
:10233000991FF1CF86957105610508940895E89479
:10234000BB2766277727CB0197F908958ADF08F422
:102350008FEF08950BD0C0CFB1DF28F0B6DF18F0B3
:10236000952309F0A2CFA7CF1124EACFC6DFA0F3AF
:10237000959FD1F3950F50E0551F629FF001729F1A
:10238000BB27F00DB11D639FAA27F00DB11DAA1F39
:10239000649F6627B00DA11D661F829F2227B00D86
:1023A000A11D621F739FB00DA11D621F839FA00D11
:1023B000611D221F749F3327A00D611D231F849F61
:1023C000600D211D822F762F6A2F11249F575040B8
:1023D0008AF0E1F088234AF0EE0FFF1FBB1F661F53
:1023E000771F881F91505040A9F79E3F510570F00C
:1023F0005CCFA6CF5F3FECF3983EDCF386957795F4
:102400006795B795F795E7959F5FC1F7FE2B880F06
:10241000911D9695879597F9089510E0C8E7D0E04B
:1024200004C0FE010E94EE0F2296CA37D107C9F7F9
:04243000F894FFCF4E
:10243400FF0203040506000102030700070E091C3E
:102444001B1215383F363124232A2D70777E796C80
:102454006B6265484F464154535A5DE0E7EEE9FC30
:10246400FBF2F5D8DFD6D1C4C3CACD90979E998C20
:102474008B8285A8AFA6A1B4B3BABDC7C0C9CEDB51
:10248400DCD5D2FFF8F1F6E3E4EDEAB7B0B9BEABC0
:10249400ACA5A28F88818693949D9A2720292E3BF0
:1024A4003C35321F18111603040D0A5750595E4B60
:1024B4004C45426F68616673747D7A898E87809516
:1024C400929B9CB1B6BFB8ADAAA3A4F9FEF7F0E500
:1024D400E2EBECC1C6CFC8DDDAD3D4696E676075B0
:1024E400727B7C51565F584D4A4344191E171005A0
:1024F400020B0C21262F283D3A33344E49404752D3
:10250400555C5B7671787F6A6D64633E393037223F
:10251400252C2B0601080F1A1D1413AEA9A0A7B26F
:10252400B5BCBB9691989F8A8D8483DED9D0D7C2DF
:0C253400C5CCCBE6E1E8EFFAFDF4F300C3
:00000001FF
