:100000000C943D000C9465000C9465000C94A401C4
:100010000C9465000C94FB010C9465000C94650035
:100020000C9465000C9465000C9465000C946700BA
:100030000C9402010C9465000C9465000C9465000E
:100040000C9422040C9465000C9457140C946500D5
:100050000C946A140C9465000C9465000C94650073
:100060000C9465000C9465008A159515A715CF159D
:10007000291629164916B91ABD1A11241FBECFEF29
:10008000D8E0DEBFCDBF12E0A0E0B1E0E2E2FAE3EB
:1000900002C005900D92AC30B107D9F715E0ACE085
:1000A000B2E001C01D92A83CB107E1F710E0C8E73B
:1000B000D0E004C02297FE010E94E51AC637D1079E
:1000C000C9F70E9494190C94041D0C9400001F920F
:1000D0000F920FB60F9211242F933F938F939F93FC
:1000E0008091980490919904892B49F081E0809344
:1000F000B60481E090E090938B0080938A00809119
:10010000980490919904469690938F0480938E045E
:1001100080918E0490918F0420919A0430919B04D9
:10012000820F931F0896909391048093900480917E
:1001300090049091910420919C0430919D04820F31
:10014000931F089690939304809392048091920455
:100150009091930420919E0430919F04820F931FED
:1001600008969093950480939404809194049091C0
:1001700095042091A0043091A104820F931F08964A
:10018000909397048093960480918D048F5F809361
:100190008D0480910C0290910D02029751F1809193
:1001A0008C0491E0980F90938C04843010F182E0DD
:1001B00090E090930D0280930C0210928B041092A9
:1001C0008A0488EB9BE0909399048093980428EE2E
:1001D00033E030939B0420939A0490939D04809382
:1001E0009C0490939F0480939E049093A104809319
:1001F000A0049F918F913F912F910F900FBE0F9070
:100200001F9018951F920F920FB60F9211242F93E3
:100210003F938F939F93EF93FF938091B6041816AB
:100220000CF087C08091B6048630BCF0E091B60433
:100230002BB1FF27E7FDF095EC5FFE4F81E090E0EA
:10024000008002C0880F991F0A94E2F7809590956C
:1002500030E0822393238BB91AC08091B604823098
:10026000B4F0E091B60428B1FF27E7FDF095EC5F0C
:10027000FE4F81E090E0008002C0880F991F0A9431
:10028000E2F78095909530E08223932388B980919E
:10029000B60486300CF043C0E091B604EE0FFF0BBD
:1002A000EA56FB4F80819181892B99F1E091B60448
:1002B000EE0FFF0BE457FB4F8081918190938B00F1
:1002C00080938A008091B604E091B60485308CF466
:1002D00028B1FF27E7FDF095EB5FFE4F81E090E04E
:1002E000008002C0880F991F0A94E2F7822B88B918
:1002F00010C02BB1FF27E7FDF095EB5FFE4F81E0CB
:1003000090E0008002C0880F991F0A94E2F7822BC8
:100310008BB98091B6048F5F8093B6040AC0809138
:1003200098049091990490938B0080938A00109286
:10033000B604FF91EF919F918F913F912F910F9074
:100340000FBE0F901F9018951F920F920FB60F922D
:1003500011242F933F934F935F936F937F938F93CA
:100360009F93AF93BF93EF93FF93189B09C086B5FC
:1003700090E09093890480938804109287042AC0A7
:1003800066B520918804309189048091870470E0DB
:10039000621B730B61507F4F90E001974FEF489FB6
:1003A0009001499F300D1124620F731F660F771F54
:1003B000660F771F80E090E00E94EB1B20E030E0AA
:1003C0004AE754E40E94521BAB01BC018EE092E06C
:1003D0000E94EE0CFF91EF91BF91AF919F918F9191
:1003E0007F916F915F914F913F912F910F900FBE31
:1003F0000F901F9018951F920F920FB60F92112415
:100400002F933F934F935F936F937F938F939F931C
:10041000AF93BF93EF93FF9329B1809100012827F9
:1004200089B18093000110928C0422FF5FC04A9B27
:1004300009C080918400909185009093A3048093DB
:10044000A20454C04A9952C08091840090918500C2
:100450004091A2045091A304E0918400F0918500A2
:100460006091A2047091A304E617F70770F46091FD
:10047000840070918500809188009091890040915E
:10048000A2045091A304860F971F841B950BA0E034
:10049000B0E0AC01BD014150510961097109433916
:1004A00051416105710510F540910C0250910D020A
:1004B000452BE1F440919804509199044A325B40F5
:1004C00008F47CC1409198045091990445385B40F0
:1004D00008F074C1AC01BD014A525B406109710969
:1004E0004B3551056105710508F068C123FF53C004
:1004F0004B9B09C080918400909185009093A50446
:100500008093A40448C04B9946C080918400909188
:1005100085004091A4045091A504E0918400F091DD
:1005200085006091A4047091A504E617F70770F4A4
:10053000609184007091850080918800909189007D
:100540004091A4045091A504860F971F841B950B1E
:10055000A0E0B0E0AC01BD01415051096109710951
:100560004339514161057105B0F440910C0250913D
:100570000D02452B81F440919A0450919B04840F05
:10058000951FA11DB11DB595A7959795879590933A
:100590009B0480939A0424FF59C04C9B09C080910E
:1005A0008400909185009093A7048093A6044EC088
:1005B0004C994CC080918400909185004091A60494
:1005C0005091A704E0918400F09185006091A60409
:1005D0007091A704E617F70770F46091840070919A
:1005E000850080918800909189004091A6045091E7
:1005F000A704860F971F841B950BA0E0B0E0AC0109
:10060000BD014150510961097109433951416105E9
:100610007105E0F440919C0450919D044A325A4087
:1006200008F4DDC040919C0450919D044F385A401D
:1006300008F0D5C0AC01BD014A525A4061097109A8
:10064000453651056105710508F0C9C025FF59C03F
:100650004D9B09C080918400909185009093A904DE
:100660008093A8044EC04D994CC080918400909115
:1006700085004091A8045091A904E0918400F09174
:1006800085006091A8047091A904E617F70770F43B
:10069000609184007091850080918800909189001C
:1006A0004091A8045091A904860F971F841B950BB5
:1006B000A0E0B0E0AC01BD014150510961097109F0
:1006C0004339514161057105E0F440919E04509118
:1006D0009F044C325B4008F493C040919E045091BB
:1006E0009F0441395B4008F08BC0AC01BD014C5206
:1006F0005B4061097109453651056105710508F0D6
:100700007FC026FF8EC04E9B09C0809184009091CF
:1007100085009093AB048093AA0483C04E9981C056
:1007200080918400909185002091AA043091AB04BF
:1007300060918400709185004091AA045091AB04AF
:100740006417750770F44091840050918500809182
:100750008800909189002091AA043091AB04840F05
:10076000951F821B930BA0E0B0E0AC01BD0141508E
:10077000510961097109433951416105710508F059
:1007800050C020910C0230910D02232B91F4209146
:10079000A0043091A104AC01BD01420F531F611DA3
:1007A000711D75956795579547955093A104409392
:1007B000A00490938B0480938A0433C040919804E2
:1007C00050919904840F951FA11DB11DB595A79552
:1007D00097958795909399048093980487CE40913C
:1007E0009C0450919D04840F951FA11DB11DB595CA
:1007F000A7959795879590939D0480939C0426CF09
:1008000040919E0450919F04840F951FA11DB11D1E
:10081000B595A7959795879590939F0480939E048F
:1008200070CFFF91EF91BF91AF919F918F917F9189
:100830006F915F914F913F912F910F900FBE0F904D
:100840001F9018951F920F920FB60F9211248F933D
:100850009F93809187048F5F8093870480918104A8
:1008600090918204019690938204809381048091F8
:100870007F049091800401969093800480937F047C
:100880009F918F910F900FBE0F901F901895FC01B4
:1008900040E050EC69E774EC408F518F628F738FAA
:1008A000448F558F668F778F40A351A362A373A3A4
:1008B00044A355A366A377A30895FC0140E050EC40
:1008C00069E774EC408F518F628F738F448F558F1F
:1008D000668F778F40A351A362A373A344A355A34C
:1008E00066A377A344A755A766A777A717821682A2
:1008F0000895CF92DF92EF92FF920F931F93CF93C1
:10090000DF93EC0186B500917F041091800490E0A4
:1009100028813981821B930BBC0161507F4F80E09D
:1009200090E00E94EB1B2DEB37E346E856E30E9474
:10093000A11C6B017C01B80180E090E00E94EB1BE0
:1009400025E831EB45E85AE30E94A11C9B01AC016C
:10095000C701B6010E94EA1A6A837B838C839D8358
:10096000DF91CF911F910F91FF90EF90DF90CF908B
:1009700008952F923F924F925F926F927F928F9243
:100980009F92AF92BF92CF92DF92EF92FF920F931E
:100990001F93CF93DF93CDB7DEB728970FB6F894A8
:1009A000DEBF0FBECDBF8C014D835E836F83788722
:1009B000790120E030EC49E754ECDC0158966D9168
:1009C0007D918D919C915B970E944E1BF701868CC7
:1009D000978CA0A0B1A0811107C0D80158968D9224
:1009E0009D92AD92BC925B9720E030EC49E754ECCD
:1009F000F80164A575A586A597A50E944E1B8111D7
:100A000007C0D8019C961D921D921D921C929F9723
:100A100020909A0430909B04A50194016D817E8101
:100A20008F8198850E94E91A6B017C01F801648B23
:100A3000758B868B978B4280538064807580A30171
:100A400092016AE979E989E890E40E94521B69837E
:100A50007A838B839C83D8011C966D937D938D93B1
:100A60009C931F9720E030E0A901C301B2010E94CE
:100A7000A11C2B013C01F801608B718B828B938B45
:100A8000208D318D428D538DC501B4010E94E91A2C
:100A90004B015C01D80198966D937D938D939C9347
:100AA0009B97A7019601C301B2010E94A11CF80106
:100AB00024A535A546A557A50E94EA1A2B013C019D
:100AC0002DEC3CEC4CE45DEBC701B6010E949D1C93
:100AD000181694F42DEC3CEC4CE45DE3C701B60130
:100AE0000E944E1B87FF08C0D8019C961D921D9244
:100AF0001D921C929F972AC020E030E040E050E415
:100B0000C301B2010E949D1C18162CF480E090E0F5
:100B1000A0E0B0E416C020E030E040E85FEBC301A5
:100B2000B2010E944E1B87FD08C0D8019C964D92D1
:100B30005D926D927C929F9709C080E090E0A0E862
:100B4000BFEBF80184A795A7A6A7B7A7D80116966B
:100B50008D919C911797892BB9F42DEC3CEC4CE4CA
:100B60005DE3C701B6010E944E1B87FF0DC02DEC4F
:100B70003CEC4CE45DEBC701B6010E949D1C1816CD
:100B80001CF4F801378226822CEB34E743E15CE366
:100B9000C501B4010E944E1B87FF11C02FE632E150
:100BA00043E05BEBC501B4010E949D1C18163CF4A8
:100BB000D80198961D921D921D921C929B972DEC28
:100BC0003CEC4CE45DE3C701B6010E944E1B87FF7D
:100BD00025C02DEC3CEC4CE45DEBC701B6010E9456
:100BE0009D1C1816DCF4C1018D589A40833691057E
:100BF000A8F4F80186819781892B81F420E030E008
:100C0000A90160A571A582A593A50E944E1B811123
:100C100005C0D80117963C922E9216972DEC3CEC0D
:100C20004CEC5CEBC701B6010E949D1C181614F534
:100C3000F80180A491A4A2A4B3A420E030E0A9010B
:100C4000C501B4010E944E1B87FF14C02AE939E98F
:100C500049E850E4C501B4010E94A11CD80198964E
:100C60006D937D938D939C939B97F80114A615A685
:100C700016A617A6D80198968D909D90AD90BC9021
:100C80009B972AE939E949E95FE3C701B6010E9468
:100C9000A11C2B013C01A501940169817A818B8102
:100CA0009C810E94A11C9B01AC01C301B2010E9466
:100CB000E91AF80124A535A546A557A50E94EA1A08
:100CC0002B013C01D80118966D937D938D939C93D5
:100CD0001B972DEC3CEC4CE45DE3C701B6010E9490
:100CE0004E1B87FF05C080E090E0A0E8BFEB18C076
:100CF0002DEC3CEC4CE45EE3C701B6010E949D1C68
:100D00001816A4F42DEC3CEC4CEC5DE3C301B201ED
:100D10000E949D1C181654F480E090E0A0E0B0E41E
:100D2000F80180879187A287B3876EC020E030E00A
:100D300040E251E4C301B2010E949D1C1816E4F484
:100D400020E030E0A901C501B4010E944E1B87FFDD
:100D500013C020E030E0A901C701B6010E949D1C2C
:100D6000181654F4F0EF2F16FAE03F0670F480E006
:100D700090E0A0E2B1E4D4CF20E030E0A901C701C7
:100D8000B6010E949D1C18167CF420E030E040E47F
:100D900050E4C301B2010E949D1C18162CF480E09F
:100DA00090E0A0E4B0E4BCCF2DEC3CEC4CEC5DE377
:100DB000C301B2010E949D1C18167CF420E030E0B3
:100DC00040E85FE3C301B2010E944E1B18162CF0ED
:100DD00080E090E0A0E8BFE3A3CF20E030E040E86F
:100DE0005FEBC301B2010E944E1B87FF06C0F1EA10
:100DF0002F16FAE03F0608F076CFD80118961D921C
:100E00001D921D921C921B97B10180E090E00E9400
:100E1000EB1BF80120853185428553850E94EA1A33
:100E20000E94BF1B5B012AE939E949E95EE36D8154
:100E30007E818F8198850E944E1B87FF06C0F0E659
:100E4000AF16F9E0BF0608F468C08DE2A8168AE084
:100E5000B80608F467C020E030E0A901C701B60178
:100E60000E949D1C181634F49AE5A9169AE0B9065A
:100E700008F45DC02DEC3CEC4CEC5DE3C701B60121
:100E80000E944E1B87FF0EC0D80116968D919C9133
:100E90001797009789F09C012D5F3F4F2A153B055E
:100EA000A8F00AC02DEC3CEC4CEC5DE3C701B601A8
:100EB0000E944E1B87FF0BC0B1EFAB16BAE0BB061A
:100EC00078F040EFA42E4AE0B42E0AC05C01E5E0C1
:100ED000AE16EBE0BE0620F034E0A32E3BE0B32ECE
:100EE000B0929B04A0929A0428960FB6F894DEBFA5
:100EF0000FBECDBFDF91CF911F910F91FF90EF906B
:100F0000DF90CF90BF90AF909F908F907F906F9029
:100F10005F904F903F902F90089520E6A22E29E0F9
:100F2000B22EDECF9DE2A92E9AE0B92ED9CF8AE566
:100F3000A82E8AE0B82ED4CF2F923F924F925F9284
:100F40006F927F928F929F92AF92BF92CF92DF92D9
:100F5000EF92FF920F931F93CF93DF9300D000D0B7
:100F6000CDB7DEB71C014A015B01890120E030ECFE
:100F700049E754ECFC0160A171A182A193A10E94F8
:100F80004E1BF80146A057A060A471A4811105C0B2
:100F9000F10140A251A262A273A2F1012281338128
:100FA000448155816AE077ED83E29CE30E94521B05
:100FB0006B017C01F10164877587868797870091B3
:100FC0009C0410919D04A5019401C301B2010E94EB
:100FD000E91A4B015C01F101648B758B868B978B51
:100FE00020A131A142A153A1C301B2010E94E91A7B
:100FF0002B013C01F10160A771A782A793A7B8015B
:1010000080E090E00E94EB1B69837A838B839C8352
:1010100023E333E343E35FE3C501B4010E94A11C72
:101020009B01AC0169817A818B819C810E94EA1AC3
:101030004B015C01A3019201C701B6010E94A11CF2
:101040009B01AC01C501B4010E94E91A0E94BF1BBB
:10105000643CF9E07F0738F065352BE0720728F033
:1010600064E57BE002C064EC79E070939D046093DA
:101070009C040F900F900F900F90DF91CF911F91D4
:101080000F91FF90EF90DF90CF90BF90AF909F9027
:101090008F907F906F905F904F903F902F9008952A
:1010A0002F923F924F925F926F927F928F929F9278
:1010B000AF92BF92CF92DF92EF92FF920F931F9366
:1010C000CF93DF9300D000D0CDB7DEB71C014A012B
:1010D0005B01890120E030EC49E754ECFC01648DB0
:1010E000758D868D978D0E944E1BF80142A053A0EE
:1010F00064A075A0811105C0F101448E558E668EE5
:10110000778EF10122813381448155816AE077ED48
:1011100083E29CE30E94521B6B017C01F101648716
:1011200075878687978700919E0410919F04A5017B
:101130009401C301B2010E94E91A4B015C01F10163
:10114000648B758B868B978B248D358D468D578D53
:10115000C301B2010E94E91A2B013C01F10160A711
:1011600071A782A793A7B80180E090E00E94EB1BD3
:1011700069837A838B839C8323E333E343E35FE3D5
:10118000C501B4010E94A11C9B01AC0169817A8157
:101190008B819C810E94EA1A4B015C01A3019201A0
:1011A000C701B6010E94A11C9B01AC01C501B4019D
:1011B0000E94E91A0E94BF1B623DFAE07F0738F0E7
:1011C00063362CE0720728F062E67CE002C062ED34
:1011D0007AE070939F0460939E040F900F900F909D
:1011E0000F90DF91CF911F910F91FF90EF90DF90C3
:1011F000CF90BF90AF909F908F907F906F905F90B7
:101200004F903F902F9008952F923F924F925F9270
:101210006F927F928F929F92AF92BF92CF92DF9206
:10122000EF92FF920F931F93CF93DF9300D000D0E4
:10123000CDB7DEB71C016A017B01890120E030ECEB
:1012400049E754ECFC0164A175A186A197A10E9415
:101250004E1BF80142A453A464A475A4811105C0D7
:10126000F10144A255A266A277A2F1012281338145
:101270004481558160E070E0CB010E94521B4B011C
:101280005C01F101648775878687978700919804D0
:1012900010919904A7019601C301B2010E94E91AB5
:1012A0006B017C01F101648B758B868B978B24A17C
:1012B00035A146A157A1C301B2010E94E91A2B0131
:1012C0003C01F10160A771A782A793A72DEC3CEC2C
:1012D0004CE45DE3C701B6010E94A11C69837A83D7
:1012E0008B839C83A3019201C501B4010E94A11CC0
:1012F0009B01AC0169817A818B819C810E94E91AF2
:101300004B015C0120E030E040E85FE30E949D1C5F
:1013100018162CF480E090E0A0E8BFE314C020E0B1
:1013200030E040E85FEBC501B4010E944E1B87FD31
:1013300006C0F10180869186A286B38609C080E04E
:1013400090E0A0E8BFEBF10180879187A287B38787
:10135000B80180E090E00E94EB1BF101208531850F
:10136000428553850E94EA1A0E94BF1B8B0120E030
:1013700030E040E251E4C701B6010E949D1C1816FE
:1013800054F420E030E040E251ECC701B6010E9485
:101390004E1B87FD05C00435FBE01F0758F002C057
:1013A00002E71BE0B801093B8BE0180728F068EB67
:1013B0007BE002C064E57BE070939904609398043D
:1013C0000F900F900F900F90DF91CF911F910F9181
:1013D000FF90EF90DF90CF90BF90AF909F908F9055
:1013E0007F906F905F904F903F902F900895089559
:1013F000FC01DB015E964D915D916D917C91919721
:10140000408F518F628F738F96964D915D916D9144
:101410007C91999740A351A362A373A392964D9197
:101420005D916D917C919597448F558F668F778FE5
:101430009A964D915D916D917C919D9744A355A392
:1014400066A377A386B590E0918380831092800491
:1014500010927F0408951092B90080E28093B80042
:1014600084E08093BC00089584EA8093BC0080E00F
:101470008F5F893229F09091BC0097FFF9CF02C0AD
:1014800088EC08958832E0F78091B900887F08954C
:1014900084E98093BC008091B900887F089580938F
:1014A000BB0084E88093BC008091BC0087FFFCCF28
:1014B0008091B900887F089584EC8093BC0080916E
:1014C000BC0087FFFCCF8091BB00089584E8809327
:1014D000BC008091BC0087FFFCCF8091BB000895C9
:1014E0000F931F93CF93DF93EC0182599F4F0E947C
:1014F0004704CE0182569F4F0E947914CE018F502F
:101500009F4F0E940E1385E0888319821B821A82E6
:101510001C821D821E821F82188619861A861B86CF
:101520001C861D861E861F86188A198A1A8A1B8A9F
:1015300081E090E09D8B8C8B40E050E060E07FE3A9
:101540004E8B5F8B688F798F1A8E1B8E1C8E1D8E33
:101550001E8E1F8E18A219A21AA21BA21CA21DA2C7
:10156000FE01EE59FF4F1082118212821382FE019A
:10157000EA59FF4F1082118212821382FE01E6594E
:10158000FF4F108211821282138283E090E09FA3AA
:101590008EA348A759A76AA77BA71CA61DA61EA6AF
:1015A0001FA618AA19AA1AAA1BAA00E010E020EA8E
:1015B00030E40CAB1DAB2EAB3FAB84E090E099AFB9
:1015C00088AF4AAF5BAF6CAF7DAFFE01FE9683EA9A
:1015D0009EE6A7EAB2EC80839183A283B383FE01E7
:1015E000EE5BFF4F8FE79BE2A9E2B2E48083918339
:1015F000A283B383FE01EA5BFF4F00831183228342
:101600003383FE01E65BFF4F82E090E091838083AD
:10161000FE01E45BFF4F1082118212821382FE01F1
:10162000E05BFF4F1082118212821382FE01EC5A9E
:10163000FF4F1082118212821382FE01E85AFF4F7F
:101640001082118212821382FE01E45AFF4F85E05C
:1016500090E091838083FE01E25AFF4F1082118255
:1016600012821382FE01EE50FF4F1082FE01ED50F8
:10167000FF4F1082FE01EB50FF4F1082FE01EA5037
:10168000FF4F1082FE01E950FF4F1082FE01EC5E19
:10169000FE4F1082118212821382FE01E85EFE4F1D
:1016A0001082118212821382FE01E45EFE4F1082CC
:1016B000118212821382FE01E85FFE4F10821182B6
:1016C00012821382FE01E45FFE4F108211821282A9
:1016D0001382FE01E850FF4F1082FE01E750FF4FDA
:1016E0001082FE01E650FF4F108211821282138297
:1016F000FE01E05FFE4F1082118212821382FE0112
:10170000E250FF4F1082118212821382FE01EE5FBF
:10171000FE4F11821082FE01EC5FFE4F118210829B
:10172000CA5FDE4F19821882DF91CF911F910F910E
:101730000895CF93DF93EC018F509F4F0E94DB13EE
:10174000FE01EE5BFD4F882319F081E0808301C02C
:101750001082CE0182599F4F0E945D04FE01E55B1D
:10176000FD4F40E050EC69E774EC408351836283A5
:101770007383FE01E15BFD4F89E19CEF91838083E0
:10178000FE01EB5AFD4F40E05CE36CE176EC4083F8
:10179000518362837383FE01EF59FD4F4083518370
:1017A00062837383CB59DD4F488359836A837B837C
:1017B000DF91CF9108954F925F926F927F92AF9297
:1017C000BF92CF92DF92EF92FF920F931F93CF932E
:1017D000DF93EC01FC01EE5BFD4F808181114DC078
:1017E000CE018F509F4F0E9435136B017C015E012B
:1017F00020EFA21A2EEFB20AF501408051806280DC
:1018000073802DEC3CEC4CE850E4C301B2010E9423
:101810009D1C181694F520E030EC49E754ECC70104
:10182000B6010E944E1B882341F18E01095B1D4FBA
:1018300020E030E0A901F80160817181828193810B
:101840000E944E1B81110BC0A3019201C701B6017A
:101850000E94E91AF8016083718382839383F801FF
:101860002081318142815381C701B6010E94E91A6A
:10187000F50160837183828393835E01F5EBAF1A78
:10188000FDEFBF0A20E030EC49E754ECF501608140
:101890007181828193810E944E1B811115C0FE01CE
:1018A000E45EFE4FC080D180E280F38020E030E033
:1018B000A901C701B6010E944E1B882329F0F5013A
:1018C000C082D182E282F3828E0102591F4FC80189
:1018D0000E94790480919E0490919F048C329B40D9
:1018E00040F080919E0490919F0481399B4008F4C0
:1018F00041C080919C0490919D048A329A4038F0B6
:1019000080919C0490919D048F389A40E8F1F501F4
:10191000C080D180E280F38020E030EC49E754ECD5
:10192000C701B6010E944E1B8823C1F18091980423
:10193000909199048A329B4088F18091980490910B
:10194000990485389B4050F59E012E503F4FB701BA
:10195000A601C801DF91CF911F910F91FF90EF90E9
:10196000DF90CF90BF90AF907F906F905F904F903F
:101970000C9404099E012E503F4F40E050E0BA0104
:10198000C8010E945008B5CF9E012E503F4F40E045
:1019900050E0BA01C8010E949C07B9CFDF91CF91F6
:1019A0001F910F91FF90EF90DF90CF90BF90AF907D
:1019B0007F906F905F904F9008950895BC016E5096
:1019C0007F4F82569F4F0C946616FC01E850FF4FE4
:1019D00081E09081973008F080E008958F929F9287
:1019E000AF92BF92CF92DF92EF92FF92CF93DF93AD
:1019F0006A017B01EC01C05FDE4F9A01AB01688197
:101A000079818A819B810E94E91A4B015C0120E067
:101A100030E040E050E40E944E1B87FF0EC020E003
:101A200030E040E050ECC501B4010E949D1C181646
:101A300024F4C882D982EA82FB82DF91CF91FF90A1
:101A4000EF90DF90CF90BF90AF909F908F900895D0
:101A5000895B9D4FFC0140835183628373830895AA
:101A60004F925F926F927F928F929F92AF92BF92AE
:101A7000CF92DF92EF92FF920F931F93CF93DF935A
:101A8000EC017B015C018FE9A81A8DEFB80AF50122
:101A9000408051806280738020E03CE34CE156EC52
:101AA000C301B2010E944E1B8E01085F1E4F8823A6
:101AB000A1F02AE037ED43E25CE3C301B2010E94EA
:101AC0009D1C181654F02AE037ED43E25CEBC3018D
:101AD000B2010E944E1B87FF11C0F701228533859A
:101AE00044855585F80160817181828193810E94CE
:101AF000E91AF5016083718382839383F801208161
:101B0000318142815381F701628573858485958592
:101B10000E94E91A6B017C01FE01E759FD4F6083C9
:101B2000718382839383F5012081318142815381C6
:101B30000E94521B4B015C0120E030E0A9010E9491
:101B40004E1B87FF04C0B7FAB094B7F8B0942AE9E7
:101B500039E949E95EE3C501B4010E944E1B18163C
:101B60000CF12DEC3CEC4CEC5DE3C501B4010E94A2
:101B70009D1C1816BCF420E030E0A901C701B60195
:101B80000E949D1C18160CF48BC020E030E0A901C7
:101B9000C701B6010E944E1B87FD7DC040E050E0AA
:101BA000BA0187C020E030E040E05FE3C501B40146
:101BB0000E944E1B181614F12AE939E949E95EE33F
:101BC000C501B4010E949D1C1816C4F420E030E049
:101BD000A901C701B6010E949D1C18160CF456C03D
:101BE00020E030E0A901C701B6010E944E1B87FF2B
:101BF000D5CF40E050E060E470EC5BC026E636E60E
:101C000046E65FE3C501B4010E944E1B87FF1DC07D
:101C100020E030E040E05FE3C501B4010E949D1C7C
:101C200018169CF420E030E0A901C701B6010E941B
:101C30009D1C181684F120E030E0A901C701B6010F
:101C40000E944E1B87FFAACF2BC026E636E646E64B
:101C50005FE3C501B4010E949D1C87FD9FCF20E07A
:101C600030E0A901C701B6010E949D1C1816ECF0D6
:101C700020E030E0A901C701B6010E944E1B87FF9A
:101C80008DCF40E050E060EE70EC13C040E050E0DB
:101C900060E470E40EC040E050E060EA70E409C027
:101CA00040E050E060EA70EC04C040E050E060EEDC
:101CB00070E49E012E503F4FCE0182599F4FDF911D
:101CC000CF911F910F91FF90EF90DF90CF90BF9039
:101CD000AF909F908F907F906F905F904F900C94FB
:101CE0009C074F925F926F927F928F929F92AF92DA
:101CF000BF92CF92DF92EF92FF920F931F93CF93F9
:101D0000DF93EC017B015C018BE9A81A8DEFB80A27
:101D1000F501408051806280738020E03CE34CE11B
:101D200056ECC301B2010E944E1B8E01045F1E4F90
:101D30008823A1F02AE037ED43E25CE3C301B2015E
:101D40000E949D1C181654F02AE037ED43E25CEB2C
:101D5000C301B2010E944E1B87FF11C0F70126810B
:101D6000378140855185F80160817181828193813D
:101D70000E94E91AF5016083718382839383F801DD
:101D80002081318142815381F7016681778180858D
:101D900091850E94E91A6B017C01FE01E359FD4F18
:101DA0006083718382839383F50120813181428135
:101DB00053810E94521B4B015C0120E030E0A901DD
:101DC0000E944E1B87FF04C0B7FAB094B7F8B094D6
:101DD0002AE939E949E95EE3C501B4010E944E1BD5
:101DE00018160CF12DEC3CEC4CEC5DE3C501B40194
:101DF0000E949D1C1816BCF420E030E0A901C70128
:101E0000B6010E949D1C18160CF48BC020E030E037
:101E1000A901C701B6010E944E1B87FD7DC040E0AD
:101E200050E0BA0187C020E030E040E05FE3C50148
:101E3000B4010E944E1B181614F12AE939E949E948
:101E40005EE3C501B4010E949D1C1816C4F420E095
:101E500030E0A901C701B6010E949D1C18160CF4C0
:101E600056C020E030E0A901C701B6010E944E1B18
:101E700087FFD5CF40E050E060E470EC5BC026E621
:101E800036E646E65FE3C501B4010E944E1B87FFBC
:101E90001DC020E030E040E05FE3C501B4010E94D6
:101EA0009D1C18169CF420E030E0A901C701B60182
:101EB0000E949D1C181684F120E030E0A901C701A2
:101EC000B6010E944E1B87FFAACF2BC026E636E63E
:101ED00046E65FE3C501B4010E949D1C87FD9FCFCC
:101EE00020E030E0A901C701B6010E949D1C181630
:101EF000ECF020E030E0A901C701B6010E944E1BC2
:101F000087FF8DCF40E050E060EE70EC13C040E002
:101F100050E060E470E40EC040E050E060EA70E43D
:101F200009C040E050E060EA70EC04C040E050E0DE
:101F300060EE70E49E012E503F4FCE0182599F4FBC
:101F4000DF91CF911F910F91FF90EF90DF90CF9095
:101F5000BF90AF909F908F907F906F905F904F90C9
:101F60000C9450082F923F924F925F926F927F9203
:101F70008F929F92AF92BF92CF92DF92EF92FF9299
:101F80000F931F93CF93DF93CDB7DEB76C970FB648
:101F9000F894DEBF0FBECDBF8C017C0125EBE21AA9
:101FA0002DEFF20A20E030EC49E754ECF7016081B4
:101FB0007181828193810E944E1B81110CC0F801B6
:101FC000E45EFE4F80819181A281B381F70180831D
:101FD0009183A283B383F801EE5BFD4F8081811171
:101FE0004FC0C8018F509F4F0E9435134B015C01B9
:101FF0001801F0EF2F1AFEEF3F0AF10140805180E7
:10200000628073802DEC3CEC4CE850E4C301B201DB
:102010000E949D1C1816A4F520E030EC49E754EC12
:10202000C501B4010E944E1B882351F16801F9EBF0
:10203000CF1AFDEFDF0A20E030E0A901F601608150
:102040007181828193810E944E1B81110BC0A3017B
:102050009201C501B4010E94E91AF60160837183FF
:1020600082839383F6012081318142815381C501AE
:10207000B4010E94E91AF101608371838283938322
:102080001801FEE62F0E311CC1010E947904F801EF
:10209000D18082E18D9DE00DF11D11243296DE018B
:1020A000119601900D928A95E1F789819A819801A4
:1020B0002E503F4F39018230910509F4A1C12CF413
:1020C000009799F00197D9F08BC28430910509F4FB
:1020D000CBC00CF46BC0059709F082C284E398E092
:1020E00090939B0480939A047BC280E699E090933E
:1020F0009B0480939A04D394F801D18271C24B81DE
:102100005C816D817E81C1010E94B904930140E030
:1021100050E0BA01C1010E945008930140E050E034
:10212000BA01C1010E949C07F701C080D180E28002
:10213000F38020E030EC49E754ECC701B6010E947F
:102140004E1B882331F09301B701A601C1010E9403
:102150000409F801E05FFE4FC080D180E280F38087
:102160008B809C80AD80BE8029E23CE54FE85DE33A
:10217000C501B4010E94E91A9B01AC01C701B60177
:102180000E949D1C18160CF02BC229E23CE54FE87A
:102190005DE3C501B4010E94EA1A9B01AC01C701CD
:1021A000B6010E944E1B87FF1BC225C17801F1EBCF
:1021B000EF1AFDEFFF0AF7018081918197FF08C0B8
:1021C00086B590E0918380831092820410928104FE
:1021D00026B540908104509082046FEF70E0F701C3
:1021E00080819181681B790B620F711D80E090E006
:1021F0000E94EB1B2DEB37E346E856E30E94A11C3F
:102200004B015C01B20180E090E00E94EB1B25E8ED
:1022100031EB45E85AE30E94A11C9B01AC01C501CA
:10222000B4010E94EA1AF801EF5AFD4F60837183EE
:10223000828393832F85388949895A890E949D1CFE
:1022400087FD0CC089E19CEFF70191838083109298
:10225000820410928104D394F801D1824B815C8175
:102260006D817E819301A4C1F801E850FF4F808108
:10227000843068F0BE016F5F7F4FC8010E94300D4F
:10228000BE016F5F7F4FC8010E94710E0DC040E01C
:1022900050E0BA01C1010E945008930140E050E0B3
:1022A000BA01C1010E949C074B815C816D817E81D6
:1022B0009301C1010E94B904F801E759FD4FC080A4
:1022C000D180E280F38027E137EB41ED58E3C7018D
:1022D000B6010E944E1B87FF83C127E137EB41ED1A
:1022E00058EBC701B6010E949D1C18160CF078C16E
:1022F000F801E359FD4FC080D180E280F38027E1EF
:1023000037EB41ED58E3C701B6010E944E1B87FF32
:1023100067C127E137EB41ED58EBC701B6010E94D9
:102320009D1C18160CF05CC17801F1EBEF1AFDEF63
:10233000FF0AF7018081918197FF08C086B590E080
:1023400091838083109282041092810426B5C090FC
:102350008104D09082046FEF70E0F7018081918159
:10236000681B790B620F711D80E090E00E94EB1BEF
:102370002DEB37E346E856E30E94A11C4B015C01BC
:10238000B60180E090E00E94EB1B25E831EB45E8C8
:102390005AE30E94A11C9B01AC01C501B4010E943B
:1023A000EA1AF801EF5AFD4F6083718382839383A9
:1023B0002F85388949895A890E949D1C87FD10C143
:1023C00089E19CEFF701918380831092820410923F
:1023D0008104F801EF59FD4F80E09CE3ACE1B6ECDD
:1023E00080839183A283B383F801EB59FD4F8083EF
:1023F0009183A283B383F80181818F5F8183F0C0D1
:102400002801FBEA4F1AFDEF5F0A20E03CE34CE1B4
:1024100056ECF20160817181828193810E944E1B92
:102420009801205F3E4F81110AC0F901808191819E
:10243000A281B381F20180839183A283B383F901E6
:10244000C080D180E280F380F20180809180A28000
:10245000B380A5019401C701B6010E94E91A6B8BF4
:102460007C8B8D8B9E8B2DEC3CEC4CEC5DE30E94C9
:102470004E1B87FF8CC02DEC3CEC4CEC5DEB6B896C
:102480007C898D899E890E949D1C18160CF07FC046
:102490009801215B3D4F3C8B2B8BF9018081918111
:1024A00097FF08C086B590E09183808310928204E4
:1024B0001092810426B58091810490918204988FB6
:1024C0008F8B6FEF70E0EB89FC8980819181681BB5
:1024D000790B620F711D80E090E00E94EB1B2DEBE9
:1024E00037E346E856E30E94A11C698F7A8F8B8FF1
:1024F0009C8F2F89388DB90180E090E00E94EB1B02
:1025000025E831EB45E85AE30E94A11C9B01AC0190
:10251000698D7A8D8B8D9C8D0E94EA1AF801EF5A95
:10252000FD4F608371838283938320E030E040E439
:1025300050E40E949D1C87FD2AC089E19CEFEB8935
:10254000FC8991838083109282041092810420E0A0
:1025500030E0A901C501B4010E949D1C181674F455
:102560002DEC3CEC4CE45EE3C701B6010E94E91A95
:10257000F201608371838283938309C080E09CE3CE
:10258000ACE1B6ECF20180839183A283B383F201C4
:10259000C080D180E280F38020E030E0A901C70153
:1025A000B6010E949D1C18163CF49301B701A601C8
:1025B000C1010E94B90406C08AEC98E090939B0484
:1025C00080939A04930140E050E0BA01C1010E9457
:1025D0005008930140E050E0BA01C1010E949C07FD
:1025E000B301C1010E94F80980E06C960FB6F8941F
:1025F000DEBF0FBECDBFDF91CF911F910F91FF9036
:10260000EF90DF90CF90BF90AF909F908F907F9092
:102610006F905F904F903F902F900895089560E0E5
:1026200070E0CB0108951F93CF93DF931F92CDB736
:10263000DEB769830E94340A80EC0E944F0A6981E8
:10264000862F0E944F0A0E94480A0E94340A81EC99
:102650000E944F0A0E94660A182F0E94480A812F82
:102660000F90DF91CF911F910895CF92DF92EF925B
:10267000FF92CF937C01C5E660E0C7010E9413136F
:1026800082FD07C0C150C1F760E070EC89E794ECAF
:1026900034C00E94340A80EC0E944F0A81E00E94FC
:1026A0004F0A0E94340A81EC0E944F0A0E945C0A81
:1026B000C82ED12CE12CF12CFE2CED2CDC2CCC24C2
:1026C0000E945C0AC82AFE2CED2CDC2CCC240E9433
:1026D000660AC82A0E94480AC701B60124E09695F6
:1026E0008795779567952A95D1F70E94EB1B20E097
:1026F00030E040E85DE30E94A11CCF91FF90EF9095
:10270000DF90CF9008951F93CF93DF93EC0115E6F0
:1027100060E0CE010E94131382FD07C01150C1F783
:1027200060E070EC89E794EC28C00E94340A80ECE9
:102730000E944F0A84E00E944F0A0E94340A81ECF2
:102740000E944F0A0E945C0A682F70E0D62FCC27A7
:102750000E94660AC82B0E94480ABE0144E0769592
:1027600067954A95E1F780E090E00E94EB1B20E03E
:1027700030E040E85DE30E94A11CDF91CF911F9102
:102780000895CF93DF9300D0CDB7DEB74A83698336
:102790000E94340A80EC0E944F0A6981862F0E94B1
:1027A0004F0A4A81842F0E944F0A0F900F90DF91A9
:1027B000CF910C94480ACF93DF93EC010E942B0A2F
:1027C0000E94340A883C19F10E94480A6CE0CE014C
:1027D0000E941313843CE9F440E066E2CE010E94BB
:1027E000C11348EB66E2CE010E94C11347E063E1EA
:1027F000CE010E94C11340E06DE2CE010E94C113E0
:1028000049EB66E2CE010E94C11380E003C081E083
:1028100001C082E0DF91CF910895CF93DF93EC0167
:102820004BEB66E20E94C11349EB66E2CE01DF91F9
:10283000CF910C94C113CF93C62F9C0140E050E080
:1028400084E0220F331F441F551F8A95D1F760E0A3
:1028500074E284EF90E00E94C11A21503109309354
:10286000C5002093C4008091C2008E608093C20096
:102870008091C10088618093C100CC2331F08091A8
:10288000C100806C8093C1007894CF91089590919D
:10289000C00095FFFCCF8093C6001092B804089545
:1028A0008091C00087FFFCCF8091C60008951F92E1
:1028B0000F920FB60F9211248F938091C6008093D0
:1028C000BA0481E08093B9048F910F900FBE0F90EE
:1028D0001F9018951F920F920FB60F9211248F938D
:1028E00081E08093B8048F910F900FBE0F901F90DE
:1028F0001895FC01108211821282138214821582B3
:102900001682178210861186128613861486158603
:10291000168617860895089580E090E00895BF9286
:10292000CF92DF92EF92FF920F931F93CF93DF939B
:102930008B01FB0180810E944714E801C75FDE4FD5
:102940001882F801F1808F2D0E944714EF2DFF2788
:10295000E7FDF0958881E827E55FFE4F8081888359
:10296000F801F2808F2D0E944714EF2DFF27E7FD1D
:10297000F0958881E827E55FFE4F80818883F80124
:10298000F3808F2D0E944714EF2DFF27E7FDF09570
:102990008881E827E55FFE4F80818883F801F48015
:1029A0008F2D0E944714EF2DFF27E7FDF0958881BA
:1029B000E827E55FFE4F80818883F801C480D580D9
:1029C000E680F780CD2CDE2CEF2CFF248C2D0E948E
:1029D0004714EC2DFF27E7FDF0958881E827E55F98
:1029E000FE4F80818883F801C480D580E680F7801F
:1029F0006701EE24FF248C2D0E944714EC2DFF2745
:102A0000E7FDF0958881E827E55FFE4F80818883A8
:102A1000F801C480D580E680F780CF2CDD24EE2439
:102A2000FF248C2D0E944714EC2DFF27E7FDF09525
:102A30008881E827E55FFE4F80818883F8018281E5
:102A40009381099760F48881DF91CF911F910F9155
:102A5000FF90EF90DF90CF90BF900C9447146801E7
:102A6000FAE0CF0ED11C76012E2D2C1930E0F801A2
:102A70008281938108972817390728F7F701B190C9
:102A80007F018B2D0E944714EB2DFF27E7FDF0956A
:102A90008881E827E55FFE4F80818883E5CFCF936B
:102AA000DF93CDB7DEB7CA50D1400FB6F894DEBF82
:102AB0000FBECDBF2CE329834A8328E030E03C835E
:102AC0002B83FB0144815581668177814D835E8331
:102AD0006F837887BE016F5F7F4F0E948F14C65F40
:102AE000DE4F0FB6F894DEBF0FBECDBFDF91CF91A2
:102AF00008950F931F93CF93DF93EA018091BD0454
:102B000090E08730910508F0CBC08C5C9F4FFC01B2
:102B10000C94E31A6C3309F0C3C081E08093BD04C8
:102B2000688384EB8093BC04BBC0A091BC04A6273F
:102B3000B0E0A55FBE4F8C918093BC04862F887F48
:102B4000803241F582E08093BD0469839FC0A091EB
:102B5000BC04A627B0E0A55FBE4F8C918093BC0457
:102B60008091BB048F5F8093BB04062F10E08230FE
:102B700018F41B830A8394C0102F00278A819B813D
:102B8000080F191F1B830A83085011090F3F1105F5
:102B900021F018F01092BD0483C083E075C0A091AD
:102BA000BC04A627B0E0A55FBE4F8C918093BC0407
:102BB0004091BB044F5F4093BB04423091F060F4FE
:102BC000413009F06DC0062F10E020E030E00C83AA
:102BD0001D832E833F8364C0433061F04430F1F0A5
:102BE0005FC0062F10E020E030E0322F212F102FA1
:102BF000002707C0062F10E020E030E098011127E1
:102C000000278C819D81AE81BF81800F911FA21F03
:102C1000B31F8C839D83AE83BF8342C0062F10E019
:102C200020E030E0302F2227112700278C819D8162
:102C3000AE81BF81800F911FA21FB31F8C839D8324
:102C4000AE83BF838A819B810897E9F04093BD04DE
:102C50001DC0A091BC04A627B0E0A55FBE4F8C911B
:102C60008093BC042091BB042F5F2093BB0430E011
:102C7000DA01A20FB31F19966C938A819B81089782
:102C80002817390768F086E08093BD041092BB04D2
:102C900007C0DA01A75FBE4F6C9387E08093BD0445
:102CA0008091BD04873011F080E00BC01092BD040C
:102CB0009091BC04DE01A75FBE4F8C919813F4CFB6
:102CC0008A81DF91CF911F910F9108952F923F92AA
:102CD0004F925F926F927F928F929F92AF92BF922C
:102CE000CF92DF92EF92FF920F931F93CF93DF93D8
:102CF000CDB7DEB729970FB6F894DEBF0FBECDBFB4
:102D00001C014B0100ED17E080E09091B904911196
:102D100004C08F5F833371F0F8CF823358F4609131
:102D2000BA041092B9044EEB54E0C1010E94791527
:102D3000811108C0015011090115110529F780E022
:102D400090E0D9C28091C2049091C304A091C404C0
:102D5000B091C504823C2BEF92072CEEA2072CE623
:102D6000B20709F42BC108F04CC08230E9E29E079B
:102D7000EEE7AE07EFE2BE0709F4BCC008F5843009
:102D80002AE9920727EDA2072EE0B20709F416C13F
:102D900038F486319A4AA743BB4009F40FC19FC259
:102DA0008E3CF8E49F07F7E5AF07FAE1BF0709F4A7
:102DB00010C184379B4EAA47BB4109F4FFC08FC2A4
:102DC0008E3438EC93073CEBA30730E4B30709F4E7
:102DD00000C138F4863E954DAA4DB34309F4A2C014
:102DE0007EC2823E25E592072CE9A20726E6B207BD
:102DF00009F46BC28A359B4BA743B74609F47AC0E6
:102E00006EC28A3BE4E89E07E5E2AE07EEEBBE0742
:102E100009F45BC208F04EC08E3722E192072AE621
:102E2000A2072BE9B20709F4C9C080F58A3091489E
:102E3000AD42BC4809F053C28091CA049091CB04C2
:102E4000A091CC04B091CD04F40182AF93AFA4AFB4
:102E5000B5AFFE968091CE049091CF04A091D0049E
:102E6000B091D10480839183A283B383F401EE5B9C
:102E7000FF4F8091D2049091D304A091D404B091DB
:102E8000D50480839183A283B38329C28630FEE078
:102E90009F07FCE3AF07FDEABF0709F469C08A3862
:102EA000974FA74CB84B09F01AC28091E204F40185
:102EB000808315C2863935E3930738E0A30732EDE6
:102EC000B30709F4CAC138F484359D42AF4FB54CFD
:102ED00009F474C004C2843629ED920720EEA207DB
:102EE00027EDB207F9F0863B9342A34AB24E09F4AC
:102EF00070C0F5C1D1011F96EC911F97F0E0E2542C
:102F0000FB4F8285823031F0833041F08111E7C17F
:102F100081E005C083E0F1018087E1C1D10118960D
:102F20008C93DDC18091DA049091DB04A091DC04E4
:102F3000B091DD04F40182A393A3A4A3B5A380916F
:102F4000DE049091DF04A091E004B091E10486A337
:102F500097A3A0A7B1A78091E2049091E304A09168
:102F6000E404B091E50482A793A7A4A7B5A7B7C1CD
:102F70008091CA049091CB04A091CC04B091CD046F
:102F8000F40186A797A7A0ABB1AB8091CE04909136
:102F9000CF04A091D004B091D10482AB93ABA4AB89
:102FA000B5AB8091D2049091D304A091D404B09198
:102FB000D50486AB97ABA0AFB1AF91C18091CA04E5
:102FC000D40114968C9314978091CB0415968C930E
:102FD00086C16101FCE4CF0ED11CD601FC908101B9
:102FE000B4E0FB9E000D111D1124005F1F4F609186
:102FF000CA047091CB048091CC049091CD040E94BE
:10300000ED1B20E836E948E15BE40E94521BF80121
:103010006083718382839383F2E0EF2EEF0CD601FD
:10302000EC92F3948101B4E0FB9E000D111D11247C
:103030000C5D1F4F6091CE047091CF048091D0043D
:103040009091D1040E94ED1B20E836E948E15BE451
:103050000E94521BF8016083718382839383F4E0A2
:10306000FE1510F4D6011C92F10125E030E08089B4
:103070009189A289B38980AF91AFA2AFB3AF21503C
:10308000310934962115310591F73D822C8280E07B
:10309000F101E15BFF4FFB83EA8300E010E08F5F0B
:1030A00089838981800F853090F5AC81BD81D89668
:1030B0004D905D906D907C90DB975101B4E08B9FBB
:1030C000A00CB11C1124F501C0ACD1ACE2ACF3AC46
:1030D000A7019601C301B2010E949D1C1816A4F419
:1030E000AA81BB81CD92DD92ED92FC921397F501FE
:1030F00040AE51AE62AE73AEAC81BD81D896CD927A
:10310000DD92ED92FC92DB970F5F1F4FCACFEC81EF
:10311000FD813496FD83EC83F981F53011F08F2F1A
:10312000BCCF9101225B3F4F3B832A83D9018C9313
:10313000F101E05CFF4FFD83EC8380819181A281EE
:10314000B381F401868B978BA08FB18FF10125E0BD
:1031500030E080899189A289B38980AF91AFA2AF15
:10316000B3AF2150310934962115310591F7810112
:10317000B12C9101215B3F4F3F832E831986188626
:10318000B394B9828885F9818F0F853098F5D8017D
:10319000D8964D905D906D907C90DB975101B4E096
:1031A0008B9FA00CB11C1124F501C0ACD1ACE2ACDA
:1031B000F3ACA7019601C301B2010E949D1C181631
:1031C0009CF4AE81BF81CD92DD92ED92FC9213977B
:1031D000F50140AE51AE62AE73AED801D896CD9235
:1031E000DD92ED92FC92DB97E885F9853196F987BF
:1031F000E887C8CF0C5F1F4FF53011F0BF2EBECF50
:10320000AA81BB818C93EC81FD8180819181A28117
:10321000B381F401828F938FA48FB58F8091EF04D7
:1032200086838091EE0487838091DA049091DB0499
:10323000A091DC04B091DD0480879187A287B387D9
:103240008091DE049091DF04A091E004B091E1044C
:1032500084879587A687B78742C020E030E04AE799
:1032600054E46091CA047091CB048091CC04909195
:10327000CD040E94A11C0E94BA1BD40151967C93DC
:103280006E93509720E030E048EC52E46091CE0419
:103290007091CF048091D0049091D1040E94A11C20
:1032A0000E94BA1BF401738B628B6091DE047091F3
:1032B000DF048091E0049091E1040E94BA1BD401E4
:1032C00055967C936E9354970AC080912D05F40116
:1032D000808380912E05818380912F058283809148
:1032E000BF04823231F443E26EEB74E0C1010E940C
:1032F0004F1581E090E029960FB6F894DEBF0FBE1F
:10330000CDBFDF91CF911F910F91FF90EF90DF9094
:10331000CF90BF90AF909F908F907F906F905F9075
:103320004F903F902F900895A1E0B1E0E6E0F1E0EA
:1033300040E081E090E05AB1ED019C010C9002C0A8
:10334000220F331F0A94E2F7209525232AB944302F
:1033500059F057B19C01008002C0220F331F0A941C
:10336000E2F7522B57B90AC05AB19C01008002C043
:10337000220F331F0A94E2F7522B5AB95BB1119610
:103380009C01088002C0220F331F0A94E2F7522BDF
:103390005BB94F5F3196453071F6259A8091810077
:1033A0008A608093810084E499E9909389008093F6
:1033B0008800C0EDD7E0D0938B00C0938A00809145
:1033C0006F00866080936F0085B5836085BD8091B6
:1033D0006E00816080936E0080916B0081608093AD
:1033E0006B0080916D008C6780936D008091680008
:1033F00085608093680061E080E096E90E941B147C
:103400008FEF8093B60486E89BE0909399048093B5
:103410009804D0939B04C0939A048CE89AE090930C
:103420009D0480939C0488EB9BE090939F04809381
:103430009E049093A1048093A00480E090E020E09B
:1034400030E0AC01440F551FFA01E856FB4F608194
:103450007181260F371FFA01E257FB4F318320831A
:1034600001968530910569F78EE092E00E94990BF4
:103470007894C8EBDBE088EEE82E83E0F82E01E0DC
:1034800010E092E0C92ED12C8EE092E00E94DE0C7A
:1034900080910C0290910D0281309105D1F0823023
:1034A000910569F1892B09F05FC080918A049091A0
:1034B0008B04853E9C4020F010930D0200930C027B
:1034C00080918D04882301F38EE092E00E94DB0B53
:1034D00013C080918A0490918B04843C994020F41D
:1034E00010920D0210920C0280918D04833060F2D4
:1034F0008EE092E00E94B20F10928D04C5CFD0935F
:103500009904C0939804F0929B04E0929A04D0939B
:103510009D04C0939C04D0939F04C0939E04D093B9
:10352000A104C093A00480918A0490918B04853EED
:103530009C4028F010930D0200930C02A5CF8091BF
:103540008A0490918B04843C994008F09DCF80912F
:103550008A0490918B04893E934008F495CF109291
:103560000D0210920C0290CFD0920D02C0920C026C
:103570008BCF8EE092E00C94700A8CEA92E00C946F
:103580008B14A1E21A2EAA1BBB1BFD010DC0AA1FA2
:10359000BB1FEE1FFF1FA217B307E407F50720F0BC
:1035A000A21BB30BE40BF50B661F771F881F991F37
:1035B0001A9469F760957095809590959B01AC0180
:1035C000BD01CF010895EE0FFF1F0590F491E02D8E
:1035D00009945058BB27AA270ED075C166D130F088
:1035E0006BD120F031F49F3F11F41EF45BC10EF457
:1035F000E095E7FB51C1E92F77D180F3BA17620755
:1036000073078407950718F071F49EF58FC10EF4C7
:10361000E0950B2EBA2FA02D0B01B90190010C01E2
:10362000CA01A0011124FF27591B99F0593F50F4FA
:10363000503E68F11A16F040A22F232F342F442752
:10364000585FF3CF469537952795A795F04053954A
:10365000C9F77EF41F16BA0B620B730B840BBAF01A
:103660009150A1F0FF0FBB1F661F771F881FC2F785
:103670000EC0BA0F621F731F841F48F48795779599
:103680006795B795F7959E3F08F0B3CF9395880F50
:1036900008F09927EE0F979587950895D9D008F4EB
:1036A00081E008950CD00FC107D140F0FED030F07A
:1036B00021F45F3F19F0F0C0511139C1F3C014D1AA
:1036C00098F39923C9F35523B1F3951B550BBB27E9
:1036D000AA2762177307840738F09F5F5F4F220F96
:1036E000331F441FAA1FA9F333D00E2E3AF0E0E88F
:1036F00030D091505040E695001CCAF729D0FE2FDB
:1037000027D0660F771F881FBB1F2617370748076C
:10371000AB07B0E809F0BB0B802DBF01FF27935822
:103720005F4F2AF09E3F510568F0B6C000C15F3F71
:10373000ECF3983EDCF3869577956795B795F7950A
:103740009F5FC9F7880F911D9695879597F9089502
:10375000E1E0660F771F881FBB1F6217730784079E
:10376000BA0720F0621B730B840BBA0BEE1F88F7AD
:10377000E095089504D06894B111D9C00895BCD0E3
:1037800088F09F5790F0B92F9927B751A0F0D1F04A
:10379000660F771F881F991F1AF0BA95C9F712C0D4
:1037A000B13081F0C3D0B1E00895C0C0672F782F49
:1037B0008827B85F39F0B93FCCF386957795679540
:1037C000B395D9F73EF490958095709561957F4FAC
:1037D0008F4F9F4F0895E89409C097FB3EF4909552
:1037E0008095709561957F4F8F4F9F4F9923A9F0DA
:1037F000F92F96E9BB279395F69587957795679569
:10380000B795F111F8CFFAF4BB0F11F460FF1BC0AC
:103810006F5F7F4F8F4F9F4F16C0882311F096E93F
:1038200011C0772321F09EE8872F762F05C06623ED
:1038300071F096E8862F70E060E02AF09A95660FA6
:10384000771F881FDAF7880F9695879597F908955F
:10385000990F0008550FAA0BE0E8FEEF16161706A1
:10386000E807F907C0F012161306E407F50798F009
:10387000621B730B840B950B39F40A2661F0232B22
:10388000242B252B21F408950A2609F4A140A6959E
:103890008FEF811D811D089597F99F6780E870E083
:1038A00060E008959FEF80EC089500240A941616B6
:1038B000170618060906089500240A94121613061E
:1038C000140605060895092E0394000C11F48823AC
:1038D00052F0BB0F40F4BF2B11F460FF04C06F5FC8
:1038E0007F4F8F4F9F4F089557FD9058440F551F9E
:1038F00059F05F3F71F04795880F97FB991F61F072
:103900009F3F79F087950895121613061406551FE8
:10391000F2CF4695F1DF08C0161617061806991F54
:10392000F1CF86957105610508940895E894BB2749
:1039300066277727CB0197F908958ADF08F48FEF80
:1039400008950BD0C0CFB1DF28F0B6DF18F0952373
:1039500009F0A2CFA7CF1124EACFC6DFA0F3959F2D
:10396000D1F3950F50E0551F629FF001729FBB2766
:10397000F00DB11D639FAA27F00DB11DAA1F649F12
:103980006627B00DA11D661F829F2227B00DA11DC5
:10399000621F739FB00DA11D621F839FA00D611D4B
:1039A000221F749F3327A00D611D231F849F600D6C
:1039B000211D822F762F6A2F11249F5750408AF0A5
:1039C000E1F088234AF0EE0FFF1FBB1F661F771F31
:1039D000881F91505040A9F79E3F510570F05CCF71
:1039E000A6CF5F3FECF3983EDCF38695779567951D
:1039F000B795F795E7959F5FC1F7FE2B880F911D4F
:103A00009695879597F9089510E0C8E7D0E004C02F
:103A1000FE010E94E51A2296CA37D107C9F7F89429
:023A2000FFCFD6
:103A2200FF0203040506000102030700070E091C3A
:103A32001B1215383F363124232A2D70777E796C7C
:103A42006B6265484F464154535A5DE0E7EEE9FC2C
:103A5200FBF2F5D8DFD6D1C4C3CACD90979E998C1C
:103A62008B8285A8AFA6A1B4B3BABDC7C0C9CEDB4D
:103A7200DCD5D2FFF8F1F6E3E4EDEAB7B0B9BEABBC
:103A8200ACA5A28F88818693949D9A2720292E3BEC
:103A92003C35321F18111603040D0A5750595E4B5C
:103AA2004C45426F68616673747D7A898E87809512
:103AB200929B9CB1B6BFB8ADAAA3A4F9FEF7F0E5FC
:103AC200E2EBECC1C6CFC8DDDAD3D4696E676075AC
:103AD200727B7C51565F584D4A4344191E1710059C
:103AE200020B0C21262F283D3A33344E49404752CF
:103AF200555C5B7671787F6A6D64633E393037223C
:103B0200252C2B0601080F1A1D1413AEA9A0A7B26B
:103B1200B5BCBB9691989F8A8D8483DED9D0D7C2DB
:0C3B2200C5CCCBE6E1E8EFFAFDF4F300BF
:00000001FF
