:100000000C943D000C9465000C9465000C94A201C6
:100010000C9465000C940B020C9465000C94650024
:100020000C9465000C9465000C9465000C946700BA
:100030000C9400010C9465000C9465000C94650010
:100040000C94E5030C9465000C9409090C9465006C
:100050000C941C090C9465000C9465000C946500CC
:100060000C9465000C9465003C0A470A590A810A01
:10007000DB0ADB0AFB0A1A0E1E0E11241FBECFEF8D
:10008000D8E0DEBFCDBF12E0A0E0B1E0E4EEF0E2E8
:1000900002C005900D92AC30B107D9F714E0ACE086
:1000A000B2E001C01D92AF3EB107E1F710E0C8E732
:1000B000D0E004C02297FE010E94460EC637D10749
:1000C000C9F70E94030D0C9465100C9400001F9258
:1000D0000F920FB60F9211242F933F938F939F93FC
:1000E0008091BF039091C003892B49F081E08093F8
:1000F000DD0381E090E090938B0080938A008091F3
:10010000BF039091C0039093B6038093B503809191
:10011000B5039091B6032091C1033091C203820FC1
:10012000931F08969093B8038093B7038091B70309
:100130009091B8032091C3033091C403820F931FA1
:1001400008969093BA038093B9038091B903909174
:10015000BA032091C5033091C603820F931F0896FE
:100160009093BC038093BB038091BB039091BC032D
:100170002091C7033091C803820F931F0896909374
:10018000BE038093BD038091B4038F5F8093B4035B
:1001900080910C0290910D02029749F18091B30376
:1001A0008F5F8093B303853010F182E090E09093ED
:1001B0000D0280930C021092B2031092B10388EBEF
:1001C0009BE09093C0038093BF0328EE33E030930D
:1001D000C2032093C1039093C4038093C3039093FD
:1001E000C6038093C5039093C8038093C7039F9170
:1001F0008F913F912F910F900FBE0F901F901895E8
:100200001F920F920FB60F9211242F933F938F934B
:100210009F93EF93FF938091DD0318160CF087C036
:100220008091DD038630BCF0E091DD032BB1FF2728
:10023000E7FDF095EC5FFE4F81E090E0008002C0AA
:10024000880F991F0A94E2F78095909530E08223F9
:1002500093238BB91AC08091DD038230B4F0E09112
:10026000DD0328B1FF27E7FDF095EC5FFE4F81E04D
:1002700090E0008002C0880F991F0A94E2F78095F1
:10028000909530E08223932388B98091DD038630F6
:100290000CF043C0E091DD03EE0FFF0BE354FC4F85
:1002A00080819181892B99F1E091DD03EE0FFF0BA5
:1002B000ED54FC4F8081918190938B0080938A0054
:1002C0008091DD03E091DD0385308CF428B1FF27B8
:1002D000E7FDF095EB5FFE4F81E090E0008002C00B
:1002E000880F991F0A94E2F7822B88B910C02BB1AE
:1002F000FF27E7FDF095EB5FFE4F81E090E0008087
:1003000002C0880F991F0A94E2F7822B8BB9809163
:10031000DD038F5F8093DD030AC08091BF0390915E
:10032000C00390938B0080938A001092DD03FF91AD
:10033000EF919F918F913F912F910F900FBE0F9052
:100340001F9018951F920F920FB60F921124CF9203
:10035000DF92EF92FF922F933F934F935F936F93B0
:100360007F938F939F93AF93BF93EF93FF93189BCC
:1003700009C086B590E09093B0038093AF031092CC
:10038000AE0334C066B52091AF033091B0038091C5
:10039000AE0370E0621B730B61507F4F90E00197DA
:1003A0004FEF489F9001499F300D1124620F731F3A
:1003B000660F771F660F771F80E090E00E944C0F5A
:1003C00020E030E04AE754E40E94B30E6B017C0168
:1003D0002AE939E949E950E40E94AF0E87FF06C0D7
:1003E000B701A6018EE092E00E94B807FF91EF915D
:1003F000BF91AF919F918F917F916F915F914F913D
:100400003F912F91FF90EF90DF90CF900F900FBE14
:100410000F901F9018951F920F920FB60F921124F4
:100420002F933F934F935F936F937F938F939F93FC
:10043000AF93BF93EF93FF9329B1809100012827D9
:1004400089B1809300011092B30322FF53C04A9BED
:1004500009C080918400909185009093CA03809395
:10046000C90348C04A9946C0809184009091850094
:100470004091C9035091CA03E0918400F091850036
:100480006091C9037091CA03E617F70770F4609191
:10049000840070918500809188009091890040913E
:1004A000C9035091CA03860F971F841B950BA0E0C8
:1004B000B0E0AC01BD0141505109610971094339F6
:1004C000514161057105B0F440910C0250910D024B
:1004D000452B81F44091BF035091C003840F951FB9
:1004E000A11DB11DB595A795979587959093C003CC
:1004F0008093BF0323FF53C04B9B09C080918400AE
:10050000909185009093CC038093CB0348C04B9986
:1005100046C080918400909185004091CB0350911A
:10052000CC03E0918400F09185006091CB03709141
:10053000CC03E617F70770F4609184007091850092
:1005400080918800909189004091CB035091CC0319
:10055000860F971F841B950BA0E0B0E0AC01BD0196
:1005600041505109610971094339514161057105D2
:10057000B0F440910C0250910D02452B81F4409152
:10058000C1035091C203840F951FA11DB11DB595E4
:10059000A795979587959093C2038093C10324FFF5
:1005A00053C04C9B09C0809184009091850090932A
:1005B000CE038093CD0348C04C9946C080918400FF
:1005C000909185004091CD035091CE03E09184003D
:1005D000F09185006091CD037091CE03E617F70787
:1005E00070F46091840070918500809188009091F2
:1005F00089004091CD035091CE03860F971F841B35
:10060000950BA0E0B0E0AC01BD014150510961097A
:1006100071094339514161057105B0F440910C02F3
:1006200050910D02452B81F44091C3035091C403B6
:10063000840F951FA11DB11DB595A7959795879519
:100640009093C4038093C30325FF53C04D9B09C0FF
:1006500080918400909185009093D0038093CF0384
:1006600048C04D9946C0809184009091850040918A
:10067000CF035091D003E0918400F0918500609108
:10068000CF037091D003E617F70770F460918400F0
:100690007091850080918800909189004091CF03EE
:1006A0005091D003860F971F841B950BA0E0B0E0FC
:1006B000AC01BD01415051096109710943395141F2
:1006C00061057105B0F440910C0250910D02452B6B
:1006D00081F44091C5035091C603840F951FA11D5D
:1006E000B11DB595A795979587959093C60380936F
:1006F000C50326FF59C04E9B09C08091840090918C
:1007000085009093D2038093D1034EC04E994CC084
:1007100080918400909185002091D1033091D20383
:1007200060918400709185004091D1035091D20373
:100730006417750770F44091840050918500809192
:100740008800909189002091D1033091D203840FC9
:10075000951F821B930BA0E0B0E0AC01BD0141509E
:100760005109610971094339514161057105E0F48D
:1007700020910C0230910D02232B91F42091C7039C
:100780003091C803AC01BD01420F531F611D711DA3
:1007900075956795579547955093C8034093C70340
:1007A0009093B2038093B103FF91EF91BF91AF910A
:1007B0009F918F917F916F915F914F913F912F9179
:1007C0000F900FBE0F901F9018951F920F920FB6AB
:1007D0000F9211248F938091AE038F5F8093AE03AD
:1007E0008F910F900FBE0F901F9018950895089548
:1007F0008F929F92AF92BF92CF92DF92EF92FF9231
:10080000CF93DF93CB01BA01A090C103B090C20394
:10081000F901228D338D448D558D0E944A0E6B0156
:100820007C01B50180E090E00E944C0F4B015C011F
:1008300020E030E040E650E4C701B6010E9402101B
:100840009B01AC01C501B4010E944B0E0E94200F18
:10085000EB016832FAE07F07D8F0C7318DE0D807A6
:10086000D0F42AE939E949E95EEBC701B6010E94F3
:10087000FE0F181694F42AE939E949E95EE3C70145
:10088000B6010E94AF0E87FF08C0C4E5DBE005C0DB
:10089000C8E2DAE002C0C6E1DDE0D093C203C09353
:1008A000C103DF91CF91FF90EF90DF90CF90BF9089
:1008B000AF909F908F9008958F929F92AF92BF922A
:1008C000CF92DF92EF92FF92CF93DF934A015B01C9
:1008D000E9016091C3037091C40380E090E00E943D
:1008E0004C0F6B017C01A50194016AA17BA18CA135
:1008F0009DA10E944A0E2DEC3CEC4CE45FE30E946B
:1009000002109B01AC01C701B6010E944B0E0E9470
:10091000200F643C29E0720738F06D3A8DE07807CB
:1009200028F06CEA7DE002C064EC79E07093C403C7
:100930006093C303DF91CF91FF90EF90DF90CF9052
:10094000BF90AF909F908F9008958F929F92AF929B
:10095000BF92CF92DF92EF92FF92CF93DF934A0143
:100960005B01E9016091C5037091C60380E090E0EE
:100970000E944C0F6B017C01A50194016E8D7F8D4F
:1009800088A199A10E944A0E2DEC3CEC4CE45FE357
:100990000E9402109B01AC01C701B6010E944B0EE0
:1009A0000E94200F643C29E0720738F06D3A8DE018
:1009B000780728F06CEA7DE002C064EC79E070937F
:1009C000C6036093C503DF91CF91FF90EF90DF9056
:1009D000CF90BF90AF909F908F9008958F929F92ED
:1009E000AF92BF92CF92DF92EF92FF92CF93DF93BD
:1009F0004A015B01E9016091BF037091C00380E08F
:100A000090E00E944C0F6B017C01A50194016EA146
:100A10007FA188A599A50E944A0E20E030E040E021
:100A20005FE30E9402109B01AC01C701B6010E9466
:100A30004B0E0E94200F643C29E0720738F06D3A9B
:100A40008DE0780728F06CEA7DE002C064EC79E084
:100A50007093C0036093BF03DF91CF91FF90EF903D
:100A6000DF90CF90BF90AF909F908F9008950895A2
:100A70001092B90080E28093B80084E08093BC00BB
:100A8000089584EA8093BC0080E08F5F893229F06A
:100A90009091BC0097FFF9CF02C088EC089588328E
:100AA000E0F78091B900887F089584E98093BC00C5
:100AB0008091B900887F08958093BB0084E880937B
:100AC000BC008091BC0087FFFCCF8091B900887F7B
:100AD000089584EC8093BC008091BC0087FFFCCF1C
:100AE0008091BB00089584E88093BC008091BC0095
:100AF00087FFFCCF8091BB000895CF93DF93EC017B
:100B0000C2960E94F603CE01C6960E942B09CE0122
:100B10008A5B9F4F0E94C80783E0888319821B82EB
:100B20001A8284E190E09D838C831F821E82198645
:100B300018861BA61AA69DA78CA71FA61EA619AAD3
:100B400018AA22E030E03B872A879D878C871F8682
:100B50001E86198A188A81E090E09B8B8A8B1D8AF9
:100B60001C8A1F8A1E8A198E188EFE01E95BFF4FB0
:100B70001082FE01E85BFF4F1082FE01E65BFF4F33
:100B80001082FE01E55BFF4F1082FE01E45BFF4F28
:100B90001082FE01EB59FF4F1082118212821382E4
:100BA000FE01E759FF4F1082118212821382FE016B
:100BB000E359FF4F1082118212821382FE01E75A1D
:100BC000FF4F1082118212821382FE01E35AFF4FFF
:100BD0001082118212821382FE01E35BFF4F1082AA
:100BE000FE01E25BFF4F1082FE01E15BFF4F1182CD
:100BF0001082FE01EF59FF4F108211821282138280
:100C0000FE01EF5AFF4F11821082FE01ED5AFF4F95
:100C100011821082FE01EB5AFF4F11821082C95AD5
:100C2000DF4F19821882DF91CF910895CF93DF9320
:100C3000EC018A5B9F4F0E949508CD56DE4F8823BA
:100C400019F081E0888301C01882DF91CF91089567
:100C50004F925F926F927F928F929F92AF92BF92CC
:100C6000CF92DF92EF92FF920F931F93CF93DF9378
:100C7000EC018C01095B1F4FB801C6960E94180B4E
:100C8000CE018A5B9F4F0E94EF076B017C014E01F2
:100C900021E6820E911CF4014080518062807380B5
:100CA0002DEC3CEC4CE850E4C301B2010E94FE0F75
:100CB0001816A4F520E030EC49E754ECC701B60162
:100CC0000E94AF0E882351F15E01F8E6AF1AFEEFE5
:100CD000BF0A20E030E0A901F501608171818281C5
:100CE00093810E94AF0E81110BC0A3019201C70135
:100CF000B6010E944A0EF50160837183828393835B
:100D0000F5012081318142815381C701B6010E94E2
:100D10004A0EF40160837183828393838091C503BB
:100D20009091C60383329B4038F08091C503909127
:100D3000C60386389B40A0F18091C3039091C40301
:100D400083329B4038F08091C3039091C40386386E
:100D50009B4078F18091BF039091C00383329B4008
:100D600088F18091BF039091C00386389B4050F575
:100D7000980140E050E0BA01CE01C296DF91CF91D8
:100D80001F910F91FF90EF90DF90CF90BF90AF90A9
:100D90009F908F907F906F905F904F900C94EE0497
:100DA000980140E050E0BA01CE01C2960E94A5042D
:100DB000C3CF980140E050E0BA01CE01C2960E9434
:100DC0005C04C8CFDF91CF911F910F91FF90EF90FE
:100DD000DF90CF90BF90AF909F908F907F906F905B
:100DE0005F904F9008954F925F926F927F928F9293
:100DF0009F92AF92BF92CF92DF92EF92FF920F93AA
:100E00001F93CF93DF93EC015C0187E4A80EB11C24
:100E1000B501CE01C6960E94180B8E010F591F4FC7
:100E2000F801F080E180D28083810E94F9088D2D45
:100E30000E94F9088E2D0E94F9088F2D0E94F90852
:100E4000CE018A5B9F4F0E94EF076B017C01F80186
:100E500040805180628073802DEC3CEC4CE850E483
:100E6000C301B2010E94FE0F1816A4F520E030EC79
:100E700049E754ECC701B6010E94AF0E882351F137
:100E80004E01F8E68F1AFEEF9F0A20E030E0A9013C
:100E9000F40160817181828193810E94AF0E811182
:100EA0000BC0A3019201C701B6010E944A0EF401D2
:100EB0006083718382839383F40120813181428135
:100EC0005381C701B6010E944A0EF8016083718305
:100ED000828393838981FE0198E0899FE00DF11D53
:100EE000112482819381892BF1F4E296950140E0EF
:100EF00050E060EC7FE3CE010E94F803950140E0F2
:100F000050E0BA01CE010E94A504950140E050E0F6
:100F1000BA01CE010E945C04950140E050E0BA01A4
:100F2000CE010E94EE0480E0DF91CF911F910F91DE
:100F3000FF90EF90DF90CF90BF90AF909F908F90F9
:100F40007F906F905F904F900895FC01ED5AFF4F96
:100F5000208131812F30310548F0FC01E35BFF4FE8
:100F600081E09081973018F080E0089581E0089545
:100F70008F599F4FFC01408351836283738308958F
:100F800088569E4FFC01408351836283738308958A
:100F9000089560E070E0CB0108951F93CF93DF9335
:100FA0001F92CDB7DEB769830E94410580EC0E9495
:100FB0005C056981862F0E945C050E9455050E9490
:100FC000410581EC0E945C050E947305182F0E9468
:100FD0005505812F0F90DF91CF911F910895CF92EA
:100FE000DF92EF92FF92CF937C01C5E660E0C701EC
:100FF0000E94CD0782FD07C0C150C1F760E070ECD0
:1010000089E794EC34C00E94410580EC0E945C05A5
:1010100081E00E945C050E94410581EC0E945C0514
:101020000E946905C82ED12CE12CF12CFE2CED2C50
:10103000DC2CCC240E946905C82AFE2CED2CDC2C6B
:10104000CC240E947305C82A0E945505C701B60129
:1010500024E096958795779567952A95D1F70E9414
:101060004C0F20E030E040E85DE30E940210CF9199
:10107000FF90EF90DF90CF9008951F93CF93DF9371
:10108000EC0115E660E0CE010E94CD0782FD07C0AD
:101090001150C1F760E070EC89E794EC28C00E9421
:1010A000410580EC0E945C0584E00E945C050E9482
:1010B000410581EC0E945C050E946905682F70E083
:1010C000D62FCC270E947305C82B0E945505BE0160
:1010D00044E0769567954A95E1F780E090E00E94BC
:1010E0004C0F20E030E040E85DE30E940210DF9109
:1010F000CF911F910895CF93DF9300D0CDB7DEB786
:101100004A8369830E94410580EC0E945C056981E5
:10111000862F0E945C054A81842F0E945C050F90F7
:101120000F90DF91CF910C945505CF93DF93EC0195
:101130000E9438056CE0CE010E94CD07843CD9F4B2
:1011400040E066E2CE010E947B0848EB66E2CE01F9
:101150000E947B0847E063E1CE010E947B0840E0EB
:101160006DE2CE010E947B0849EB66E2CE010E944F
:101170007B0880E001C082E0DF91CF910895CF939A
:10118000DF93EC014BEB66E20E947B0849EB66E2E1
:10119000CE01DF91CF910C947B08CF93C62F9C0199
:1011A00040E050E084E0220F331F441F551F8A9512
:1011B000D1F760E074E284EF90E00E94220E2150AB
:1011C00031093093C5002093C4008091C2008E6025
:1011D0008093C2008091C10088618093C100CC23BC
:1011E00031F08091C100806C8093C1007894CF91E0
:1011F00008959091C00095FFFCCF8093C600109297
:10120000DF0308958091C00087FFFCCF8091C60066
:1012100008951F920F920FB60F9211248F93809111
:10122000C6008093E10381E08093E0038F910F90EB
:101230000FBE0F901F9018951F920F920FB60F922E
:1012400011248F9381E08093DF038F910F900FBE65
:101250000F901F901895FC01108211821282138248
:1012600014821582168217821086118612861386C2
:1012700014861586168617860895089580E090E0F6
:101280000895BF92CF92DF92EF92FF920F931F9338
:10129000CF93DF938B01FB0180810E94F908E80165
:1012A000C75FDE4F1882F801F1808F2D0E94F90888
:1012B000EF2DFF27E7FDF0958881E827E55FFE4FDA
:1012C00080818883F801F2808F2D0E94F908EF2D2C
:1012D000FF27E7FDF0958881E827E55FFE4F8081D5
:1012E0008883F801F3808F2D0E94F908EF2DFF27E6
:1012F000E7FDF0958881E827E55FFE4F80818883D0
:10130000F801F4808F2D0E94F908EF2DFF27E7FDEB
:10131000F0958881E827E55FFE4F80818883F8019A
:10132000C480D580E680F780CD2CDE2CEF2CFF2406
:101330008C2D0E94F908EC2DFF27E7FDF0958881A0
:10134000E827E55FFE4F80818883F801C480D5805F
:10135000E680F7806701EE24FF248C2D0E94F908B7
:10136000EC2DFF27E7FDF0958881E827E55FFE4F2C
:1013700080818883F801C480D580E680F780CF2CF7
:10138000DD24EE24FF248C2D0E94F908EC2DFF278C
:10139000E7FDF0958881E827E55FFE4F808188832F
:1013A000F80182819381099760F48881DF91CF9160
:1013B0001F910F91FF90EF90DF90CF90BF900C9412
:1013C000F9086801FAE0CF0ED11C76012E2D2C19F8
:1013D00030E0F8018281938108972817390728F7B0
:1013E000F701B1907F018B2D0E94F908EB2DFF27AB
:1013F000E7FDF0958881E827E55FFE4F80818883CF
:10140000E5CFCF93DF93CDB7DEB7CA50D1400FB64B
:10141000F894DEBF0FBECDBF2CE329834A8328E0BA
:1014200030E03C832B83FB014481558166817781C9
:101430004D835E836F837887BE016F5F7F4F0E940D
:101440004109C65FDE4F0FB6F894DEBF0FBECDBFB9
:10145000DF91CF9108950F931F93CF93DF93EA010C
:101460008091E40390E08730910508F0CBC08C5C5C
:101470009F4FFC010C94440E6C3309F0C3C081E013
:101480008093E403688384EB8093E303BBC0A09163
:10149000E303A627B0E0A55FBE4F8C918093E303E2
:1014A000862F887F803241F582E08093E403698350
:1014B0009FC0A091E303A627B0E0A55FBE4F8C912B
:1014C0008093E3038091E2038F5F8093E203062F12
:1014D00010E0823018F41B830A8394C0102F002779
:1014E0008A819B81080F191F1B830A8308501109E9
:1014F0000F3F110521F018F01092E40383C083E040
:1015000075C0A091E303A627B0E0A55FBE4F8C9104
:101510008093E3034091E2034F5F4093E203423044
:1015200091F060F4413009F06DC0062F10E020E02A
:1015300030E00C831D832E833F8364C0433061F011
:101540004430F1F05FC0062F10E020E030E0322F91
:10155000212F102F002707C0062F10E020E030E0D9
:101560009801112700278C819D81AE81BF81800F5A
:10157000911FA21FB31F8C839D83AE83BF8342C084
:10158000062F10E020E030E0302F2227112700271F
:101590008C819D81AE81BF81800F911FA21FB31FDF
:1015A0008C839D83AE83BF838A819B810897E9F0FA
:1015B0004093E4031DC0A091E303A627B0E0A55F1C
:1015C000BE4F8C918093E3032091E2032F5F209321
:1015D000E20330E0DA01A20FB31F19966C938A81FF
:1015E0009B8108972817390768F086E08093E40309
:1015F0001092E20307C0DA01A75FBE4F6C9387E049
:101600008093E4038091E403873011F080E00BC005
:101610001092E4039091E303DE01A75FBE4F8C912B
:101620009813F4CF8A81DF91CF911F910F91089584
:10163000EF92FF920F931F93CF93DF938C01EB01F7
:10164000F0EDEF2EF7E0FF2E80E09091E003911196
:1016500004C08F5F8F3171F0F8CF8E3158F46091F4
:10166000E1031092E00345EE53E0C8010E942B0A0B
:10167000811109C0B1E0EB1AF108E114F10421F77E
:1016800080E090E0B9C14091E9035091EA03609194
:10169000EB037091EC03423C8BEF58078CEE68072C
:1016A0008CE6780709F424C108F04CC04230B9E256
:1016B0005B07BEE76B07BFE27B0709F4B7C008F51D
:1016C0004430FAE95F07F7ED6F07FEE07F0709F4A2
:1016D0000FC138F446315A4A67437B4009F408C1C8
:1016E0007FC14E3CB8E45B07B7E56B07BAE17B0707
:1016F00009F405C144375B4E6A477B4109F4F8C0E1
:101700006FC14E34F8EC5F07FCEB6F07F0E47F0726
:1017100009F4F5C038F4463E554D6A4D734309F45B
:101720009DC05EC1423EB5E55B07BCE96B07B6E60E
:101730007B0709F44CC14A355B4B6743774609F494
:1017400075C04EC14A3BF4E85F07F5E26F07FEEB58
:101750007F0709F43CC108F049C04E37A2E15A079F
:10176000AAE66A07ABE97A0709F4C2C060F54A3015
:1017700051486D427C4809F033C18091F10390914A
:10178000F203A091F303B091F4038EAB9FABA8AF2B
:10179000B9AF8091F5039091F603A091F703B09152
:1017A000F8038AAF9BAFACAFBDAFEE968091F90363
:1017B0009091FA03A091FB03B091FC038883998375
:1017C000AA83BB830DC14630FEE05F07FCE36F07D1
:1017D000FDEA7F0709F467C04A38574F674C784BDA
:1017E00009F0FEC0809109048883FAC04639A5E358
:1017F0005A07A8E06A07A2ED7A0709F4B7C038F4DF
:1018000044355D426F4F754C09F472C0E9C04436EF
:10181000F9ED5F07F0EE6F07F7ED7F07F9F0463B54
:101820005342634A724E09F46AC0DAC0D8011F9667
:10183000EC911F97F0E0EB51FC4F8285823031F044
:10184000833041F08111CCC081E005C083E0F80114
:101850008087C6C0D80118968C93C2C080910104BD
:1018600090910204A0910304B09104048E8F9F8F85
:10187000A8A3B9A38091050490910604A091070440
:10188000B09108048AA39BA3ACA3BDA380910904D3
:1018900090910A04A0910B04B0910C048EA39FA315
:1018A000A8A7B9A79DC08091F1039091F203A091E0
:1018B000F303B091F4038AA79BA7ACA7BDA78091BF
:1018C000F5039091F603A091F703B091F8038EA76A
:1018D0009FA7A8ABB9AB8091F9039091FA03A091AF
:1018E000FB03B091FC038AAB9BABACABBDAB78C048
:1018F0008091EF038C838091F0038D8371C0809180
:10190000F1039091F203A091F303B091F4038A8B59
:101910009B8BAC8BBD8B8091F5039091F603A091CE
:10192000F703B091F8038E8B9F8BA88FB98F8091AE
:1019300014048E83809113048F836091010470914D
:10194000020480910304909104040E941B0F798784
:101950006887609105047091060480910704909156
:1019600008040E94200F7B876A873AC020E030E09D
:101970004AE754E46091F1037091F2038091F3031C
:101980009091F4030E9402100E941B0F7D876C87C8
:1019900020E030E048EC52E46091F5037091F603EA
:1019A0008091F7039091F8030E9402100E941B0F90
:1019B0007F876E876091050470910604809107040B
:1019C000909108040E941B0F798B688B09C080914D
:1019D00052048883809153048983809154048A83BC
:1019E0008091E603823231F443E265EE73E0C80190
:1019F0000E94010A81E090E0DF91CF911F910F9149
:101A0000FF90EF900895A1E0B1E0E6E0F1E040E062
:101A100081E090E05AB1ED019C010C9002C0220FD0
:101A2000331F0A94E2F7209525232AB9443059F050
:101A300057B19C01008002C0220F331F0A94E2F7C5
:101A4000522B57B90AC05AB19C01008002C0220F24
:101A5000331F0A94E2F7522B5AB95BB111969C01DD
:101A6000088002C0220F331F0A94E2F7522B5BB9A1
:101A70004F5F3196453071F6259A809181008A60DA
:101A80008093810084E499E9909389008093880091
:101A9000C0EDD7E0D0938B00C0938A0080916F0097
:101AA000866080936F0085B5836085BD80916E00F0
:101AB000816080936E0080916B00816080936B00E9
:101AC00080916D008C6780936D00809168008560C7
:101AD0008093680061E080E096E90E94CD088FEF76
:101AE0008093DD03D093C003C093BF03D093C203A0
:101AF000C093C103D093C403C093C303D093C60360
:101B0000C093C503D093C803C093C70380E090E09F
:101B100020E030E0AC01440F551FFA01E154FC4FC6
:101B200060817181260F371FFA01EB54FC4F31831E
:101B3000208301968530910569F78EE092E00E943E
:101B400016067894C8EBDBE088EEE82E83E0F82EEA
:101B500001E010E092E0C92ED12C80910C0290910E
:101B60000D0281309105E1F08230910549F1892B18
:101B700009F05BC08091B1039091B203853E9C4017
:101B800020F010930D0200930C028091B403823078
:101B900020F38EE092E00E9428061092B403DDCF7D
:101BA0008091B1039091B203843C994020F410924B
:101BB0000D0210920C028EE092E00E94F306CDCF4F
:101BC000D093C003C093BF03F092C203E092C1035D
:101BD000D093C403C093C303D093C603C093C5037B
:101BE000D093C803C093C7038091B1039091B2030F
:101BF000853E9C4028F010930D0200930C02ADCF5F
:101C00008091B1039091B203843C994008F0A5CF34
:101C10008091B1039091B203893E934008F49DCF27
:101C200010920D0210920C0298CFD0920D02C09229
:101C30000C0293CF8EE092E00C947D0584E492E058
:101C40000C943D09A1E21A2EAA1BBB1BFD010DC07D
:101C5000AA1FBB1FEE1FFF1FA217B307E407F5075C
:101C600020F0A21BB30BE40BF50B661F771F881F38
:101C7000991F1A9469F760957095809590959B01CE
:101C8000AC01BD01CF010895EE0FFF1F0590F49147
:101C9000E02D09945058BB27AA270ED075C166D1F4
:101CA00030F06BD120F031F49F3F11F41EF45BC192
:101CB0000EF4E095E7FB51C1E92F77D180F3BA1715
:101CC000620773078407950718F071F49EF58FC1BA
:101CD0000EF4E0950B2EBA2FA02D0B01B901900147
:101CE0000C01CA01A0011124FF27591B99F0593F8B
:101CF00050F4503E68F11A16F040A22F232F342FD3
:101D00004427585FF3CF469537952795A795F04020
:101D10005395C9F77EF41F16BA0B620B730B840B35
:101D2000BAF09150A1F0FF0FBB1F661F771F881FED
:101D3000C2F70EC0BA0F621F731F841F48F4879545
:101D400077956795B795F7959E3F08F0B3CF939534
:101D5000880F08F09927EE0F979587950895D9D0A9
:101D600008F481E008950CD00FC107D140F0FED0F7
:101D700030F021F45F3F19F0F0C0511139C1F3C0C8
:101D800014D198F39923C9F35523B1F3951B550B3F
:101D9000BB27AA2762177307840738F09F5F5F4F3E
:101DA000220F331F441FAA1FA9F333D00E2E3AF07F
:101DB000E0E830D091505040E695001CCAF729D099
:101DC000FE2F27D0660F771F881FBB1F26173707E8
:101DD0004807AB07B0E809F0BB0B802DBF01FF2718
:101DE00093585F4F2AF09E3F510568F0B6C000C17E
:101DF0005F3FECF3983EDCF3869577956795B79552
:101E0000F7959F5FC9F7880F911D9695879597F96C
:101E10000895E1E0660F771F881FBB1F62177307E5
:101E20008407BA0720F0621B730B840BBA0BEE1FFA
:101E300088F7E095089504D06894B111D9C0089549
:101E4000BCD088F09F5790F0B92F9927B751A0F0D8
:101E5000D1F0660F771F881F991F1AF0BA95C9F73E
:101E600012C0B13081F0C3D0B1E00895C0C0672F77
:101E7000782F8827B85F39F0B93FCCF386957795EE
:101E80006795B395D9F73EF49095809570956195D7
:101E90007F4F8F4F9F4F0895E89409C097FB3EF402
:101EA00090958095709561957F4F8F4F9F4F9923A7
:101EB000A9F0F92F96E9BB279395F6958795779525
:101EC0006795B795F111F8CFFAF4BB0F11F460FFE5
:101ED0001BC06F5F7F4F8F4F9F4F16C0882311F03D
:101EE00096E911C0772321F09EE8872F762F05C051
:101EF000662371F096E8862F70E060E02AF09A95EC
:101F0000660F771F881FDAF7880F9695879597F9E0
:101F10000895990F0008550FAA0BE0E8FEEF16167A
:101F20001706E807F907C0F012161306E407F507CD
:101F300098F0621B730B840B950B39F40A2661F041
:101F4000232B242B252B21F408950A2609F4A140E4
:101F5000A6958FEF811D811D089597F99F6780E8F1
:101F600070E060E008959FEF80EC089500240A94EB
:101F70001616170618060906089500240A94121664
:101F80001306140605060895092E0394000C11F497
:101F9000882352F0BB0F40F4BF2B11F460FF04C044
:101FA0006F5F7F4F8F4F9F4F089557FD9058440F9D
:101FB000551F59F05F3F71F04795880F97FB991FA8
:101FC00061F09F3F79F08795089512161306140665
:101FD000551FF2CF4695F1DF08C0161617061806F2
:101FE000991FF1CF86957105610508940895E894CD
:101FF000BB2766277727CB0197F908958ADF08F476
:102000008FEF08950BD0C0CFB1DF28F0B6DF18F006
:10201000952309F0A2CFA7CF1124EACFC6DFA0F302
:10202000959FD1F3950F50E0551F629FF001729F6D
:10203000BB27F00DB11D639FAA27F00DB11DAA1F8C
:10204000649F6627B00DA11D661F829F2227B00DD9
:10205000A11D621F739FB00DA11D621F839FA00D64
:10206000611D221F749F3327A00D611D231F849FB4
:10207000600D211D822F762F6A2F11249F5750400B
:102080008AF0E1F088234AF0EE0FFF1FBB1F661FA6
:10209000771F881F91505040A9F79E3F510570F05F
:1020A0005CCFA6CF5F3FECF3983EDCF38695779547
:1020B0006795B795F795E7959F5FC1F7FE2B880F5A
:1020C000911D9695879597F9089510E0C8E7D0E09F
:1020D00004C0FE010E94460E2296CA37D107C9F7F6
:0420E000F894FFCFA2
:1020E400FF0203040506000102030700070E091C92
:1020F4001B1215383F363124232A2D70777E796CD4
:102104006B6265484F464154535A5DE0E7EEE9FC83
:10211400FBF2F5D8DFD6D1C4C3CACD90979E998C73
:102124008B8285A8AFA6A1B4B3BABDC7C0C9CEDBA4
:10213400DCD5D2FFF8F1F6E3E4EDEAB7B0B9BEAB13
:10214400ACA5A28F88818693949D9A2720292E3B43
:102154003C35321F18111603040D0A5750595E4BB3
:102164004C45426F68616673747D7A898E87809569
:10217400929B9CB1B6BFB8ADAAA3A4F9FEF7F0E553
:10218400E2EBECC1C6CFC8DDDAD3D4696E67607503
:10219400727B7C51565F584D4A4344191E171005F3
:1021A400020B0C21262F283D3A33344E4940475226
:1021B400555C5B7671787F6A6D64633E3930372293
:1021C400252C2B0601080F1A1D1413AEA9A0A7B2C3
:1021D400B5BCBB9691989F8A8D8483DED9D0D7C233
:0C21E400C5CCCBE6E1E8EFFAFDF4F30017
:00000001FF
