:100000000C943D000C9465000C9465000C94A301C5
:100010000C9465000C94FA010C9465000C94650036
:100020000C9465000C9465000C9465000C946700BA
:100030000C9401010C9465000C9465000C9465000F
:100040000C942D040C9465000C94300A0C946500FB
:100050000C94430A0C9465000C9465000C946500A4
:100060000C9465000C946500630B6E0B800BA80B61
:10007000020C020C220C470F4B0F11241FBECFEFB6
:10008000D8E0DEBFCDBF12E0A0E0B1E0EEE3F3E2E6
:1000900002C005900D92AC30B107D9F714E0ACE086
:1000A000B2E001C01D92A33FB107E1F710E0C8E73D
:1000B000D0E004C02297FE010E94730FC637D1071B
:1000C000C9F70E942A0E0C9492110C9400001F9202
:1000D0000F920FB60F9211242F933F938F939F93FC
:1000E0008091C3039091C403892B49F081E08093F0
:1000F000E10381E090E090938B0080938A008091EF
:10010000C3039091C4039093BA038093B903809181
:10011000B9039091BA032091C5033091C603820FB1
:10012000931F08969093BC038093BB038091BB03FD
:100130009091BC032091C7033091C803820F931F95
:1001400008969093BE038093BD038091BD03909168
:10015000BE032091C9033091CA03820F931F0896F2
:100160009093C0038093BF038091BF039091C0031D
:100170002091CB033091CC03820F931F089690936C
:10018000C2038093C1038091B8038F5F8093B8034B
:1001900080910C0290910D02029751F18091B7036A
:1001A00091E0980F9093B703843010F182E090E0D3
:1001B00090930D0280930C021092B6031092B50337
:1001C00088EB9BE09093C4038093C30328EE33E055
:1001D0003093C6032093C5039093C8038093C7034D
:1001E0009093CA038093C9039093CC038093CB036D
:1001F0009F918F913F912F910F900FBE0F901F9065
:1002000018951F920F920FB60F9211242F933F93C0
:100210008F939F93EF93FF938091E10318160CF057
:1002200087C08091E1038630BCF0E091E1032BB1FF
:10023000FF27E7FDF095EC5FFE4F81E090E0008046
:1002400002C0880F991F0A94E2F78095909530E0DC
:10025000822393238BB91AC08091E1038230B4F0DA
:10026000E091E10328B1FF27E7FDF095EC5FFE4F39
:1002700081E090E0008002C0880F991F0A94E2F7A5
:100280008095909530E08223932388B98091E10393
:1002900086300CF043C0E091E103EE0FFF0BEF530B
:1002A000FC4F80819181892B99F1E091E103EE0F60
:1002B000FF0BE954FC4F8081918190938B008093D8
:1002C0008A008091E103E091E10385308CF428B14C
:1002D000FF27E7FDF095EB5FFE4F81E090E00080A7
:1002E00002C0880F991F0A94E2F7822B88B910C0C8
:1002F0002BB1FF27E7FDF095EB5FFE4F81E090E02B
:10030000008002C0880F991F0A94E2F7822B8BB9F4
:100310008091E1038F5F8093E1030AC08091C30362
:100320009091C40390938B0080938A001092E10314
:10033000FF91EF919F918F913F912F910F900FBE61
:100340000F901F9018951F920F920FB60F921124C5
:100350002F933F934F935F936F937F938F939F93CD
:10036000AF93BF93EF93FF93189B09C086B590E0BE
:100370009093B4038093B3031092B2032AC066B57E
:100380002091B3033091B4038091B20370E0621BFB
:10039000730B61507F4F90E001974FEF489F9001A2
:1003A000499F300D1124620F731F660F771F660F70
:1003B000771F80E090E00E94791020E030E04AE76B
:1003C00054E40E94E00FAB01BC018EE092E00E9479
:1003D000D708FF91EF91BF91AF919F918F917F913E
:1003E0006F915F914F913F912F910F900FBE0F90A2
:1003F0001F9018951F920F920FB60F9211242F93F2
:100400003F934F935F936F937F938F939F93AF939C
:10041000BF93EF93FF9329B180910001282789B101
:10042000809300011092B70322FF5FC04A9B09C06E
:1004300080918400909185009093CE038093CD03AA
:1004400054C04A9952C08091840090918500409197
:10045000CD035091CE03E0918400F091850060912E
:10046000CD037091CE03E617F70770F46091840016
:100470007091850080918800909189004091CD0312
:100480005091CE03860F971F841B950BA0E0B0E020
:10049000AC01BD0141505109610971094339514114
:1004A0006105710510F540910C0250910D02452B2C
:1004B000E1F44091C3035091C40344355B4008F418
:1004C00088C14091C3035091C403493B5B4008F08D
:1004D00080C1AC01BD0144555B40610971094536DD
:1004E00051056105710508F074C123FF53C04B9B92
:1004F00009C080918400909185009093D0038093EF
:10050000CF0348C04B9946C08091840090918500EC
:100510004091CF035091D003E0918400F091850089
:100520006091CF037091D003E617F70770F46091E4
:10053000840070918500809188009091890040919D
:10054000CF035091D003860F971F841B950BA0E01B
:10055000B0E0AC01BD014150510961097109433955
:10056000514161057105B0F440910C0250910D02AA
:10057000452B81F44091C5035091C603840F951F0C
:10058000A11DB11DB595A795979587959093C60325
:100590008093C50324FF5FC04C9B09C080918400F9
:1005A000909185009093D2038093D10354C04C99CD
:1005B00052C080918400909185004091D103509168
:1005C000D203E0918400F09185006091D103709195
:1005D000D203E617F70770F46091840070918500EC
:1005E00080918800909189004091D1035091D2036D
:1005F000860F971F841B950BA0E0B0E0AC01BD01F6
:100600004150510961097109433951416105710531
:1006100010F540910C0250910D02452BE1F44091F0
:10062000C7035091C8034A355A4008F4E3C04091CB
:10063000C7035091C8034F3B5A4008F0DBC0AC01E0
:10064000BD014A555A406109710945365105610598
:10065000710508F0CFC025FF5FC04D9B09C0809198
:100660008400909185009093D4038093D30354C069
:100670004D9952C080918400909185004091D303A0
:100680005091D403E0918400F09185006091D303F0
:100690007091D403E617F70770F4609184007091AD
:1006A000850080918800909189004091D3035091FA
:1006B000D403860F971F841B950BA0E0B0E0AC011C
:1006C000BD01415051096109710943395141610529
:1006D000710510F540910C0250910D02452BE1F48B
:1006E0004091C9035091CA0348365B4008F493C057
:1006F0004091C9035091CA034D3C5B4008F08BC048
:10070000AC01BD0148565B40610971094536510590
:100710006105710508F07FC026FF8EC04E9B09C0A1
:1007200080918400909185009093D6038093D503A7
:1007300083C04E9981C08091840090918500209162
:10074000D5033091D603609184007091850040916B
:10075000D5035091D6036417750770F44091840057
:100760005091850080918800909189002091D50357
:100770003091D603840F951F821B930BA0E0B0E04D
:10078000AC01BD0141505109610971094339514121
:100790006105710508F050C020910C0230910D02E6
:1007A000232B91F42091CB033091CC03AC01BD01FC
:1007B000420F531F611D711D75956795579547959C
:1007C0005093CC034093CB039093B6038093B5032F
:1007D00033C04091C3035091C403840F951FA11DE2
:1007E000B11DB595A795979587959093C403809370
:1007F000C3037BCE4091C7035091C803840F951F5C
:10080000A11DB11DB595A795979587959093C803A0
:100810008093C70320CF4091C9035091CA03840F2E
:10082000951FA11DB11DB595A79597958795909397
:10083000CA038093C90370CFFF91EF91BF91AF912D
:100840009F918F917F916F915F914F913F912F91E8
:100850000F900FBE0F901F9018951F920F920FB61A
:100860000F9211248F938091B2038F5F8093B20314
:100870008F910F900FBE0F901F90189508950895B7
:100880008F929F92AF92BF92CF92DF92EF92FF92A0
:100890000F931F93CF93DF93CB01BA01E090C50371
:1008A000F090C603F901228D338D448D558D0E9441
:1008B000770F4B015C01B70180E090E00E94791056
:1008C0008B01D82FC92F892F0E94200A8D2F0E94BB
:1008D000200A812F0E94200A802F0E94200A20E0F7
:1008E00030E040E250E4C501B4010E942F116B01D9
:1008F0007C0120E030E0A9010E942B11181654F46D
:1009000020E030E040E050E4C701B6010E94DC0F77
:1009100087FD2EC020E030E0A901C701B6010E948A
:10092000DC0F87FF0AC020E030E040E85FEBC70142
:10093000B6010E942B1118160CF120E030E040EABD
:1009400050E4C701B6010E942B111816F4F020E004
:1009500030E040EA50ECC701B6010E94DC0F87FF8F
:100960001AC0C12CD12C80EAE82E80ECF82E13C0DE
:10097000C12CD12CE12C30E4F32E0DC0C12CD12C94
:1009800020E8E22E2FEBF22E06C0C12CD12C90EAEB
:10099000E92E90E4F92EA7019601B8018D2F9C2F26
:1009A0000E94780F0E944D10EB016832FAE07F0739
:1009B000D8F0CB3E8BE0D807D0F42DEC3CEC4CECDF
:1009C0005DEBC501B4010E942B11181694F42DECB7
:1009D0003CEC4CEC5DE3C501B4010E94DC0F87FFE9
:1009E00008C0C4E5DBE005C0C8E2DAE002C0CAEE38
:1009F000DBE0D093C603C093C503DF91CF911F9175
:100A00000F91FF90EF90DF90CF90BF90AF909F90AD
:100A10008F9008958F929F92AF92BF92CF92DF9264
:100A2000EF92FF92CF93DF934A015B01E90160915E
:100A3000C7037091C80380E090E00E9479106B01B9
:100A40007C01A50194016AA17BA18CA19DA10E94BA
:100A5000770F9B01AC01C701B6010E94780F0E947D
:100A60004D10643C29E0720738F065358BE078075B
:100A700028F064E57BE002C064EC79E07093C80381
:100A80006093C703DF91CF91FF90EF90DF90CF90FD
:100A9000BF90AF909F908F9008958F929F92AF924A
:100AA000BF92CF92DF92EF92FF92CF93DF934A01F2
:100AB0005B01E9016091C9037091CA0380E090E095
:100AC0000E9479106B017C01A50194016E8D7F8DD0
:100AD00088A199A10E94770F9B01AC01C701B601C3
:100AE0000E94780F0E944D10623D2AE0720738F094
:100AF00063368CE0780728F062E67CE002C062EDA5
:100B00007AE07093CA036093C903DF91CF91FF909D
:100B1000EF90DF90CF90BF90AF909F908F9008950F
:100B20008F929F92AF92BF92CF92DF92EF92FF92FD
:100B3000CF93DF934A015B01E9016091C303709198
:100B4000C40380E090E00E9479106B017C01A50154
:100B500094016EA17FA188A599A50E94770F2DEC25
:100B60003CEC4CEC5DE30E942F119B01AC01C701F2
:100B7000B6010E94780F0E944D10603F2AE0720774
:100B800038F06D318CE0780728F06CE17CE002C031
:100B900060EF7AE07093C4036093C303DF91CF9159
:100BA000FF90EF90DF90CF90BF90AF909F908F908D
:100BB000089508951092B90080E28093B80084E00F
:100BC0008093BC00089584EA8093BC0080E08F5F2E
:100BD000893229F09091BC0097FFF9CF02C088ECD0
:100BE00008958832E0F78091B900887F089584E9FC
:100BF0008093BC008091B900887F08958093BB00EA
:100C000084E88093BC008091BC0087FFFCCF80917A
:100C1000B900887F089584EC8093BC008091BC006B
:100C200087FFFCCF8091BB00089584E88093BC00CF
:100C30008091BC0087FFFCCF8091BB000895CF93CB
:100C4000DF93EC01C2960E943E04CE01C6960E943C
:100C5000520ACE018A5B9F4F0E94E70883E0888397
:100C600019821B821A8284E190E09D838C831F820B
:100C70001E82198618861BA61AA69DA78CA71FA6DA
:100C80001EA619AA18AA22E030E03B872A879D8772
:100C90008C871F861E86198A188A81E090E09B8BBC
:100CA0008A8B1D8A1C8A1F8A1E8A198E188EFE0145
:100CB000E95BFF4F1082FE01E85BFF4F1082FE01EF
:100CC000E65BFF4F1082FE01E55BFF4F1082FE01E5
:100CD000E45BFF4F1082FE01EB59FF4F108211823F
:100CE00012821382FE01E759FF4F10821182128295
:100CF0001382FE01E359FF4F108211821282138288
:100D0000FE01E75AFF4F1082118212821382FE0108
:100D1000E35AFF4F1082118212821382FE01E35BBD
:100D2000FF4F1082FE01E25BFF4F1082FE01E15B8C
:100D3000FF4F11821082FE01EF59FF4F1082118286
:100D400012821382FE01EF5AFF4F11821082FE01C0
:100D5000ED5AFF4F11821082FE01EB5AFF4F1182B4
:100D60001082FE01E95AFF4F11821082C456DE4FF5
:100D700040E050EC69E774EC488359836A837B83D5
:100D8000DF91CF910895CF93DF93EC018A5B9F4F62
:100D90000E94B409CD56DE4F882319F081E0888384
:100DA00001C01882DF91CF9108954F925F926F92A8
:100DB0007F928F929F92AF92BF92CF92DF92EF92EB
:100DC000FF920F931F93CF93DF93EC018C01095B8C
:100DD0001F4FB801C6960E943F0CFE01ED56FE4F14
:100DE000808181114EC0CE018A5B9F4F0E940E0907
:100DF0006B017C014E0121E6820E911CF4014080C2
:100E00005180628073802DEC3CEC4CE850E4C301CF
:100E1000B2010E942B111816A4F520E030EC49E72E
:100E200054ECC701B6010E94DC0F882351F15E012A
:100E3000F8E6AF1AFEEFBF0A20E030E0A901F501A5
:100E400060817181828193810E94DC0F81110BC0CE
:100E5000A3019201C701B6010E94770FF5016083DB
:100E6000718382839383F501208131814281538193
:100E7000C701B6010E94770FF401608371838283FA
:100E800093835E01F4E6AF1AFEEFBF0A20E030EC78
:100E900049E754ECF50160817181828193810E9460
:100EA000DC0F811115C0FE01E359FF4FC080D180D6
:100EB000E280F38020E030E0A901C701B6010E9482
:100EC000DC0F882329F0F501C082D182E282F3820F
:100ED000E090C503F090C60380E00E94200A80E005
:100EE0000E94200AA701852F0E94200A8E2D0E94B1
:100EF000200A8091C9039091CA0388369B4040F034
:100F00008091C9039091CA038D3C9B4008F442C074
:100F10008091C7039091C8038A359A4038F0809138
:100F2000C7039091C8038F3B9A40E8F1F501C08058
:100F3000D180E280F38020E030EC49E754ECC70137
:100F4000B6010E94DC0F8823B9F18091C303909110
:100F5000C40384359B4080F18091C3039091C40306
:100F6000893B9B4048F59801B701A601CE01C29686
:100F7000DF91CF911F910F91FF90EF90DF90CF9075
:100F8000BF90AF909F908F907F906F905F904F90A9
:100F90000C949005980140E050E0BA01CE01C29651
:100FA0000E944D05B5CF980140E050E0BA01CE0156
:100FB000C2960E940A05BACFDF91CF911F910F917F
:100FC000FF90EF90DF90CF90BF90AF909F908F9069
:100FD0007F906F905F904F9008952F923F924F9225
:100FE0005F926F927F928F929F92AF92BF92CF92B9
:100FF000DF92EF92FF920F931F93CF93DF93EC0159
:101000008C01095B1F4FB801C6960E943F0C4E0130
:1010100084E6881A8EEF980A20E030EC49E754EC19
:10102000F40160817181828193810E94DC0F8111C2
:101030000CC0FE01E359FF4F80819181A281B381F1
:10104000F40180839183A283B383FE01ED56FE4FAA
:10105000808181114EC0CE018A5B9F4F0E940E0994
:101060006B017C011E01F1E62F0E311CF101408065
:101070005180628073802DEC3CEC4CE850E4C3015D
:10108000B2010E942B111816A4F520E030EC49E7BC
:1010900054ECC701B6010E94DC0F882351F15E01B8
:1010A000F8E6AF1AFEEFBF0A20E030E0A901F50133
:1010B00060817181828193810E94DC0F81110BC05C
:1010C000A3019201C701B6010E94770FF501608369
:1010D000718382839383F501208131814281538121
:1010E000C701B6010E94770FF1016083718382838B
:1010F00093838981FE0198E0899FE00DF11D112401
:1011000082819381892B61F5E296980140E050E05D
:1011100060E07FE3CE010E944004980140E050E08F
:10112000BA01CE010E944D05980140E050E0BA019D
:10113000CE010E940A05F401C080D180E280F380D4
:1011400020E030EC49E754ECC701B6010E94DC0F07
:10115000882331F09801B701A601CE010E949005C5
:1011600080E0DF91CF911F910F91FF90EF90DF9082
:10117000CF90BF90AF909F908F907F906F905F9037
:101180004F903F902F900895FC01ED5AFF4F208122
:1011900031812F30310548F0FC01E35BFF4F81E0E6
:1011A0009081973018F080E0089581E008958F597C
:1011B0009F4FFC0140835183628373830895885657
:1011C0009E4FFC0140835183628373830895089589
:1011D00060E070E0CB0108951F93CF93DF931F92DF
:1011E000CDB7DEB769830E94E30580EC0E94FE055F
:1011F0006981862F0E94FE050E94F7050E94E30583
:1012000081EC0E94FE050E941506182F0E94F7052A
:10121000812F0F90DF91CF911F910895CF92DF9290
:10122000EF92FF92CF937C01C5E660E0C7010E9478
:10123000EC0882FD07C0C150C1F760E070EC89E79F
:1012400094EC34C00E94E30580EC0E94FE0581E02E
:101250000E94FE050E94E30581EC0E94FE050E94AB
:101260000B06C82ED12CE12CF12CFE2CED2CDC2C05
:10127000CC240E940B06C82AFE2CED2CDC2CCC249E
:101280000E941506C82A0E94F705C701B60124E08E
:1012900096958795779567952A95D1F70E9479104D
:1012A00020E030E040E85DE30E942F11CF91FF90F5
:1012B000EF90DF90CF9008951F93CF93DF93EC01D1
:1012C00015E660E0CE010E94EC0882FD07C01150D7
:1012D000C1F760E070EC89E794EC28C00E94E30558
:1012E00080EC0E94FE0584E00E94FE050E94E3055A
:1012F00081EC0E94FE050E940B06682F70E0D62F3D
:10130000CC270E941506C82B0E94F705BE0144E0B9
:10131000769567954A95E1F780E090E00E94791014
:1013200020E030E040E85DE30E942F11DF91CF9193
:101330001F910895CF93DF9300D0CDB7DEB74A83D6
:1013400069830E94E30580EC0E94FE056981862F77
:101350000E94FE054A81842F0E94FE050F900F9087
:10136000DF91CF910C94F705CF93DF93EC010E94AE
:10137000DA050E94E305883C19F10E94F7056CE04C
:10138000CE010E94EC08843CE9F440E066E2CE0124
:101390000E949A0948EB66E2CE010E949A0947E052
:1013A00063E1CE010E949A0940E06DE2CE010E9405
:1013B0009A0949EB66E2CE010E949A0980E003C0D7
:1013C00081E001C082E0DF91CF910895CF93DF9358
:1013D000EC014BEB66E20E949A0949EB66E2CE0112
:1013E000DF91CF910C949A09CF93C62F9C0140E0D6
:1013F00050E084E0220F331F441F551F8A95D1F718
:1014000060E074E284EF90E00E944F0F21503109B8
:101410003093C5002093C4008091C2008E608093F9
:10142000C2008091C10088618093C100CC2331F05B
:101430008091C100806C8093C1007894CF91089511
:101440009091C00095FFFCCF8093C6001092E303FB
:1014500008958091C00087FFFCCF8091C600089559
:101460001F920F920FB60F9211248F938091C60096
:101470008093E50381E08093E4038F910F900FBE8A
:101480000F901F9018951F920F920FB60F92112474
:101490008F9381E08093E3038F910F900FBE0F90A5
:1014A0001F901895FC0110821182128213821482FF
:1014B000158216821782108611861286138614866C
:1014C0001586168617860895089580E090E00895A1
:1014D000BF92CF92DF92EF92FF920F931F93CF9321
:1014E000DF938B01FB0180810E94200AE801C75F26
:1014F000DE4F1882F801F1808F2D0E94200AEF2D17
:10150000FF27E7FDF0958881E827E55FFE4F8081A2
:101510008883F801F2808F2D0E94200AEF2DFF278B
:10152000E7FDF0958881E827E55FFE4F808188839D
:10153000F801F3808F2D0E94200AEF2DFF27E7FD91
:10154000F0958881E827E55FFE4F80818883F80168
:10155000F4808F2D0E94200AEF2DFF27E7FDF095E4
:101560008881E827E55FFE4F80818883F801C48089
:10157000D580E680F780CD2CDE2CEF2CFF248C2D3F
:101580000E94200AEC2DFF27E7FDF0958881E827CF
:10159000E55FFE4F80818883F801C480D580E680B6
:1015A000F7806701EE24FF248C2D0E94200AEC2D89
:1015B000FF27E7FDF0958881E827E55FFE4F8081F2
:1015C0008883F801C480D580E680F780CF2CDD24A5
:1015D000EE24FF248C2D0E94200AEC2DFF27E7FD2E
:1015E000F0958881E827E55FFE4F80818883F801C8
:1015F00082819381099760F48881DF91CF911F9157
:101600000F91FF90EF90DF90CF90BF900C94200A45
:101610006801FAE0CF0ED11C76012E2D2C1930E096
:10162000F8018281938108972817390728F7F70175
:10163000B1907F018B2D0E94200AEB2DFF27E7FD43
:10164000F0958881E827E55FFE4F80818883E5CFAC
:10165000CF93DF93CDB7DEB7CA50D1400FB6F89421
:10166000DEBF0FBECDBF2CE329834A8328E030E0E4
:101670003C832B83FB0144815581668177814D83B7
:101680005E836F837887BE016F5F7F4F0E94680A19
:10169000C65FDE4F0FB6F894DEBF0FBECDBFDF9141
:1016A000CF9108950F931F93CF93DF93EA01809119
:1016B000E80390E08730910508F0CBC08C5C9F4F29
:1016C000FC010C94710F6C3309F0C3C081E080936E
:1016D000E803688384EB8093E703BBC0A091E70332
:1016E000A627B0E0A55FBE4F8C918093E703862FBD
:1016F000887F803241F582E08093E80369839FC050
:10170000A091E703A627B0E0A55FBE4F8C91809320
:10171000E7038091E6038F5F8093E603062F10E0D6
:10172000823018F41B830A8394C0102F00278A810B
:101730009B81080F191F1B830A83085011090F3F53
:10174000110521F018F01092E80383C083E075C002
:10175000A091E703A627B0E0A55FBE4F8C918093D0
:10176000E7034091E6034F5F4093E603423091F078
:1017700060F4413009F06DC0062F10E020E030E049
:101780000C831D832E833F8364C0433061F044305B
:10179000F1F05FC0062F10E020E030E0322F212F63
:1017A000102F002707C0062F10E020E030E098013E
:1017B000112700278C819D81AE81BF81800F911FF1
:1017C000A21FB31F8C839D83AE83BF8342C0062FAD
:1017D00010E020E030E0302F2227112700278C81F5
:1017E0009D81AE81BF81800F911FA21FB31F8C838B
:1017F0009D83AE83BF838A819B810897E9F04093E4
:10180000E8031DC0A091E703A627B0E0A55FBE4F87
:101810008C918093E7032091E6032F5F2093E603EA
:1018200030E0DA01A20FB31F19966C938A819B8175
:1018300008972817390768F086E08093E80310922C
:10184000E60307C0DA01A75FBE4F6C9387E0809381
:10185000E8038091E803873011F080E00BC010921C
:10186000E8039091E703DE01A75FBE4F8C919813C8
:10187000F4CF8A81DF91CF911F910F910895EF925C
:10188000FF920F931F93CF93DF938C01EB01F0ED49
:10189000EF2EF7E0FF2E80E09091E403911104C059
:1018A0008F5F8F3171F0F8CF8E3158F46091E5037E
:1018B0001092E40349EE53E0C8010E94520B8111DB
:1018C00009C0B1E0EB1AF108E114F10421F780E05E
:1018D00090E0B9C14091ED035091EE036091EF03A8
:1018E0007091F003423C8BEF58078CEE68078CE652
:1018F000780709F424C108F04CC04230B9E25B0714
:10190000BEE76B07BFE27B0709F4B7C008F54430B8
:10191000FAE95F07F7ED6F07FEE07F0709F40FC1F3
:1019200038F446315A4A67437B4009F408C17FC105
:101930004E3CB8E45B07B7E56B07BAE17B0709F4F7
:1019400005C144375B4E6A477B4109F4F8C06FC15B
:101950004E34F8EC5F07FCEB6F07F0E47F0709F407
:10196000F5C038F4463E554D6A4D734309F49DC0A9
:101970005EC1423EB5E55B07BCE96B07B6E67B0797
:1019800009F44CC14A355B4B6743774609F475C08F
:101990004EC14A3BF4E85F07F5E26F07FEEB7F07B5
:1019A00009F43CC108F049C04E37A2E15A07AAE643
:1019B0006A07ABE97A0709F4C2C060F54A305148BA
:1019C0006D427C4809F033C18091F5039091F60394
:1019D000A091F703B091F8038EAB9FABA8AFB9AF5E
:1019E0008091F9039091FA03A091FB03B091FC035D
:1019F0008AAF9BAFACAFBDAFEE968091FD039091E7
:101A0000FE03A091FF03B091000488839983AA8309
:101A1000BB830DC14630FEE05F07FCE36F07FDEAC4
:101A20007F0709F467C04A38574F674C784B09F075
:101A3000FEC080910D048883FAC04639A5E35A0799
:101A4000A8E06A07A2ED7A0709F4B7C038F4443574
:101A50005D426F4F754C09F472C0E9C04436F9ED30
:101A60005F07F0EE6F07F7ED7F07F9F0463B534253
:101A7000634A724E09F46AC0DAC0D8011F96EC912D
:101A80001F97F0E0E751FC4F8285823031F08330C0
:101A900041F08111CCC081E005C083E0F80180876E
:101AA000C6C0D80118968C93C2C08091050490914D
:101AB0000604A0910704B09108048E8F9F8FA8A3FD
:101AC000B9A38091090490910A04A0910B04B091EC
:101AD0000C048AA39BA3ACA3BDA380910D04909199
:101AE0000E04A0910F04B09110048EA39FA3A8A789
:101AF000B9A79DC08091F5039091F603A091F703DB
:101B0000B091F8038AA79BA7ACA7BDA78091F90362
:101B10009091FA03A091FB03B091FC038EA79FA7BD
:101B2000A8ABB9AB8091FD039091FE03A091FF0398
:101B3000B09100048AAB9BABACABBDAB78C08091DD
:101B4000F3038C838091F4038D8371C08091F5033E
:101B50009091F603A091F703B091F8038A8B9B8BC9
:101B6000AC8BBD8B8091F9039091FA03A091FB039C
:101B7000B091FC038E8B9F8BA88FB98F8091180436
:101B80008E83809117048F83609105047091060401
:101B900080910704909108040E9448107987688713
:101BA0006091090470910A0480910B0490910C04D7
:101BB0000E944D107B876A873AC020E030E04AE7F8
:101BC00054E46091F5037091F6038091F7039091CE
:101BD000F8030E942F110E9448107D876C8720E037
:101BE00030E048EC52E46091F9037091FA0380917F
:101BF000FB039091FC030E942F110E9448107F87E5
:101C00006E876091090470910A0480910B04909191
:101C10000C040E944810798B688B09C0809156048F
:101C20008883809157048983809158048A838091A6
:101C3000EA03823231F443E269EE73E0C8010E94A4
:101C4000280B81E090E0DF91CF911F910F91FF90E1
:101C5000EF900895A1E0B1E0E6E0F1E040E081E03E
:101C600090E05AB1ED019C010C9002C0220F331F8D
:101C70000A94E2F7209525232AB9443059F057B148
:101C80009C01008002C0220F331F0A94E2F7522BFE
:101C900057B90AC05AB19C01008002C0220F331FFD
:101CA0000A94E2F7522B5AB95BB111969C01088055
:101CB00002C0220F331F0A94E2F7522B5BB94F5F29
:101CC0003196453071F6259A809181008A60809323
:101CD000810084E499E99093890080938800C0EDA5
:101CE000D7E0D0938B00C0938A0080916F0086600C
:101CF00080936F0085B5836085BD80916E008160A3
:101D000080936E0080916B00816080936B00809166
:101D10006D008C6780936D00809168008560809372
:101D2000680061E080E096E90E94F4098FEF8093FB
:101D3000E10386E89BE09093C4038093C303D093B0
:101D4000C603C093C5038CE89AE09093C8038093C0
:101D5000C70388EB9BE09093CA038093C9039093D9
:101D6000CC038093CB0380E090E020E030E0AC0136
:101D7000440F551FFA01ED53FC4F60817181260F0E
:101D8000371FFA01E754FC4F3183208301968530D9
:101D9000910569F78EE092E00E94C3067894C8EB43
:101DA000DBE088EEE82E83E0F82E01E010E092E020
:101DB000C92ED12C80910C0290910D028130910599
:101DC000E1F08230910549F1892B09F05BC08091E7
:101DD000B5039091B603853E9C4020F010930D0210
:101DE00000930C028091B803882321F38EE092E0E7
:101DF0000E94D5061092B803DDCF8091B503909173
:101E0000B603843C994020F410920D0210920C020B
:101E10008EE092E00E94ED07CDCFD093C403C09333
:101E2000C303F092C603E092C503D093C803C093E6
:101E3000C703D093CA03C093C903D093CC03C09304
:101E4000CB038091B5039091B603853E9C4028F06A
:101E500010930D0200930C02ADCF8091B5039091C9
:101E6000B603843C994008F0A5CF8091B5039091CA
:101E7000B603893E934008F49DCF10920D02109254
:101E80000C0298CFD0920D02C0920C0293CF8EE03C
:101E900092E00C941F0684E492E00C94640AA1E2A0
:101EA0001A2EAA1BBB1BFD010DC0AA1FBB1FEE1FD4
:101EB000FF1FA217B307E407F50720F0A21BB30B1F
:101EC000E40BF50B661F771F881F991F1A9469F79B
:101ED00060957095809590959B01AC01BD01CF01F7
:101EE0000895EE0FFF1F0590F491E02D09945058CE
:101EF000BB27AA270ED075C166D130F06BD120F078
:101F000031F49F3F11F41EF45BC10EF4E095E7FB42
:101F100051C1E92F77D180F3BA176207730784079D
:101F2000950718F071F49EF58FC10EF4E0950B2E15
:101F3000BA2FA02D0B01B90190010C01CA01A0011B
:101F40001124FF27591B99F0593F50F4503E68F176
:101F50001A16F040A22F232F342F4427585FF3CFB7
:101F6000469537952795A795F0405395C9F77EF488
:101F70001F16BA0B620B730B840BBAF09150A1F0D1
:101F8000FF0FBB1F661F771F881FC2F70EC0BA0F57
:101F9000621F731F841F48F4879577956795B795DF
:101FA000F7959E3F08F0B3CF9395880F08F09927D7
:101FB000EE0F979587950895D9D008F481E008959C
:101FC0000CD00FC107D140F0FED030F021F45F3FBC
:101FD00019F0F0C0511139C1F3C014D198F399230D
:101FE000C9F35523B1F3951B550BBB27AA276217DD
:101FF0007307840738F09F5F5F4F220F331F441F22
:10200000AA1FA9F333D00E2E3AF0E0E830D0915059
:102010005040E695001CCAF729D0FE2F27D0660F46
:10202000771F881FBB1F261737074807AB07B0E885
:1020300009F0BB0B802DBF01FF2793585F4F2AF09B
:102040009E3F510568F0B6C000C15F3FECF3983E7B
:10205000DCF3869577956795B795F7959F5FC9F7F8
:10206000880F911D9695879597F90895E1E0660F81
:10207000771F881FBB1F621773078407BA0720F0FA
:10208000621B730B840BBA0BEE1F88F7E095089563
:1020900004D06894B111D9C00895BCD088F09F577E
:1020A00090F0B92F9927B751A0F0D1F0660F771FA4
:1020B000881F991F1AF0BA95C9F712C0B13081F084
:1020C000C3D0B1E00895C0C0672F782F8827B85FCC
:1020D00039F0B93FCCF3869577956795B395D9F7E5
:1020E0003EF490958095709561957F4F8F4F9F4FEF
:1020F0000895E89409C097FB3EF4909580957095FB
:1021000061957F4F8F4F9F4F9923A9F0F92F96E943
:10211000BB279395F695879577956795B795F111B8
:10212000F8CFFAF4BB0F11F460FF1BC06F5F7F4F55
:102130008F4F9F4F16C0882311F096E911C0772367
:1021400021F09EE8872F762F05C0662371F096E870
:10215000862F70E060E02AF09A95660F771F881F3F
:10216000DAF7880F9695879597F90895990F0008E3
:10217000550FAA0BE0E8FEEF16161706E807F90759
:10218000C0F012161306E407F50798F0621B730BF4
:10219000840B950B39F40A2661F0232B242B252B75
:1021A00021F408950A2609F4A140A6958FEF811D18
:1021B000811D089597F99F6780E870E060E00895B9
:1021C0009FEF80EC089500240A941616170618064F
:1021D0000906089500240A9412161306140605062B
:1021E0000895092E0394000C11F4882352F0BB0FBC
:1021F00040F4BF2B11F460FF04C06F5F7F4F8F4F1F
:102200009F4F089557FD9058440F551F59F05F3F59
:1022100071F04795880F97FB991F61F09F3F79F008
:1022200087950895121613061406551FF2CF46958A
:10223000F1DF08C0161617061806991FF1CF86950C
:102240007105610508940895E894BB2766277727F0
:10225000CB0197F908958ADF08F48FEF08950BD02A
:10226000C0CFB1DF28F0B6DF18F0952309F0A2CF78
:10227000A7CF1124EACFC6DFA0F3959FD1F3950F26
:1022800050E0551F629FF001729FBB27F00DB11DFA
:10229000639FAA27F00DB11DAA1F649F6627B00D8A
:1022A000A11D661F829F2227B00DA11D621F739F73
:1022B000B00DA11D621F839FA00D611D221F749F81
:1022C0003327A00D611D231F849F600D211D822FC8
:1022D000762F6A2F11249F5750408AF0E1F088230F
:1022E0004AF0EE0FFF1FBB1F661F771F881F91501C
:1022F0005040A9F79E3F510570F05CCFA6CF5F3FDD
:10230000ECF3983EDCF3869577956795B795F7954E
:10231000E7959F5FC1F7FE2B880F911D96958795D6
:1023200097F9089510E0C8E7D0E004C0FE010E94CC
:0E233000730F2296CA37D107C9F7F894FFCF72
:10233E00FF0203040506000102030700070E091C35
:10234E001B1215383F363124232A2D70777E796C77
:10235E006B6265484F464154535A5DE0E7EEE9FC27
:10236E00FBF2F5D8DFD6D1C4C3CACD90979E998C17
:10237E008B8285A8AFA6A1B4B3BABDC7C0C9CEDB48
:10238E00DCD5D2FFF8F1F6E3E4EDEAB7B0B9BEABB7
:10239E00ACA5A28F88818693949D9A2720292E3BE7
:1023AE003C35321F18111603040D0A5750595E4B57
:1023BE004C45426F68616673747D7A898E8780950D
:1023CE00929B9CB1B6BFB8ADAAA3A4F9FEF7F0E5F7
:1023DE00E2EBECC1C6CFC8DDDAD3D4696E676075A7
:1023EE00727B7C51565F584D4A4344191E17100597
:1023FE00020B0C21262F283D3A33344E49404752CA
:10240E00555C5B7671787F6A6D64633E3930372236
:10241E00252C2B0601080F1A1D1413AEA9A0A7B266
:10242E00B5BCBB9691989F8A8D8483DED9D0D7C2D6
:0C243E00C5CCCBE6E1E8EFFAFDF4F300BA
:00000001FF
