:100000000C943D000C9465000C9465000C94A401C4
:100010000C9465000C94FB010C9465000C94650035
:100020000C9465000C9465000C9465000C946700BA
:100030000C9402010C9465000C9465000C9465000E
:100040000C942E040C9465000C941E120C94650004
:100050000C9431120C9465000C9465000C946500AE
:100060000C9465000C94650051135C136E13961389
:10007000F013F01310145417581711241FBECFEFAC
:10008000D8E0DEBFCDBF12E0A0E0B1E0E8E5F3E3E9
:1000900002C005900D92AC30B107D9F715E0ACE085
:1000A000B2E001C01D92A43DB107E1F710E0C8E73E
:1000B000D0E004C02297FE010E948017C637D10706
:1000C000C9F70E942B160C949F190C9400001F92E4
:1000D0000F920FB60F9211242F933F938F939F93FC
:1000E0008091A4049091A504892B49F081E080932C
:1000F000C20481E090E090938B0080938A0080910D
:10010000A4049091A504469690939B0480939A042E
:1001100080919A0490919B042091A6043091A704A9
:10012000820F931F089690939D0480939C04809166
:100130009C0490919D042091A8043091A904820F01
:10014000931F089690939F0480939E0480919E0431
:1001500090919F042091AA043091AB04820F931FC9
:1001600008969093A1048093A0048091A00490919C
:10017000A1042091AC043091AD04820F931F089626
:100180009093A3048093A204809199048F5F80933D
:10019000990480910C0290910D02029751F1809187
:1001A000980491E0980F90939804843010F182E0C5
:1001B00090E090930D0280930C021092970410929D
:1001C000960488EB9BE09093A5048093A40428EE0A
:1001D00033E03093A7042093A6049093A90480935E
:1001E000A8049093AB048093AA049093AD048093E9
:1001F000AC049F918F913F912F910F900FBE0F9064
:100200001F9018951F920F920FB60F9211242F93E3
:100210003F938F939F93EF93FF938091C20418169F
:100220000CF087C08091C2048630BCF0E091C2041B
:100230002BB1FF27E7FDF095EC5FFE4F81E090E0EA
:10024000008002C0880F991F0A94E2F7809590956C
:1002500030E0822393238BB91AC08091C20482308C
:10026000B4F0E091C20428B1FF27E7FDF095EC5F00
:10027000FE4F81E090E0008002C0880F991F0A9431
:10028000E2F78095909530E08223932388B980919E
:10029000C20486300CF043C0E091C204EE0FFF0BA5
:1002A000EE55FB4F80819181892B99F1E091C20439
:1002B000EE0FFF0BE856FB4F8081918190938B00EE
:1002C00080938A008091C204E091C20485308CF44E
:1002D00028B1FF27E7FDF095EB5FFE4F81E090E04E
:1002E000008002C0880F991F0A94E2F7822B88B918
:1002F00010C02BB1FF27E7FDF095EB5FFE4F81E0CB
:1003000090E0008002C0880F991F0A94E2F7822BC8
:100310008BB98091C2048F5F8093C2040AC0809120
:10032000A4049091A50490938B0080938A0010926E
:10033000C204FF91EF919F918F913F912F910F9068
:100340000FBE0F901F9018951F920F920FB60F922D
:1003500011242F933F934F935F936F937F938F93CA
:100360009F93AF93BF93EF93FF93189B09C086B5FC
:1003700090E09093950480939404109293042AC083
:1003800066B520919404309195048091930470E0B7
:10039000621B730B61507F4F90E001974FEF489FB6
:1003A0009001499F300D1124620F731F660F771F54
:1003B000660F771F80E090E00E94861820E030E012
:1003C0004AE754E40E94ED17AB01BC018EE092E0D5
:1003D0000E945610FF91EF91BF91AF919F918F9125
:1003E0007F916F915F914F913F912F910F900FBE31
:1003F0000F901F9018951F920F920FB60F92112415
:100400002F933F934F935F936F937F938F939F931C
:10041000AF93BF93EF93FF9329B1809100012827F9
:1004200089B1809300011092980422FF5FC04A9B1B
:1004300009C080918400909185009093AF048093CF
:10044000AE0454C04A9952C08091840090918500B6
:100450004091AE045091AF04E0918400F09185008A
:100460006091AE047091AF04E617F70770F46091E5
:10047000840070918500809188009091890040915E
:10048000AE045091AF04860F971F841B950BA0E01C
:10049000B0E0AC01BD014150510961097109433916
:1004A00051416105710510F540910C0250910D020A
:1004B000452BE1F44091A4045091A5044A345B40DB
:1004C00008F488C14091A4045091A50443375B40CF
:1004D00008F080C1AC01BD014A545B40610971095B
:1004E000493251056105710508F074C123FF53C0FD
:1004F0004B9B09C080918400909185009093B1043A
:100500008093B00448C04B9946C08091840090917C
:1005100085004091B0045091B104E0918400F091C5
:1005200085006091B0047091B104E617F70770F48C
:10053000609184007091850080918800909189007D
:100540004091B0045091B104860F971F841B950B06
:10055000A0E0B0E0AC01BD01415051096109710951
:100560004339514161057105B0F440910C0250913D
:100570000D02452B81F44091A6045091A704840FED
:10058000951FA11DB11DB595A7959795879590933A
:10059000A7048093A60424FF5FC04C9B09C08091F0
:1005A0008400909185009093B3048093B20454C06A
:1005B0004C9952C080918400909185004091B20482
:1005C0005091B304E0918400F09185006091B204F1
:1005D0007091B304E617F70770F46091840070918E
:1005E000850080918800909189004091B2045091DB
:1005F000B304860F971F841B950BA0E0B0E0AC01FD
:10060000BD014150510961097109433951416105E9
:10061000710510F540910C0250910D02452BE1F44B
:100620004091A8045091A90448325A4008F4E3C00C
:100630004091A8045091A9044D385A4008F0DBC0FD
:10064000AC01BD0148525A40610971094536510556
:100650006105710508F0CFC025FF5FC04D9B09C043
:1006600080918400909185009093B5048093B404A8
:1006700054C04D9952C08091840090918500409162
:10068000B4045091B504E0918400F091850060912C
:10069000B4047091B504E617F70770F46091840014
:1006A0007091850080918800909189004091B404F8
:1006B0005091B504860F971F841B950BA0E0B0E006
:1006C000AC01BD01415051096109710943395141E2
:1006D0006105710510F540910C0250910D02452BFA
:1006E000E1F44091AA045091AB044C325B4008F411
:1006F00093C04091AA045091AB0441395B4008F08B
:100700008BC0AC01BD014C525B406109710945369B
:1007100051056105710508F07FC026FF8EC04E9B14
:1007200009C080918400909185009093B7048093D4
:10073000B60483C04E9981C0809184009091850059
:100740002091B6043091B7046091840070918500C7
:100750004091B6045091B7046417750770F4409146
:1007600084005091850080918800909189002091AB
:10077000B6043091B704840F951F821B930BA0E041
:10078000B0E0AC01BD014150510961097109433923
:1007900051416105710508F050C020910C02309163
:1007A0000D02232B91F42091AC043091AD04AC01E7
:1007B000BD01420F531F611D711D759567955795BA
:1007C00047955093AD044093AC0490939704809365
:1007D000960433C04091A4045091A504840F951F42
:1007E000A11DB11DB595A795979587959093A504E3
:1007F0008093A4047BCE4091A8045091A904840F57
:10080000951FA11DB11DB595A795979587959093B7
:10081000A9048093A80420CF4091AA045091AB046E
:10082000840F951FA11DB11DB595A7959795879527
:100830009093AB048093AA0470CFFF91EF91BF9186
:10084000AF919F918F917F916F915F914F913F9168
:100850002F910F900FBE0F901F9018951F920F921F
:100860000FB60F9211248F939F93809193048F5F03
:100870008093930480918D0490918E0401969093BF
:100880008E0480938D0480918B0490918C0401964A
:1008900090938C0480938B049F918F910F900FBE47
:1008A0000F901F901895FC0140E050EC69E774EC44
:1008B000408F518F628F738F448F558F668F778FE4
:1008C00040A351A362A373A344A355A366A377A334
:1008D0000895FC0140E050EC69E774EC408F518FC3
:1008E000628F738F448F558F668F778F40A351A38C
:1008F00062A373A344A355A366A377A344A755A7F4
:1009000066A777A7178216820895CF92DF92EF929B
:10091000FF920F931F93CF93DF93EC0186B5009165
:100920008B0410918C0490E028813981821B930BF9
:10093000BC0161507F4F80E090E00E9486182DEB53
:1009400037E346E856E30E943C196B017C01B8018D
:1009500080E090E00E94861825E831EB45E85AE3F4
:100960000E943C199B01AC01C701B6010E9485178A
:100970006A837B838C839D83DF91CF911F910F913D
:10098000FF90EF90DF90CF9008952F923F924F927B
:100990005F926F927F928F929F92AF92BF92CF920F
:1009A000DF92EF92FF920F931F93CF93DF93CDB718
:1009B000DEB728970FB6F894DEBF0FBECDBF8C010F
:1009C0004D835E836F837887790120E030EC49E7BF
:1009D00054ECDC0158966D917D918D919C915B97C3
:1009E0000E94E917F701868C978CA0A0B1A0811115
:1009F00007C0D80158968D929D92AD92BC925B979C
:100A000020E030EC49E754ECF80164A575A586A513
:100A100097A50E94E917811107C0D8019C961D92E5
:100A20001D921D921C929F972090A6043090A704BF
:100A3000A50194016D817E818F8198850E94841724
:100A40006B017C01F801648B758B868B978B4280E0
:100A5000538064807580A30192016AE979E989E88D
:100A600090E40E94ED1769837A838B839C83D8017D
:100A70001C966D937D938D939C931F97F801408AEC
:100A8000518A628A738A208D318D428D538DC501C2
:100A9000B4010E9484174B015C01D80198966D93B4
:100AA0007D938D939C939B97A7019601C301B201FF
:100AB0000E943C19F80124A535A546A557A50E941A
:100AC00085172B013C012DEC3CEC4CE45DEBC701A0
:100AD000B6010E943819181694F42DEC3CEC4CE445
:100AE0005DE3C701B6010E94E91787FF08C0D8017E
:100AF0009C961D921D921D921C929F972AC020E0E9
:100B000030E040E050E4C301B2010E9438191816E9
:100B10002CF480E090E0A0E0B0E416C020E030E0EB
:100B200040E85FEBC301B2010E94E91787FD08C0EE
:100B3000D8019C964D925D926D927C929F9709C0D0
:100B400080E090E0A0E8BFEBF80184A795A7A6A7F6
:100B5000B7A7D80116968D919C911797892BB9F458
:100B60002DEC3CEC4CE45DE3C701B6010E94E917B3
:100B700087FF0DC02DEC3CEC4CE45DEBC701B601EA
:100B80000E94381918161CF4F801378226822CEBC3
:100B900034E743E15CE3C501B4010E94E91787FF34
:100BA00011C02FE632E143E05BEBC501B4010E94C6
:100BB000381918163CF4D80198961D921D921D9272
:100BC0001C929B972DEC3CEC4CE45DE3C701B60115
:100BD0000E94E91787FF25C02DEC3CEC4CE45DEB4F
:100BE000C701B6010E9438191816DCF4C1018D58EE
:100BF0009A4083369105A8F4F80186819781892B64
:100C000081F420E030E0A90160A571A582A593A53B
:100C10000E94E917811105C0D80117963C922E92C7
:100C20001697F801A680B780FDEDAF16FAE0BF0673
:100C300090F02DEC3CEC4CEC5DEBC701B6010E9452
:100C4000E91787FF08C081E0A81AB108D8011796F4
:100C5000BC92AE9216972DEC3CEC4CEC5CEBC701D1
:100C6000B6010E943819181614F5F80180A491A451
:100C7000A2A4B3A420E030E0A901C501B4010E9400
:100C8000E91787FF14C02AE939E949E850E4C501AA
:100C9000B4010E943C19D80198966D937D938D9371
:100CA0009C939B97F80114A615A616A617A6D80123
:100CB00098968D909D90AD90BC909B972AE939E9CC
:100CC00049E95FE3C701B6010E943C192B013C01D1
:100CD000A501940169817A818B819C810E943C19D4
:100CE0009B01AC01C301B2010E948417F80124A545
:100CF00035A546A557A50E9485172B013C01D801B3
:100D000018966D937D938D939C931B972DEC3CECE3
:100D10004CE45DE3C701B6010E94E91787FF05C0F7
:100D200080E090E0A0E8BFEB18C02DEC3CEC4CE478
:100D30005EE3C701B6010E9438191816A4F42DEC21
:100D40003CEC4CEC5DE3C301B2010E94381918166B
:100D500054F480E090E0A0E0B0E4F801808791874F
:100D6000A287B3876EC020E030E040E251E4C301C7
:100D7000B2010E9438191816E4F420E030E0A9010D
:100D8000C501B4010E94E91787FF13C020E030E0DD
:100D9000A901C701B6010E943819181654F4F0EFE2
:100DA0002F16FAE03F0670F480E090E0A0E2B1E494
:100DB000D4CF20E030E0A901C701B6010E94381964
:100DC00018167CF420E030E040E450E4C301B201A6
:100DD0000E94381918162CF480E090E0A0E4B0E4EA
:100DE000BCCF2DEC3CEC4CEC5DE3C301B2010E94A6
:100DF000381918167CF420E030E040E85FE3C301C6
:100E0000B2010E94E91718162CF080E090E0A0E8EB
:100E1000BFE3A3CF20E030E040E85FEBC301B201C5
:100E20000E94E91787FF06C0F1EA2F16FAE03F0695
:100E300008F076CFD80118961D921D921D921C9233
:100E40001B97B10180E090E00E948618F801208590
:100E50003185428553850E9485170E945A185B018F
:100E60002AE939E949E95EE36D817E818F819885C0
:100E70000E94E91787FF06C0F4ECAF16F9E0BF0641
:100E800008F468C089E6A8168AE0B80608F467C0C6
:100E900020E030E0A901C701B6010E9438191816F8
:100EA00034F498ECA9169AE0B90608F45DC02DEC6C
:100EB0003CEC4CEC5DE3C701B6010E94E91787FFEB
:100EC0000EC0D80116968D919C911797009789F0C6
:100ED0009C012E5F3F4F2A153B05A8F00AC02DEC60
:100EE0003CEC4CEC5DE3C701B6010E94E91787FFBB
:100EF0000BC0B5E0AB16BBE0BB0678F044E0A42E17
:100F00004BE0B42E0AC05C01E6E4AE16EBE0BE0690
:100F100020F035E4A32E3BE0B32EB092A704A092BC
:100F2000A60428960FB6F894DEBF0FBECDBFDF91A2
:100F3000CF911F910F91FF90EF90DF90CF90BF90D6
:100F4000AF909F908F907F906F905F904F903F9069
:100F50002F90089524ECA22E29E0B22EDECF99E640
:100F6000A92E9AE0B92ED9CF88ECA82E8AE0B82E07
:100F7000D4CF2F923F924F925F926F927F928F9237
:100F80009F92AF92BF92CF92DF92EF92FF920F9318
:100F90001F93CF93DF9300D000D0CDB7DEB71C01F5
:100FA0004A015B01890120E030EC49E754ECFC0187
:100FB00060A171A182A193A10E94E917F80146A046
:100FC00057A060A471A4811105C0F10140A251A2F3
:100FD00062A273A2F10122813381448155816AE0CA
:100FE00077ED83E29CE30E94ED176B017C01F10138
:100FF00064877587868797870091A8041091A90454
:10100000A5019401C301B2010E9484174B015C0148
:10101000F101648B758B868B978B20A131A142A146
:1010200053A1C301B2010E9484172B013C01F101BD
:1010300060A771A782A793A7B80180E090E00E9403
:10104000861869837A838B839C8323E333E343E3AA
:101050005FE3C501B4010E943C199B01AC016981A9
:101060007A818B819C810E9485174B015C01A301D1
:101070009201C701B6010E943C199B01AC01C50158
:10108000B4010E9484170E945A186832FAE07F0760
:1010900038F06D382AE0720728F06CE87AE002C078
:1010A00068E27AE07093A9046093A8040F900F900F
:1010B0000F900F90DF91CF911F910F91FF90EF90C4
:1010C000DF90CF90BF90AF909F908F907F906F9068
:1010D0005F904F903F902F9008952F923F924F92A4
:1010E0005F926F927F928F929F92AF92BF92CF92B8
:1010F000DF92EF92FF920F931F93CF93DF9300D075
:1011000000D0CDB7DEB71C014A015B01890120E0A8
:1011100030EC49E754ECFC01648D758D868D978D1C
:101120000E94E917F80142A053A064A075A08111A4
:1011300005C0F101448E558E668E778EF1012281B5
:101140003381448155816AE077ED83E29CE30E941C
:10115000ED176B017C01F10164877587868797879E
:101160000091AA041091AB04A5019401C301B2013E
:101170000E9484174B015C01F101648B758B868B97
:10118000978B248D358D468D578DC301B2010E94FA
:1011900084172B013C01F10160A771A782A793A7D7
:1011A000B80180E090E00E94861869837A838B837F
:1011B0009C8323E333E343E35FE3C501B4010E946F
:1011C0003C199B01AC0169817A818B819C810E94D1
:1011D00085174B015C01A3019201C701B6010E9472
:1011E0003C199B01AC01C501B4010E9484170E9407
:1011F0005A186A34FBE07F0738F063372BE0720738
:1012000028F062E77BE002C06AE47BE07093AB0405
:101210006093AA040F900F900F900F90DF91CF91E1
:101220001F910F91FF90EF90DF90CF90BF90AF9004
:101230009F908F907F906F905F904F903F902F90F6
:1012400008952F923F924F925F926F927F928F926A
:101250009F92AF92BF92CF92DF92EF92FF920F9345
:101260001F93CF93DF9300D000D0CDB7DEB71C0122
:101270006A017B01890120E030EC49E754ECFC0174
:1012800064A175A186A197A10E94E917F80142A463
:1012900053A464A475A4811105C0F10144A255A210
:1012A00066A277A2F101228133814481558160E0F9
:1012B00070E0CB010E94ED174B015C01F1016487E6
:1012C0007587868797870091A4041091A504A701CC
:1012D0009601C301B2010E9484176B017C01F101E8
:1012E000648B758B868B978B24A135A146A157A162
:1012F000C301B2010E9484172B013C01F10160A7D8
:1013000071A782A793A72DEC3CEC4CE45DE3C701E9
:10131000B6010E943C1969837A838B839C83A30165
:101320009201C501B4010E943C199B01AC01698185
:101330007A818B819C810E9484174B015C0120E0A3
:1013400030E040E85FE30E94381918162CF480E082
:1013500090E0A0E8BFE314C020E030E040E85FEB9D
:10136000C501B4010E94E91787FD06C0F10180861E
:101370009186A286B38609C080E090E0A0E8BFEB2A
:10138000F10180879187A287B387B80180E090E060
:101390000E948618F10120853185428553850E947F
:1013A00085170E945A188B0120E030E040E251E49A
:1013B000C701B6010E943819181654F420E030E035
:1013C00040E251ECC701B6010E94E91787FD05C054
:1013D0000435FBE01F0758F002C002E71BE0B8012C
:1013E000093B8BE0180728F068EB7BE002C064E55E
:1013F0007BE07093A5046093A4040F900F900F906E
:101400000F90DF91CF911F910F91FF90EF90DF90A0
:10141000CF90BF90AF909F908F907F906F905F9094
:101420004F903F902F9008950895FC01DB015E9648
:101430004D915D916D917C919197408F518F628F0D
:10144000738F96964D915D916D917C91999740A384
:1014500051A362A373A392964D915D916D917C917E
:101460009597448F558F668F778F9A964D915D91A2
:101470006D917C919D9744A355A366A377A386B5F0
:1014800090E09183808310928C0410928B040895D5
:101490001092B90080E28093B80084E08093BC0091
:1014A000089584EA8093BC0080E08F5F893229F040
:1014B0009091BC0097FFF9CF02C088EC0895883264
:1014C000E0F78091B900887F089584E98093BC009B
:1014D0008091B900887F08958093BB0084E8809351
:1014E000BC008091BC0087FFFCCF8091B900887F51
:1014F000089584EC8093BC008091BC0087FFFCCFF2
:101500008091BB00089584E88093BC008091BC006A
:1015100087FFFCCF8091BB000895CF93DF93EC0150
:1015200082599F4F0E945304CE0182569F4F0E94C2
:101530004012CE018F509F4F0E94D51085E08883C6
:1015400019821B821A821C821D821E821F821886AB
:1015500019861A861B861C861D861E861F86188A7B
:10156000198A1A8A1B8A84E090E09D8B8C8B80E01C
:1015700090E0A0E0BFE38E8B9F8BA88FB98F82E4B1
:101580009EE6A7EAB2EC8A8F9B8FAC8FBD8F41E0BD
:101590005BE269E272E44E8F5F8F68A379A340E05B
:1015A00050E060E071E44AA35BA36CA37DA3FE015D
:1015B000E65BFF4F82E090E091838083FE01E45B75
:1015C000FF4F1082118212821382FE01E05BFF4FF7
:1015D0001082118212821382FE01EC5AFF4F108298
:1015E000118212821382FE01E85AFF4F108211828B
:1015F00012821382FE01E45AFF4F85E090E091834E
:101600008083FE01E25AFF4F108211821282138200
:10161000FE01EE59FF4F1082118212821382FE01E9
:10162000EA59FF4F1082118212821382FE01E6599D
:10163000FF4F1082118212821382FE01EE50FF4F83
:101640001082FE01ED50FF4F1082FE01EB50FF4F64
:101650001082FE01EA50FF4F1082FE01E950FF4F59
:101660001082FE01EC5EFE4F108211821282138204
:10167000FE01E85EFE4F1082118212821382FE018B
:10168000E45EFE4F1082118212821382FE01E85F37
:10169000FE4F1082118212821382FE01E45FFE4F20
:1016A0001082118212821382FE01E850FF4F1082D5
:1016B000FE01E750FF4F1082FE01E650FF4F1082FF
:1016C000118212821382FE01E05FFE4F10821182AE
:1016D00012821382FE01E250FF4F108211821282A9
:1016E0001382FE01EE5FFE4F11821082FE01EC5F5D
:1016F000FE4F11821082CA5FDE4F19821882DF917D
:10170000CF910895CF93DF93EC018F509F4F0E94AC
:10171000A211FE01EE5BFD4F882319F081E080836A
:1017200001C01082CE0182599F4F0E946904FE01C0
:10173000E55BFD4F40E050EC69E774EC408351837A
:1017400062837383FE01E15BFD4F89E19CEF91832E
:101750008083FE01EB5AFD4F40E05CE36CE176ECE8
:101760004083518362837383FE01EF59FD4F4083B1
:10177000518362837383CB59DD4F488359836A83D6
:101780007B83DF91CF9108954F925F926F927F920A
:10179000AF92BF92CF92DF92EF92FF920F931F937F
:1017A000CF93DF93EC01FC01EE5BFD4F8081811153
:1017B0004DC0CE018F509F4F0E94FC106B017C01E9
:1017C0005E0120EFA21A2EEFB20AF501408051808F
:1017D000628073802DEC3CEC4CE850E4C301B20114
:1017E0000E943819181694F520E030EC49E754ECC3
:1017F000C701B6010E94E917882341F18E01095BF8
:101800001D4F20E030E0A901F801608171818281E3
:1018100093810E94E91781110BC0A3019201C701B6
:10182000B6010E948417F8016083718382839383D9
:10183000F8012081318142815381C701B6010E94A4
:101840008417F50160837183828393835E01F5EBD6
:10185000AF1AFDEFBF0A20E030EC49E754ECF50188
:1018600060817181828193810E94E917811115C085
:10187000FE01E45EFE4FC080D180E280F38020E074
:1018800030E0A901C701B6010E94E917882329F0B9
:10189000F501C082D182E282F3828E0102591F4F8C
:1018A000C8010E9485048091AA049091AB048C32F7
:1018B0009B4040F08091AA049091AB0481399B40F9
:1018C00008F441C08091A8049091A9048A329A40FA
:1018D00038F08091A8049091A9048F389A40E8F1DB
:1018E000F501C080D180E280F38020E030EC49E750
:1018F00054ECC701B6010E94E9178823C1F1809119
:10190000A4049091A5048A329B4088F18091A4049C
:101910009091A50485389B4050F59E012E503F4F75
:10192000B701A601C801DF91CF911F910F91FF90E0
:10193000EF90DF90CF90BF90AF907F906F905F90CF
:101940004F900C9421099E012E503F4F40E050E0F3
:10195000BA01C8010E946D08B5CF9E012E503F4FBD
:1019600040E050E0BA01C8010E94B907B9CFDF9149
:10197000CF911F910F91FF90EF90DF90CF90BF908C
:10198000AF907F906F905F904F9008952F923F920D
:101990004F925F926F927F928F929F92AF92BF927F
:1019A000CF92DF92EF92FF920F931F93CF93DF932B
:1019B00000D000D0CDB7DEB71C01DB011696CD906C
:1019C000DD90ED90FC9019979C01245F3E4FD9016A
:1019D0008D919D910D90BC91A02D89839A83AB83AD
:1019E000BC83FB0182849384A484B584F101E85F05
:1019F000FE4F4080518062807380810107581D4FE7
:101A0000D8016D917D918D919C9120E23EE440E062
:101A100050E00E945C17672B682B692B09F45FC0AC
:101A200029813A814B815C81C701B6010E948417EC
:101A30006B017C0127E137EB41E558E30E9438193F
:101A4000181644F491012E503F4F40E050E060E8FA
:101A50007FEB11C027E137EB41E558EBC701B60139
:101A60000E94E91787FF0CC091012E503F4F40E0C4
:101A700050E060E87FE3C10182599F4F0E946D08EA
:101A8000A3019201C501B4010E9484176B017C017E
:101A900027E137EB41E558E30E943819181644F462
:101AA00091012E503F4F40E050E060E87FE311C0CD
:101AB00027E137EB41E558EBC701B6010E94E91772
:101AC00087FF19C091012E503F4F40E050E060E881
:101AD0007FEBC10182599F4F0E94B9070CC085E678
:101AE0009BE09093AB048093AA048AE59AE09093DC
:101AF000A9048093A804F80180819181A281B38117
:101B00000196A11DB11D80839183A283B3830F90A1
:101B10000F900F900F90DF91CF911F910F91FF9039
:101B2000EF90DF90CF90BF90AF909F908F907F907D
:101B30006F905F904F903F902F9008952F923F921B
:101B40004F925F926F927F928F929F92AF92BF92CD
:101B5000CF92DF92EF92FF920F931F93CF93DF9379
:101B6000CDB7DEB76A970FB6F894DEBF0FBECDBF14
:101B70008C017C0125EBE21A2DEFF20A20E030EC1B
:101B800049E754ECD7016D917D918D919C910E9414
:101B9000E91781110CC0F801E45EFE4F808191814C
:101BA000A281B381F70180839183A283B383F8017B
:101BB000EE5BFD4F8081811151C0C8018F509F4F56
:101BC0000E94FC104B015C011801F0EF2F1AFEEF90
:101BD0003F0AD1014D905D906D907C902DEC3CECD6
:101BE0004CE850E4C301B2010E9438191816B4F54C
:101BF00020E030EC49E754ECC501B4010E94E9173C
:101C0000882361F16801B9EBCB1ABDEFDB0A20E054
:101C100030E0A901F60160817181828193810E9487
:101C2000E91781110CC0A3019201C501B4010E9402
:101C30008417D6016D937D938D939C931397F60132
:101C40002081318142815381C501B4010E948417F2
:101C5000D1016D937D938D939C9313971801BEE6EC
:101C60002B0E311CC1010E948504F801D18082E154
:101C70008D9DE00DF11D11243296DE01119601902B
:101C80000D928A95E1F789819A8198012E503F4FF4
:101C900049018230910509F4EDC02CF4009799F0C8
:101CA0000197E1F0D5C18430910509F4D4C00CF45A
:101CB00073C0059709F0CCC184E398E09093A70422
:101CC0008093A604C5C188E29AE09093A70480930C
:101CD000A604D394D8011196DC92BAC14B815C81E1
:101CE0006D817E81C1010E94C504940140E050E0F5
:101CF000BA01C1010E946D08940140E050E0BA01B0
:101D0000C1010E94B907F701C080D180E280F38051
:101D100020E030EC49E754ECC701B6010E94E91716
:101D2000882331F09401B701A601C1010E94210965
:101D3000F801E05FFE4FC080D180E280F3804B80ED
:101D40005C806D807E8029E23CE54FE85DE3C30165
:101D5000B2010E9484179B01AC01C701B6010E9429
:101D6000381918160CF074C129E23CE54FE85DE320
:101D7000C301B2010E9485179B01AC01C701B601E6
:101D80000E94E91787FF64C1D80111968C911197C1
:101D90008F5F11968C935CC17801B1EBEB1ABDEFAC
:101DA000FB0AF7018081918197FF08C086B590E01A
:101DB0009183808310928E0410928D0426B5A0909A
:101DC0008D04B0908E046FEF70E0D7018D919C91DF
:101DD000681B790B620F711D80E090E00E948618ED
:101DE0002DEB37E346E856E30E943C192B013C01FA
:101DF000B50180E090E00E94861825E831EB45E8C7
:101E00005AE30E943C199B01AC01C301B2010E943C
:101E10008517F801EF5AFD4F6083718382839383A6
:101E20002F85388949895A890E94381987FD0DC044
:101E300089E19CEFF7019183808310928E041092C8
:101E40008D04D394D8011196DC924B815C816D8115
:101E50007E819401E5C0BE016F5F7F4FC8010E9483
:101E6000C60C4B815C816D817E819401C1010E9411
:101E7000C504EEC05801BBEAAB1ABDEFBB0A20E0B7
:101E80003CE34CE156ECF5016081718182819381E4
:101E90000E94E9179801205F3E4F81110AC0F901A5
:101EA00080819181A281B381F50180839183A28396
:101EB000B383D901CD90DD90ED90FC90D5018D914B
:101EC0009D910D90BC91A02D8D8B9E8BAF8BB88F6B
:101ED0009C01AD01C701B6010E9484172B013C0192
:101EE0002DEC3CEC4CEC5DE30E94E91787FF87C0CA
:101EF0002DEC3CEC4CEC5DEBC301B2010E943819B7
:101F000018160CF07CC0F801E15BFD4FFC8BEB8BED
:101F10008081918197FF08C086B590E0918380838E
:101F200010928E0410928D0426B580918D049091AC
:101F30008E049A8F898F6FEF70E0AB89BC898D9189
:101F40009C91681B790B620F711D80E090E00E94EC
:101F500086182DEB37E346E856E30E943C192B0127
:101F60003C01E98DFA8DBF0180E090E00E94861867
:101F700025E831EB45E85AE30E943C199B01AC018E
:101F8000C301B2010E948517F801EF5AFD4F60832B
:101F900071838283938320E030E040E450E40E9428
:101FA000381987FD2CC089E19CEFAB89BC898D93E2
:101FB0009C9310928E0410928D0420E030E0A901D1
:101FC0006D897E898F89988D0E943819181674F44E
:101FD0002DEC3CEC4CE45EE3C701B6010E94841793
:101FE000F501608371838283938309C080E09CE361
:101FF000ACE1B6ECF50180839183A283B383D50174
:10200000CD90DD90ED90FC9020E030E0A901C7017B
:10201000B6010E94381918163CF49401B701A601C4
:10202000C1010E94C50406C08AEC98E09093A70401
:102030008093A604940140E050E0BA01C1010E94DF
:102040006D08940140E050E0BA01C1010E94B90757
:10205000B401C1010E94150A80E06A960FB6F89497
:10206000DEBF0FBECDBFDF91CF911F910F91FF90CB
:10207000EF90DF90CF90BF90AF909F908F907F9028
:102080006F905F904F903F902F900895BC016E50DD
:102090007F4F82569F4F0C942D14FC01E850FF4F48
:1020A00081E09081973008F080E008958F929F92B0
:1020B000AF92BF92CF92DF92EF92FF92CF93DF93D6
:1020C0006A017B01EC01C05FDE4F9A01AB016881C0
:1020D00079818A819B810E9484174B015C0120E0F9
:1020E00030E040E050E40E94E91787FF0EC020E096
:1020F00030E040E050ECC501B4010E9438191816D8
:1021000024F4C882D982EA82FB82DF91CF91FF90CA
:10211000EF90DF90CF90BF90AF909F908F900895F9
:10212000895B9D4FFC0140835183628373830895D3
:102130000895CF92DF92EF92FF92845F9E4FFC0151
:102140002081318142815381FB01668177818085C5
:1021500091850E9484176B017C0120E030E0A90189
:102160000E94381918166CF020E030E0A901C70170
:10217000B6010E94E91787FD09C060E070E0CB015D
:1021800009C060E070E282E395E404C060E070E6BC
:1021900088E395E40E945A187093AB046093AA04F4
:1021A000FF90EF90DF90CF900895089560E070E089
:1021B000CB0108951F93CF93DF931F92CDB7DEB766
:1021C00069830E94510A80EC0E946C0A6981862F03
:1021D0000E946C0A0E94650A0E94510A81EC0E94CA
:1021E0006C0A0E94830A182F0E94650A812F0F90A3
:1021F000DF91CF911F910895CF92DF92EF92FF92DE
:10220000CF937C01C5E660E0C7010E94DA1082FD31
:1022100007C0C150C1F760E070EC89E794EC34C0AE
:102220000E94510A80EC0E946C0A81E00E946C0AB4
:102230000E94510A81EC0E946C0A0E94790AC82E01
:10224000D12CE12CF12CFE2CED2CDC2CCC240E948A
:10225000790AC82AFE2CED2CDC2CCC240E94830A9F
:10226000C82A0E94650AC701B60124E096958795A1
:10227000779567952A95D1F70E94861820E030E07F
:1022800040E85DE30E943C19CF91FF90EF90DF9012
:10229000CF9008951F93CF93DF93EC0115E660E094
:1022A000CE010E94DA1082FD07C01150C1F760E034
:1022B00070EC89E794EC28C00E94510A80EC0E94DF
:1022C0006C0A84E00E946C0A0E94510A81EC0E9410
:1022D0006C0A0E94790A682F70E0D62FCC270E94E2
:1022E000830AC82B0E94650ABE0144E07695679573
:1022F0004A95E1F780E090E00E94861820E030E007
:1023000040E85DE30E943C19DF91CF911F91089551
:10231000CF93DF9300D0CDB7DEB74A8369830E94A5
:10232000510A80EC0E946C0A6981862F0E946C0A17
:102330004A81842F0E946C0A0F900F90DF91CF91F9
:102340000C94650ACF93DF93EC010E94480A0E9427
:10235000510A883C19F10E94650A6CE0CE010E9486
:10236000DA10843CE9F440E066E2CE010E94881174
:1023700048EB66E2CE010E94881147E063E1CE019E
:102380000E94881140E06DE2CE010E94881149EB65
:1023900066E2CE010E94881180E003C081E001C0A6
:1023A00082E0DF91CF910895CF93DF93EC014BEB67
:1023B00066E20E94881149EB66E2CE01DF91CF917F
:1023C0000C948811CF93C62F9C0140E050E084E02C
:1023D000220F331F441F551F8A95D1F760E074E226
:1023E00084EF90E00E945C17215031093093C500C2
:1023F0002093C4008091C2008E608093C2008091BF
:10240000C10088618093C100CC2331F08091C1006C
:10241000806C8093C1007894CF9108959091C00012
:1024200095FFFCCF8093C6001092C404089580915C
:10243000C00087FFFCCF8091C60008951F920F92C5
:102440000FB60F9211248F938091C6008093C6041B
:1024500081E08093C5048F910F900FBE0F901F9065
:1024600018951F920F920FB60F9211248F9381E04F
:102470008093C4048F910F900FBE0F901F901895FA
:10248000FC0110821182128213821482158216823C
:102490001782108611861286138614861586168674
:1024A00017860895089580E090E00895BF92CF9236
:1024B000DF92EF92FF920F931F93CF93DF938B01E5
:1024C000FB0180810E940E12E801C75FDE4F188277
:1024D000F801F1808F2D0E940E12EF2DFF27E7FDEE
:1024E000F0958881E827E55FFE4F80818883F801B9
:1024F000F2808F2D0E940E12EF2DFF27E7FDF09541
:102500008881E827E55FFE4F80818883F801F380AA
:102510008F2D0E940E12EF2DFF27E7FDF095888189
:10252000E827E55FFE4F80818883F801F4808F2DD6
:102530000E940E12EF2DFF27E7FDF0958881E82716
:10254000E55FFE4F80818883F801C480D580E680F6
:10255000F780CD2CDE2CEF2CFF248C2D0E940E1248
:10256000EC2DFF27E7FDF0958881E827E55FFE4F1A
:1025700080818883F801C480D580E680F780670178
:10258000EE24FF248C2D0E940E12EC2DFF27E7FD78
:10259000F0958881E827E55FFE4F80818883F80108
:1025A000C480D580E680F780CF2CDD24EE24FF2484
:1025B0008C2D0E940E12EC2DFF27E7FDF0958881EF
:1025C000E827E55FFE4F80818883F801828193814F
:1025D000099760F48881DF91CF911F910F91FF904F
:1025E000EF90DF90CF90BF900C940E126801FAE04C
:1025F000CF0ED11C76012E2D2C1930E0F8018281EE
:10260000938108972817390728F7F701B1907F01C0
:102610008B2D0E940E12EB2DFF27E7FDF095888190
:10262000E827E55FFE4F80818883E5CFCF93DF9376
:10263000CDB7DEB7CA50D1400FB6F894DEBF0FBE9B
:10264000CDBF2CE329834A8328E030E03C832B83F1
:10265000FB0144815581668177814D835E836F8361
:102660007887BE016F5F7F4F0E945612C65FDE4FB4
:102670000FB6F894DEBF0FBECDBFDF91CF910895A6
:102680000F931F93CF93DF93EA018091C90490E0E9
:102690008730910508F0CBC08C5C9F4FFC010C94F7
:1026A0007E176C3309F0C3C081E08093C90468834E
:1026B00084EB8093C804BBC0A091C804A627B0E0F7
:1026C000A55FBE4F8C918093C804862F887F80328F
:1026D00041F582E08093C90469839FC0A091C8043A
:1026E000A627B0E0A55FBE4F8C918093C80480916F
:1026F000C7048F5F8093C704062F10E0823018F460
:102700001B830A8394C0102F00278A819B81080FA6
:10271000191F1B830A83085011090F3F110521F06F
:1027200018F01092C90483C083E075C0A091C8045A
:10273000A627B0E0A55FBE4F8C918093C80440915E
:10274000C7044F5F4093C704423091F060F44130BA
:1027500009F06DC0062F10E020E030E00C831D83EF
:102760002E833F8364C0433061F04430F1F05FC09A
:10277000062F10E020E030E0322F212F102F00270D
:1027800007C0062F10E020E030E098011127002755
:102790008C819D81AE81BF81800F911FA21FB31FCD
:1027A0008C839D83AE83BF8342C0062F10E020E060
:1027B00030E0302F2227112700278C819D81AE81A8
:1027C000BF81800F911FA21FB31F8C839D83AE8397
:1027D000BF838A819B810897E9F04093C9041DC09B
:1027E000A091C804A627B0E0A55FBE4F8C9180934E
:1027F000C8042091C7042F5F2093C70430E0DA019A
:10280000A20FB31F19966C938A819B810897281792
:10281000390768F086E08093C9041092C70407C0A6
:10282000DA01A75FBE4F6C9387E08093C904809163
:10283000C904873011F080E00BC01092C904909158
:10284000C804DE01A75FBE4F8C919813F4CF8A8134
:10285000DF91CF911F910F910895EF92FF920F9307
:102860001F93CF93DF938C01EB01F0EDEF2EF7E098
:10287000FF2E80E09091C504911104C08F5F8333D7
:1028800071F0F8CF823358F46091C6041092C504F9
:102890004AEC54E0C8010E944013811109C0B1E024
:1028A000EB1AF108E114F10421F780E090E0CCC1CB
:1028B0004091CE045091CF046091D0047091D10426
:1028C000423C8BEF58078CEE68078CE6780709F4DA
:1028D00027C108F04CC04230B9E25B07BEE76B0786
:1028E000BFE27B0709F4BAC008F54430FAE95F0794
:1028F000F7ED6F07FEE07F0709F412C138F44631A7
:102900005A4A67437B4009F40BC192C14E3CB8E47C
:102910005B07B7E56B07BAE17B0709F408C14437E9
:102920005B4E6A477B4109F4FBC082C14E34F8EC30
:102930005F07FCEB6F07F0E47F0709F4F8C038F499
:10294000463E554D6A4D734309F4A0C071C1423EE5
:10295000B5E55B07BCE96B07B6E67B0709F45FC129
:102960004A355B4B6743774609F478C061C14A3BFF
:10297000F4E85F07F5E26F07FEEB7F0709F44FC14C
:1029800008F04CC04E37A2E15A07AAE66A07ABE945
:102990007A0709F4C5C078F54A3051486D427C4841
:1029A00009F046C18091D6049091D704A091D80433
:1029B000B091D9048AAF9BAFACAFBDAFFE01FE961C
:1029C0008091DA049091DB04A091DC04B091DD04E5
:1029D00080839183A283B383CE5BDF4F8091DE043B
:1029E0009091DF04A091E004B091E1048883998381
:1029F000AA83BB831DC14630FEE05F07FCE36F077F
:102A0000FDEA7F0709F467C04A38574F674C784B97
:102A100009F00EC18091EE0488830AC14639A5E30E
:102A20005A07A8E06A07A2ED7A0709F4C7C038F48C
:102A300044355D426F4F754C09F472C0F9C044369D
:102A4000F9ED5F07F0EE6F07F7ED7F07F9F0463B12
:102A50005342634A724E09F46AC0EAC0D8011F9615
:102A6000EC911F97F0E0E653FB4F8285823031F006
:102A7000833041F08111DCC081E005C083E0F801C2
:102A80008087D6C0D80118968C93D2C08091E60476
:102A90009091E704A091E804B091E9048AA39BA374
:102AA000ACA3BDA38091EA049091EB04A091EC0447
:102AB000B091ED048EA39FA3A8A7B9A78091EE04BF
:102AC0009091EF04A091F004B091F1048AA79BA724
:102AD000ACA7BDA7ADC08091D6049091D704A091BA
:102AE000D804B091D9048EA79FA7A8ABB9AB8091A9
:102AF000DA049091DB04A091DC04B091DD048AAB90
:102B00009BABACABBDAB8091DE049091DF04A09198
:102B1000E004B091E1048EAB9FABA8AFB9AF88C021
:102B20008091D6048C838091D7048D8381C060917D
:102B3000D6047091D7048091D8049091D9040E9452
:102B4000881820E836E948E15BE40E94ED176E8BB7
:102B50007F8B888F998F6091DA047091DB0480916C
:102B6000DC049091DD040E94881820E836E948E1F1
:102B70005BE40E94ED176A8F7B8F8C8F9D8F809115
:102B8000FB048E838091FA048F838091E6049091F8
:102B9000E704A091E804B091E90488879987AA879F
:102BA000BB878091EA049091EB04A091EC04B09172
:102BB000ED048C879D87AE87BF873AC020E030E068
:102BC0004AE754E46091D6047091D7048091D80408
:102BD0009091D9040E943C190E945518798B688BFA
:102BE00020E030E048EC52E46091DA047091DB04BC
:102BF0008091DC049091DD040E943C190E945518DC
:102C00007B8B6A8B6091EA047091EB048091EC04F9
:102C10009091ED040E9455187D8B6C8B09C08091BA
:102C20003905888380913A05898380913B058A83A1
:102C30008091CB04823231F443E26AEC74E0C80143
:102C40000E94161381E090E0DF91CF911F910F91C8
:102C5000FF90EF900895A1E0B1E0E6E0F1E040E000
:102C600081E090E05AB1ED019C010C9002C0220F6E
:102C7000331F0A94E2F7209525232AB9443059F0EE
:102C800057B19C01008002C0220F331F0A94E2F763
:102C9000522B57B90AC05AB19C01008002C0220FC2
:102CA000331F0A94E2F7522B5AB95BB111969C017B
:102CB000088002C0220F331F0A94E2F7522B5BB93F
:102CC0004F5F3196453071F6259A809181008A6078
:102CD0008093810084E499E990938900809388002F
:102CE000C0EDD7E0D0938B00C0938A0080916F0035
:102CF000866080936F0085B5836085BD80916E008E
:102D0000816080936E0080916B00816080936B0086
:102D100080916D008C6780936D0080916800856064
:102D20008093680061E080E096E90E94E2118FEFF5
:102D30008093C20486E89BE09093A5048093A4044A
:102D4000D093A704C093A6048CE89AE09093A904BA
:102D50008093A80488EB9BE09093AB048093AA0433
:102D60009093AD048093AC0480E090E020E030E0EC
:102D7000AC01440F551FFA01EC55FB4F6081718186
:102D8000260F371FFA01E656FB4F31832083019649
:102D90008530910569F78EE092E00E94820B78946D
:102DA000C8EBDBE088EEE82E83E0F82E01E010E0CF
:102DB00092E0C92ED12C8EE092E00E9446108091C4
:102DC0000C0290910D0281309105E9F0823091055D
:102DD00089F1892B09F063C0809196049091970442
:102DE000853E9C4020F010930D0200930C028091D0
:102DF0009904882331F08EE092E00E94C40B109277
:102E000099042D9AD8CF8091960490919704843C90
:102E1000994020F410920D0210920C0280919904B6
:102E2000833030F08EE092E00E949E0D1092990463
:102E30002D98C1CFD093A504C093A404F092A70409
:102E4000E092A604D093A904C093A804D093AB0445
:102E5000C093AA04D093AD04C093AC0480919604AF
:102E600090919704853E9C4028F010930D020093AA
:102E70000C02A1CF8091960490919704843C9940D4
:102E800008F099CF8091960490919704893E9340E1
:102E900008F491CF10920D0210920C028CCFD092B8
:102EA0000D02C0920C0287CF8EE092E00C948D0A46
:102EB0008CEA92E00C945212A1E21A2EAA1BBB1BC0
:102EC000FD010DC0AA1FBB1FEE1FFF1FA217B307F6
:102ED000E407F50720F0A21BB30BE40BF50B661F0C
:102EE000771F881F991F1A9469F7609570958095D0
:102EF00090959B01AC01BD01CF010895EE0FFF1F1E
:102F00000590F491E02D09945058BB27AA270ED0C4
:102F100075C166D130F06BD120F031F49F3F11F4D0
:102F20001EF45BC10EF4E095E7FB51C1E92F77D1A8
:102F300080F3BA17620773078407950718F071F4D6
:102F40009EF58FC10EF4E0950B2EBA2FA02D0B012C
:102F5000B90190010C01CA01A0011124FF27591BDE
:102F600099F0593F50F4503E68F11A16F040A22FE4
:102F7000232F342F4427585FF3CF46953795279555
:102F8000A795F0405395C9F77EF41F16BA0B620B54
:102F9000730B840BBAF09150A1F0FF0FBB1F661F9B
:102FA000771F881FC2F70EC0BA0F621F731F841FDE
:102FB00048F4879577956795B795F7959E3F08F004
:102FC000B3CF9395880F08F09927EE0F97958795C3
:102FD0000895D9D008F481E008950CD00FC107D12D
:102FE00040F0FED030F021F45F3F19F0F0C05111F5
:102FF00039C1F3C014D198F39923C9F35523B1F320
:10300000951B550BBB27AA2762177307840738F057
:103010009F5F5F4F220F331F441FAA1FA9F333D0B6
:103020000E2E3AF0E0E830D091505040E695001C6A
:10303000CAF729D0FE2F27D0660F771F881FBB1F26
:10304000261737074807AB07B0E809F0BB0B802D00
:10305000BF01FF2793585F4F2AF09E3F510568F04C
:10306000B6C000C15F3FECF3983EDCF386957795E0
:103070006795B795F7959F5FC9F7880F911D96954E
:10308000879597F90895E1E0660F771F881FBB1FAA
:10309000621773078407BA0720F0621B730B840B57
:1030A000BA0BEE1F88F7E095089504D06894B1112B
:1030B000D9C00895BCD088F09F5790F0B92F9927B8
:1030C000B751A0F0D1F0660F771F881F991F1AF033
:1030D000BA95C9F712C0B13081F0C3D0B1E00895FC
:1030E000C0C0672F782F8827B85F39F0B93FCCF37D
:1030F000869577956795B395D9F73EF49095809529
:10310000709561957F4F8F4F9F4F0895E89409C048
:1031100097FB3EF490958095709561957F4F8F4F0A
:103120009F4F9923A9F0F92F96E9BB279395F69520
:10313000879577956795B795F111F8CFFAF4BB0F9E
:1031400011F460FF1BC06F5F7F4F8F4F9F4F16C002
:10315000882311F096E911C0772321F09EE8872F8C
:10316000762F05C0662371F096E8862F70E060E048
:103170002AF09A95660F771F881FDAF7880F9695C1
:10318000879597F90895990F0008550FAA0BE0E865
:10319000FEEF16161706E807F907C0F01216130619
:1031A000E407F50798F0621B730B840B950B39F459
:1031B0000A2661F0232B242B252B21F408950A26BF
:1031C00009F4A140A6958FEF811D811D089597F9FF
:1031D0009F6780E870E060E008959FEF80EC0895BD
:1031E00000240A94161617061806090608950024E6
:1031F0000A9412161306140605060895092E039460
:10320000000C11F4882352F0BB0F40F4BF2B11F4D3
:1032100060FF04C06F5F7F4F8F4F9F4F089557FD32
:103220009058440F551F59F05F3F71F04795880F34
:1032300097FB991F61F09F3F79F0879508951216CB
:1032400013061406551FF2CF4695F1DF08C0161677
:1032500017061806991FF1CF869571056105089428
:103260000895E894BB2766277727CB0197F908953F
:103270008ADF08F48FEF08950BD0C0CFB1DF28F0BC
:10328000B6DF18F0952309F0A2CFA7CF1124EACF1B
:10329000C6DFA0F3959FD1F3950F50E0551F629FB5
:1032A000F001729FBB27F00DB11D639FAA27F00D9F
:1032B000B11DAA1F649F6627B00DA11D661F829FC6
:1032C0002227B00DA11D621F739FB00DA11D621FAB
:1032D000839FA00D611D221F749F3327A00D611DC8
:1032E000231F849F600D211D822F762F6A2F1124AA
:1032F0009F5750408AF0E1F088234AF0EE0FFF1FFD
:10330000BB1F661F771F881F91505040A9F79E3F33
:10331000510570F05CCFA6CF5F3FECF3983EDCF335
:10332000869577956795B795F795E7959F5FC1F770
:10333000FE2B880F911D9695879597F9089510E0BB
:10334000C8E7D0E004C0FE010E9480172296CA3769
:08335000D107C9F7F894FFCF83
:10335800FF0203040506000102030700070E091C0B
:103368001B1215383F363124232A2D70777E796C4D
:103378006B6265484F464154535A5DE0E7EEE9FCFD
:10338800FBF2F5D8DFD6D1C4C3CACD90979E998CED
:103398008B8285A8AFA6A1B4B3BABDC7C0C9CEDB1E
:1033A800DCD5D2FFF8F1F6E3E4EDEAB7B0B9BEAB8D
:1033B800ACA5A28F88818693949D9A2720292E3BBD
:1033C8003C35321F18111603040D0A5750595E4B2D
:1033D8004C45426F68616673747D7A898E878095E3
:1033E800929B9CB1B6BFB8ADAAA3A4F9FEF7F0E5CD
:1033F800E2EBECC1C6CFC8DDDAD3D4696E6760757D
:10340800727B7C51565F584D4A4344191E1710056C
:10341800020B0C21262F283D3A33344E494047529F
:10342800555C5B7671787F6A6D64633E393037220C
:10343800252C2B0601080F1A1D1413AEA9A0A7B23C
:10344800B5BCBB9691989F8A8D8483DED9D0D7C2AC
:0C345800C5CCCBE6E1E8EFFAFDF4F30090
:00000001FF
